{
  "abi": [
    {
      "inputs": [
        {
          "internalType": "uint256",
          "name": "minimum",
          "type": "uint256"
        }
      ],
      "name": "createCampanha",
      "outputs": [],
      "stateMutability": "nonpayable",
      "type": "function"
    },
    {
      "inputs": [
        {
          "internalType": "uint256",
          "name": "",
          "type": "uint256"
        }
      ],
      "name": "deployedCampaigns",
      "outputs": [
        {
          "internalType": "address",
          "name": "",
          "type": "address"
        }
      ],
      "stateMutability": "view",
      "type": "function"
    },
    {
      "inputs": [],
      "name": "getDeployedCampaigns",
      "outputs": [
        {
          "internalType": "address[]",
          "name": "",
          "type": "address[]"
        }
      ],
      "stateMutability": "view",
      "type": "function"
    }
  ],
  "devdoc": {
    "kind": "dev",
    "methods": {},
    "version": 1
  },
  "evm": {
    "assembly": "    /* \"Campanha.sol\":57:420  contract CampanhaFactory {... */\n  mstore(0x40, 0x80)\n  callvalue\n  dup1\n  iszero\n  tag_1\n  jumpi\n  0x00\n  dup1\n  revert\ntag_1:\n  pop\n  dataSize(sub_0)\n  dup1\n  dataOffset(sub_0)\n  0x00\n  codecopy\n  0x00\n  return\nstop\n\nsub_0: assembly {\n        /* \"Campanha.sol\":57:420  contract CampanhaFactory {... */\n      mstore(0x40, 0x80)\n      callvalue\n      dup1\n      iszero\n      tag_1\n      jumpi\n      0x00\n      dup1\n      revert\n    tag_1:\n      pop\n      jumpi(tag_2, lt(calldatasize, 0x04))\n      shr(0xe0, calldataload(0x00))\n      dup1\n      0x216402ab\n      eq\n      tag_3\n      jumpi\n      dup1\n      0x339d50a5\n      eq\n      tag_4\n      jumpi\n      dup1\n      0x4acb9d4f\n      eq\n      tag_5\n      jumpi\n    tag_2:\n      0x00\n      dup1\n      revert\n        /* \"Campanha.sol\":129:300  function createCampanha(uint minimum) public {... */\n    tag_3:\n      tag_6\n      0x04\n      dup1\n      calldatasize\n      sub\n      dup2\n      add\n      swap1\n      tag_7\n      swap2\n      swap1\n      tag_8\n      jump\t// in\n    tag_7:\n      tag_9\n      jump\t// in\n    tag_6:\n      stop\n        /* \"Campanha.sol\":88:122  address[] public deployedCampaigns */\n    tag_4:\n      tag_10\n      0x04\n      dup1\n      calldatasize\n      sub\n      dup2\n      add\n      swap1\n      tag_11\n      swap2\n      swap1\n      tag_8\n      jump\t// in\n    tag_11:\n      tag_12\n      jump\t// in\n    tag_10:\n      mload(0x40)\n      tag_13\n      swap2\n      swap1\n      tag_14\n      jump\t// in\n    tag_13:\n      mload(0x40)\n      dup1\n      swap2\n      sub\n      swap1\n      return\n        /* \"Campanha.sol\":306:418  function getDeployedCampaigns() public view returns (address[] memory) {... */\n    tag_5:\n      tag_15\n      tag_16\n      jump\t// in\n    tag_15:\n      mload(0x40)\n      tag_17\n      swap2\n      swap1\n      tag_18\n      jump\t// in\n    tag_17:\n      mload(0x40)\n      dup1\n      swap2\n      sub\n      swap1\n      return\n        /* \"Campanha.sol\":129:300  function createCampanha(uint minimum) public {... */\n    tag_9:\n        /* \"Campanha.sol\":184:203  address newCampaign */\n      0x00\n        /* \"Campanha.sol\":227:234  minimum */\n      dup2\n        /* \"Campanha.sol\":236:246  msg.sender */\n      caller\n        /* \"Campanha.sol\":214:247  new Campanha(minimum, msg.sender) */\n      mload(0x40)\n      tag_20\n      swap1\n      tag_21\n      jump\t// in\n    tag_20:\n      tag_22\n      swap3\n      swap2\n      swap1\n      tag_23\n      jump\t// in\n    tag_22:\n      mload(0x40)\n      dup1\n      swap2\n      sub\n      swap1\n      0x00\n      create\n      dup1\n      iszero\n      dup1\n      iszero\n      tag_24\n      jumpi\n      returndatasize\n      0x00\n      dup1\n      returndatacopy\n      revert(0x00, returndatasize)\n    tag_24:\n      pop\n        /* \"Campanha.sol\":184:248  address newCampaign = address(new Campanha(minimum, msg.sender)) */\n      swap1\n      pop\n        /* \"Campanha.sol\":258:275  deployedCampaigns */\n      0x00\n        /* \"Campanha.sol\":281:292  newCampaign */\n      dup2\n        /* \"Campanha.sol\":258:293  deployedCampaigns.push(newCampaign) */\n      swap1\n      dup1\n      0x01\n      dup2\n      sload\n      add\n      dup1\n      dup3\n      sstore\n      dup1\n      swap2\n      pop\n      pop\n      0x01\n      swap1\n      sub\n      swap1\n      0x00\n      mstore\n      keccak256(0x00, 0x20)\n      add\n      0x00\n      swap1\n      swap2\n      swap1\n      swap2\n      swap1\n      swap2\n      0x0100\n      exp\n      dup2\n      sload\n      dup2\n      0xffffffffffffffffffffffffffffffffffffffff\n      mul\n      not\n      and\n      swap1\n      dup4\n      0xffffffffffffffffffffffffffffffffffffffff\n      and\n      mul\n      or\n      swap1\n      sstore\n      pop\n        /* \"Campanha.sol\":174:300  {... */\n      pop\n        /* \"Campanha.sol\":129:300  function createCampanha(uint minimum) public {... */\n      pop\n      jump\t// out\n        /* \"Campanha.sol\":88:122  address[] public deployedCampaigns */\n    tag_12:\n      0x00\n      dup2\n      dup2\n      sload\n      dup2\n      lt\n      tag_26\n      jumpi\n      0x00\n      dup1\n      revert\n    tag_26:\n      swap1\n      0x00\n      mstore\n      keccak256(0x00, 0x20)\n      add\n      0x00\n      swap2\n      pop\n      sload\n      swap1\n      0x0100\n      exp\n      swap1\n      div\n      0xffffffffffffffffffffffffffffffffffffffff\n      and\n      dup2\n      jump\t// out\n        /* \"Campanha.sol\":306:418  function getDeployedCampaigns() public view returns (address[] memory) {... */\n    tag_16:\n        /* \"Campanha.sol\":359:375  address[] memory */\n      0x60\n        /* \"Campanha.sol\":394:411  deployedCampaigns */\n      0x00\n        /* \"Campanha.sol\":387:411  return deployedCampaigns */\n      dup1\n      sload\n      dup1\n      0x20\n      mul\n      0x20\n      add\n      mload(0x40)\n      swap1\n      dup2\n      add\n      0x40\n      mstore\n      dup1\n      swap3\n      swap2\n      swap1\n      dup2\n      dup2\n      mstore\n      0x20\n      add\n      dup3\n      dup1\n      sload\n      dup1\n      iszero\n      tag_29\n      jumpi\n      0x20\n      mul\n      dup3\n      add\n      swap2\n      swap1\n      0x00\n      mstore\n      keccak256(0x00, 0x20)\n      swap1\n    tag_30:\n      dup2\n      0x00\n      swap1\n      sload\n      swap1\n      0x0100\n      exp\n      swap1\n      div\n      0xffffffffffffffffffffffffffffffffffffffff\n      and\n      0xffffffffffffffffffffffffffffffffffffffff\n      and\n      dup2\n      mstore\n      0x20\n      add\n      swap1\n      0x01\n      add\n      swap1\n      dup1\n      dup4\n      gt\n      tag_30\n      jumpi\n    tag_29:\n      pop\n      pop\n      pop\n      pop\n      pop\n      swap1\n      pop\n        /* \"Campanha.sol\":306:418  function getDeployedCampaigns() public view returns (address[] memory) {... */\n      swap1\n      jump\t// out\n    tag_21:\n      dataSize(sub_0)\n      dup1\n      dataOffset(sub_0)\n      dup4\n      codecopy\n      add\n      swap1\n      jump\t// out\n        /* \"#utility.yul\":88:205   */\n    tag_32:\n        /* \"#utility.yul\":197:198   */\n      0x00\n        /* \"#utility.yul\":194:195   */\n      dup1\n        /* \"#utility.yul\":187:199   */\n      revert\n        /* \"#utility.yul\":334:411   */\n    tag_34:\n        /* \"#utility.yul\":371:378   */\n      0x00\n        /* \"#utility.yul\":400:405   */\n      dup2\n        /* \"#utility.yul\":389:405   */\n      swap1\n      pop\n        /* \"#utility.yul\":334:411   */\n      swap2\n      swap1\n      pop\n      jump\t// out\n        /* \"#utility.yul\":417:539   */\n    tag_35:\n        /* \"#utility.yul\":490:514   */\n      tag_54\n        /* \"#utility.yul\":508:513   */\n      dup2\n        /* \"#utility.yul\":490:514   */\n      tag_34\n      jump\t// in\n    tag_54:\n        /* \"#utility.yul\":483:488   */\n      dup2\n        /* \"#utility.yul\":480:515   */\n      eq\n        /* \"#utility.yul\":470:533   */\n      tag_55\n      jumpi\n        /* \"#utility.yul\":529:530   */\n      0x00\n        /* \"#utility.yul\":526:527   */\n      dup1\n        /* \"#utility.yul\":519:531   */\n      revert\n        /* \"#utility.yul\":470:533   */\n    tag_55:\n        /* \"#utility.yul\":417:539   */\n      pop\n      jump\t// out\n        /* \"#utility.yul\":545:684   */\n    tag_36:\n        /* \"#utility.yul\":591:596   */\n      0x00\n        /* \"#utility.yul\":629:635   */\n      dup2\n        /* \"#utility.yul\":616:636   */\n      calldataload\n        /* \"#utility.yul\":607:636   */\n      swap1\n      pop\n        /* \"#utility.yul\":645:678   */\n      tag_57\n        /* \"#utility.yul\":672:677   */\n      dup2\n        /* \"#utility.yul\":645:678   */\n      tag_35\n      jump\t// in\n    tag_57:\n        /* \"#utility.yul\":545:684   */\n      swap3\n      swap2\n      pop\n      pop\n      jump\t// out\n        /* \"#utility.yul\":690:1019   */\n    tag_8:\n        /* \"#utility.yul\":749:755   */\n      0x00\n        /* \"#utility.yul\":798:800   */\n      0x20\n        /* \"#utility.yul\":786:795   */\n      dup3\n        /* \"#utility.yul\":777:784   */\n      dup5\n        /* \"#utility.yul\":773:796   */\n      sub\n        /* \"#utility.yul\":769:801   */\n      slt\n        /* \"#utility.yul\":766:885   */\n      iszero\n      tag_59\n      jumpi\n        /* \"#utility.yul\":804:883   */\n      tag_60\n      tag_32\n      jump\t// in\n    tag_60:\n        /* \"#utility.yul\":766:885   */\n    tag_59:\n        /* \"#utility.yul\":924:925   */\n      0x00\n        /* \"#utility.yul\":949:1002   */\n      tag_61\n        /* \"#utility.yul\":994:1001   */\n      dup5\n        /* \"#utility.yul\":985:991   */\n      dup3\n        /* \"#utility.yul\":974:983   */\n      dup6\n        /* \"#utility.yul\":970:992   */\n      add\n        /* \"#utility.yul\":949:1002   */\n      tag_36\n      jump\t// in\n    tag_61:\n        /* \"#utility.yul\":939:1002   */\n      swap2\n      pop\n        /* \"#utility.yul\":895:1012   */\n      pop\n        /* \"#utility.yul\":690:1019   */\n      swap3\n      swap2\n      pop\n      pop\n      jump\t// out\n        /* \"#utility.yul\":1025:1151   */\n    tag_37:\n        /* \"#utility.yul\":1062:1069   */\n      0x00\n        /* \"#utility.yul\":1102:1144   */\n      0xffffffffffffffffffffffffffffffffffffffff\n        /* \"#utility.yul\":1095:1100   */\n      dup3\n        /* \"#utility.yul\":1091:1145   */\n      and\n        /* \"#utility.yul\":1080:1145   */\n      swap1\n      pop\n        /* \"#utility.yul\":1025:1151   */\n      swap2\n      swap1\n      pop\n      jump\t// out\n        /* \"#utility.yul\":1157:1253   */\n    tag_38:\n        /* \"#utility.yul\":1194:1201   */\n      0x00\n        /* \"#utility.yul\":1223:1247   */\n      tag_64\n        /* \"#utility.yul\":1241:1246   */\n      dup3\n        /* \"#utility.yul\":1223:1247   */\n      tag_37\n      jump\t// in\n    tag_64:\n        /* \"#utility.yul\":1212:1247   */\n      swap1\n      pop\n        /* \"#utility.yul\":1157:1253   */\n      swap2\n      swap1\n      pop\n      jump\t// out\n        /* \"#utility.yul\":1259:1377   */\n    tag_39:\n        /* \"#utility.yul\":1346:1370   */\n      tag_66\n        /* \"#utility.yul\":1364:1369   */\n      dup2\n        /* \"#utility.yul\":1346:1370   */\n      tag_38\n      jump\t// in\n    tag_66:\n        /* \"#utility.yul\":1341:1344   */\n      dup3\n        /* \"#utility.yul\":1334:1371   */\n      mstore\n        /* \"#utility.yul\":1259:1377   */\n      pop\n      pop\n      jump\t// out\n        /* \"#utility.yul\":1383:1605   */\n    tag_14:\n        /* \"#utility.yul\":1476:1480   */\n      0x00\n        /* \"#utility.yul\":1514:1516   */\n      0x20\n        /* \"#utility.yul\":1503:1512   */\n      dup3\n        /* \"#utility.yul\":1499:1517   */\n      add\n        /* \"#utility.yul\":1491:1517   */\n      swap1\n      pop\n        /* \"#utility.yul\":1527:1598   */\n      tag_68\n        /* \"#utility.yul\":1595:1596   */\n      0x00\n        /* \"#utility.yul\":1584:1593   */\n      dup4\n        /* \"#utility.yul\":1580:1597   */\n      add\n        /* \"#utility.yul\":1571:1577   */\n      dup5\n        /* \"#utility.yul\":1527:1598   */\n      tag_39\n      jump\t// in\n    tag_68:\n        /* \"#utility.yul\":1383:1605   */\n      swap3\n      swap2\n      pop\n      pop\n      jump\t// out\n        /* \"#utility.yul\":1611:1725   */\n    tag_40:\n        /* \"#utility.yul\":1678:1684   */\n      0x00\n        /* \"#utility.yul\":1712:1717   */\n      dup2\n        /* \"#utility.yul\":1706:1718   */\n      mload\n        /* \"#utility.yul\":1696:1718   */\n      swap1\n      pop\n        /* \"#utility.yul\":1611:1725   */\n      swap2\n      swap1\n      pop\n      jump\t// out\n        /* \"#utility.yul\":1731:1915   */\n    tag_41:\n        /* \"#utility.yul\":1830:1841   */\n      0x00\n        /* \"#utility.yul\":1864:1870   */\n      dup3\n        /* \"#utility.yul\":1859:1862   */\n      dup3\n        /* \"#utility.yul\":1852:1871   */\n      mstore\n        /* \"#utility.yul\":1904:1908   */\n      0x20\n        /* \"#utility.yul\":1899:1902   */\n      dup3\n        /* \"#utility.yul\":1895:1909   */\n      add\n        /* \"#utility.yul\":1880:1909   */\n      swap1\n      pop\n        /* \"#utility.yul\":1731:1915   */\n      swap3\n      swap2\n      pop\n      pop\n      jump\t// out\n        /* \"#utility.yul\":1921:2053   */\n    tag_42:\n        /* \"#utility.yul\":1988:1992   */\n      0x00\n        /* \"#utility.yul\":2011:2014   */\n      dup2\n        /* \"#utility.yul\":2003:2014   */\n      swap1\n      pop\n        /* \"#utility.yul\":2041:2045   */\n      0x20\n        /* \"#utility.yul\":2036:2039   */\n      dup3\n        /* \"#utility.yul\":2032:2046   */\n      add\n        /* \"#utility.yul\":2024:2046   */\n      swap1\n      pop\n        /* \"#utility.yul\":1921:2053   */\n      swap2\n      swap1\n      pop\n      jump\t// out\n        /* \"#utility.yul\":2059:2167   */\n    tag_43:\n        /* \"#utility.yul\":2136:2160   */\n      tag_73\n        /* \"#utility.yul\":2154:2159   */\n      dup2\n        /* \"#utility.yul\":2136:2160   */\n      tag_38\n      jump\t// in\n    tag_73:\n        /* \"#utility.yul\":2131:2134   */\n      dup3\n        /* \"#utility.yul\":2124:2161   */\n      mstore\n        /* \"#utility.yul\":2059:2167   */\n      pop\n      pop\n      jump\t// out\n        /* \"#utility.yul\":2173:2352   */\n    tag_44:\n        /* \"#utility.yul\":2242:2252   */\n      0x00\n        /* \"#utility.yul\":2263:2309   */\n      tag_75\n        /* \"#utility.yul\":2305:2308   */\n      dup4\n        /* \"#utility.yul\":2297:2303   */\n      dup4\n        /* \"#utility.yul\":2263:2309   */\n      tag_43\n      jump\t// in\n    tag_75:\n        /* \"#utility.yul\":2341:2345   */\n      0x20\n        /* \"#utility.yul\":2336:2339   */\n      dup4\n        /* \"#utility.yul\":2332:2346   */\n      add\n        /* \"#utility.yul\":2318:2346   */\n      swap1\n      pop\n        /* \"#utility.yul\":2173:2352   */\n      swap3\n      swap2\n      pop\n      pop\n      jump\t// out\n        /* \"#utility.yul\":2358:2471   */\n    tag_45:\n        /* \"#utility.yul\":2428:2432   */\n      0x00\n        /* \"#utility.yul\":2460:2464   */\n      0x20\n        /* \"#utility.yul\":2455:2458   */\n      dup3\n        /* \"#utility.yul\":2451:2465   */\n      add\n        /* \"#utility.yul\":2443:2465   */\n      swap1\n      pop\n        /* \"#utility.yul\":2358:2471   */\n      swap2\n      swap1\n      pop\n      jump\t// out\n        /* \"#utility.yul\":2507:3239   */\n    tag_46:\n        /* \"#utility.yul\":2626:2629   */\n      0x00\n        /* \"#utility.yul\":2655:2709   */\n      tag_78\n        /* \"#utility.yul\":2703:2708   */\n      dup3\n        /* \"#utility.yul\":2655:2709   */\n      tag_40\n      jump\t// in\n    tag_78:\n        /* \"#utility.yul\":2725:2811   */\n      tag_79\n        /* \"#utility.yul\":2804:2810   */\n      dup2\n        /* \"#utility.yul\":2799:2802   */\n      dup6\n        /* \"#utility.yul\":2725:2811   */\n      tag_41\n      jump\t// in\n    tag_79:\n        /* \"#utility.yul\":2718:2811   */\n      swap4\n      pop\n        /* \"#utility.yul\":2835:2891   */\n      tag_80\n        /* \"#utility.yul\":2885:2890   */\n      dup4\n        /* \"#utility.yul\":2835:2891   */\n      tag_42\n      jump\t// in\n    tag_80:\n        /* \"#utility.yul\":2914:2921   */\n      dup1\n        /* \"#utility.yul\":2945:2946   */\n      0x00\n        /* \"#utility.yul\":2930:3214   */\n    tag_81:\n        /* \"#utility.yul\":2955:2961   */\n      dup4\n        /* \"#utility.yul\":2952:2953   */\n      dup2\n        /* \"#utility.yul\":2949:2962   */\n      lt\n        /* \"#utility.yul\":2930:3214   */\n      iszero\n      tag_83\n      jumpi\n        /* \"#utility.yul\":3031:3037   */\n      dup2\n        /* \"#utility.yul\":3025:3038   */\n      mload\n        /* \"#utility.yul\":3058:3121   */\n      tag_84\n        /* \"#utility.yul\":3117:3120   */\n      dup9\n        /* \"#utility.yul\":3102:3115   */\n      dup3\n        /* \"#utility.yul\":3058:3121   */\n      tag_44\n      jump\t// in\n    tag_84:\n        /* \"#utility.yul\":3051:3121   */\n      swap8\n      pop\n        /* \"#utility.yul\":3144:3204   */\n      tag_85\n        /* \"#utility.yul\":3197:3203   */\n      dup4\n        /* \"#utility.yul\":3144:3204   */\n      tag_45\n      jump\t// in\n    tag_85:\n        /* \"#utility.yul\":3134:3204   */\n      swap3\n      pop\n        /* \"#utility.yul\":2990:3214   */\n      pop\n        /* \"#utility.yul\":2977:2978   */\n      0x01\n        /* \"#utility.yul\":2974:2975   */\n      dup2\n        /* \"#utility.yul\":2970:2979   */\n      add\n        /* \"#utility.yul\":2965:2979   */\n      swap1\n      pop\n        /* \"#utility.yul\":2930:3214   */\n      jump(tag_81)\n    tag_83:\n        /* \"#utility.yul\":2934:2948   */\n      pop\n        /* \"#utility.yul\":3230:3233   */\n      dup6\n        /* \"#utility.yul\":3223:3233   */\n      swap4\n      pop\n        /* \"#utility.yul\":2631:3239   */\n      pop\n      pop\n      pop\n        /* \"#utility.yul\":2507:3239   */\n      swap3\n      swap2\n      pop\n      pop\n      jump\t// out\n        /* \"#utility.yul\":3245:3618   */\n    tag_18:\n        /* \"#utility.yul\":3388:3392   */\n      0x00\n        /* \"#utility.yul\":3426:3428   */\n      0x20\n        /* \"#utility.yul\":3415:3424   */\n      dup3\n        /* \"#utility.yul\":3411:3429   */\n      add\n        /* \"#utility.yul\":3403:3429   */\n      swap1\n      pop\n        /* \"#utility.yul\":3475:3484   */\n      dup2\n        /* \"#utility.yul\":3469:3473   */\n      dup2\n        /* \"#utility.yul\":3465:3485   */\n      sub\n        /* \"#utility.yul\":3461:3462   */\n      0x00\n        /* \"#utility.yul\":3450:3459   */\n      dup4\n        /* \"#utility.yul\":3446:3463   */\n      add\n        /* \"#utility.yul\":3439:3486   */\n      mstore\n        /* \"#utility.yul\":3503:3611   */\n      tag_87\n        /* \"#utility.yul\":3606:3610   */\n      dup2\n        /* \"#utility.yul\":3597:3603   */\n      dup5\n        /* \"#utility.yul\":3503:3611   */\n      tag_46\n      jump\t// in\n    tag_87:\n        /* \"#utility.yul\":3495:3611   */\n      swap1\n      pop\n        /* \"#utility.yul\":3245:3618   */\n      swap3\n      swap2\n      pop\n      pop\n      jump\t// out\n        /* \"#utility.yul\":3624:3742   */\n    tag_47:\n        /* \"#utility.yul\":3711:3735   */\n      tag_89\n        /* \"#utility.yul\":3729:3734   */\n      dup2\n        /* \"#utility.yul\":3711:3735   */\n      tag_34\n      jump\t// in\n    tag_89:\n        /* \"#utility.yul\":3706:3709   */\n      dup3\n        /* \"#utility.yul\":3699:3736   */\n      mstore\n        /* \"#utility.yul\":3624:3742   */\n      pop\n      pop\n      jump\t// out\n        /* \"#utility.yul\":3748:4080   */\n    tag_23:\n        /* \"#utility.yul\":3869:3873   */\n      0x00\n        /* \"#utility.yul\":3907:3909   */\n      0x40\n        /* \"#utility.yul\":3896:3905   */\n      dup3\n        /* \"#utility.yul\":3892:3910   */\n      add\n        /* \"#utility.yul\":3884:3910   */\n      swap1\n      pop\n        /* \"#utility.yul\":3920:3991   */\n      tag_91\n        /* \"#utility.yul\":3988:3989   */\n      0x00\n        /* \"#utility.yul\":3977:3986   */\n      dup4\n        /* \"#utility.yul\":3973:3990   */\n      add\n        /* \"#utility.yul\":3964:3970   */\n      dup6\n        /* \"#utility.yul\":3920:3991   */\n      tag_47\n      jump\t// in\n    tag_91:\n        /* \"#utility.yul\":4001:4073   */\n      tag_92\n        /* \"#utility.yul\":4069:4071   */\n      0x20\n        /* \"#utility.yul\":4058:4067   */\n      dup4\n        /* \"#utility.yul\":4054:4072   */\n      add\n        /* \"#utility.yul\":4045:4051   */\n      dup5\n        /* \"#utility.yul\":4001:4073   */\n      tag_39\n      jump\t// in\n    tag_92:\n        /* \"#utility.yul\":3748:4080   */\n      swap4\n      swap3\n      pop\n      pop\n      pop\n      jump\t// out\n    stop\n\n    sub_0: assembly {\n            /* \"Campanha.sol\":422:2189  contract Campanha {... */\n          mstore(0x40, 0x80)\n            /* \"Campanha.sol\":909:1025  constructor(uint minimum, address creator) {... */\n          callvalue\n          dup1\n          iszero\n          tag_1\n          jumpi\n          0x00\n          dup1\n          revert\n        tag_1:\n          pop\n          mload(0x40)\n          sub(codesize, bytecodeSize)\n          dup1\n          bytecodeSize\n          dup4\n          codecopy\n          dup2\n          dup2\n          add\n          0x40\n          mstore\n          dup2\n          add\n          swap1\n          tag_2\n          swap2\n          swap1\n          tag_3\n          jump\t// in\n        tag_2:\n            /* \"Campanha.sol\":972:979  creator */\n          dup1\n            /* \"Campanha.sol\":962:969  manager */\n          0x01\n          0x00\n            /* \"Campanha.sol\":962:979  manager = creator */\n          0x0100\n          exp\n          dup2\n          sload\n          dup2\n          0xffffffffffffffffffffffffffffffffffffffff\n          mul\n          not\n          and\n          swap1\n          dup4\n          0xffffffffffffffffffffffffffffffffffffffff\n          and\n          mul\n          or\n          swap1\n          sstore\n          pop\n            /* \"Campanha.sol\":1011:1018  minimum */\n          dup2\n            /* \"Campanha.sol\":989:1008  minimumContribution */\n          0x02\n            /* \"Campanha.sol\":989:1018  minimumContribution = minimum */\n          dup2\n          swap1\n          sstore\n          pop\n            /* \"Campanha.sol\":909:1025  constructor(uint minimum, address creator) {... */\n          pop\n          pop\n            /* \"Campanha.sol\":422:2189  contract Campanha {... */\n          jump(tag_6)\n            /* \"#utility.yul\":88:205   */\n        tag_8:\n            /* \"#utility.yul\":197:198   */\n          0x00\n            /* \"#utility.yul\":194:195   */\n          dup1\n            /* \"#utility.yul\":187:199   */\n          revert\n            /* \"#utility.yul\":334:411   */\n        tag_10:\n            /* \"#utility.yul\":371:378   */\n          0x00\n            /* \"#utility.yul\":400:405   */\n          dup2\n            /* \"#utility.yul\":389:405   */\n          swap1\n          pop\n            /* \"#utility.yul\":334:411   */\n          swap2\n          swap1\n          pop\n          jump\t// out\n            /* \"#utility.yul\":417:539   */\n        tag_11:\n            /* \"#utility.yul\":490:514   */\n          tag_23\n            /* \"#utility.yul\":508:513   */\n          dup2\n            /* \"#utility.yul\":490:514   */\n          tag_10\n          jump\t// in\n        tag_23:\n            /* \"#utility.yul\":483:488   */\n          dup2\n            /* \"#utility.yul\":480:515   */\n          eq\n            /* \"#utility.yul\":470:533   */\n          tag_24\n          jumpi\n            /* \"#utility.yul\":529:530   */\n          0x00\n            /* \"#utility.yul\":526:527   */\n          dup1\n            /* \"#utility.yul\":519:531   */\n          revert\n            /* \"#utility.yul\":470:533   */\n        tag_24:\n            /* \"#utility.yul\":417:539   */\n          pop\n          jump\t// out\n            /* \"#utility.yul\":545:688   */\n        tag_12:\n            /* \"#utility.yul\":602:607   */\n          0x00\n            /* \"#utility.yul\":633:639   */\n          dup2\n            /* \"#utility.yul\":627:640   */\n          mload\n            /* \"#utility.yul\":618:640   */\n          swap1\n          pop\n            /* \"#utility.yul\":649:682   */\n          tag_26\n            /* \"#utility.yul\":676:681   */\n          dup2\n            /* \"#utility.yul\":649:682   */\n          tag_11\n          jump\t// in\n        tag_26:\n            /* \"#utility.yul\":545:688   */\n          swap3\n          swap2\n          pop\n          pop\n          jump\t// out\n            /* \"#utility.yul\":694:820   */\n        tag_13:\n            /* \"#utility.yul\":731:738   */\n          0x00\n            /* \"#utility.yul\":771:813   */\n          0xffffffffffffffffffffffffffffffffffffffff\n            /* \"#utility.yul\":764:769   */\n          dup3\n            /* \"#utility.yul\":760:814   */\n          and\n            /* \"#utility.yul\":749:814   */\n          swap1\n          pop\n            /* \"#utility.yul\":694:820   */\n          swap2\n          swap1\n          pop\n          jump\t// out\n            /* \"#utility.yul\":826:922   */\n        tag_14:\n            /* \"#utility.yul\":863:870   */\n          0x00\n            /* \"#utility.yul\":892:916   */\n          tag_29\n            /* \"#utility.yul\":910:915   */\n          dup3\n            /* \"#utility.yul\":892:916   */\n          tag_13\n          jump\t// in\n        tag_29:\n            /* \"#utility.yul\":881:916   */\n          swap1\n          pop\n            /* \"#utility.yul\":826:922   */\n          swap2\n          swap1\n          pop\n          jump\t// out\n            /* \"#utility.yul\":928:1050   */\n        tag_15:\n            /* \"#utility.yul\":1001:1025   */\n          tag_31\n            /* \"#utility.yul\":1019:1024   */\n          dup2\n            /* \"#utility.yul\":1001:1025   */\n          tag_14\n          jump\t// in\n        tag_31:\n            /* \"#utility.yul\":994:999   */\n          dup2\n            /* \"#utility.yul\":991:1026   */\n          eq\n            /* \"#utility.yul\":981:1044   */\n          tag_32\n          jumpi\n            /* \"#utility.yul\":1040:1041   */\n          0x00\n            /* \"#utility.yul\":1037:1038   */\n          dup1\n            /* \"#utility.yul\":1030:1042   */\n          revert\n            /* \"#utility.yul\":981:1044   */\n        tag_32:\n            /* \"#utility.yul\":928:1050   */\n          pop\n          jump\t// out\n            /* \"#utility.yul\":1056:1199   */\n        tag_16:\n            /* \"#utility.yul\":1113:1118   */\n          0x00\n            /* \"#utility.yul\":1144:1150   */\n          dup2\n            /* \"#utility.yul\":1138:1151   */\n          mload\n            /* \"#utility.yul\":1129:1151   */\n          swap1\n          pop\n            /* \"#utility.yul\":1160:1193   */\n          tag_34\n            /* \"#utility.yul\":1187:1192   */\n          dup2\n            /* \"#utility.yul\":1160:1193   */\n          tag_15\n          jump\t// in\n        tag_34:\n            /* \"#utility.yul\":1056:1199   */\n          swap3\n          swap2\n          pop\n          pop\n          jump\t// out\n            /* \"#utility.yul\":1205:1712   */\n        tag_3:\n            /* \"#utility.yul\":1284:1290   */\n          0x00\n            /* \"#utility.yul\":1292:1298   */\n          dup1\n            /* \"#utility.yul\":1341:1343   */\n          0x40\n            /* \"#utility.yul\":1329:1338   */\n          dup4\n            /* \"#utility.yul\":1320:1327   */\n          dup6\n            /* \"#utility.yul\":1316:1339   */\n          sub\n            /* \"#utility.yul\":1312:1344   */\n          slt\n            /* \"#utility.yul\":1309:1428   */\n          iszero\n          tag_36\n          jumpi\n            /* \"#utility.yul\":1347:1426   */\n          tag_37\n          tag_8\n          jump\t// in\n        tag_37:\n            /* \"#utility.yul\":1309:1428   */\n        tag_36:\n            /* \"#utility.yul\":1467:1468   */\n          0x00\n            /* \"#utility.yul\":1492:1556   */\n          tag_38\n            /* \"#utility.yul\":1548:1555   */\n          dup6\n            /* \"#utility.yul\":1539:1545   */\n          dup3\n            /* \"#utility.yul\":1528:1537   */\n          dup7\n            /* \"#utility.yul\":1524:1546   */\n          add\n            /* \"#utility.yul\":1492:1556   */\n          tag_12\n          jump\t// in\n        tag_38:\n            /* \"#utility.yul\":1482:1556   */\n          swap3\n          pop\n            /* \"#utility.yul\":1438:1566   */\n          pop\n            /* \"#utility.yul\":1605:1607   */\n          0x20\n            /* \"#utility.yul\":1631:1695   */\n          tag_39\n            /* \"#utility.yul\":1687:1694   */\n          dup6\n            /* \"#utility.yul\":1678:1684   */\n          dup3\n            /* \"#utility.yul\":1667:1676   */\n          dup7\n            /* \"#utility.yul\":1663:1685   */\n          add\n            /* \"#utility.yul\":1631:1695   */\n          tag_16\n          jump\t// in\n        tag_39:\n            /* \"#utility.yul\":1621:1695   */\n          swap2\n          pop\n            /* \"#utility.yul\":1576:1705   */\n          pop\n            /* \"#utility.yul\":1205:1712   */\n          swap3\n          pop\n          swap3\n          swap1\n          pop\n          jump\t// out\n            /* \"Campanha.sol\":422:2189  contract Campanha {... */\n        tag_6:\n          dataSize(sub_0)\n          dup1\n          dataOffset(sub_0)\n          0x00\n          codecopy\n          0x00\n          return\n        stop\n\n        sub_0: assembly {\n                /* \"Campanha.sol\":422:2189  contract Campanha {... */\n              mstore(0x40, 0x80)\n              jumpi(tag_1, lt(calldatasize, 0x04))\n              shr(0xe0, calldataload(0x00))\n              dup1\n              0x82fde093\n              gt\n              tag_11\n              jumpi\n              dup1\n              0x82fde093\n              eq\n              tag_6\n              jumpi\n              dup1\n              0x8a9cfd55\n              eq\n              tag_7\n              jumpi\n              dup1\n              0x937e09b1\n              eq\n              tag_8\n              jumpi\n              dup1\n              0xd7bb99ba\n              eq\n              tag_9\n              jumpi\n              dup1\n              0xd7d1bbdb\n              eq\n              tag_10\n              jumpi\n              jump(tag_1)\n            tag_11:\n              dup1\n              0x03441006\n              eq\n              tag_2\n              jumpi\n              dup1\n              0x34b66460\n              eq\n              tag_3\n              jumpi\n              dup1\n              0x481c6a75\n              eq\n              tag_4\n              jumpi\n              dup1\n              0x81d12c58\n              eq\n              tag_5\n              jumpi\n            tag_1:\n              0x00\n              dup1\n              revert\n                /* \"Campanha.sol\":1880:2187  function finalizeRequest(uint index) public restricted {... */\n            tag_2:\n              callvalue\n              dup1\n              iszero\n              tag_12\n              jumpi\n              0x00\n              dup1\n              revert\n            tag_12:\n              pop\n              tag_13\n              0x04\n              dup1\n              calldatasize\n              sub\n              dup2\n              add\n              swap1\n              tag_14\n              swap2\n              swap1\n              tag_15\n              jump\t// in\n            tag_14:\n              tag_16\n              jump\t// in\n            tag_13:\n              stop\n                /* \"Campanha.sol\":740:784  mapping(address => bool) public contributers */\n            tag_3:\n              callvalue\n              dup1\n              iszero\n              tag_17\n              jumpi\n              0x00\n              dup1\n              revert\n            tag_17:\n              pop\n              tag_18\n              0x04\n              dup1\n              calldatasize\n              sub\n              dup2\n              add\n              swap1\n              tag_19\n              swap2\n              swap1\n              tag_20\n              jump\t// in\n            tag_19:\n              tag_21\n              jump\t// in\n            tag_18:\n              mload(0x40)\n              tag_22\n              swap2\n              swap1\n              tag_23\n              jump\t// in\n            tag_22:\n              mload(0x40)\n              dup1\n              swap2\n              sub\n              swap1\n              return\n                /* \"Campanha.sol\":675:697  address public manager */\n            tag_4:\n              callvalue\n              dup1\n              iszero\n              tag_24\n              jumpi\n              0x00\n              dup1\n              revert\n            tag_24:\n              pop\n              tag_25\n              tag_26\n              jump\t// in\n            tag_25:\n              mload(0x40)\n              tag_27\n              swap2\n              swap1\n              tag_28\n              jump\t// in\n            tag_27:\n              mload(0x40)\n              dup1\n              swap2\n              sub\n              swap1\n              return\n                /* \"Campanha.sol\":644:669  Request[] public requests */\n            tag_5:\n              callvalue\n              dup1\n              iszero\n              tag_29\n              jumpi\n              0x00\n              dup1\n              revert\n            tag_29:\n              pop\n              tag_30\n              0x04\n              dup1\n              calldatasize\n              sub\n              dup2\n              add\n              swap1\n              tag_31\n              swap2\n              swap1\n              tag_15\n              jump\t// in\n            tag_31:\n              tag_32\n              jump\t// in\n            tag_30:\n              mload(0x40)\n              tag_33\n              swap6\n              swap5\n              swap4\n              swap3\n              swap2\n              swap1\n              tag_34\n              jump\t// in\n            tag_33:\n              mload(0x40)\n              dup1\n              swap2\n              sub\n              swap1\n              return\n                /* \"Campanha.sol\":790:816  uint public approversCount */\n            tag_6:\n              callvalue\n              dup1\n              iszero\n              tag_35\n              jumpi\n              0x00\n              dup1\n              revert\n            tag_35:\n              pop\n              tag_36\n              tag_37\n              jump\t// in\n            tag_36:\n              mload(0x40)\n              tag_38\n              swap2\n              swap1\n              tag_39\n              jump\t// in\n            tag_38:\n              mload(0x40)\n              dup1\n              swap2\n              sub\n              swap1\n              return\n                /* \"Campanha.sol\":1198:1555  function createRequest(... */\n            tag_7:\n              callvalue\n              dup1\n              iszero\n              tag_40\n              jumpi\n              0x00\n              dup1\n              revert\n            tag_40:\n              pop\n              tag_41\n              0x04\n              dup1\n              calldatasize\n              sub\n              dup2\n              add\n              swap1\n              tag_42\n              swap2\n              swap1\n              tag_43\n              jump\t// in\n            tag_42:\n              tag_44\n              jump\t// in\n            tag_41:\n              stop\n                /* \"Campanha.sol\":703:734  uint public minimumContribution */\n            tag_8:\n              callvalue\n              dup1\n              iszero\n              tag_45\n              jumpi\n              0x00\n              dup1\n              revert\n            tag_45:\n              pop\n              tag_46\n              tag_47\n              jump\t// in\n            tag_46:\n              mload(0x40)\n              tag_48\n              swap2\n              swap1\n              tag_39\n              jump\t// in\n            tag_48:\n              mload(0x40)\n              dup1\n              swap2\n              sub\n              swap1\n              return\n                /* \"Campanha.sol\":1031:1192  function contribute() public payable {... */\n            tag_9:\n              tag_49\n              tag_50\n              jump\t// in\n            tag_49:\n              stop\n                /* \"Campanha.sol\":1561:1874  function approveRequest(uint index) public {... */\n            tag_10:\n              callvalue\n              dup1\n              iszero\n              tag_51\n              jumpi\n              0x00\n              dup1\n              revert\n            tag_51:\n              pop\n              tag_52\n              0x04\n              dup1\n              calldatasize\n              sub\n              dup2\n              add\n              swap1\n              tag_53\n              swap2\n              swap1\n              tag_15\n              jump\t// in\n            tag_53:\n              tag_54\n              jump\t// in\n            tag_52:\n              stop\n                /* \"Campanha.sol\":1880:2187  function finalizeRequest(uint index) public restricted {... */\n            tag_16:\n                /* \"Campanha.sol\":877:884  manager */\n              0x01\n              0x00\n              swap1\n              sload\n              swap1\n              0x0100\n              exp\n              swap1\n              div\n              0xffffffffffffffffffffffffffffffffffffffff\n              and\n                /* \"Campanha.sol\":863:884  msg.sender == manager */\n              0xffffffffffffffffffffffffffffffffffffffff\n              and\n                /* \"Campanha.sol\":863:873  msg.sender */\n              caller\n                /* \"Campanha.sol\":863:884  msg.sender == manager */\n              0xffffffffffffffffffffffffffffffffffffffff\n              and\n              eq\n                /* \"Campanha.sol\":855:885  require(msg.sender == manager) */\n              tag_56\n              jumpi\n              0x00\n              dup1\n              revert\n            tag_56:\n                /* \"Campanha.sol\":1945:1968  Request storage request */\n              0x00\n                /* \"Campanha.sol\":1971:1979  requests */\n              dup1\n                /* \"Campanha.sol\":1980:1985  index */\n              dup3\n                /* \"Campanha.sol\":1971:1986  requests[index] */\n              dup2\n              sload\n              dup2\n              lt\n              tag_58\n              jumpi\n              tag_59\n              tag_60\n              jump\t// in\n            tag_59:\n            tag_58:\n              swap1\n              0x00\n              mstore\n              keccak256(0x00, 0x20)\n              swap1\n              0x05\n              mul\n              add\n                /* \"Campanha.sol\":1945:1986  Request storage request = requests[index] */\n              swap1\n              pop\n                /* \"Campanha.sol\":2047:2048  2 */\n              0x02\n                /* \"Campanha.sol\":2030:2044  approversCount */\n              sload(0x04)\n                /* \"Campanha.sol\":2030:2048  approversCount / 2 */\n              tag_62\n              swap2\n              swap1\n              tag_63\n              jump\t// in\n            tag_62:\n                /* \"Campanha.sol\":2005:2012  request */\n              dup2\n                /* \"Campanha.sol\":2005:2026  request.approvalCount */\n              0x04\n              add\n              sload\n                /* \"Campanha.sol\":2005:2049  request.approvalCount > (approversCount / 2) */\n              gt\n                /* \"Campanha.sol\":1997:2050  require(request.approvalCount > (approversCount / 2)) */\n              tag_64\n              jumpi\n              0x00\n              dup1\n              revert\n            tag_64:\n                /* \"Campanha.sol\":2069:2076  request */\n              dup1\n                /* \"Campanha.sol\":2069:2085  request.complete */\n              0x02\n              add\n              0x14\n              swap1\n              sload\n              swap1\n              0x0100\n              exp\n              swap1\n              div\n              0xff\n              and\n                /* \"Campanha.sol\":2068:2085  !request.complete */\n              iszero\n                /* \"Campanha.sol\":2060:2086  require(!request.complete) */\n              tag_65\n              jumpi\n              0x00\n              dup1\n              revert\n            tag_65:\n                /* \"Campanha.sol\":2105:2112  request */\n              dup1\n                /* \"Campanha.sol\":2105:2122  request.recipient */\n              0x02\n              add\n              0x00\n              swap1\n              sload\n              swap1\n              0x0100\n              exp\n              swap1\n              div\n              0xffffffffffffffffffffffffffffffffffffffff\n              and\n                /* \"Campanha.sol\":2097:2132  payable(request.recipient).transfer */\n              0xffffffffffffffffffffffffffffffffffffffff\n              and\n                /* \"Campanha.sol\":2097:2147  payable(request.recipient).transfer(request.value) */\n              0x08fc\n                /* \"Campanha.sol\":2133:2140  request */\n              dup3\n                /* \"Campanha.sol\":2133:2146  request.value */\n              0x01\n              add\n              sload\n                /* \"Campanha.sol\":2097:2147  payable(request.recipient).transfer(request.value) */\n              swap1\n              dup2\n              iszero\n              mul\n              swap1\n              mload(0x40)\n              0x00\n              mload(0x40)\n              dup1\n              dup4\n              sub\n              dup2\n              dup6\n              dup9\n              dup9\n              call\n              swap4\n              pop\n              pop\n              pop\n              pop\n              iszero\n              dup1\n              iszero\n              tag_67\n              jumpi\n              returndatasize\n              0x00\n              dup1\n              returndatacopy\n              revert(0x00, returndatasize)\n            tag_67:\n              pop\n                /* \"Campanha.sol\":2176:2180  true */\n              0x01\n                /* \"Campanha.sol\":2157:2164  request */\n              dup2\n                /* \"Campanha.sol\":2157:2173  request.complete */\n              0x02\n              add\n              0x14\n                /* \"Campanha.sol\":2157:2180  request.complete = true */\n              0x0100\n              exp\n              dup2\n              sload\n              dup2\n              0xff\n              mul\n              not\n              and\n              swap1\n              dup4\n              iszero\n              iszero\n              mul\n              or\n              swap1\n              sstore\n              pop\n                /* \"Campanha.sol\":1935:2187  {... */\n              pop\n                /* \"Campanha.sol\":1880:2187  function finalizeRequest(uint index) public restricted {... */\n              pop\n              jump\t// out\n                /* \"Campanha.sol\":740:784  mapping(address => bool) public contributers */\n            tag_21:\n              mstore(0x20, 0x03)\n              dup1\n              0x00\n              mstore\n              keccak256(0x00, 0x40)\n              0x00\n              swap2\n              pop\n              sload\n              swap1\n              0x0100\n              exp\n              swap1\n              div\n              0xff\n              and\n              dup2\n              jump\t// out\n                /* \"Campanha.sol\":675:697  address public manager */\n            tag_26:\n              0x01\n              0x00\n              swap1\n              sload\n              swap1\n              0x0100\n              exp\n              swap1\n              div\n              0xffffffffffffffffffffffffffffffffffffffff\n              and\n              dup2\n              jump\t// out\n                /* \"Campanha.sol\":644:669  Request[] public requests */\n            tag_32:\n              0x00\n              dup2\n              dup2\n              sload\n              dup2\n              lt\n              tag_68\n              jumpi\n              0x00\n              dup1\n              revert\n            tag_68:\n              swap1\n              0x00\n              mstore\n              keccak256(0x00, 0x20)\n              swap1\n              0x05\n              mul\n              add\n              0x00\n              swap2\n              pop\n              swap1\n              pop\n              dup1\n              0x00\n              add\n              dup1\n              sload\n              tag_70\n              swap1\n              tag_71\n              jump\t// in\n            tag_70:\n              dup1\n              0x1f\n              add\n              0x20\n              dup1\n              swap2\n              div\n              mul\n              0x20\n              add\n              mload(0x40)\n              swap1\n              dup2\n              add\n              0x40\n              mstore\n              dup1\n              swap3\n              swap2\n              swap1\n              dup2\n              dup2\n              mstore\n              0x20\n              add\n              dup3\n              dup1\n              sload\n              tag_72\n              swap1\n              tag_71\n              jump\t// in\n            tag_72:\n              dup1\n              iszero\n              tag_73\n              jumpi\n              dup1\n              0x1f\n              lt\n              tag_74\n              jumpi\n              0x0100\n              dup1\n              dup4\n              sload\n              div\n              mul\n              dup4\n              mstore\n              swap2\n              0x20\n              add\n              swap2\n              jump(tag_73)\n            tag_74:\n              dup3\n              add\n              swap2\n              swap1\n              0x00\n              mstore\n              keccak256(0x00, 0x20)\n              swap1\n            tag_75:\n              dup2\n              sload\n              dup2\n              mstore\n              swap1\n              0x01\n              add\n              swap1\n              0x20\n              add\n              dup1\n              dup4\n              gt\n              tag_75\n              jumpi\n              dup3\n              swap1\n              sub\n              0x1f\n              and\n              dup3\n              add\n              swap2\n            tag_73:\n              pop\n              pop\n              pop\n              pop\n              pop\n              swap1\n              dup1\n              0x01\n              add\n              sload\n              swap1\n              dup1\n              0x02\n              add\n              0x00\n              swap1\n              sload\n              swap1\n              0x0100\n              exp\n              swap1\n              div\n              0xffffffffffffffffffffffffffffffffffffffff\n              and\n              swap1\n              dup1\n              0x02\n              add\n              0x14\n              swap1\n              sload\n              swap1\n              0x0100\n              exp\n              swap1\n              div\n              0xff\n              and\n              swap1\n              dup1\n              0x04\n              add\n              sload\n              swap1\n              pop\n              dup6\n              jump\t// out\n                /* \"Campanha.sol\":790:816  uint public approversCount */\n            tag_37:\n              sload(0x04)\n              dup2\n              jump\t// out\n                /* \"Campanha.sol\":1198:1555  function createRequest(... */\n            tag_44:\n                /* \"Campanha.sol\":877:884  manager */\n              0x01\n              0x00\n              swap1\n              sload\n              swap1\n              0x0100\n              exp\n              swap1\n              div\n              0xffffffffffffffffffffffffffffffffffffffff\n              and\n                /* \"Campanha.sol\":863:884  msg.sender == manager */\n              0xffffffffffffffffffffffffffffffffffffffff\n              and\n                /* \"Campanha.sol\":863:873  msg.sender */\n              caller\n                /* \"Campanha.sol\":863:884  msg.sender == manager */\n              0xffffffffffffffffffffffffffffffffffffffff\n              and\n              eq\n                /* \"Campanha.sol\":855:885  require(msg.sender == manager) */\n              tag_77\n              jumpi\n              0x00\n              dup1\n              revert\n            tag_77:\n                /* \"Campanha.sol\":1322:1348  Request storage newRequest */\n              0x00\n                /* \"Campanha.sol\":1351:1359  requests */\n              dup1\n                /* \"Campanha.sol\":1351:1366  requests.push() */\n              0x01\n              dup2\n              0x01\n              dup2\n              sload\n              add\n              dup1\n              dup3\n              sstore\n              dup1\n              swap2\n              pop\n              pop\n              sub\n              swap1\n              0x00\n              mstore\n              keccak256(0x00, 0x20)\n              swap1\n              0x05\n              mul\n              add\n                /* \"Campanha.sol\":1322:1366  Request storage newRequest = requests.push() */\n              swap1\n              pop\n                /* \"Campanha.sol\":1401:1405  desc */\n              dup4\n                /* \"Campanha.sol\":1376:1386  newRequest */\n              dup2\n                /* \"Campanha.sol\":1376:1398  newRequest.description */\n              0x00\n              add\n                /* \"Campanha.sol\":1376:1405  newRequest.description = desc */\n              swap1\n              dup2\n              tag_80\n              swap2\n              swap1\n              tag_81\n              jump\t// in\n            tag_80:\n              pop\n                /* \"Campanha.sol\":1434:1437  val */\n              dup3\n                /* \"Campanha.sol\":1415:1425  newRequest */\n              dup2\n                /* \"Campanha.sol\":1415:1431  newRequest.value */\n              0x01\n              add\n                /* \"Campanha.sol\":1415:1437  newRequest.value = val */\n              dup2\n              swap1\n              sstore\n              pop\n                /* \"Campanha.sol\":1470:1473  rec */\n              dup2\n                /* \"Campanha.sol\":1447:1457  newRequest */\n              dup2\n                /* \"Campanha.sol\":1447:1467  newRequest.recipient */\n              0x02\n              add\n              0x00\n                /* \"Campanha.sol\":1447:1473  newRequest.recipient = rec */\n              0x0100\n              exp\n              dup2\n              sload\n              dup2\n              0xffffffffffffffffffffffffffffffffffffffff\n              mul\n              not\n              and\n              swap1\n              dup4\n              0xffffffffffffffffffffffffffffffffffffffff\n              and\n              mul\n              or\n              swap1\n              sstore\n              pop\n                /* \"Campanha.sol\":1505:1510  false */\n              0x00\n                /* \"Campanha.sol\":1483:1493  newRequest */\n              dup2\n                /* \"Campanha.sol\":1483:1502  newRequest.complete */\n              0x02\n              add\n              0x14\n                /* \"Campanha.sol\":1483:1510  newRequest.complete = false */\n              0x0100\n              exp\n              dup2\n              sload\n              dup2\n              0xff\n              mul\n              not\n              and\n              swap1\n              dup4\n              iszero\n              iszero\n              mul\n              or\n              swap1\n              sstore\n              pop\n                /* \"Campanha.sol\":1547:1548  0 */\n              0x00\n                /* \"Campanha.sol\":1520:1530  newRequest */\n              dup2\n                /* \"Campanha.sol\":1520:1544  newRequest.approvalCount */\n              0x04\n              add\n                /* \"Campanha.sol\":1520:1548  newRequest.approvalCount = 0 */\n              dup2\n              swap1\n              sstore\n              pop\n                /* \"Campanha.sol\":1312:1555  {... */\n              pop\n                /* \"Campanha.sol\":1198:1555  function createRequest(... */\n              pop\n              pop\n              pop\n              jump\t// out\n                /* \"Campanha.sol\":703:734  uint public minimumContribution */\n            tag_47:\n              sload(0x02)\n              dup2\n              jump\t// out\n                /* \"Campanha.sol\":1031:1192  function contribute() public payable {... */\n            tag_50:\n                /* \"Campanha.sol\":1098:1117  minimumContribution */\n              sload(0x02)\n                /* \"Campanha.sol\":1086:1095  msg.value */\n              callvalue\n                /* \"Campanha.sol\":1086:1117  msg.value > minimumContribution */\n              gt\n                /* \"Campanha.sol\":1078:1118  require(msg.value > minimumContribution) */\n              tag_83\n              jumpi\n              0x00\n              dup1\n              revert\n            tag_83:\n                /* \"Campanha.sol\":1155:1159  true */\n              0x01\n                /* \"Campanha.sol\":1128:1140  contributers */\n              0x03\n                /* \"Campanha.sol\":1128:1152  contributers[msg.sender] */\n              0x00\n                /* \"Campanha.sol\":1141:1151  msg.sender */\n              caller\n                /* \"Campanha.sol\":1128:1152  contributers[msg.sender] */\n              0xffffffffffffffffffffffffffffffffffffffff\n              and\n              0xffffffffffffffffffffffffffffffffffffffff\n              and\n              dup2\n              mstore\n              0x20\n              add\n              swap1\n              dup2\n              mstore\n              0x20\n              add\n              0x00\n              keccak256\n              0x00\n                /* \"Campanha.sol\":1128:1159  contributers[msg.sender] = true */\n              0x0100\n              exp\n              dup2\n              sload\n              dup2\n              0xff\n              mul\n              not\n              and\n              swap1\n              dup4\n              iszero\n              iszero\n              mul\n              or\n              swap1\n              sstore\n              pop\n                /* \"Campanha.sol\":1169:1183  approversCount */\n              0x04\n              0x00\n                /* \"Campanha.sol\":1169:1185  approversCount++ */\n              dup2\n              sload\n              dup1\n              swap3\n              swap2\n              swap1\n              tag_84\n              swap1\n              tag_85\n              jump\t// in\n            tag_84:\n              swap2\n              swap1\n              pop\n              sstore\n              pop\n                /* \"Campanha.sol\":1031:1192  function contribute() public payable {... */\n              jump\t// out\n                /* \"Campanha.sol\":1561:1874  function approveRequest(uint index) public {... */\n            tag_54:\n                /* \"Campanha.sol\":1614:1639  Request storage requester */\n              0x00\n                /* \"Campanha.sol\":1642:1650  requests */\n              dup1\n                /* \"Campanha.sol\":1651:1656  index */\n              dup3\n                /* \"Campanha.sol\":1642:1657  requests[index] */\n              dup2\n              sload\n              dup2\n              lt\n              tag_87\n              jumpi\n              tag_88\n              tag_60\n              jump\t// in\n            tag_88:\n            tag_87:\n              swap1\n              0x00\n              mstore\n              keccak256(0x00, 0x20)\n              swap1\n              0x05\n              mul\n              add\n                /* \"Campanha.sol\":1614:1657  Request storage requester = requests[index] */\n              swap1\n              pop\n                /* \"Campanha.sol\":1676:1688  contributers */\n              0x03\n                /* \"Campanha.sol\":1676:1700  contributers[msg.sender] */\n              0x00\n                /* \"Campanha.sol\":1689:1699  msg.sender */\n              caller\n                /* \"Campanha.sol\":1676:1700  contributers[msg.sender] */\n              0xffffffffffffffffffffffffffffffffffffffff\n              and\n              0xffffffffffffffffffffffffffffffffffffffff\n              and\n              dup2\n              mstore\n              0x20\n              add\n              swap1\n              dup2\n              mstore\n              0x20\n              add\n              0x00\n              keccak256\n              0x00\n              swap1\n              sload\n              swap1\n              0x0100\n              exp\n              swap1\n              div\n              0xff\n              and\n                /* \"Campanha.sol\":1668:1732  require(contributers[msg.sender], \"Sender is not a contributer\") */\n              tag_90\n              jumpi\n              mload(0x40)\n              0x08c379a000000000000000000000000000000000000000000000000000000000\n              dup2\n              mstore\n              0x04\n              add\n              tag_91\n              swap1\n              tag_92\n              jump\t// in\n            tag_91:\n              mload(0x40)\n              dup1\n              swap2\n              sub\n              swap1\n              revert\n            tag_90:\n                /* \"Campanha.sol\":1751:1760  requester */\n              dup1\n                /* \"Campanha.sol\":1751:1770  requester.approvals */\n              0x03\n              add\n                /* \"Campanha.sol\":1751:1782  requester.approvals[msg.sender] */\n              0x00\n                /* \"Campanha.sol\":1771:1781  msg.sender */\n              caller\n                /* \"Campanha.sol\":1751:1782  requester.approvals[msg.sender] */\n              0xffffffffffffffffffffffffffffffffffffffff\n              and\n              0xffffffffffffffffffffffffffffffffffffffff\n              and\n              dup2\n              mstore\n              0x20\n              add\n              swap1\n              dup2\n              mstore\n              0x20\n              add\n              0x00\n              keccak256\n              0x00\n              swap1\n              sload\n              swap1\n              0x0100\n              exp\n              swap1\n              div\n              0xff\n              and\n                /* \"Campanha.sol\":1750:1782  !requester.approvals[msg.sender] */\n              iszero\n                /* \"Campanha.sol\":1742:1783  require(!requester.approvals[msg.sender]) */\n              tag_93\n              jumpi\n              0x00\n              dup1\n              revert\n            tag_93:\n                /* \"Campanha.sol\":1828:1832  true */\n              0x01\n                /* \"Campanha.sol\":1794:1803  requester */\n              dup2\n                /* \"Campanha.sol\":1794:1813  requester.approvals */\n              0x03\n              add\n                /* \"Campanha.sol\":1794:1825  requester.approvals[msg.sender] */\n              0x00\n                /* \"Campanha.sol\":1814:1824  msg.sender */\n              caller\n                /* \"Campanha.sol\":1794:1825  requester.approvals[msg.sender] */\n              0xffffffffffffffffffffffffffffffffffffffff\n              and\n              0xffffffffffffffffffffffffffffffffffffffff\n              and\n              dup2\n              mstore\n              0x20\n              add\n              swap1\n              dup2\n              mstore\n              0x20\n              add\n              0x00\n              keccak256\n              0x00\n                /* \"Campanha.sol\":1794:1832  requester.approvals[msg.sender] = true */\n              0x0100\n              exp\n              dup2\n              sload\n              dup2\n              0xff\n              mul\n              not\n              and\n              swap1\n              dup4\n              iszero\n              iszero\n              mul\n              or\n              swap1\n              sstore\n              pop\n                /* \"Campanha.sol\":1842:1851  requester */\n              dup1\n                /* \"Campanha.sol\":1842:1865  requester.approvalCount */\n              0x04\n              add\n              0x00\n                /* \"Campanha.sol\":1842:1867  requester.approvalCount++ */\n              dup2\n              sload\n              dup1\n              swap3\n              swap2\n              swap1\n              tag_94\n              swap1\n              tag_85\n              jump\t// in\n            tag_94:\n              swap2\n              swap1\n              pop\n              sstore\n              pop\n                /* \"Campanha.sol\":1604:1874  {... */\n              pop\n                /* \"Campanha.sol\":1561:1874  function approveRequest(uint index) public {... */\n              pop\n              jump\t// out\n                /* \"#utility.yul\":7:82   */\n            tag_95:\n                /* \"#utility.yul\":40:46   */\n              0x00\n                /* \"#utility.yul\":73:75   */\n              0x40\n                /* \"#utility.yul\":67:76   */\n              mload\n                /* \"#utility.yul\":57:76   */\n              swap1\n              pop\n                /* \"#utility.yul\":7:82   */\n              swap1\n              jump\t// out\n                /* \"#utility.yul\":88:205   */\n            tag_96:\n                /* \"#utility.yul\":197:198   */\n              0x00\n                /* \"#utility.yul\":194:195   */\n              dup1\n                /* \"#utility.yul\":187:199   */\n              revert\n                /* \"#utility.yul\":211:328   */\n            tag_97:\n                /* \"#utility.yul\":320:321   */\n              0x00\n                /* \"#utility.yul\":317:318   */\n              dup1\n                /* \"#utility.yul\":310:322   */\n              revert\n                /* \"#utility.yul\":334:411   */\n            tag_98:\n                /* \"#utility.yul\":371:378   */\n              0x00\n                /* \"#utility.yul\":400:405   */\n              dup2\n                /* \"#utility.yul\":389:405   */\n              swap1\n              pop\n                /* \"#utility.yul\":334:411   */\n              swap2\n              swap1\n              pop\n              jump\t// out\n                /* \"#utility.yul\":417:539   */\n            tag_99:\n                /* \"#utility.yul\":490:514   */\n              tag_149\n                /* \"#utility.yul\":508:513   */\n              dup2\n                /* \"#utility.yul\":490:514   */\n              tag_98\n              jump\t// in\n            tag_149:\n                /* \"#utility.yul\":483:488   */\n              dup2\n                /* \"#utility.yul\":480:515   */\n              eq\n                /* \"#utility.yul\":470:533   */\n              tag_150\n              jumpi\n                /* \"#utility.yul\":529:530   */\n              0x00\n                /* \"#utility.yul\":526:527   */\n              dup1\n                /* \"#utility.yul\":519:531   */\n              revert\n                /* \"#utility.yul\":470:533   */\n            tag_150:\n                /* \"#utility.yul\":417:539   */\n              pop\n              jump\t// out\n                /* \"#utility.yul\":545:684   */\n            tag_100:\n                /* \"#utility.yul\":591:596   */\n              0x00\n                /* \"#utility.yul\":629:635   */\n              dup2\n                /* \"#utility.yul\":616:636   */\n              calldataload\n                /* \"#utility.yul\":607:636   */\n              swap1\n              pop\n                /* \"#utility.yul\":645:678   */\n              tag_152\n                /* \"#utility.yul\":672:677   */\n              dup2\n                /* \"#utility.yul\":645:678   */\n              tag_99\n              jump\t// in\n            tag_152:\n                /* \"#utility.yul\":545:684   */\n              swap3\n              swap2\n              pop\n              pop\n              jump\t// out\n                /* \"#utility.yul\":690:1019   */\n            tag_15:\n                /* \"#utility.yul\":749:755   */\n              0x00\n                /* \"#utility.yul\":798:800   */\n              0x20\n                /* \"#utility.yul\":786:795   */\n              dup3\n                /* \"#utility.yul\":777:784   */\n              dup5\n                /* \"#utility.yul\":773:796   */\n              sub\n                /* \"#utility.yul\":769:801   */\n              slt\n                /* \"#utility.yul\":766:885   */\n              iszero\n              tag_154\n              jumpi\n                /* \"#utility.yul\":804:883   */\n              tag_155\n              tag_96\n              jump\t// in\n            tag_155:\n                /* \"#utility.yul\":766:885   */\n            tag_154:\n                /* \"#utility.yul\":924:925   */\n              0x00\n                /* \"#utility.yul\":949:1002   */\n              tag_156\n                /* \"#utility.yul\":994:1001   */\n              dup5\n                /* \"#utility.yul\":985:991   */\n              dup3\n                /* \"#utility.yul\":974:983   */\n              dup6\n                /* \"#utility.yul\":970:992   */\n              add\n                /* \"#utility.yul\":949:1002   */\n              tag_100\n              jump\t// in\n            tag_156:\n                /* \"#utility.yul\":939:1002   */\n              swap2\n              pop\n                /* \"#utility.yul\":895:1012   */\n              pop\n                /* \"#utility.yul\":690:1019   */\n              swap3\n              swap2\n              pop\n              pop\n              jump\t// out\n                /* \"#utility.yul\":1025:1151   */\n            tag_101:\n                /* \"#utility.yul\":1062:1069   */\n              0x00\n                /* \"#utility.yul\":1102:1144   */\n              0xffffffffffffffffffffffffffffffffffffffff\n                /* \"#utility.yul\":1095:1100   */\n              dup3\n                /* \"#utility.yul\":1091:1145   */\n              and\n                /* \"#utility.yul\":1080:1145   */\n              swap1\n              pop\n                /* \"#utility.yul\":1025:1151   */\n              swap2\n              swap1\n              pop\n              jump\t// out\n                /* \"#utility.yul\":1157:1253   */\n            tag_102:\n                /* \"#utility.yul\":1194:1201   */\n              0x00\n                /* \"#utility.yul\":1223:1247   */\n              tag_159\n                /* \"#utility.yul\":1241:1246   */\n              dup3\n                /* \"#utility.yul\":1223:1247   */\n              tag_101\n              jump\t// in\n            tag_159:\n                /* \"#utility.yul\":1212:1247   */\n              swap1\n              pop\n                /* \"#utility.yul\":1157:1253   */\n              swap2\n              swap1\n              pop\n              jump\t// out\n                /* \"#utility.yul\":1259:1381   */\n            tag_103:\n                /* \"#utility.yul\":1332:1356   */\n              tag_161\n                /* \"#utility.yul\":1350:1355   */\n              dup2\n                /* \"#utility.yul\":1332:1356   */\n              tag_102\n              jump\t// in\n            tag_161:\n                /* \"#utility.yul\":1325:1330   */\n              dup2\n                /* \"#utility.yul\":1322:1357   */\n              eq\n                /* \"#utility.yul\":1312:1375   */\n              tag_162\n              jumpi\n                /* \"#utility.yul\":1371:1372   */\n              0x00\n                /* \"#utility.yul\":1368:1369   */\n              dup1\n                /* \"#utility.yul\":1361:1373   */\n              revert\n                /* \"#utility.yul\":1312:1375   */\n            tag_162:\n                /* \"#utility.yul\":1259:1381   */\n              pop\n              jump\t// out\n                /* \"#utility.yul\":1387:1526   */\n            tag_104:\n                /* \"#utility.yul\":1433:1438   */\n              0x00\n                /* \"#utility.yul\":1471:1477   */\n              dup2\n                /* \"#utility.yul\":1458:1478   */\n              calldataload\n                /* \"#utility.yul\":1449:1478   */\n              swap1\n              pop\n                /* \"#utility.yul\":1487:1520   */\n              tag_164\n                /* \"#utility.yul\":1514:1519   */\n              dup2\n                /* \"#utility.yul\":1487:1520   */\n              tag_103\n              jump\t// in\n            tag_164:\n                /* \"#utility.yul\":1387:1526   */\n              swap3\n              swap2\n              pop\n              pop\n              jump\t// out\n                /* \"#utility.yul\":1532:1861   */\n            tag_20:\n                /* \"#utility.yul\":1591:1597   */\n              0x00\n                /* \"#utility.yul\":1640:1642   */\n              0x20\n                /* \"#utility.yul\":1628:1637   */\n              dup3\n                /* \"#utility.yul\":1619:1626   */\n              dup5\n                /* \"#utility.yul\":1615:1638   */\n              sub\n                /* \"#utility.yul\":1611:1643   */\n              slt\n                /* \"#utility.yul\":1608:1727   */\n              iszero\n              tag_166\n              jumpi\n                /* \"#utility.yul\":1646:1725   */\n              tag_167\n              tag_96\n              jump\t// in\n            tag_167:\n                /* \"#utility.yul\":1608:1727   */\n            tag_166:\n                /* \"#utility.yul\":1766:1767   */\n              0x00\n                /* \"#utility.yul\":1791:1844   */\n              tag_168\n                /* \"#utility.yul\":1836:1843   */\n              dup5\n                /* \"#utility.yul\":1827:1833   */\n              dup3\n                /* \"#utility.yul\":1816:1825   */\n              dup6\n                /* \"#utility.yul\":1812:1834   */\n              add\n                /* \"#utility.yul\":1791:1844   */\n              tag_104\n              jump\t// in\n            tag_168:\n                /* \"#utility.yul\":1781:1844   */\n              swap2\n              pop\n                /* \"#utility.yul\":1737:1854   */\n              pop\n                /* \"#utility.yul\":1532:1861   */\n              swap3\n              swap2\n              pop\n              pop\n              jump\t// out\n                /* \"#utility.yul\":1867:1957   */\n            tag_105:\n                /* \"#utility.yul\":1901:1908   */\n              0x00\n                /* \"#utility.yul\":1944:1949   */\n              dup2\n                /* \"#utility.yul\":1937:1950   */\n              iszero\n                /* \"#utility.yul\":1930:1951   */\n              iszero\n                /* \"#utility.yul\":1919:1951   */\n              swap1\n              pop\n                /* \"#utility.yul\":1867:1957   */\n              swap2\n              swap1\n              pop\n              jump\t// out\n                /* \"#utility.yul\":1963:2072   */\n            tag_106:\n                /* \"#utility.yul\":2044:2065   */\n              tag_171\n                /* \"#utility.yul\":2059:2064   */\n              dup2\n                /* \"#utility.yul\":2044:2065   */\n              tag_105\n              jump\t// in\n            tag_171:\n                /* \"#utility.yul\":2039:2042   */\n              dup3\n                /* \"#utility.yul\":2032:2066   */\n              mstore\n                /* \"#utility.yul\":1963:2072   */\n              pop\n              pop\n              jump\t// out\n                /* \"#utility.yul\":2078:2288   */\n            tag_23:\n                /* \"#utility.yul\":2165:2169   */\n              0x00\n                /* \"#utility.yul\":2203:2205   */\n              0x20\n                /* \"#utility.yul\":2192:2201   */\n              dup3\n                /* \"#utility.yul\":2188:2206   */\n              add\n                /* \"#utility.yul\":2180:2206   */\n              swap1\n              pop\n                /* \"#utility.yul\":2216:2281   */\n              tag_173\n                /* \"#utility.yul\":2278:2279   */\n              0x00\n                /* \"#utility.yul\":2267:2276   */\n              dup4\n                /* \"#utility.yul\":2263:2280   */\n              add\n                /* \"#utility.yul\":2254:2260   */\n              dup5\n                /* \"#utility.yul\":2216:2281   */\n              tag_106\n              jump\t// in\n            tag_173:\n                /* \"#utility.yul\":2078:2288   */\n              swap3\n              swap2\n              pop\n              pop\n              jump\t// out\n                /* \"#utility.yul\":2294:2412   */\n            tag_107:\n                /* \"#utility.yul\":2381:2405   */\n              tag_175\n                /* \"#utility.yul\":2399:2404   */\n              dup2\n                /* \"#utility.yul\":2381:2405   */\n              tag_102\n              jump\t// in\n            tag_175:\n                /* \"#utility.yul\":2376:2379   */\n              dup3\n                /* \"#utility.yul\":2369:2406   */\n              mstore\n                /* \"#utility.yul\":2294:2412   */\n              pop\n              pop\n              jump\t// out\n                /* \"#utility.yul\":2418:2640   */\n            tag_28:\n                /* \"#utility.yul\":2511:2515   */\n              0x00\n                /* \"#utility.yul\":2549:2551   */\n              0x20\n                /* \"#utility.yul\":2538:2547   */\n              dup3\n                /* \"#utility.yul\":2534:2552   */\n              add\n                /* \"#utility.yul\":2526:2552   */\n              swap1\n              pop\n                /* \"#utility.yul\":2562:2633   */\n              tag_177\n                /* \"#utility.yul\":2630:2631   */\n              0x00\n                /* \"#utility.yul\":2619:2628   */\n              dup4\n                /* \"#utility.yul\":2615:2632   */\n              add\n                /* \"#utility.yul\":2606:2612   */\n              dup5\n                /* \"#utility.yul\":2562:2633   */\n              tag_107\n              jump\t// in\n            tag_177:\n                /* \"#utility.yul\":2418:2640   */\n              swap3\n              swap2\n              pop\n              pop\n              jump\t// out\n                /* \"#utility.yul\":2646:2745   */\n            tag_108:\n                /* \"#utility.yul\":2698:2704   */\n              0x00\n                /* \"#utility.yul\":2732:2737   */\n              dup2\n                /* \"#utility.yul\":2726:2738   */\n              mload\n                /* \"#utility.yul\":2716:2738   */\n              swap1\n              pop\n                /* \"#utility.yul\":2646:2745   */\n              swap2\n              swap1\n              pop\n              jump\t// out\n                /* \"#utility.yul\":2751:2920   */\n            tag_109:\n                /* \"#utility.yul\":2835:2846   */\n              0x00\n                /* \"#utility.yul\":2869:2875   */\n              dup3\n                /* \"#utility.yul\":2864:2867   */\n              dup3\n                /* \"#utility.yul\":2857:2876   */\n              mstore\n                /* \"#utility.yul\":2909:2913   */\n              0x20\n                /* \"#utility.yul\":2904:2907   */\n              dup3\n                /* \"#utility.yul\":2900:2914   */\n              add\n                /* \"#utility.yul\":2885:2914   */\n              swap1\n              pop\n                /* \"#utility.yul\":2751:2920   */\n              swap3\n              swap2\n              pop\n              pop\n              jump\t// out\n                /* \"#utility.yul\":2926:3172   */\n            tag_110:\n                /* \"#utility.yul\":3007:3008   */\n              0x00\n                /* \"#utility.yul\":3017:3130   */\n            tag_181:\n                /* \"#utility.yul\":3031:3037   */\n              dup4\n                /* \"#utility.yul\":3028:3029   */\n              dup2\n                /* \"#utility.yul\":3025:3038   */\n              lt\n                /* \"#utility.yul\":3017:3130   */\n              iszero\n              tag_183\n              jumpi\n                /* \"#utility.yul\":3116:3117   */\n              dup1\n                /* \"#utility.yul\":3111:3114   */\n              dup3\n                /* \"#utility.yul\":3107:3118   */\n              add\n                /* \"#utility.yul\":3101:3119   */\n              mload\n                /* \"#utility.yul\":3097:3098   */\n              dup2\n                /* \"#utility.yul\":3092:3095   */\n              dup5\n                /* \"#utility.yul\":3088:3099   */\n              add\n                /* \"#utility.yul\":3081:3120   */\n              mstore\n                /* \"#utility.yul\":3053:3055   */\n              0x20\n                /* \"#utility.yul\":3050:3051   */\n              dup2\n                /* \"#utility.yul\":3046:3056   */\n              add\n                /* \"#utility.yul\":3041:3056   */\n              swap1\n              pop\n                /* \"#utility.yul\":3017:3130   */\n              jump(tag_181)\n            tag_183:\n                /* \"#utility.yul\":3164:3165   */\n              0x00\n                /* \"#utility.yul\":3155:3161   */\n              dup5\n                /* \"#utility.yul\":3150:3153   */\n              dup5\n                /* \"#utility.yul\":3146:3162   */\n              add\n                /* \"#utility.yul\":3139:3166   */\n              mstore\n                /* \"#utility.yul\":2988:3172   */\n              pop\n                /* \"#utility.yul\":2926:3172   */\n              pop\n              pop\n              pop\n              jump\t// out\n                /* \"#utility.yul\":3178:3280   */\n            tag_111:\n                /* \"#utility.yul\":3219:3225   */\n              0x00\n                /* \"#utility.yul\":3270:3272   */\n              0x1f\n                /* \"#utility.yul\":3266:3273   */\n              not\n                /* \"#utility.yul\":3261:3263   */\n              0x1f\n                /* \"#utility.yul\":3254:3259   */\n              dup4\n                /* \"#utility.yul\":3250:3264   */\n              add\n                /* \"#utility.yul\":3246:3274   */\n              and\n                /* \"#utility.yul\":3236:3274   */\n              swap1\n              pop\n                /* \"#utility.yul\":3178:3280   */\n              swap2\n              swap1\n              pop\n              jump\t// out\n                /* \"#utility.yul\":3286:3663   */\n            tag_112:\n                /* \"#utility.yul\":3374:3377   */\n              0x00\n                /* \"#utility.yul\":3402:3441   */\n              tag_186\n                /* \"#utility.yul\":3435:3440   */\n              dup3\n                /* \"#utility.yul\":3402:3441   */\n              tag_108\n              jump\t// in\n            tag_186:\n                /* \"#utility.yul\":3457:3528   */\n              tag_187\n                /* \"#utility.yul\":3521:3527   */\n              dup2\n                /* \"#utility.yul\":3516:3519   */\n              dup6\n                /* \"#utility.yul\":3457:3528   */\n              tag_109\n              jump\t// in\n            tag_187:\n                /* \"#utility.yul\":3450:3528   */\n              swap4\n              pop\n                /* \"#utility.yul\":3537:3602   */\n              tag_188\n                /* \"#utility.yul\":3595:3601   */\n              dup2\n                /* \"#utility.yul\":3590:3593   */\n              dup6\n                /* \"#utility.yul\":3583:3587   */\n              0x20\n                /* \"#utility.yul\":3576:3581   */\n              dup7\n                /* \"#utility.yul\":3572:3588   */\n              add\n                /* \"#utility.yul\":3537:3602   */\n              tag_110\n              jump\t// in\n            tag_188:\n                /* \"#utility.yul\":3627:3656   */\n              tag_189\n                /* \"#utility.yul\":3649:3655   */\n              dup2\n                /* \"#utility.yul\":3627:3656   */\n              tag_111\n              jump\t// in\n            tag_189:\n                /* \"#utility.yul\":3622:3625   */\n              dup5\n                /* \"#utility.yul\":3618:3657   */\n              add\n                /* \"#utility.yul\":3611:3657   */\n              swap2\n              pop\n                /* \"#utility.yul\":3378:3663   */\n              pop\n                /* \"#utility.yul\":3286:3663   */\n              swap3\n              swap2\n              pop\n              pop\n              jump\t// out\n                /* \"#utility.yul\":3669:3787   */\n            tag_113:\n                /* \"#utility.yul\":3756:3780   */\n              tag_191\n                /* \"#utility.yul\":3774:3779   */\n              dup2\n                /* \"#utility.yul\":3756:3780   */\n              tag_98\n              jump\t// in\n            tag_191:\n                /* \"#utility.yul\":3751:3754   */\n              dup3\n                /* \"#utility.yul\":3744:3781   */\n              mstore\n                /* \"#utility.yul\":3669:3787   */\n              pop\n              pop\n              jump\t// out\n                /* \"#utility.yul\":3793:4536   */\n            tag_34:\n                /* \"#utility.yul\":4012:4016   */\n              0x00\n                /* \"#utility.yul\":4050:4053   */\n              0xa0\n                /* \"#utility.yul\":4039:4048   */\n              dup3\n                /* \"#utility.yul\":4035:4054   */\n              add\n                /* \"#utility.yul\":4027:4054   */\n              swap1\n              pop\n                /* \"#utility.yul\":4100:4109   */\n              dup2\n                /* \"#utility.yul\":4094:4098   */\n              dup2\n                /* \"#utility.yul\":4090:4110   */\n              sub\n                /* \"#utility.yul\":4086:4087   */\n              0x00\n                /* \"#utility.yul\":4075:4084   */\n              dup4\n                /* \"#utility.yul\":4071:4088   */\n              add\n                /* \"#utility.yul\":4064:4111   */\n              mstore\n                /* \"#utility.yul\":4128:4206   */\n              tag_193\n                /* \"#utility.yul\":4201:4205   */\n              dup2\n                /* \"#utility.yul\":4192:4198   */\n              dup9\n                /* \"#utility.yul\":4128:4206   */\n              tag_112\n              jump\t// in\n            tag_193:\n                /* \"#utility.yul\":4120:4206   */\n              swap1\n              pop\n                /* \"#utility.yul\":4216:4288   */\n              tag_194\n                /* \"#utility.yul\":4284:4286   */\n              0x20\n                /* \"#utility.yul\":4273:4282   */\n              dup4\n                /* \"#utility.yul\":4269:4287   */\n              add\n                /* \"#utility.yul\":4260:4266   */\n              dup8\n                /* \"#utility.yul\":4216:4288   */\n              tag_113\n              jump\t// in\n            tag_194:\n                /* \"#utility.yul\":4298:4370   */\n              tag_195\n                /* \"#utility.yul\":4366:4368   */\n              0x40\n                /* \"#utility.yul\":4355:4364   */\n              dup4\n                /* \"#utility.yul\":4351:4369   */\n              add\n                /* \"#utility.yul\":4342:4348   */\n              dup7\n                /* \"#utility.yul\":4298:4370   */\n              tag_107\n              jump\t// in\n            tag_195:\n                /* \"#utility.yul\":4380:4446   */\n              tag_196\n                /* \"#utility.yul\":4442:4444   */\n              0x60\n                /* \"#utility.yul\":4431:4440   */\n              dup4\n                /* \"#utility.yul\":4427:4445   */\n              add\n                /* \"#utility.yul\":4418:4424   */\n              dup6\n                /* \"#utility.yul\":4380:4446   */\n              tag_106\n              jump\t// in\n            tag_196:\n                /* \"#utility.yul\":4456:4529   */\n              tag_197\n                /* \"#utility.yul\":4524:4527   */\n              0x80\n                /* \"#utility.yul\":4513:4522   */\n              dup4\n                /* \"#utility.yul\":4509:4528   */\n              add\n                /* \"#utility.yul\":4500:4506   */\n              dup5\n                /* \"#utility.yul\":4456:4529   */\n              tag_113\n              jump\t// in\n            tag_197:\n                /* \"#utility.yul\":3793:4536   */\n              swap7\n              swap6\n              pop\n              pop\n              pop\n              pop\n              pop\n              pop\n              jump\t// out\n                /* \"#utility.yul\":4542:4764   */\n            tag_39:\n                /* \"#utility.yul\":4635:4639   */\n              0x00\n                /* \"#utility.yul\":4673:4675   */\n              0x20\n                /* \"#utility.yul\":4662:4671   */\n              dup3\n                /* \"#utility.yul\":4658:4676   */\n              add\n                /* \"#utility.yul\":4650:4676   */\n              swap1\n              pop\n                /* \"#utility.yul\":4686:4757   */\n              tag_199\n                /* \"#utility.yul\":4754:4755   */\n              0x00\n                /* \"#utility.yul\":4743:4752   */\n              dup4\n                /* \"#utility.yul\":4739:4756   */\n              add\n                /* \"#utility.yul\":4730:4736   */\n              dup5\n                /* \"#utility.yul\":4686:4757   */\n              tag_113\n              jump\t// in\n            tag_199:\n                /* \"#utility.yul\":4542:4764   */\n              swap3\n              swap2\n              pop\n              pop\n              jump\t// out\n                /* \"#utility.yul\":4770:4887   */\n            tag_114:\n                /* \"#utility.yul\":4879:4880   */\n              0x00\n                /* \"#utility.yul\":4876:4877   */\n              dup1\n                /* \"#utility.yul\":4869:4881   */\n              revert\n                /* \"#utility.yul\":4893:5010   */\n            tag_115:\n                /* \"#utility.yul\":5002:5003   */\n              0x00\n                /* \"#utility.yul\":4999:5000   */\n              dup1\n                /* \"#utility.yul\":4992:5004   */\n              revert\n                /* \"#utility.yul\":5016:5196   */\n            tag_116:\n                /* \"#utility.yul\":5064:5141   */\n              0x4e487b7100000000000000000000000000000000000000000000000000000000\n                /* \"#utility.yul\":5061:5062   */\n              0x00\n                /* \"#utility.yul\":5054:5142   */\n              mstore\n                /* \"#utility.yul\":5161:5165   */\n              0x41\n                /* \"#utility.yul\":5158:5159   */\n              0x04\n                /* \"#utility.yul\":5151:5166   */\n              mstore\n                /* \"#utility.yul\":5185:5189   */\n              0x24\n                /* \"#utility.yul\":5182:5183   */\n              0x00\n                /* \"#utility.yul\":5175:5190   */\n              revert\n                /* \"#utility.yul\":5202:5483   */\n            tag_117:\n                /* \"#utility.yul\":5285:5312   */\n              tag_204\n                /* \"#utility.yul\":5307:5311   */\n              dup3\n                /* \"#utility.yul\":5285:5312   */\n              tag_111\n              jump\t// in\n            tag_204:\n                /* \"#utility.yul\":5277:5283   */\n              dup2\n                /* \"#utility.yul\":5273:5313   */\n              add\n                /* \"#utility.yul\":5415:5421   */\n              dup2\n                /* \"#utility.yul\":5403:5413   */\n              dup2\n                /* \"#utility.yul\":5400:5422   */\n              lt\n                /* \"#utility.yul\":5379:5397   */\n              0xffffffffffffffff\n                /* \"#utility.yul\":5367:5377   */\n              dup3\n                /* \"#utility.yul\":5364:5398   */\n              gt\n                /* \"#utility.yul\":5361:5423   */\n              or\n                /* \"#utility.yul\":5358:5446   */\n              iszero\n              tag_205\n              jumpi\n                /* \"#utility.yul\":5426:5444   */\n              tag_206\n              tag_116\n              jump\t// in\n            tag_206:\n                /* \"#utility.yul\":5358:5446   */\n            tag_205:\n                /* \"#utility.yul\":5466:5476   */\n              dup1\n                /* \"#utility.yul\":5462:5464   */\n              0x40\n                /* \"#utility.yul\":5455:5477   */\n              mstore\n                /* \"#utility.yul\":5245:5483   */\n              pop\n                /* \"#utility.yul\":5202:5483   */\n              pop\n              pop\n              jump\t// out\n                /* \"#utility.yul\":5489:5618   */\n            tag_118:\n                /* \"#utility.yul\":5523:5529   */\n              0x00\n                /* \"#utility.yul\":5550:5570   */\n              tag_208\n              tag_95\n              jump\t// in\n            tag_208:\n                /* \"#utility.yul\":5540:5570   */\n              swap1\n              pop\n                /* \"#utility.yul\":5579:5612   */\n              tag_209\n                /* \"#utility.yul\":5607:5611   */\n              dup3\n                /* \"#utility.yul\":5599:5605   */\n              dup3\n                /* \"#utility.yul\":5579:5612   */\n              tag_117\n              jump\t// in\n            tag_209:\n                /* \"#utility.yul\":5489:5618   */\n              swap2\n              swap1\n              pop\n              jump\t// out\n                /* \"#utility.yul\":5624:5932   */\n            tag_119:\n                /* \"#utility.yul\":5686:5690   */\n              0x00\n                /* \"#utility.yul\":5776:5794   */\n              0xffffffffffffffff\n                /* \"#utility.yul\":5768:5774   */\n              dup3\n                /* \"#utility.yul\":5765:5795   */\n              gt\n                /* \"#utility.yul\":5762:5818   */\n              iszero\n              tag_211\n              jumpi\n                /* \"#utility.yul\":5798:5816   */\n              tag_212\n              tag_116\n              jump\t// in\n            tag_212:\n                /* \"#utility.yul\":5762:5818   */\n            tag_211:\n                /* \"#utility.yul\":5836:5865   */\n              tag_213\n                /* \"#utility.yul\":5858:5864   */\n              dup3\n                /* \"#utility.yul\":5836:5865   */\n              tag_111\n              jump\t// in\n            tag_213:\n                /* \"#utility.yul\":5828:5865   */\n              swap1\n              pop\n                /* \"#utility.yul\":5920:5924   */\n              0x20\n                /* \"#utility.yul\":5914:5918   */\n              dup2\n                /* \"#utility.yul\":5910:5925   */\n              add\n                /* \"#utility.yul\":5902:5925   */\n              swap1\n              pop\n                /* \"#utility.yul\":5624:5932   */\n              swap2\n              swap1\n              pop\n              jump\t// out\n                /* \"#utility.yul\":5938:6084   */\n            tag_120:\n                /* \"#utility.yul\":6035:6041   */\n              dup3\n                /* \"#utility.yul\":6030:6033   */\n              dup2\n                /* \"#utility.yul\":6025:6028   */\n              dup4\n                /* \"#utility.yul\":6012:6042   */\n              calldatacopy\n                /* \"#utility.yul\":6076:6077   */\n              0x00\n                /* \"#utility.yul\":6067:6073   */\n              dup4\n                /* \"#utility.yul\":6062:6065   */\n              dup4\n                /* \"#utility.yul\":6058:6074   */\n              add\n                /* \"#utility.yul\":6051:6078   */\n              mstore\n                /* \"#utility.yul\":5938:6084   */\n              pop\n              pop\n              pop\n              jump\t// out\n                /* \"#utility.yul\":6090:6515   */\n            tag_121:\n                /* \"#utility.yul\":6168:6173   */\n              0x00\n                /* \"#utility.yul\":6193:6259   */\n              tag_216\n                /* \"#utility.yul\":6209:6258   */\n              tag_217\n                /* \"#utility.yul\":6251:6257   */\n              dup5\n                /* \"#utility.yul\":6209:6258   */\n              tag_119\n              jump\t// in\n            tag_217:\n                /* \"#utility.yul\":6193:6259   */\n              tag_118\n              jump\t// in\n            tag_216:\n                /* \"#utility.yul\":6184:6259   */\n              swap1\n              pop\n                /* \"#utility.yul\":6282:6288   */\n              dup3\n                /* \"#utility.yul\":6275:6280   */\n              dup2\n                /* \"#utility.yul\":6268:6289   */\n              mstore\n                /* \"#utility.yul\":6320:6324   */\n              0x20\n                /* \"#utility.yul\":6313:6318   */\n              dup2\n                /* \"#utility.yul\":6309:6325   */\n              add\n                /* \"#utility.yul\":6358:6361   */\n              dup5\n                /* \"#utility.yul\":6349:6355   */\n              dup5\n                /* \"#utility.yul\":6344:6347   */\n              dup5\n                /* \"#utility.yul\":6340:6356   */\n              add\n                /* \"#utility.yul\":6337:6362   */\n              gt\n                /* \"#utility.yul\":6334:6446   */\n              iszero\n              tag_218\n              jumpi\n                /* \"#utility.yul\":6365:6444   */\n              tag_219\n              tag_115\n              jump\t// in\n            tag_219:\n                /* \"#utility.yul\":6334:6446   */\n            tag_218:\n                /* \"#utility.yul\":6455:6509   */\n              tag_220\n                /* \"#utility.yul\":6502:6508   */\n              dup5\n                /* \"#utility.yul\":6497:6500   */\n              dup3\n                /* \"#utility.yul\":6492:6495   */\n              dup6\n                /* \"#utility.yul\":6455:6509   */\n              tag_120\n              jump\t// in\n            tag_220:\n                /* \"#utility.yul\":6174:6515   */\n              pop\n                /* \"#utility.yul\":6090:6515   */\n              swap4\n              swap3\n              pop\n              pop\n              pop\n              jump\t// out\n                /* \"#utility.yul\":6535:6875   */\n            tag_122:\n                /* \"#utility.yul\":6591:6596   */\n              0x00\n                /* \"#utility.yul\":6640:6643   */\n              dup3\n                /* \"#utility.yul\":6633:6637   */\n              0x1f\n                /* \"#utility.yul\":6625:6631   */\n              dup4\n                /* \"#utility.yul\":6621:6638   */\n              add\n                /* \"#utility.yul\":6617:6644   */\n              slt\n                /* \"#utility.yul\":6607:6729   */\n              tag_222\n              jumpi\n                /* \"#utility.yul\":6648:6727   */\n              tag_223\n              tag_114\n              jump\t// in\n            tag_223:\n                /* \"#utility.yul\":6607:6729   */\n            tag_222:\n                /* \"#utility.yul\":6765:6771   */\n              dup2\n                /* \"#utility.yul\":6752:6772   */\n              calldataload\n                /* \"#utility.yul\":6790:6869   */\n              tag_224\n                /* \"#utility.yul\":6865:6868   */\n              dup5\n                /* \"#utility.yul\":6857:6863   */\n              dup3\n                /* \"#utility.yul\":6850:6854   */\n              0x20\n                /* \"#utility.yul\":6842:6848   */\n              dup7\n                /* \"#utility.yul\":6838:6855   */\n              add\n                /* \"#utility.yul\":6790:6869   */\n              tag_121\n              jump\t// in\n            tag_224:\n                /* \"#utility.yul\":6781:6869   */\n              swap2\n              pop\n                /* \"#utility.yul\":6597:6875   */\n              pop\n                /* \"#utility.yul\":6535:6875   */\n              swap3\n              swap2\n              pop\n              pop\n              jump\t// out\n                /* \"#utility.yul\":6881:7680   */\n            tag_43:\n                /* \"#utility.yul\":6968:6974   */\n              0x00\n                /* \"#utility.yul\":6976:6982   */\n              dup1\n                /* \"#utility.yul\":6984:6990   */\n              0x00\n                /* \"#utility.yul\":7033:7035   */\n              0x60\n                /* \"#utility.yul\":7021:7030   */\n              dup5\n                /* \"#utility.yul\":7012:7019   */\n              dup7\n                /* \"#utility.yul\":7008:7031   */\n              sub\n                /* \"#utility.yul\":7004:7036   */\n              slt\n                /* \"#utility.yul\":7001:7120   */\n              iszero\n              tag_226\n              jumpi\n                /* \"#utility.yul\":7039:7118   */\n              tag_227\n              tag_96\n              jump\t// in\n            tag_227:\n                /* \"#utility.yul\":7001:7120   */\n            tag_226:\n                /* \"#utility.yul\":7187:7188   */\n              0x00\n                /* \"#utility.yul\":7176:7185   */\n              dup5\n                /* \"#utility.yul\":7172:7189   */\n              add\n                /* \"#utility.yul\":7159:7190   */\n              calldataload\n                /* \"#utility.yul\":7217:7235   */\n              0xffffffffffffffff\n                /* \"#utility.yul\":7209:7215   */\n              dup2\n                /* \"#utility.yul\":7206:7236   */\n              gt\n                /* \"#utility.yul\":7203:7320   */\n              iszero\n              tag_228\n              jumpi\n                /* \"#utility.yul\":7239:7318   */\n              tag_229\n              tag_97\n              jump\t// in\n            tag_229:\n                /* \"#utility.yul\":7203:7320   */\n            tag_228:\n                /* \"#utility.yul\":7344:7407   */\n              tag_230\n                /* \"#utility.yul\":7399:7406   */\n              dup7\n                /* \"#utility.yul\":7390:7396   */\n              dup3\n                /* \"#utility.yul\":7379:7388   */\n              dup8\n                /* \"#utility.yul\":7375:7397   */\n              add\n                /* \"#utility.yul\":7344:7407   */\n              tag_122\n              jump\t// in\n            tag_230:\n                /* \"#utility.yul\":7334:7407   */\n              swap4\n              pop\n                /* \"#utility.yul\":7130:7417   */\n              pop\n                /* \"#utility.yul\":7456:7458   */\n              0x20\n                /* \"#utility.yul\":7482:7535   */\n              tag_231\n                /* \"#utility.yul\":7527:7534   */\n              dup7\n                /* \"#utility.yul\":7518:7524   */\n              dup3\n                /* \"#utility.yul\":7507:7516   */\n              dup8\n                /* \"#utility.yul\":7503:7525   */\n              add\n                /* \"#utility.yul\":7482:7535   */\n              tag_100\n              jump\t// in\n            tag_231:\n                /* \"#utility.yul\":7472:7535   */\n              swap3\n              pop\n                /* \"#utility.yul\":7427:7545   */\n              pop\n                /* \"#utility.yul\":7584:7586   */\n              0x40\n                /* \"#utility.yul\":7610:7663   */\n              tag_232\n                /* \"#utility.yul\":7655:7662   */\n              dup7\n                /* \"#utility.yul\":7646:7652   */\n              dup3\n                /* \"#utility.yul\":7635:7644   */\n              dup8\n                /* \"#utility.yul\":7631:7653   */\n              add\n                /* \"#utility.yul\":7610:7663   */\n              tag_104\n              jump\t// in\n            tag_232:\n                /* \"#utility.yul\":7600:7663   */\n              swap2\n              pop\n                /* \"#utility.yul\":7555:7673   */\n              pop\n                /* \"#utility.yul\":6881:7680   */\n              swap3\n              pop\n              swap3\n              pop\n              swap3\n              jump\t// out\n                /* \"#utility.yul\":7686:7866   */\n            tag_60:\n                /* \"#utility.yul\":7734:7811   */\n              0x4e487b7100000000000000000000000000000000000000000000000000000000\n                /* \"#utility.yul\":7731:7732   */\n              0x00\n                /* \"#utility.yul\":7724:7812   */\n              mstore\n                /* \"#utility.yul\":7831:7835   */\n              0x32\n                /* \"#utility.yul\":7828:7829   */\n              0x04\n                /* \"#utility.yul\":7821:7836   */\n              mstore\n                /* \"#utility.yul\":7855:7859   */\n              0x24\n                /* \"#utility.yul\":7852:7853   */\n              0x00\n                /* \"#utility.yul\":7845:7860   */\n              revert\n                /* \"#utility.yul\":7872:8052   */\n            tag_123:\n                /* \"#utility.yul\":7920:7997   */\n              0x4e487b7100000000000000000000000000000000000000000000000000000000\n                /* \"#utility.yul\":7917:7918   */\n              0x00\n                /* \"#utility.yul\":7910:7998   */\n              mstore\n                /* \"#utility.yul\":8017:8021   */\n              0x12\n                /* \"#utility.yul\":8014:8015   */\n              0x04\n                /* \"#utility.yul\":8007:8022   */\n              mstore\n                /* \"#utility.yul\":8041:8045   */\n              0x24\n                /* \"#utility.yul\":8038:8039   */\n              0x00\n                /* \"#utility.yul\":8031:8046   */\n              revert\n                /* \"#utility.yul\":8058:8238   */\n            tag_124:\n                /* \"#utility.yul\":8106:8183   */\n              0x4e487b7100000000000000000000000000000000000000000000000000000000\n                /* \"#utility.yul\":8103:8104   */\n              0x00\n                /* \"#utility.yul\":8096:8184   */\n              mstore\n                /* \"#utility.yul\":8203:8207   */\n              0x11\n                /* \"#utility.yul\":8200:8201   */\n              0x04\n                /* \"#utility.yul\":8193:8208   */\n              mstore\n                /* \"#utility.yul\":8227:8231   */\n              0x24\n                /* \"#utility.yul\":8224:8225   */\n              0x00\n                /* \"#utility.yul\":8217:8232   */\n              revert\n                /* \"#utility.yul\":8244:8429   */\n            tag_63:\n                /* \"#utility.yul\":8284:8285   */\n              0x00\n                /* \"#utility.yul\":8301:8321   */\n              tag_237\n                /* \"#utility.yul\":8319:8320   */\n              dup3\n                /* \"#utility.yul\":8301:8321   */\n              tag_98\n              jump\t// in\n            tag_237:\n                /* \"#utility.yul\":8296:8321   */\n              swap2\n              pop\n                /* \"#utility.yul\":8335:8355   */\n              tag_238\n                /* \"#utility.yul\":8353:8354   */\n              dup4\n                /* \"#utility.yul\":8335:8355   */\n              tag_98\n              jump\t// in\n            tag_238:\n                /* \"#utility.yul\":8330:8355   */\n              swap3\n              pop\n                /* \"#utility.yul\":8374:8375   */\n              dup3\n                /* \"#utility.yul\":8364:8399   */\n              tag_239\n              jumpi\n                /* \"#utility.yul\":8379:8397   */\n              tag_240\n              tag_123\n              jump\t// in\n            tag_240:\n                /* \"#utility.yul\":8364:8399   */\n            tag_239:\n                /* \"#utility.yul\":8421:8422   */\n              dup3\n                /* \"#utility.yul\":8418:8419   */\n              dup3\n                /* \"#utility.yul\":8414:8423   */\n              div\n                /* \"#utility.yul\":8409:8423   */\n              swap1\n              pop\n                /* \"#utility.yul\":8244:8429   */\n              swap3\n              swap2\n              pop\n              pop\n              jump\t// out\n                /* \"#utility.yul\":8435:8615   */\n            tag_125:\n                /* \"#utility.yul\":8483:8560   */\n              0x4e487b7100000000000000000000000000000000000000000000000000000000\n                /* \"#utility.yul\":8480:8481   */\n              0x00\n                /* \"#utility.yul\":8473:8561   */\n              mstore\n                /* \"#utility.yul\":8580:8584   */\n              0x22\n                /* \"#utility.yul\":8577:8578   */\n              0x04\n                /* \"#utility.yul\":8570:8585   */\n              mstore\n                /* \"#utility.yul\":8604:8608   */\n              0x24\n                /* \"#utility.yul\":8601:8602   */\n              0x00\n                /* \"#utility.yul\":8594:8609   */\n              revert\n                /* \"#utility.yul\":8621:8941   */\n            tag_71:\n                /* \"#utility.yul\":8665:8671   */\n              0x00\n                /* \"#utility.yul\":8702:8703   */\n              0x02\n                /* \"#utility.yul\":8696:8700   */\n              dup3\n                /* \"#utility.yul\":8692:8704   */\n              div\n                /* \"#utility.yul\":8682:8704   */\n              swap1\n              pop\n                /* \"#utility.yul\":8749:8750   */\n              0x01\n                /* \"#utility.yul\":8743:8747   */\n              dup3\n                /* \"#utility.yul\":8739:8751   */\n              and\n                /* \"#utility.yul\":8770:8788   */\n              dup1\n                /* \"#utility.yul\":8760:8841   */\n              tag_243\n              jumpi\n                /* \"#utility.yul\":8826:8830   */\n              0x7f\n                /* \"#utility.yul\":8818:8824   */\n              dup3\n                /* \"#utility.yul\":8814:8831   */\n              and\n                /* \"#utility.yul\":8804:8831   */\n              swap2\n              pop\n                /* \"#utility.yul\":8760:8841   */\n            tag_243:\n                /* \"#utility.yul\":8888:8890   */\n              0x20\n                /* \"#utility.yul\":8880:8886   */\n              dup3\n                /* \"#utility.yul\":8877:8891   */\n              lt\n                /* \"#utility.yul\":8857:8875   */\n              dup2\n                /* \"#utility.yul\":8854:8892   */\n              sub\n                /* \"#utility.yul\":8851:8935   */\n              tag_244\n              jumpi\n                /* \"#utility.yul\":8907:8925   */\n              tag_245\n              tag_125\n              jump\t// in\n            tag_245:\n                /* \"#utility.yul\":8851:8935   */\n            tag_244:\n                /* \"#utility.yul\":8672:8941   */\n              pop\n                /* \"#utility.yul\":8621:8941   */\n              swap2\n              swap1\n              pop\n              jump\t// out\n                /* \"#utility.yul\":8947:9088   */\n            tag_126:\n                /* \"#utility.yul\":8996:9000   */\n              0x00\n                /* \"#utility.yul\":9019:9022   */\n              dup2\n                /* \"#utility.yul\":9011:9022   */\n              swap1\n              pop\n                /* \"#utility.yul\":9042:9045   */\n              dup2\n                /* \"#utility.yul\":9039:9040   */\n              0x00\n                /* \"#utility.yul\":9032:9046   */\n              mstore\n                /* \"#utility.yul\":9076:9080   */\n              0x20\n                /* \"#utility.yul\":9073:9074   */\n              0x00\n                /* \"#utility.yul\":9063:9081   */\n              keccak256\n                /* \"#utility.yul\":9055:9081   */\n              swap1\n              pop\n                /* \"#utility.yul\":8947:9088   */\n              swap2\n              swap1\n              pop\n              jump\t// out\n                /* \"#utility.yul\":9094:9187   */\n            tag_127:\n                /* \"#utility.yul\":9131:9137   */\n              0x00\n                /* \"#utility.yul\":9178:9180   */\n              0x20\n                /* \"#utility.yul\":9173:9175   */\n              0x1f\n                /* \"#utility.yul\":9166:9171   */\n              dup4\n                /* \"#utility.yul\":9162:9176   */\n              add\n                /* \"#utility.yul\":9158:9181   */\n              div\n                /* \"#utility.yul\":9148:9181   */\n              swap1\n              pop\n                /* \"#utility.yul\":9094:9187   */\n              swap2\n              swap1\n              pop\n              jump\t// out\n                /* \"#utility.yul\":9193:9300   */\n            tag_128:\n                /* \"#utility.yul\":9237:9245   */\n              0x00\n                /* \"#utility.yul\":9287:9292   */\n              dup3\n                /* \"#utility.yul\":9281:9285   */\n              dup3\n                /* \"#utility.yul\":9277:9293   */\n              shl\n                /* \"#utility.yul\":9256:9293   */\n              swap1\n              pop\n                /* \"#utility.yul\":9193:9300   */\n              swap3\n              swap2\n              pop\n              pop\n              jump\t// out\n                /* \"#utility.yul\":9306:9699   */\n            tag_129:\n                /* \"#utility.yul\":9375:9381   */\n              0x00\n                /* \"#utility.yul\":9425:9426   */\n              0x08\n                /* \"#utility.yul\":9413:9423   */\n              dup4\n                /* \"#utility.yul\":9409:9427   */\n              mul\n                /* \"#utility.yul\":9448:9545   */\n              tag_250\n                /* \"#utility.yul\":9478:9544   */\n              0xffffffffffffffffffffffffffffffffffffffffffffffffffffffffffffffff\n                /* \"#utility.yul\":9467:9476   */\n              dup3\n                /* \"#utility.yul\":9448:9545   */\n              tag_128\n              jump\t// in\n            tag_250:\n                /* \"#utility.yul\":9566:9605   */\n              tag_251\n                /* \"#utility.yul\":9596:9604   */\n              dup7\n                /* \"#utility.yul\":9585:9594   */\n              dup4\n                /* \"#utility.yul\":9566:9605   */\n              tag_128\n              jump\t// in\n            tag_251:\n                /* \"#utility.yul\":9554:9605   */\n              swap6\n              pop\n                /* \"#utility.yul\":9638:9642   */\n              dup1\n                /* \"#utility.yul\":9634:9643   */\n              not\n                /* \"#utility.yul\":9627:9632   */\n              dup5\n                /* \"#utility.yul\":9623:9644   */\n              and\n                /* \"#utility.yul\":9614:9644   */\n              swap4\n              pop\n                /* \"#utility.yul\":9687:9691   */\n              dup1\n                /* \"#utility.yul\":9677:9685   */\n              dup7\n                /* \"#utility.yul\":9673:9692   */\n              and\n                /* \"#utility.yul\":9666:9671   */\n              dup5\n                /* \"#utility.yul\":9663:9693   */\n              or\n                /* \"#utility.yul\":9653:9693   */\n              swap3\n              pop\n                /* \"#utility.yul\":9382:9699   */\n              pop\n              pop\n                /* \"#utility.yul\":9306:9699   */\n              swap4\n              swap3\n              pop\n              pop\n              pop\n              jump\t// out\n                /* \"#utility.yul\":9705:9765   */\n            tag_130:\n                /* \"#utility.yul\":9733:9736   */\n              0x00\n                /* \"#utility.yul\":9754:9759   */\n              dup2\n                /* \"#utility.yul\":9747:9759   */\n              swap1\n              pop\n                /* \"#utility.yul\":9705:9765   */\n              swap2\n              swap1\n              pop\n              jump\t// out\n                /* \"#utility.yul\":9771:9913   */\n            tag_131:\n                /* \"#utility.yul\":9821:9830   */\n              0x00\n                /* \"#utility.yul\":9854:9907   */\n              tag_254\n                /* \"#utility.yul\":9872:9906   */\n              tag_255\n                /* \"#utility.yul\":9881:9905   */\n              tag_256\n                /* \"#utility.yul\":9899:9904   */\n              dup5\n                /* \"#utility.yul\":9881:9905   */\n              tag_98\n              jump\t// in\n            tag_256:\n                /* \"#utility.yul\":9872:9906   */\n              tag_130\n              jump\t// in\n            tag_255:\n                /* \"#utility.yul\":9854:9907   */\n              tag_98\n              jump\t// in\n            tag_254:\n                /* \"#utility.yul\":9841:9907   */\n              swap1\n              pop\n                /* \"#utility.yul\":9771:9913   */\n              swap2\n              swap1\n              pop\n              jump\t// out\n                /* \"#utility.yul\":9919:9994   */\n            tag_132:\n                /* \"#utility.yul\":9962:9965   */\n              0x00\n                /* \"#utility.yul\":9983:9988   */\n              dup2\n                /* \"#utility.yul\":9976:9988   */\n              swap1\n              pop\n                /* \"#utility.yul\":9919:9994   */\n              swap2\n              swap1\n              pop\n              jump\t// out\n                /* \"#utility.yul\":10000:10269   */\n            tag_133:\n                /* \"#utility.yul\":10110:10149   */\n              tag_259\n                /* \"#utility.yul\":10141:10148   */\n              dup4\n                /* \"#utility.yul\":10110:10149   */\n              tag_131\n              jump\t// in\n            tag_259:\n                /* \"#utility.yul\":10171:10262   */\n              tag_260\n                /* \"#utility.yul\":10220:10261   */\n              tag_261\n                /* \"#utility.yul\":10244:10260   */\n              dup3\n                /* \"#utility.yul\":10220:10261   */\n              tag_132\n              jump\t// in\n            tag_261:\n                /* \"#utility.yul\":10212:10218   */\n              dup5\n                /* \"#utility.yul\":10205:10209   */\n              dup5\n                /* \"#utility.yul\":10199:10210   */\n              sload\n                /* \"#utility.yul\":10171:10262   */\n              tag_129\n              jump\t// in\n            tag_260:\n                /* \"#utility.yul\":10165:10169   */\n              dup3\n                /* \"#utility.yul\":10158:10263   */\n              sstore\n                /* \"#utility.yul\":10076:10269   */\n              pop\n                /* \"#utility.yul\":10000:10269   */\n              pop\n              pop\n              pop\n              jump\t// out\n                /* \"#utility.yul\":10275:10348   */\n            tag_134:\n                /* \"#utility.yul\":10320:10323   */\n              0x00\n                /* \"#utility.yul\":10275:10348   */\n              swap1\n              jump\t// out\n                /* \"#utility.yul\":10354:10543   */\n            tag_135:\n                /* \"#utility.yul\":10431:10463   */\n              tag_264\n              tag_134\n              jump\t// in\n            tag_264:\n                /* \"#utility.yul\":10472:10537   */\n              tag_265\n                /* \"#utility.yul\":10530:10536   */\n              dup2\n                /* \"#utility.yul\":10522:10528   */\n              dup5\n                /* \"#utility.yul\":10516:10520   */\n              dup5\n                /* \"#utility.yul\":10472:10537   */\n              tag_133\n              jump\t// in\n            tag_265:\n                /* \"#utility.yul\":10407:10543   */\n              pop\n                /* \"#utility.yul\":10354:10543   */\n              pop\n              pop\n              jump\t// out\n                /* \"#utility.yul\":10549:10735   */\n            tag_136:\n                /* \"#utility.yul\":10609:10729   */\n            tag_267:\n                /* \"#utility.yul\":10626:10629   */\n              dup2\n                /* \"#utility.yul\":10619:10624   */\n              dup2\n                /* \"#utility.yul\":10616:10630   */\n              lt\n                /* \"#utility.yul\":10609:10729   */\n              iszero\n              tag_269\n              jumpi\n                /* \"#utility.yul\":10680:10719   */\n              tag_270\n                /* \"#utility.yul\":10717:10718   */\n              0x00\n                /* \"#utility.yul\":10710:10715   */\n              dup3\n                /* \"#utility.yul\":10680:10719   */\n              tag_135\n              jump\t// in\n            tag_270:\n                /* \"#utility.yul\":10653:10654   */\n              0x01\n                /* \"#utility.yul\":10646:10651   */\n              dup2\n                /* \"#utility.yul\":10642:10655   */\n              add\n                /* \"#utility.yul\":10633:10655   */\n              swap1\n              pop\n                /* \"#utility.yul\":10609:10729   */\n              jump(tag_267)\n            tag_269:\n                /* \"#utility.yul\":10549:10735   */\n              pop\n              pop\n              jump\t// out\n                /* \"#utility.yul\":10741:11284   */\n            tag_137:\n                /* \"#utility.yul\":10842:10844   */\n              0x1f\n                /* \"#utility.yul\":10837:10840   */\n              dup3\n                /* \"#utility.yul\":10834:10845   */\n              gt\n                /* \"#utility.yul\":10831:11277   */\n              iszero\n              tag_272\n              jumpi\n                /* \"#utility.yul\":10876:10914   */\n              tag_273\n                /* \"#utility.yul\":10908:10913   */\n              dup2\n                /* \"#utility.yul\":10876:10914   */\n              tag_126\n              jump\t// in\n            tag_273:\n                /* \"#utility.yul\":10960:10989   */\n              tag_274\n                /* \"#utility.yul\":10978:10988   */\n              dup5\n                /* \"#utility.yul\":10960:10989   */\n              tag_127\n              jump\t// in\n            tag_274:\n                /* \"#utility.yul\":10950:10958   */\n              dup2\n                /* \"#utility.yul\":10946:10990   */\n              add\n                /* \"#utility.yul\":11143:11145   */\n              0x20\n                /* \"#utility.yul\":11131:11141   */\n              dup6\n                /* \"#utility.yul\":11128:11146   */\n              lt\n                /* \"#utility.yul\":11125:11174   */\n              iszero\n              tag_275\n              jumpi\n                /* \"#utility.yul\":11164:11172   */\n              dup2\n                /* \"#utility.yul\":11149:11172   */\n              swap1\n              pop\n                /* \"#utility.yul\":11125:11174   */\n            tag_275:\n                /* \"#utility.yul\":11187:11267   */\n              tag_276\n                /* \"#utility.yul\":11243:11265   */\n              tag_277\n                /* \"#utility.yul\":11261:11264   */\n              dup6\n                /* \"#utility.yul\":11243:11265   */\n              tag_127\n              jump\t// in\n            tag_277:\n                /* \"#utility.yul\":11233:11241   */\n              dup4\n                /* \"#utility.yul\":11229:11266   */\n              add\n                /* \"#utility.yul\":11216:11227   */\n              dup3\n                /* \"#utility.yul\":11187:11267   */\n              tag_136\n              jump\t// in\n            tag_276:\n                /* \"#utility.yul\":10846:11277   */\n              pop\n              pop\n                /* \"#utility.yul\":10831:11277   */\n            tag_272:\n                /* \"#utility.yul\":10741:11284   */\n              pop\n              pop\n              pop\n              jump\t// out\n                /* \"#utility.yul\":11290:11407   */\n            tag_138:\n                /* \"#utility.yul\":11344:11352   */\n              0x00\n                /* \"#utility.yul\":11394:11399   */\n              dup3\n                /* \"#utility.yul\":11388:11392   */\n              dup3\n                /* \"#utility.yul\":11384:11400   */\n              shr\n                /* \"#utility.yul\":11363:11400   */\n              swap1\n              pop\n                /* \"#utility.yul\":11290:11407   */\n              swap3\n              swap2\n              pop\n              pop\n              jump\t// out\n                /* \"#utility.yul\":11413:11582   */\n            tag_139:\n                /* \"#utility.yul\":11457:11463   */\n              0x00\n                /* \"#utility.yul\":11490:11541   */\n              tag_280\n                /* \"#utility.yul\":11538:11539   */\n              0x00\n                /* \"#utility.yul\":11534:11540   */\n              not\n                /* \"#utility.yul\":11526:11531   */\n              dup5\n                /* \"#utility.yul\":11523:11524   */\n              0x08\n                /* \"#utility.yul\":11519:11532   */\n              mul\n                /* \"#utility.yul\":11490:11541   */\n              tag_138\n              jump\t// in\n            tag_280:\n                /* \"#utility.yul\":11486:11542   */\n              not\n                /* \"#utility.yul\":11571:11575   */\n              dup1\n                /* \"#utility.yul\":11565:11569   */\n              dup4\n                /* \"#utility.yul\":11561:11576   */\n              and\n                /* \"#utility.yul\":11551:11576   */\n              swap2\n              pop\n                /* \"#utility.yul\":11464:11582   */\n              pop\n                /* \"#utility.yul\":11413:11582   */\n              swap3\n              swap2\n              pop\n              pop\n              jump\t// out\n                /* \"#utility.yul\":11587:11882   */\n            tag_140:\n                /* \"#utility.yul\":11663:11667   */\n              0x00\n                /* \"#utility.yul\":11809:11838   */\n              tag_282\n                /* \"#utility.yul\":11834:11837   */\n              dup4\n                /* \"#utility.yul\":11828:11832   */\n              dup4\n                /* \"#utility.yul\":11809:11838   */\n              tag_139\n              jump\t// in\n            tag_282:\n                /* \"#utility.yul\":11801:11838   */\n              swap2\n              pop\n                /* \"#utility.yul\":11871:11874   */\n              dup3\n                /* \"#utility.yul\":11868:11869   */\n              0x02\n                /* \"#utility.yul\":11864:11875   */\n              mul\n                /* \"#utility.yul\":11858:11862   */\n              dup3\n                /* \"#utility.yul\":11855:11876   */\n              or\n                /* \"#utility.yul\":11847:11876   */\n              swap1\n              pop\n                /* \"#utility.yul\":11587:11882   */\n              swap3\n              swap2\n              pop\n              pop\n              jump\t// out\n                /* \"#utility.yul\":11887:13282   */\n            tag_81:\n                /* \"#utility.yul\":12004:12041   */\n              tag_284\n                /* \"#utility.yul\":12037:12040   */\n              dup3\n                /* \"#utility.yul\":12004:12041   */\n              tag_108\n              jump\t// in\n            tag_284:\n                /* \"#utility.yul\":12106:12124   */\n              0xffffffffffffffff\n                /* \"#utility.yul\":12098:12104   */\n              dup2\n                /* \"#utility.yul\":12095:12125   */\n              gt\n                /* \"#utility.yul\":12092:12148   */\n              iszero\n              tag_285\n              jumpi\n                /* \"#utility.yul\":12128:12146   */\n              tag_286\n              tag_116\n              jump\t// in\n            tag_286:\n                /* \"#utility.yul\":12092:12148   */\n            tag_285:\n                /* \"#utility.yul\":12172:12210   */\n              tag_287\n                /* \"#utility.yul\":12204:12208   */\n              dup3\n                /* \"#utility.yul\":12198:12209   */\n              sload\n                /* \"#utility.yul\":12172:12210   */\n              tag_71\n              jump\t// in\n            tag_287:\n                /* \"#utility.yul\":12257:12324   */\n              tag_288\n                /* \"#utility.yul\":12317:12323   */\n              dup3\n                /* \"#utility.yul\":12309:12315   */\n              dup3\n                /* \"#utility.yul\":12303:12307   */\n              dup6\n                /* \"#utility.yul\":12257:12324   */\n              tag_137\n              jump\t// in\n            tag_288:\n                /* \"#utility.yul\":12351:12352   */\n              0x00\n                /* \"#utility.yul\":12375:12379   */\n              0x20\n                /* \"#utility.yul\":12362:12379   */\n              swap1\n              pop\n                /* \"#utility.yul\":12407:12409   */\n              0x1f\n                /* \"#utility.yul\":12399:12405   */\n              dup4\n                /* \"#utility.yul\":12396:12410   */\n              gt\n                /* \"#utility.yul\":12424:12425   */\n              0x01\n                /* \"#utility.yul\":12419:13037   */\n              dup2\n              eq\n              tag_290\n              jumpi\n                /* \"#utility.yul\":13081:13082   */\n              0x00\n                /* \"#utility.yul\":13098:13104   */\n              dup5\n                /* \"#utility.yul\":13095:13172   */\n              iszero\n              tag_291\n              jumpi\n                /* \"#utility.yul\":13147:13156   */\n              dup3\n                /* \"#utility.yul\":13142:13145   */\n              dup8\n                /* \"#utility.yul\":13138:13157   */\n              add\n                /* \"#utility.yul\":13132:13158   */\n              mload\n                /* \"#utility.yul\":13123:13158   */\n              swap1\n              pop\n                /* \"#utility.yul\":13095:13172   */\n            tag_291:\n                /* \"#utility.yul\":13198:13265   */\n              tag_292\n                /* \"#utility.yul\":13258:13264   */\n              dup6\n                /* \"#utility.yul\":13251:13256   */\n              dup3\n                /* \"#utility.yul\":13198:13265   */\n              tag_140\n              jump\t// in\n            tag_292:\n                /* \"#utility.yul\":13192:13196   */\n              dup7\n                /* \"#utility.yul\":13185:13266   */\n              sstore\n                /* \"#utility.yul\":13054:13276   */\n              pop\n                /* \"#utility.yul\":12389:13276   */\n              jump(tag_289)\n                /* \"#utility.yul\":12419:13037   */\n            tag_290:\n                /* \"#utility.yul\":12471:12475   */\n              0x1f\n                /* \"#utility.yul\":12467:12476   */\n              not\n                /* \"#utility.yul\":12459:12465   */\n              dup5\n                /* \"#utility.yul\":12455:12477   */\n              and\n                /* \"#utility.yul\":12505:12542   */\n              tag_293\n                /* \"#utility.yul\":12537:12541   */\n              dup7\n                /* \"#utility.yul\":12505:12542   */\n              tag_126\n              jump\t// in\n            tag_293:\n                /* \"#utility.yul\":12564:12565   */\n              0x00\n                /* \"#utility.yul\":12578:12786   */\n            tag_294:\n                /* \"#utility.yul\":12592:12599   */\n              dup3\n                /* \"#utility.yul\":12589:12590   */\n              dup2\n                /* \"#utility.yul\":12586:12600   */\n              lt\n                /* \"#utility.yul\":12578:12786   */\n              iszero\n              tag_296\n              jumpi\n                /* \"#utility.yul\":12671:12680   */\n              dup5\n                /* \"#utility.yul\":12666:12669   */\n              dup10\n                /* \"#utility.yul\":12662:12681   */\n              add\n                /* \"#utility.yul\":12656:12682   */\n              mload\n                /* \"#utility.yul\":12648:12654   */\n              dup3\n                /* \"#utility.yul\":12641:12683   */\n              sstore\n                /* \"#utility.yul\":12722:12723   */\n              0x01\n                /* \"#utility.yul\":12714:12720   */\n              dup3\n                /* \"#utility.yul\":12710:12724   */\n              add\n                /* \"#utility.yul\":12700:12724   */\n              swap2\n              pop\n                /* \"#utility.yul\":12769:12771   */\n              0x20\n                /* \"#utility.yul\":12758:12767   */\n              dup6\n                /* \"#utility.yul\":12754:12772   */\n              add\n                /* \"#utility.yul\":12741:12772   */\n              swap5\n              pop\n                /* \"#utility.yul\":12615:12619   */\n              0x20\n                /* \"#utility.yul\":12612:12613   */\n              dup2\n                /* \"#utility.yul\":12608:12620   */\n              add\n                /* \"#utility.yul\":12603:12620   */\n              swap1\n              pop\n                /* \"#utility.yul\":12578:12786   */\n              jump(tag_294)\n            tag_296:\n                /* \"#utility.yul\":12814:12820   */\n              dup7\n                /* \"#utility.yul\":12805:12812   */\n              dup4\n                /* \"#utility.yul\":12802:12821   */\n              lt\n                /* \"#utility.yul\":12799:12978   */\n              iszero\n              tag_297\n              jumpi\n                /* \"#utility.yul\":12872:12881   */\n              dup5\n                /* \"#utility.yul\":12867:12870   */\n              dup10\n                /* \"#utility.yul\":12863:12882   */\n              add\n                /* \"#utility.yul\":12857:12883   */\n              mload\n                /* \"#utility.yul\":12915:12963   */\n              tag_298\n                /* \"#utility.yul\":12957:12961   */\n              0x1f\n                /* \"#utility.yul\":12949:12955   */\n              dup10\n                /* \"#utility.yul\":12945:12962   */\n              and\n                /* \"#utility.yul\":12934:12943   */\n              dup3\n                /* \"#utility.yul\":12915:12963   */\n              tag_139\n              jump\t// in\n            tag_298:\n                /* \"#utility.yul\":12907:12913   */\n              dup4\n                /* \"#utility.yul\":12900:12964   */\n              sstore\n                /* \"#utility.yul\":12822:12978   */\n              pop\n                /* \"#utility.yul\":12799:12978   */\n            tag_297:\n                /* \"#utility.yul\":13024:13025   */\n              0x01\n                /* \"#utility.yul\":13020:13021   */\n              0x02\n                /* \"#utility.yul\":13012:13018   */\n              dup9\n                /* \"#utility.yul\":13008:13022   */\n              mul\n                /* \"#utility.yul\":13004:13026   */\n              add\n                /* \"#utility.yul\":12998:13002   */\n              dup9\n                /* \"#utility.yul\":12991:13027   */\n              sstore\n                /* \"#utility.yul\":12426:13037   */\n              pop\n              pop\n              pop\n                /* \"#utility.yul\":12389:13276   */\n            tag_289:\n              pop\n                /* \"#utility.yul\":11979:13282   */\n              pop\n              pop\n              pop\n                /* \"#utility.yul\":11887:13282   */\n              pop\n              pop\n              jump\t// out\n                /* \"#utility.yul\":13288:13521   */\n            tag_85:\n                /* \"#utility.yul\":13327:13330   */\n              0x00\n                /* \"#utility.yul\":13350:13374   */\n              tag_300\n                /* \"#utility.yul\":13368:13373   */\n              dup3\n                /* \"#utility.yul\":13350:13374   */\n              tag_98\n              jump\t// in\n            tag_300:\n                /* \"#utility.yul\":13341:13374   */\n              swap2\n              pop\n                /* \"#utility.yul\":13396:13462   */\n              0xffffffffffffffffffffffffffffffffffffffffffffffffffffffffffffffff\n                /* \"#utility.yul\":13389:13394   */\n              dup3\n                /* \"#utility.yul\":13386:13463   */\n              sub\n                /* \"#utility.yul\":13383:13486   */\n              tag_301\n              jumpi\n                /* \"#utility.yul\":13466:13484   */\n              tag_302\n              tag_124\n              jump\t// in\n            tag_302:\n                /* \"#utility.yul\":13383:13486   */\n            tag_301:\n                /* \"#utility.yul\":13513:13514   */\n              0x01\n                /* \"#utility.yul\":13506:13511   */\n              dup3\n                /* \"#utility.yul\":13502:13515   */\n              add\n                /* \"#utility.yul\":13495:13515   */\n              swap1\n              pop\n                /* \"#utility.yul\":13288:13521   */\n              swap2\n              swap1\n              pop\n              jump\t// out\n                /* \"#utility.yul\":13527:13704   */\n            tag_141:\n                /* \"#utility.yul\":13667:13696   */\n              0x53656e646572206973206e6f74206120636f6e74726962757465720000000000\n                /* \"#utility.yul\":13663:13664   */\n              0x00\n                /* \"#utility.yul\":13655:13661   */\n              dup3\n                /* \"#utility.yul\":13651:13665   */\n              add\n                /* \"#utility.yul\":13644:13697   */\n              mstore\n                /* \"#utility.yul\":13527:13704   */\n              pop\n              jump\t// out\n                /* \"#utility.yul\":13710:14076   */\n            tag_142:\n                /* \"#utility.yul\":13852:13855   */\n              0x00\n                /* \"#utility.yul\":13873:13940   */\n              tag_305\n                /* \"#utility.yul\":13937:13939   */\n              0x1b\n                /* \"#utility.yul\":13932:13935   */\n              dup4\n                /* \"#utility.yul\":13873:13940   */\n              tag_109\n              jump\t// in\n            tag_305:\n                /* \"#utility.yul\":13866:13940   */\n              swap2\n              pop\n                /* \"#utility.yul\":13949:14042   */\n              tag_306\n                /* \"#utility.yul\":14038:14041   */\n              dup3\n                /* \"#utility.yul\":13949:14042   */\n              tag_141\n              jump\t// in\n            tag_306:\n                /* \"#utility.yul\":14067:14069   */\n              0x20\n                /* \"#utility.yul\":14062:14065   */\n              dup3\n                /* \"#utility.yul\":14058:14070   */\n              add\n                /* \"#utility.yul\":14051:14070   */\n              swap1\n              pop\n                /* \"#utility.yul\":13710:14076   */\n              swap2\n              swap1\n              pop\n              jump\t// out\n                /* \"#utility.yul\":14082:14501   */\n            tag_92:\n                /* \"#utility.yul\":14248:14252   */\n              0x00\n                /* \"#utility.yul\":14286:14288   */\n              0x20\n                /* \"#utility.yul\":14275:14284   */\n              dup3\n                /* \"#utility.yul\":14271:14289   */\n              add\n                /* \"#utility.yul\":14263:14289   */\n              swap1\n              pop\n                /* \"#utility.yul\":14335:14344   */\n              dup2\n                /* \"#utility.yul\":14329:14333   */\n              dup2\n                /* \"#utility.yul\":14325:14345   */\n              sub\n                /* \"#utility.yul\":14321:14322   */\n              0x00\n                /* \"#utility.yul\":14310:14319   */\n              dup4\n                /* \"#utility.yul\":14306:14323   */\n              add\n                /* \"#utility.yul\":14299:14346   */\n              mstore\n                /* \"#utility.yul\":14363:14494   */\n              tag_308\n                /* \"#utility.yul\":14489:14493   */\n              dup2\n                /* \"#utility.yul\":14363:14494   */\n              tag_142\n              jump\t// in\n            tag_308:\n                /* \"#utility.yul\":14355:14494   */\n              swap1\n              pop\n                /* \"#utility.yul\":14082:14501   */\n              swap2\n              swap1\n              pop\n              jump\t// out\n\n            auxdata: 0xa264697066735822122082ed0b85311f8e8dc78f28e02946e080504e0ad1d62cd37231e7cd793f55f64664736f6c63430008170033\n        }\n    }\n\n    auxdata: 0xa2646970667358221220fb2007eafe7021a25ba2ac046f310828a48527c864fac462c0ff8e95c4db759264736f6c63430008170033\n}\n",
    "bytecode": {
      "linkReferences": {},
      "object": "608060405234801561000f575f80fd5b506115508061001d5f395ff3fe608060405234801561000f575f80fd5b506004361061003f575f3560e01c8063216402ab14610043578063339d50a51461005f5780634acb9d4f1461008f575b5f80fd5b61005d6004803603810190610058919061024e565b6100ad565b005b6100796004803603810190610074919061024e565b610146565b60405161008691906102b8565b60405180910390f35b610097610180565b6040516100a49190610388565b60405180910390f35b5f81336040516100bc9061020a565b6100c79291906103b7565b604051809103905ff0801580156100e0573d5f803e3d5ffd5b5090505f81908060018154018082558091505060019003905f5260205f20015f9091909190916101000a81548173ffffffffffffffffffffffffffffffffffffffff021916908373ffffffffffffffffffffffffffffffffffffffff1602179055505050565b5f8181548110610154575f80fd5b905f5260205f20015f915054906101000a900473ffffffffffffffffffffffffffffffffffffffff1681565b60605f80548060200260200160405190810160405280929190818152602001828054801561020057602002820191905f5260205f20905b815f9054906101000a900473ffffffffffffffffffffffffffffffffffffffff1673ffffffffffffffffffffffffffffffffffffffff16815260200190600101908083116101b7575b5050505050905090565b61113c806103df83390190565b5f80fd5b5f819050919050565b61022d8161021b565b8114610237575f80fd5b50565b5f8135905061024881610224565b92915050565b5f6020828403121561026357610262610217565b5b5f6102708482850161023a565b91505092915050565b5f73ffffffffffffffffffffffffffffffffffffffff82169050919050565b5f6102a282610279565b9050919050565b6102b281610298565b82525050565b5f6020820190506102cb5f8301846102a9565b92915050565b5f81519050919050565b5f82825260208201905092915050565b5f819050602082019050919050565b61030381610298565b82525050565b5f61031483836102fa565b60208301905092915050565b5f602082019050919050565b5f610336826102d1565b61034081856102db565b935061034b836102eb565b805f5b8381101561037b5781516103628882610309565b975061036d83610320565b92505060018101905061034e565b5085935050505092915050565b5f6020820190508181035f8301526103a0818461032c565b905092915050565b6103b18161021b565b82525050565b5f6040820190506103ca5f8301856103a8565b6103d760208301846102a9565b939250505056fe608060405234801562000010575f80fd5b506040516200113c3803806200113c833981810160405281019062000036919062000122565b8060015f6101000a81548173ffffffffffffffffffffffffffffffffffffffff021916908373ffffffffffffffffffffffffffffffffffffffff16021790555081600281905550505062000167565b5f80fd5b5f819050919050565b6200009d8162000089565b8114620000a8575f80fd5b50565b5f81519050620000bb8162000092565b92915050565b5f73ffffffffffffffffffffffffffffffffffffffff82169050919050565b5f620000ec82620000c1565b9050919050565b620000fe81620000e0565b811462000109575f80fd5b50565b5f815190506200011c81620000f3565b92915050565b5f80604083850312156200013b576200013a62000085565b5b5f6200014a85828601620000ab565b92505060206200015d858286016200010c565b9150509250929050565b610fc780620001755f395ff3fe608060405260043610610085575f3560e01c806382fde0931161005857806382fde093146101575780638a9cfd5514610181578063937e09b1146101a9578063d7bb99ba146101d3578063d7d1bbdb146101dd57610085565b8063034410061461008957806334b66460146100b1578063481c6a75146100ed57806381d12c5814610117575b5f80fd5b348015610094575f80fd5b506100af60048036038101906100aa91906107b5565b610205565b005b3480156100bc575f80fd5b506100d760048036038101906100d2919061083a565b610343565b6040516100e4919061087f565b60405180910390f35b3480156100f8575f80fd5b50610101610360565b60405161010e91906108a7565b60405180910390f35b348015610122575f80fd5b5061013d600480360381019061013891906107b5565b610385565b60405161014e959493929190610959565b60405180910390f35b348015610162575f80fd5b5061016b610477565b60405161017891906109b1565b60405180910390f35b34801561018c575f80fd5b506101a760048036038101906101a29190610af6565b61047d565b005b3480156101b4575f80fd5b506101bd61057c565b6040516101ca91906109b1565b60405180910390f35b6101db610582565b005b3480156101e8575f80fd5b5061020360048036038101906101fe91906107b5565b6105fd565b005b60015f9054906101000a900473ffffffffffffffffffffffffffffffffffffffff1673ffffffffffffffffffffffffffffffffffffffff163373ffffffffffffffffffffffffffffffffffffffff161461025d575f80fd5b5f80828154811061027157610270610b62565b5b905f5260205f2090600502019050600260045461028e9190610be9565b81600401541161029c575f80fd5b8060020160149054906101000a900460ff16156102b7575f80fd5b806002015f9054906101000a900473ffffffffffffffffffffffffffffffffffffffff1673ffffffffffffffffffffffffffffffffffffffff166108fc826001015490811502906040515f60405180830381858888f19350505050158015610321573d5f803e3d5ffd5b5060018160020160146101000a81548160ff0219169083151502179055505050565b6003602052805f5260405f205f915054906101000a900460ff1681565b60015f9054906101000a900473ffffffffffffffffffffffffffffffffffffffff1681565b5f8181548110610393575f80fd5b905f5260205f2090600502015f91509050805f0180546103b290610c46565b80601f01602080910402602001604051908101604052809291908181526020018280546103de90610c46565b80156104295780601f1061040057610100808354040283529160200191610429565b820191905f5260205f20905b81548152906001019060200180831161040c57829003601f168201915b505050505090806001015490806002015f9054906101000a900473ffffffffffffffffffffffffffffffffffffffff16908060020160149054906101000a900460ff16908060040154905085565b60045481565b60015f9054906101000a900473ffffffffffffffffffffffffffffffffffffffff1673ffffffffffffffffffffffffffffffffffffffff163373ffffffffffffffffffffffffffffffffffffffff16146104d5575f80fd5b5f8060018160018154018082558091505003905f5260205f209060050201905083815f0190816105059190610e13565b5082816001018190555081816002015f6101000a81548173ffffffffffffffffffffffffffffffffffffffff021916908373ffffffffffffffffffffffffffffffffffffffff1602179055505f8160020160146101000a81548160ff0219169083151502179055505f816004018190555050505050565b60025481565b600254341161058f575f80fd5b600160035f3373ffffffffffffffffffffffffffffffffffffffff1673ffffffffffffffffffffffffffffffffffffffff1681526020019081526020015f205f6101000a81548160ff02191690831515021790555060045f8154809291906105f690610ee2565b9190505550565b5f80828154811061061157610610610b62565b5b905f5260205f209060050201905060035f3373ffffffffffffffffffffffffffffffffffffffff1673ffffffffffffffffffffffffffffffffffffffff1681526020019081526020015f205f9054906101000a900460ff166106a8576040517f08c379a000000000000000000000000000000000000000000000000000000000815260040161069f90610f73565b60405180910390fd5b806003015f3373ffffffffffffffffffffffffffffffffffffffff1673ffffffffffffffffffffffffffffffffffffffff1681526020019081526020015f205f9054906101000a900460ff16156106fd575f80fd5b6001816003015f3373ffffffffffffffffffffffffffffffffffffffff1673ffffffffffffffffffffffffffffffffffffffff1681526020019081526020015f205f6101000a81548160ff021916908315150217905550806004015f81548092919061076890610ee2565b91905055505050565b5f604051905090565b5f80fd5b5f80fd5b5f819050919050565b61079481610782565b811461079e575f80fd5b50565b5f813590506107af8161078b565b92915050565b5f602082840312156107ca576107c961077a565b5b5f6107d7848285016107a1565b91505092915050565b5f73ffffffffffffffffffffffffffffffffffffffff82169050919050565b5f610809826107e0565b9050919050565b610819816107ff565b8114610823575f80fd5b50565b5f8135905061083481610810565b92915050565b5f6020828403121561084f5761084e61077a565b5b5f61085c84828501610826565b91505092915050565b5f8115159050919050565b61087981610865565b82525050565b5f6020820190506108925f830184610870565b92915050565b6108a1816107ff565b82525050565b5f6020820190506108ba5f830184610898565b92915050565b5f81519050919050565b5f82825260208201905092915050565b5f5b838110156108f75780820151818401526020810190506108dc565b5f8484015250505050565b5f601f19601f8301169050919050565b5f61091c826108c0565b61092681856108ca565b93506109368185602086016108da565b61093f81610902565b840191505092915050565b61095381610782565b82525050565b5f60a0820190508181035f8301526109718188610912565b9050610980602083018761094a565b61098d6040830186610898565b61099a6060830185610870565b6109a7608083018461094a565b9695505050505050565b5f6020820190506109c45f83018461094a565b92915050565b5f80fd5b5f80fd5b7f4e487b71000000000000000000000000000000000000000000000000000000005f52604160045260245ffd5b610a0882610902565b810181811067ffffffffffffffff82111715610a2757610a266109d2565b5b80604052505050565b5f610a39610771565b9050610a4582826109ff565b919050565b5f67ffffffffffffffff821115610a6457610a636109d2565b5b610a6d82610902565b9050602081019050919050565b828183375f83830152505050565b5f610a9a610a9584610a4a565b610a30565b905082815260208101848484011115610ab657610ab56109ce565b5b610ac1848285610a7a565b509392505050565b5f82601f830112610add57610adc6109ca565b5b8135610aed848260208601610a88565b91505092915050565b5f805f60608486031215610b0d57610b0c61077a565b5b5f84013567ffffffffffffffff811115610b2a57610b2961077e565b5b610b3686828701610ac9565b9350506020610b47868287016107a1565b9250506040610b5886828701610826565b9150509250925092565b7f4e487b71000000000000000000000000000000000000000000000000000000005f52603260045260245ffd5b7f4e487b71000000000000000000000000000000000000000000000000000000005f52601260045260245ffd5b7f4e487b71000000000000000000000000000000000000000000000000000000005f52601160045260245ffd5b5f610bf382610782565b9150610bfe83610782565b925082610c0e57610c0d610b8f565b5b828204905092915050565b7f4e487b71000000000000000000000000000000000000000000000000000000005f52602260045260245ffd5b5f6002820490506001821680610c5d57607f821691505b602082108103610c7057610c6f610c19565b5b50919050565b5f819050815f5260205f209050919050565b5f6020601f8301049050919050565b5f82821b905092915050565b5f60088302610cd27fffffffffffffffffffffffffffffffffffffffffffffffffffffffffffffffff82610c97565b610cdc8683610c97565b95508019841693508086168417925050509392505050565b5f819050919050565b5f610d17610d12610d0d84610782565b610cf4565b610782565b9050919050565b5f819050919050565b610d3083610cfd565b610d44610d3c82610d1e565b848454610ca3565b825550505050565b5f90565b610d58610d4c565b610d63818484610d27565b505050565b5b81811015610d8657610d7b5f82610d50565b600181019050610d69565b5050565b601f821115610dcb57610d9c81610c76565b610da584610c88565b81016020851015610db4578190505b610dc8610dc085610c88565b830182610d68565b50505b505050565b5f82821c905092915050565b5f610deb5f1984600802610dd0565b1980831691505092915050565b5f610e038383610ddc565b9150826002028217905092915050565b610e1c826108c0565b67ffffffffffffffff811115610e3557610e346109d2565b5b610e3f8254610c46565b610e4a828285610d8a565b5f60209050601f831160018114610e7b575f8415610e69578287015190505b610e738582610df8565b865550610eda565b601f198416610e8986610c76565b5f5b82811015610eb057848901518255600182019150602085019450602081019050610e8b565b86831015610ecd5784890151610ec9601f891682610ddc565b8355505b6001600288020188555050505b505050505050565b5f610eec82610782565b91507fffffffffffffffffffffffffffffffffffffffffffffffffffffffffffffffff8203610f1e57610f1d610bbc565b5b600182019050919050565b7f53656e646572206973206e6f74206120636f6e747269627574657200000000005f82015250565b5f610f5d601b836108ca565b9150610f6882610f29565b602082019050919050565b5f6020820190508181035f830152610f8a81610f51565b905091905056fea264697066735822122082ed0b85311f8e8dc78f28e02946e080504e0ad1d62cd37231e7cd793f55f64664736f6c63430008170033a2646970667358221220fb2007eafe7021a25ba2ac046f310828a48527c864fac462c0ff8e95c4db759264736f6c63430008170033",
      "opcodes": "PUSH1 0x80 PUSH1 0x40 MSTORE CALLVALUE DUP1 ISZERO PUSH2 0xF JUMPI PUSH0 DUP1 REVERT JUMPDEST POP PUSH2 0x1550 DUP1 PUSH2 0x1D PUSH0 CODECOPY PUSH0 RETURN INVALID PUSH1 0x80 PUSH1 0x40 MSTORE CALLVALUE DUP1 ISZERO PUSH2 0xF JUMPI PUSH0 DUP1 REVERT JUMPDEST POP PUSH1 0x4 CALLDATASIZE LT PUSH2 0x3F JUMPI PUSH0 CALLDATALOAD PUSH1 0xE0 SHR DUP1 PUSH4 0x216402AB EQ PUSH2 0x43 JUMPI DUP1 PUSH4 0x339D50A5 EQ PUSH2 0x5F JUMPI DUP1 PUSH4 0x4ACB9D4F EQ PUSH2 0x8F JUMPI JUMPDEST PUSH0 DUP1 REVERT JUMPDEST PUSH2 0x5D PUSH1 0x4 DUP1 CALLDATASIZE SUB DUP2 ADD SWAP1 PUSH2 0x58 SWAP2 SWAP1 PUSH2 0x24E JUMP JUMPDEST PUSH2 0xAD JUMP JUMPDEST STOP JUMPDEST PUSH2 0x79 PUSH1 0x4 DUP1 CALLDATASIZE SUB DUP2 ADD SWAP1 PUSH2 0x74 SWAP2 SWAP1 PUSH2 0x24E JUMP JUMPDEST PUSH2 0x146 JUMP JUMPDEST PUSH1 0x40 MLOAD PUSH2 0x86 SWAP2 SWAP1 PUSH2 0x2B8 JUMP JUMPDEST PUSH1 0x40 MLOAD DUP1 SWAP2 SUB SWAP1 RETURN JUMPDEST PUSH2 0x97 PUSH2 0x180 JUMP JUMPDEST PUSH1 0x40 MLOAD PUSH2 0xA4 SWAP2 SWAP1 PUSH2 0x388 JUMP JUMPDEST PUSH1 0x40 MLOAD DUP1 SWAP2 SUB SWAP1 RETURN JUMPDEST PUSH0 DUP2 CALLER PUSH1 0x40 MLOAD PUSH2 0xBC SWAP1 PUSH2 0x20A JUMP JUMPDEST PUSH2 0xC7 SWAP3 SWAP2 SWAP1 PUSH2 0x3B7 JUMP JUMPDEST PUSH1 0x40 MLOAD DUP1 SWAP2 SUB SWAP1 PUSH0 CREATE DUP1 ISZERO DUP1 ISZERO PUSH2 0xE0 JUMPI RETURNDATASIZE PUSH0 DUP1 RETURNDATACOPY RETURNDATASIZE PUSH0 REVERT JUMPDEST POP SWAP1 POP PUSH0 DUP2 SWAP1 DUP1 PUSH1 0x1 DUP2 SLOAD ADD DUP1 DUP3 SSTORE DUP1 SWAP2 POP POP PUSH1 0x1 SWAP1 SUB SWAP1 PUSH0 MSTORE PUSH1 0x20 PUSH0 KECCAK256 ADD PUSH0 SWAP1 SWAP2 SWAP1 SWAP2 SWAP1 SWAP2 PUSH2 0x100 EXP DUP2 SLOAD DUP2 PUSH20 0xFFFFFFFFFFFFFFFFFFFFFFFFFFFFFFFFFFFFFFFF MUL NOT AND SWAP1 DUP4 PUSH20 0xFFFFFFFFFFFFFFFFFFFFFFFFFFFFFFFFFFFFFFFF AND MUL OR SWAP1 SSTORE POP POP POP JUMP JUMPDEST PUSH0 DUP2 DUP2 SLOAD DUP2 LT PUSH2 0x154 JUMPI PUSH0 DUP1 REVERT JUMPDEST SWAP1 PUSH0 MSTORE PUSH1 0x20 PUSH0 KECCAK256 ADD PUSH0 SWAP2 POP SLOAD SWAP1 PUSH2 0x100 EXP SWAP1 DIV PUSH20 0xFFFFFFFFFFFFFFFFFFFFFFFFFFFFFFFFFFFFFFFF AND DUP2 JUMP JUMPDEST PUSH1 0x60 PUSH0 DUP1 SLOAD DUP1 PUSH1 0x20 MUL PUSH1 0x20 ADD PUSH1 0x40 MLOAD SWAP1 DUP2 ADD PUSH1 0x40 MSTORE DUP1 SWAP3 SWAP2 SWAP1 DUP2 DUP2 MSTORE PUSH1 0x20 ADD DUP3 DUP1 SLOAD DUP1 ISZERO PUSH2 0x200 JUMPI PUSH1 0x20 MUL DUP3 ADD SWAP2 SWAP1 PUSH0 MSTORE PUSH1 0x20 PUSH0 KECCAK256 SWAP1 JUMPDEST DUP2 PUSH0 SWAP1 SLOAD SWAP1 PUSH2 0x100 EXP SWAP1 DIV PUSH20 0xFFFFFFFFFFFFFFFFFFFFFFFFFFFFFFFFFFFFFFFF AND PUSH20 0xFFFFFFFFFFFFFFFFFFFFFFFFFFFFFFFFFFFFFFFF AND DUP2 MSTORE PUSH1 0x20 ADD SWAP1 PUSH1 0x1 ADD SWAP1 DUP1 DUP4 GT PUSH2 0x1B7 JUMPI JUMPDEST POP POP POP POP POP SWAP1 POP SWAP1 JUMP JUMPDEST PUSH2 0x113C DUP1 PUSH2 0x3DF DUP4 CODECOPY ADD SWAP1 JUMP JUMPDEST PUSH0 DUP1 REVERT JUMPDEST PUSH0 DUP2 SWAP1 POP SWAP2 SWAP1 POP JUMP JUMPDEST PUSH2 0x22D DUP2 PUSH2 0x21B JUMP JUMPDEST DUP2 EQ PUSH2 0x237 JUMPI PUSH0 DUP1 REVERT JUMPDEST POP JUMP JUMPDEST PUSH0 DUP2 CALLDATALOAD SWAP1 POP PUSH2 0x248 DUP2 PUSH2 0x224 JUMP JUMPDEST SWAP3 SWAP2 POP POP JUMP JUMPDEST PUSH0 PUSH1 0x20 DUP3 DUP5 SUB SLT ISZERO PUSH2 0x263 JUMPI PUSH2 0x262 PUSH2 0x217 JUMP JUMPDEST JUMPDEST PUSH0 PUSH2 0x270 DUP5 DUP3 DUP6 ADD PUSH2 0x23A JUMP JUMPDEST SWAP2 POP POP SWAP3 SWAP2 POP POP JUMP JUMPDEST PUSH0 PUSH20 0xFFFFFFFFFFFFFFFFFFFFFFFFFFFFFFFFFFFFFFFF DUP3 AND SWAP1 POP SWAP2 SWAP1 POP JUMP JUMPDEST PUSH0 PUSH2 0x2A2 DUP3 PUSH2 0x279 JUMP JUMPDEST SWAP1 POP SWAP2 SWAP1 POP JUMP JUMPDEST PUSH2 0x2B2 DUP2 PUSH2 0x298 JUMP JUMPDEST DUP3 MSTORE POP POP JUMP JUMPDEST PUSH0 PUSH1 0x20 DUP3 ADD SWAP1 POP PUSH2 0x2CB PUSH0 DUP4 ADD DUP5 PUSH2 0x2A9 JUMP JUMPDEST SWAP3 SWAP2 POP POP JUMP JUMPDEST PUSH0 DUP2 MLOAD SWAP1 POP SWAP2 SWAP1 POP JUMP JUMPDEST PUSH0 DUP3 DUP3 MSTORE PUSH1 0x20 DUP3 ADD SWAP1 POP SWAP3 SWAP2 POP POP JUMP JUMPDEST PUSH0 DUP2 SWAP1 POP PUSH1 0x20 DUP3 ADD SWAP1 POP SWAP2 SWAP1 POP JUMP JUMPDEST PUSH2 0x303 DUP2 PUSH2 0x298 JUMP JUMPDEST DUP3 MSTORE POP POP JUMP JUMPDEST PUSH0 PUSH2 0x314 DUP4 DUP4 PUSH2 0x2FA JUMP JUMPDEST PUSH1 0x20 DUP4 ADD SWAP1 POP SWAP3 SWAP2 POP POP JUMP JUMPDEST PUSH0 PUSH1 0x20 DUP3 ADD SWAP1 POP SWAP2 SWAP1 POP JUMP JUMPDEST PUSH0 PUSH2 0x336 DUP3 PUSH2 0x2D1 JUMP JUMPDEST PUSH2 0x340 DUP2 DUP6 PUSH2 0x2DB JUMP JUMPDEST SWAP4 POP PUSH2 0x34B DUP4 PUSH2 0x2EB JUMP JUMPDEST DUP1 PUSH0 JUMPDEST DUP4 DUP2 LT ISZERO PUSH2 0x37B JUMPI DUP2 MLOAD PUSH2 0x362 DUP9 DUP3 PUSH2 0x309 JUMP JUMPDEST SWAP8 POP PUSH2 0x36D DUP4 PUSH2 0x320 JUMP JUMPDEST SWAP3 POP POP PUSH1 0x1 DUP2 ADD SWAP1 POP PUSH2 0x34E JUMP JUMPDEST POP DUP6 SWAP4 POP POP POP POP SWAP3 SWAP2 POP POP JUMP JUMPDEST PUSH0 PUSH1 0x20 DUP3 ADD SWAP1 POP DUP2 DUP2 SUB PUSH0 DUP4 ADD MSTORE PUSH2 0x3A0 DUP2 DUP5 PUSH2 0x32C JUMP JUMPDEST SWAP1 POP SWAP3 SWAP2 POP POP JUMP JUMPDEST PUSH2 0x3B1 DUP2 PUSH2 0x21B JUMP JUMPDEST DUP3 MSTORE POP POP JUMP JUMPDEST PUSH0 PUSH1 0x40 DUP3 ADD SWAP1 POP PUSH2 0x3CA PUSH0 DUP4 ADD DUP6 PUSH2 0x3A8 JUMP JUMPDEST PUSH2 0x3D7 PUSH1 0x20 DUP4 ADD DUP5 PUSH2 0x2A9 JUMP JUMPDEST SWAP4 SWAP3 POP POP POP JUMP INVALID PUSH1 0x80 PUSH1 0x40 MSTORE CALLVALUE DUP1 ISZERO PUSH3 0x10 JUMPI PUSH0 DUP1 REVERT JUMPDEST POP PUSH1 0x40 MLOAD PUSH3 0x113C CODESIZE SUB DUP1 PUSH3 0x113C DUP4 CODECOPY DUP2 DUP2 ADD PUSH1 0x40 MSTORE DUP2 ADD SWAP1 PUSH3 0x36 SWAP2 SWAP1 PUSH3 0x122 JUMP JUMPDEST DUP1 PUSH1 0x1 PUSH0 PUSH2 0x100 EXP DUP2 SLOAD DUP2 PUSH20 0xFFFFFFFFFFFFFFFFFFFFFFFFFFFFFFFFFFFFFFFF MUL NOT AND SWAP1 DUP4 PUSH20 0xFFFFFFFFFFFFFFFFFFFFFFFFFFFFFFFFFFFFFFFF AND MUL OR SWAP1 SSTORE POP DUP2 PUSH1 0x2 DUP2 SWAP1 SSTORE POP POP POP PUSH3 0x167 JUMP JUMPDEST PUSH0 DUP1 REVERT JUMPDEST PUSH0 DUP2 SWAP1 POP SWAP2 SWAP1 POP JUMP JUMPDEST PUSH3 0x9D DUP2 PUSH3 0x89 JUMP JUMPDEST DUP2 EQ PUSH3 0xA8 JUMPI PUSH0 DUP1 REVERT JUMPDEST POP JUMP JUMPDEST PUSH0 DUP2 MLOAD SWAP1 POP PUSH3 0xBB DUP2 PUSH3 0x92 JUMP JUMPDEST SWAP3 SWAP2 POP POP JUMP JUMPDEST PUSH0 PUSH20 0xFFFFFFFFFFFFFFFFFFFFFFFFFFFFFFFFFFFFFFFF DUP3 AND SWAP1 POP SWAP2 SWAP1 POP JUMP JUMPDEST PUSH0 PUSH3 0xEC DUP3 PUSH3 0xC1 JUMP JUMPDEST SWAP1 POP SWAP2 SWAP1 POP JUMP JUMPDEST PUSH3 0xFE DUP2 PUSH3 0xE0 JUMP JUMPDEST DUP2 EQ PUSH3 0x109 JUMPI PUSH0 DUP1 REVERT JUMPDEST POP JUMP JUMPDEST PUSH0 DUP2 MLOAD SWAP1 POP PUSH3 0x11C DUP2 PUSH3 0xF3 JUMP JUMPDEST SWAP3 SWAP2 POP POP JUMP JUMPDEST PUSH0 DUP1 PUSH1 0x40 DUP4 DUP6 SUB SLT ISZERO PUSH3 0x13B JUMPI PUSH3 0x13A PUSH3 0x85 JUMP JUMPDEST JUMPDEST PUSH0 PUSH3 0x14A DUP6 DUP3 DUP7 ADD PUSH3 0xAB JUMP JUMPDEST SWAP3 POP POP PUSH1 0x20 PUSH3 0x15D DUP6 DUP3 DUP7 ADD PUSH3 0x10C JUMP JUMPDEST SWAP2 POP POP SWAP3 POP SWAP3 SWAP1 POP JUMP JUMPDEST PUSH2 0xFC7 DUP1 PUSH3 0x175 PUSH0 CODECOPY PUSH0 RETURN INVALID PUSH1 0x80 PUSH1 0x40 MSTORE PUSH1 0x4 CALLDATASIZE LT PUSH2 0x85 JUMPI PUSH0 CALLDATALOAD PUSH1 0xE0 SHR DUP1 PUSH4 0x82FDE093 GT PUSH2 0x58 JUMPI DUP1 PUSH4 0x82FDE093 EQ PUSH2 0x157 JUMPI DUP1 PUSH4 0x8A9CFD55 EQ PUSH2 0x181 JUMPI DUP1 PUSH4 0x937E09B1 EQ PUSH2 0x1A9 JUMPI DUP1 PUSH4 0xD7BB99BA EQ PUSH2 0x1D3 JUMPI DUP1 PUSH4 0xD7D1BBDB EQ PUSH2 0x1DD JUMPI PUSH2 0x85 JUMP JUMPDEST DUP1 PUSH4 0x3441006 EQ PUSH2 0x89 JUMPI DUP1 PUSH4 0x34B66460 EQ PUSH2 0xB1 JUMPI DUP1 PUSH4 0x481C6A75 EQ PUSH2 0xED JUMPI DUP1 PUSH4 0x81D12C58 EQ PUSH2 0x117 JUMPI JUMPDEST PUSH0 DUP1 REVERT JUMPDEST CALLVALUE DUP1 ISZERO PUSH2 0x94 JUMPI PUSH0 DUP1 REVERT JUMPDEST POP PUSH2 0xAF PUSH1 0x4 DUP1 CALLDATASIZE SUB DUP2 ADD SWAP1 PUSH2 0xAA SWAP2 SWAP1 PUSH2 0x7B5 JUMP JUMPDEST PUSH2 0x205 JUMP JUMPDEST STOP JUMPDEST CALLVALUE DUP1 ISZERO PUSH2 0xBC JUMPI PUSH0 DUP1 REVERT JUMPDEST POP PUSH2 0xD7 PUSH1 0x4 DUP1 CALLDATASIZE SUB DUP2 ADD SWAP1 PUSH2 0xD2 SWAP2 SWAP1 PUSH2 0x83A JUMP JUMPDEST PUSH2 0x343 JUMP JUMPDEST PUSH1 0x40 MLOAD PUSH2 0xE4 SWAP2 SWAP1 PUSH2 0x87F JUMP JUMPDEST PUSH1 0x40 MLOAD DUP1 SWAP2 SUB SWAP1 RETURN JUMPDEST CALLVALUE DUP1 ISZERO PUSH2 0xF8 JUMPI PUSH0 DUP1 REVERT JUMPDEST POP PUSH2 0x101 PUSH2 0x360 JUMP JUMPDEST PUSH1 0x40 MLOAD PUSH2 0x10E SWAP2 SWAP1 PUSH2 0x8A7 JUMP JUMPDEST PUSH1 0x40 MLOAD DUP1 SWAP2 SUB SWAP1 RETURN JUMPDEST CALLVALUE DUP1 ISZERO PUSH2 0x122 JUMPI PUSH0 DUP1 REVERT JUMPDEST POP PUSH2 0x13D PUSH1 0x4 DUP1 CALLDATASIZE SUB DUP2 ADD SWAP1 PUSH2 0x138 SWAP2 SWAP1 PUSH2 0x7B5 JUMP JUMPDEST PUSH2 0x385 JUMP JUMPDEST PUSH1 0x40 MLOAD PUSH2 0x14E SWAP6 SWAP5 SWAP4 SWAP3 SWAP2 SWAP1 PUSH2 0x959 JUMP JUMPDEST PUSH1 0x40 MLOAD DUP1 SWAP2 SUB SWAP1 RETURN JUMPDEST CALLVALUE DUP1 ISZERO PUSH2 0x162 JUMPI PUSH0 DUP1 REVERT JUMPDEST POP PUSH2 0x16B PUSH2 0x477 JUMP JUMPDEST PUSH1 0x40 MLOAD PUSH2 0x178 SWAP2 SWAP1 PUSH2 0x9B1 JUMP JUMPDEST PUSH1 0x40 MLOAD DUP1 SWAP2 SUB SWAP1 RETURN JUMPDEST CALLVALUE DUP1 ISZERO PUSH2 0x18C JUMPI PUSH0 DUP1 REVERT JUMPDEST POP PUSH2 0x1A7 PUSH1 0x4 DUP1 CALLDATASIZE SUB DUP2 ADD SWAP1 PUSH2 0x1A2 SWAP2 SWAP1 PUSH2 0xAF6 JUMP JUMPDEST PUSH2 0x47D JUMP JUMPDEST STOP JUMPDEST CALLVALUE DUP1 ISZERO PUSH2 0x1B4 JUMPI PUSH0 DUP1 REVERT JUMPDEST POP PUSH2 0x1BD PUSH2 0x57C JUMP JUMPDEST PUSH1 0x40 MLOAD PUSH2 0x1CA SWAP2 SWAP1 PUSH2 0x9B1 JUMP JUMPDEST PUSH1 0x40 MLOAD DUP1 SWAP2 SUB SWAP1 RETURN JUMPDEST PUSH2 0x1DB PUSH2 0x582 JUMP JUMPDEST STOP JUMPDEST CALLVALUE DUP1 ISZERO PUSH2 0x1E8 JUMPI PUSH0 DUP1 REVERT JUMPDEST POP PUSH2 0x203 PUSH1 0x4 DUP1 CALLDATASIZE SUB DUP2 ADD SWAP1 PUSH2 0x1FE SWAP2 SWAP1 PUSH2 0x7B5 JUMP JUMPDEST PUSH2 0x5FD JUMP JUMPDEST STOP JUMPDEST PUSH1 0x1 PUSH0 SWAP1 SLOAD SWAP1 PUSH2 0x100 EXP SWAP1 DIV PUSH20 0xFFFFFFFFFFFFFFFFFFFFFFFFFFFFFFFFFFFFFFFF AND PUSH20 0xFFFFFFFFFFFFFFFFFFFFFFFFFFFFFFFFFFFFFFFF AND CALLER PUSH20 0xFFFFFFFFFFFFFFFFFFFFFFFFFFFFFFFFFFFFFFFF AND EQ PUSH2 0x25D JUMPI PUSH0 DUP1 REVERT JUMPDEST PUSH0 DUP1 DUP3 DUP2 SLOAD DUP2 LT PUSH2 0x271 JUMPI PUSH2 0x270 PUSH2 0xB62 JUMP JUMPDEST JUMPDEST SWAP1 PUSH0 MSTORE PUSH1 0x20 PUSH0 KECCAK256 SWAP1 PUSH1 0x5 MUL ADD SWAP1 POP PUSH1 0x2 PUSH1 0x4 SLOAD PUSH2 0x28E SWAP2 SWAP1 PUSH2 0xBE9 JUMP JUMPDEST DUP2 PUSH1 0x4 ADD SLOAD GT PUSH2 0x29C JUMPI PUSH0 DUP1 REVERT JUMPDEST DUP1 PUSH1 0x2 ADD PUSH1 0x14 SWAP1 SLOAD SWAP1 PUSH2 0x100 EXP SWAP1 DIV PUSH1 0xFF AND ISZERO PUSH2 0x2B7 JUMPI PUSH0 DUP1 REVERT JUMPDEST DUP1 PUSH1 0x2 ADD PUSH0 SWAP1 SLOAD SWAP1 PUSH2 0x100 EXP SWAP1 DIV PUSH20 0xFFFFFFFFFFFFFFFFFFFFFFFFFFFFFFFFFFFFFFFF AND PUSH20 0xFFFFFFFFFFFFFFFFFFFFFFFFFFFFFFFFFFFFFFFF AND PUSH2 0x8FC DUP3 PUSH1 0x1 ADD SLOAD SWAP1 DUP2 ISZERO MUL SWAP1 PUSH1 0x40 MLOAD PUSH0 PUSH1 0x40 MLOAD DUP1 DUP4 SUB DUP2 DUP6 DUP9 DUP9 CALL SWAP4 POP POP POP POP ISZERO DUP1 ISZERO PUSH2 0x321 JUMPI RETURNDATASIZE PUSH0 DUP1 RETURNDATACOPY RETURNDATASIZE PUSH0 REVERT JUMPDEST POP PUSH1 0x1 DUP2 PUSH1 0x2 ADD PUSH1 0x14 PUSH2 0x100 EXP DUP2 SLOAD DUP2 PUSH1 0xFF MUL NOT AND SWAP1 DUP4 ISZERO ISZERO MUL OR SWAP1 SSTORE POP POP POP JUMP JUMPDEST PUSH1 0x3 PUSH1 0x20 MSTORE DUP1 PUSH0 MSTORE PUSH1 0x40 PUSH0 KECCAK256 PUSH0 SWAP2 POP SLOAD SWAP1 PUSH2 0x100 EXP SWAP1 DIV PUSH1 0xFF AND DUP2 JUMP JUMPDEST PUSH1 0x1 PUSH0 SWAP1 SLOAD SWAP1 PUSH2 0x100 EXP SWAP1 DIV PUSH20 0xFFFFFFFFFFFFFFFFFFFFFFFFFFFFFFFFFFFFFFFF AND DUP2 JUMP JUMPDEST PUSH0 DUP2 DUP2 SLOAD DUP2 LT PUSH2 0x393 JUMPI PUSH0 DUP1 REVERT JUMPDEST SWAP1 PUSH0 MSTORE PUSH1 0x20 PUSH0 KECCAK256 SWAP1 PUSH1 0x5 MUL ADD PUSH0 SWAP2 POP SWAP1 POP DUP1 PUSH0 ADD DUP1 SLOAD PUSH2 0x3B2 SWAP1 PUSH2 0xC46 JUMP JUMPDEST DUP1 PUSH1 0x1F ADD PUSH1 0x20 DUP1 SWAP2 DIV MUL PUSH1 0x20 ADD PUSH1 0x40 MLOAD SWAP1 DUP2 ADD PUSH1 0x40 MSTORE DUP1 SWAP3 SWAP2 SWAP1 DUP2 DUP2 MSTORE PUSH1 0x20 ADD DUP3 DUP1 SLOAD PUSH2 0x3DE SWAP1 PUSH2 0xC46 JUMP JUMPDEST DUP1 ISZERO PUSH2 0x429 JUMPI DUP1 PUSH1 0x1F LT PUSH2 0x400 JUMPI PUSH2 0x100 DUP1 DUP4 SLOAD DIV MUL DUP4 MSTORE SWAP2 PUSH1 0x20 ADD SWAP2 PUSH2 0x429 JUMP JUMPDEST DUP3 ADD SWAP2 SWAP1 PUSH0 MSTORE PUSH1 0x20 PUSH0 KECCAK256 SWAP1 JUMPDEST DUP2 SLOAD DUP2 MSTORE SWAP1 PUSH1 0x1 ADD SWAP1 PUSH1 0x20 ADD DUP1 DUP4 GT PUSH2 0x40C JUMPI DUP3 SWAP1 SUB PUSH1 0x1F AND DUP3 ADD SWAP2 JUMPDEST POP POP POP POP POP SWAP1 DUP1 PUSH1 0x1 ADD SLOAD SWAP1 DUP1 PUSH1 0x2 ADD PUSH0 SWAP1 SLOAD SWAP1 PUSH2 0x100 EXP SWAP1 DIV PUSH20 0xFFFFFFFFFFFFFFFFFFFFFFFFFFFFFFFFFFFFFFFF AND SWAP1 DUP1 PUSH1 0x2 ADD PUSH1 0x14 SWAP1 SLOAD SWAP1 PUSH2 0x100 EXP SWAP1 DIV PUSH1 0xFF AND SWAP1 DUP1 PUSH1 0x4 ADD SLOAD SWAP1 POP DUP6 JUMP JUMPDEST PUSH1 0x4 SLOAD DUP2 JUMP JUMPDEST PUSH1 0x1 PUSH0 SWAP1 SLOAD SWAP1 PUSH2 0x100 EXP SWAP1 DIV PUSH20 0xFFFFFFFFFFFFFFFFFFFFFFFFFFFFFFFFFFFFFFFF AND PUSH20 0xFFFFFFFFFFFFFFFFFFFFFFFFFFFFFFFFFFFFFFFF AND CALLER PUSH20 0xFFFFFFFFFFFFFFFFFFFFFFFFFFFFFFFFFFFFFFFF AND EQ PUSH2 0x4D5 JUMPI PUSH0 DUP1 REVERT JUMPDEST PUSH0 DUP1 PUSH1 0x1 DUP2 PUSH1 0x1 DUP2 SLOAD ADD DUP1 DUP3 SSTORE DUP1 SWAP2 POP POP SUB SWAP1 PUSH0 MSTORE PUSH1 0x20 PUSH0 KECCAK256 SWAP1 PUSH1 0x5 MUL ADD SWAP1 POP DUP4 DUP2 PUSH0 ADD SWAP1 DUP2 PUSH2 0x505 SWAP2 SWAP1 PUSH2 0xE13 JUMP JUMPDEST POP DUP3 DUP2 PUSH1 0x1 ADD DUP2 SWAP1 SSTORE POP DUP2 DUP2 PUSH1 0x2 ADD PUSH0 PUSH2 0x100 EXP DUP2 SLOAD DUP2 PUSH20 0xFFFFFFFFFFFFFFFFFFFFFFFFFFFFFFFFFFFFFFFF MUL NOT AND SWAP1 DUP4 PUSH20 0xFFFFFFFFFFFFFFFFFFFFFFFFFFFFFFFFFFFFFFFF AND MUL OR SWAP1 SSTORE POP PUSH0 DUP2 PUSH1 0x2 ADD PUSH1 0x14 PUSH2 0x100 EXP DUP2 SLOAD DUP2 PUSH1 0xFF MUL NOT AND SWAP1 DUP4 ISZERO ISZERO MUL OR SWAP1 SSTORE POP PUSH0 DUP2 PUSH1 0x4 ADD DUP2 SWAP1 SSTORE POP POP POP POP POP JUMP JUMPDEST PUSH1 0x2 SLOAD DUP2 JUMP JUMPDEST PUSH1 0x2 SLOAD CALLVALUE GT PUSH2 0x58F JUMPI PUSH0 DUP1 REVERT JUMPDEST PUSH1 0x1 PUSH1 0x3 PUSH0 CALLER PUSH20 0xFFFFFFFFFFFFFFFFFFFFFFFFFFFFFFFFFFFFFFFF AND PUSH20 0xFFFFFFFFFFFFFFFFFFFFFFFFFFFFFFFFFFFFFFFF AND DUP2 MSTORE PUSH1 0x20 ADD SWAP1 DUP2 MSTORE PUSH1 0x20 ADD PUSH0 KECCAK256 PUSH0 PUSH2 0x100 EXP DUP2 SLOAD DUP2 PUSH1 0xFF MUL NOT AND SWAP1 DUP4 ISZERO ISZERO MUL OR SWAP1 SSTORE POP PUSH1 0x4 PUSH0 DUP2 SLOAD DUP1 SWAP3 SWAP2 SWAP1 PUSH2 0x5F6 SWAP1 PUSH2 0xEE2 JUMP JUMPDEST SWAP2 SWAP1 POP SSTORE POP JUMP JUMPDEST PUSH0 DUP1 DUP3 DUP2 SLOAD DUP2 LT PUSH2 0x611 JUMPI PUSH2 0x610 PUSH2 0xB62 JUMP JUMPDEST JUMPDEST SWAP1 PUSH0 MSTORE PUSH1 0x20 PUSH0 KECCAK256 SWAP1 PUSH1 0x5 MUL ADD SWAP1 POP PUSH1 0x3 PUSH0 CALLER PUSH20 0xFFFFFFFFFFFFFFFFFFFFFFFFFFFFFFFFFFFFFFFF AND PUSH20 0xFFFFFFFFFFFFFFFFFFFFFFFFFFFFFFFFFFFFFFFF AND DUP2 MSTORE PUSH1 0x20 ADD SWAP1 DUP2 MSTORE PUSH1 0x20 ADD PUSH0 KECCAK256 PUSH0 SWAP1 SLOAD SWAP1 PUSH2 0x100 EXP SWAP1 DIV PUSH1 0xFF AND PUSH2 0x6A8 JUMPI PUSH1 0x40 MLOAD PUSH32 0x8C379A000000000000000000000000000000000000000000000000000000000 DUP2 MSTORE PUSH1 0x4 ADD PUSH2 0x69F SWAP1 PUSH2 0xF73 JUMP JUMPDEST PUSH1 0x40 MLOAD DUP1 SWAP2 SUB SWAP1 REVERT JUMPDEST DUP1 PUSH1 0x3 ADD PUSH0 CALLER PUSH20 0xFFFFFFFFFFFFFFFFFFFFFFFFFFFFFFFFFFFFFFFF AND PUSH20 0xFFFFFFFFFFFFFFFFFFFFFFFFFFFFFFFFFFFFFFFF AND DUP2 MSTORE PUSH1 0x20 ADD SWAP1 DUP2 MSTORE PUSH1 0x20 ADD PUSH0 KECCAK256 PUSH0 SWAP1 SLOAD SWAP1 PUSH2 0x100 EXP SWAP1 DIV PUSH1 0xFF AND ISZERO PUSH2 0x6FD JUMPI PUSH0 DUP1 REVERT JUMPDEST PUSH1 0x1 DUP2 PUSH1 0x3 ADD PUSH0 CALLER PUSH20 0xFFFFFFFFFFFFFFFFFFFFFFFFFFFFFFFFFFFFFFFF AND PUSH20 0xFFFFFFFFFFFFFFFFFFFFFFFFFFFFFFFFFFFFFFFF AND DUP2 MSTORE PUSH1 0x20 ADD SWAP1 DUP2 MSTORE PUSH1 0x20 ADD PUSH0 KECCAK256 PUSH0 PUSH2 0x100 EXP DUP2 SLOAD DUP2 PUSH1 0xFF MUL NOT AND SWAP1 DUP4 ISZERO ISZERO MUL OR SWAP1 SSTORE POP DUP1 PUSH1 0x4 ADD PUSH0 DUP2 SLOAD DUP1 SWAP3 SWAP2 SWAP1 PUSH2 0x768 SWAP1 PUSH2 0xEE2 JUMP JUMPDEST SWAP2 SWAP1 POP SSTORE POP POP POP JUMP JUMPDEST PUSH0 PUSH1 0x40 MLOAD SWAP1 POP SWAP1 JUMP JUMPDEST PUSH0 DUP1 REVERT JUMPDEST PUSH0 DUP1 REVERT JUMPDEST PUSH0 DUP2 SWAP1 POP SWAP2 SWAP1 POP JUMP JUMPDEST PUSH2 0x794 DUP2 PUSH2 0x782 JUMP JUMPDEST DUP2 EQ PUSH2 0x79E JUMPI PUSH0 DUP1 REVERT JUMPDEST POP JUMP JUMPDEST PUSH0 DUP2 CALLDATALOAD SWAP1 POP PUSH2 0x7AF DUP2 PUSH2 0x78B JUMP JUMPDEST SWAP3 SWAP2 POP POP JUMP JUMPDEST PUSH0 PUSH1 0x20 DUP3 DUP5 SUB SLT ISZERO PUSH2 0x7CA JUMPI PUSH2 0x7C9 PUSH2 0x77A JUMP JUMPDEST JUMPDEST PUSH0 PUSH2 0x7D7 DUP5 DUP3 DUP6 ADD PUSH2 0x7A1 JUMP JUMPDEST SWAP2 POP POP SWAP3 SWAP2 POP POP JUMP JUMPDEST PUSH0 PUSH20 0xFFFFFFFFFFFFFFFFFFFFFFFFFFFFFFFFFFFFFFFF DUP3 AND SWAP1 POP SWAP2 SWAP1 POP JUMP JUMPDEST PUSH0 PUSH2 0x809 DUP3 PUSH2 0x7E0 JUMP JUMPDEST SWAP1 POP SWAP2 SWAP1 POP JUMP JUMPDEST PUSH2 0x819 DUP2 PUSH2 0x7FF JUMP JUMPDEST DUP2 EQ PUSH2 0x823 JUMPI PUSH0 DUP1 REVERT JUMPDEST POP JUMP JUMPDEST PUSH0 DUP2 CALLDATALOAD SWAP1 POP PUSH2 0x834 DUP2 PUSH2 0x810 JUMP JUMPDEST SWAP3 SWAP2 POP POP JUMP JUMPDEST PUSH0 PUSH1 0x20 DUP3 DUP5 SUB SLT ISZERO PUSH2 0x84F JUMPI PUSH2 0x84E PUSH2 0x77A JUMP JUMPDEST JUMPDEST PUSH0 PUSH2 0x85C DUP5 DUP3 DUP6 ADD PUSH2 0x826 JUMP JUMPDEST SWAP2 POP POP SWAP3 SWAP2 POP POP JUMP JUMPDEST PUSH0 DUP2 ISZERO ISZERO SWAP1 POP SWAP2 SWAP1 POP JUMP JUMPDEST PUSH2 0x879 DUP2 PUSH2 0x865 JUMP JUMPDEST DUP3 MSTORE POP POP JUMP JUMPDEST PUSH0 PUSH1 0x20 DUP3 ADD SWAP1 POP PUSH2 0x892 PUSH0 DUP4 ADD DUP5 PUSH2 0x870 JUMP JUMPDEST SWAP3 SWAP2 POP POP JUMP JUMPDEST PUSH2 0x8A1 DUP2 PUSH2 0x7FF JUMP JUMPDEST DUP3 MSTORE POP POP JUMP JUMPDEST PUSH0 PUSH1 0x20 DUP3 ADD SWAP1 POP PUSH2 0x8BA PUSH0 DUP4 ADD DUP5 PUSH2 0x898 JUMP JUMPDEST SWAP3 SWAP2 POP POP JUMP JUMPDEST PUSH0 DUP2 MLOAD SWAP1 POP SWAP2 SWAP1 POP JUMP JUMPDEST PUSH0 DUP3 DUP3 MSTORE PUSH1 0x20 DUP3 ADD SWAP1 POP SWAP3 SWAP2 POP POP JUMP JUMPDEST PUSH0 JUMPDEST DUP4 DUP2 LT ISZERO PUSH2 0x8F7 JUMPI DUP1 DUP3 ADD MLOAD DUP2 DUP5 ADD MSTORE PUSH1 0x20 DUP2 ADD SWAP1 POP PUSH2 0x8DC JUMP JUMPDEST PUSH0 DUP5 DUP5 ADD MSTORE POP POP POP POP JUMP JUMPDEST PUSH0 PUSH1 0x1F NOT PUSH1 0x1F DUP4 ADD AND SWAP1 POP SWAP2 SWAP1 POP JUMP JUMPDEST PUSH0 PUSH2 0x91C DUP3 PUSH2 0x8C0 JUMP JUMPDEST PUSH2 0x926 DUP2 DUP6 PUSH2 0x8CA JUMP JUMPDEST SWAP4 POP PUSH2 0x936 DUP2 DUP6 PUSH1 0x20 DUP7 ADD PUSH2 0x8DA JUMP JUMPDEST PUSH2 0x93F DUP2 PUSH2 0x902 JUMP JUMPDEST DUP5 ADD SWAP2 POP POP SWAP3 SWAP2 POP POP JUMP JUMPDEST PUSH2 0x953 DUP2 PUSH2 0x782 JUMP JUMPDEST DUP3 MSTORE POP POP JUMP JUMPDEST PUSH0 PUSH1 0xA0 DUP3 ADD SWAP1 POP DUP2 DUP2 SUB PUSH0 DUP4 ADD MSTORE PUSH2 0x971 DUP2 DUP9 PUSH2 0x912 JUMP JUMPDEST SWAP1 POP PUSH2 0x980 PUSH1 0x20 DUP4 ADD DUP8 PUSH2 0x94A JUMP JUMPDEST PUSH2 0x98D PUSH1 0x40 DUP4 ADD DUP7 PUSH2 0x898 JUMP JUMPDEST PUSH2 0x99A PUSH1 0x60 DUP4 ADD DUP6 PUSH2 0x870 JUMP JUMPDEST PUSH2 0x9A7 PUSH1 0x80 DUP4 ADD DUP5 PUSH2 0x94A JUMP JUMPDEST SWAP7 SWAP6 POP POP POP POP POP POP JUMP JUMPDEST PUSH0 PUSH1 0x20 DUP3 ADD SWAP1 POP PUSH2 0x9C4 PUSH0 DUP4 ADD DUP5 PUSH2 0x94A JUMP JUMPDEST SWAP3 SWAP2 POP POP JUMP JUMPDEST PUSH0 DUP1 REVERT JUMPDEST PUSH0 DUP1 REVERT JUMPDEST PUSH32 0x4E487B7100000000000000000000000000000000000000000000000000000000 PUSH0 MSTORE PUSH1 0x41 PUSH1 0x4 MSTORE PUSH1 0x24 PUSH0 REVERT JUMPDEST PUSH2 0xA08 DUP3 PUSH2 0x902 JUMP JUMPDEST DUP2 ADD DUP2 DUP2 LT PUSH8 0xFFFFFFFFFFFFFFFF DUP3 GT OR ISZERO PUSH2 0xA27 JUMPI PUSH2 0xA26 PUSH2 0x9D2 JUMP JUMPDEST JUMPDEST DUP1 PUSH1 0x40 MSTORE POP POP POP JUMP JUMPDEST PUSH0 PUSH2 0xA39 PUSH2 0x771 JUMP JUMPDEST SWAP1 POP PUSH2 0xA45 DUP3 DUP3 PUSH2 0x9FF JUMP JUMPDEST SWAP2 SWAP1 POP JUMP JUMPDEST PUSH0 PUSH8 0xFFFFFFFFFFFFFFFF DUP3 GT ISZERO PUSH2 0xA64 JUMPI PUSH2 0xA63 PUSH2 0x9D2 JUMP JUMPDEST JUMPDEST PUSH2 0xA6D DUP3 PUSH2 0x902 JUMP JUMPDEST SWAP1 POP PUSH1 0x20 DUP2 ADD SWAP1 POP SWAP2 SWAP1 POP JUMP JUMPDEST DUP3 DUP2 DUP4 CALLDATACOPY PUSH0 DUP4 DUP4 ADD MSTORE POP POP POP JUMP JUMPDEST PUSH0 PUSH2 0xA9A PUSH2 0xA95 DUP5 PUSH2 0xA4A JUMP JUMPDEST PUSH2 0xA30 JUMP JUMPDEST SWAP1 POP DUP3 DUP2 MSTORE PUSH1 0x20 DUP2 ADD DUP5 DUP5 DUP5 ADD GT ISZERO PUSH2 0xAB6 JUMPI PUSH2 0xAB5 PUSH2 0x9CE JUMP JUMPDEST JUMPDEST PUSH2 0xAC1 DUP5 DUP3 DUP6 PUSH2 0xA7A JUMP JUMPDEST POP SWAP4 SWAP3 POP POP POP JUMP JUMPDEST PUSH0 DUP3 PUSH1 0x1F DUP4 ADD SLT PUSH2 0xADD JUMPI PUSH2 0xADC PUSH2 0x9CA JUMP JUMPDEST JUMPDEST DUP2 CALLDATALOAD PUSH2 0xAED DUP5 DUP3 PUSH1 0x20 DUP7 ADD PUSH2 0xA88 JUMP JUMPDEST SWAP2 POP POP SWAP3 SWAP2 POP POP JUMP JUMPDEST PUSH0 DUP1 PUSH0 PUSH1 0x60 DUP5 DUP7 SUB SLT ISZERO PUSH2 0xB0D JUMPI PUSH2 0xB0C PUSH2 0x77A JUMP JUMPDEST JUMPDEST PUSH0 DUP5 ADD CALLDATALOAD PUSH8 0xFFFFFFFFFFFFFFFF DUP2 GT ISZERO PUSH2 0xB2A JUMPI PUSH2 0xB29 PUSH2 0x77E JUMP JUMPDEST JUMPDEST PUSH2 0xB36 DUP7 DUP3 DUP8 ADD PUSH2 0xAC9 JUMP JUMPDEST SWAP4 POP POP PUSH1 0x20 PUSH2 0xB47 DUP7 DUP3 DUP8 ADD PUSH2 0x7A1 JUMP JUMPDEST SWAP3 POP POP PUSH1 0x40 PUSH2 0xB58 DUP7 DUP3 DUP8 ADD PUSH2 0x826 JUMP JUMPDEST SWAP2 POP POP SWAP3 POP SWAP3 POP SWAP3 JUMP JUMPDEST PUSH32 0x4E487B7100000000000000000000000000000000000000000000000000000000 PUSH0 MSTORE PUSH1 0x32 PUSH1 0x4 MSTORE PUSH1 0x24 PUSH0 REVERT JUMPDEST PUSH32 0x4E487B7100000000000000000000000000000000000000000000000000000000 PUSH0 MSTORE PUSH1 0x12 PUSH1 0x4 MSTORE PUSH1 0x24 PUSH0 REVERT JUMPDEST PUSH32 0x4E487B7100000000000000000000000000000000000000000000000000000000 PUSH0 MSTORE PUSH1 0x11 PUSH1 0x4 MSTORE PUSH1 0x24 PUSH0 REVERT JUMPDEST PUSH0 PUSH2 0xBF3 DUP3 PUSH2 0x782 JUMP JUMPDEST SWAP2 POP PUSH2 0xBFE DUP4 PUSH2 0x782 JUMP JUMPDEST SWAP3 POP DUP3 PUSH2 0xC0E JUMPI PUSH2 0xC0D PUSH2 0xB8F JUMP JUMPDEST JUMPDEST DUP3 DUP3 DIV SWAP1 POP SWAP3 SWAP2 POP POP JUMP JUMPDEST PUSH32 0x4E487B7100000000000000000000000000000000000000000000000000000000 PUSH0 MSTORE PUSH1 0x22 PUSH1 0x4 MSTORE PUSH1 0x24 PUSH0 REVERT JUMPDEST PUSH0 PUSH1 0x2 DUP3 DIV SWAP1 POP PUSH1 0x1 DUP3 AND DUP1 PUSH2 0xC5D JUMPI PUSH1 0x7F DUP3 AND SWAP2 POP JUMPDEST PUSH1 0x20 DUP3 LT DUP2 SUB PUSH2 0xC70 JUMPI PUSH2 0xC6F PUSH2 0xC19 JUMP JUMPDEST JUMPDEST POP SWAP2 SWAP1 POP JUMP JUMPDEST PUSH0 DUP2 SWAP1 POP DUP2 PUSH0 MSTORE PUSH1 0x20 PUSH0 KECCAK256 SWAP1 POP SWAP2 SWAP1 POP JUMP JUMPDEST PUSH0 PUSH1 0x20 PUSH1 0x1F DUP4 ADD DIV SWAP1 POP SWAP2 SWAP1 POP JUMP JUMPDEST PUSH0 DUP3 DUP3 SHL SWAP1 POP SWAP3 SWAP2 POP POP JUMP JUMPDEST PUSH0 PUSH1 0x8 DUP4 MUL PUSH2 0xCD2 PUSH32 0xFFFFFFFFFFFFFFFFFFFFFFFFFFFFFFFFFFFFFFFFFFFFFFFFFFFFFFFFFFFFFFFF DUP3 PUSH2 0xC97 JUMP JUMPDEST PUSH2 0xCDC DUP7 DUP4 PUSH2 0xC97 JUMP JUMPDEST SWAP6 POP DUP1 NOT DUP5 AND SWAP4 POP DUP1 DUP7 AND DUP5 OR SWAP3 POP POP POP SWAP4 SWAP3 POP POP POP JUMP JUMPDEST PUSH0 DUP2 SWAP1 POP SWAP2 SWAP1 POP JUMP JUMPDEST PUSH0 PUSH2 0xD17 PUSH2 0xD12 PUSH2 0xD0D DUP5 PUSH2 0x782 JUMP JUMPDEST PUSH2 0xCF4 JUMP JUMPDEST PUSH2 0x782 JUMP JUMPDEST SWAP1 POP SWAP2 SWAP1 POP JUMP JUMPDEST PUSH0 DUP2 SWAP1 POP SWAP2 SWAP1 POP JUMP JUMPDEST PUSH2 0xD30 DUP4 PUSH2 0xCFD JUMP JUMPDEST PUSH2 0xD44 PUSH2 0xD3C DUP3 PUSH2 0xD1E JUMP JUMPDEST DUP5 DUP5 SLOAD PUSH2 0xCA3 JUMP JUMPDEST DUP3 SSTORE POP POP POP POP JUMP JUMPDEST PUSH0 SWAP1 JUMP JUMPDEST PUSH2 0xD58 PUSH2 0xD4C JUMP JUMPDEST PUSH2 0xD63 DUP2 DUP5 DUP5 PUSH2 0xD27 JUMP JUMPDEST POP POP POP JUMP JUMPDEST JUMPDEST DUP2 DUP2 LT ISZERO PUSH2 0xD86 JUMPI PUSH2 0xD7B PUSH0 DUP3 PUSH2 0xD50 JUMP JUMPDEST PUSH1 0x1 DUP2 ADD SWAP1 POP PUSH2 0xD69 JUMP JUMPDEST POP POP JUMP JUMPDEST PUSH1 0x1F DUP3 GT ISZERO PUSH2 0xDCB JUMPI PUSH2 0xD9C DUP2 PUSH2 0xC76 JUMP JUMPDEST PUSH2 0xDA5 DUP5 PUSH2 0xC88 JUMP JUMPDEST DUP2 ADD PUSH1 0x20 DUP6 LT ISZERO PUSH2 0xDB4 JUMPI DUP2 SWAP1 POP JUMPDEST PUSH2 0xDC8 PUSH2 0xDC0 DUP6 PUSH2 0xC88 JUMP JUMPDEST DUP4 ADD DUP3 PUSH2 0xD68 JUMP JUMPDEST POP POP JUMPDEST POP POP POP JUMP JUMPDEST PUSH0 DUP3 DUP3 SHR SWAP1 POP SWAP3 SWAP2 POP POP JUMP JUMPDEST PUSH0 PUSH2 0xDEB PUSH0 NOT DUP5 PUSH1 0x8 MUL PUSH2 0xDD0 JUMP JUMPDEST NOT DUP1 DUP4 AND SWAP2 POP POP SWAP3 SWAP2 POP POP JUMP JUMPDEST PUSH0 PUSH2 0xE03 DUP4 DUP4 PUSH2 0xDDC JUMP JUMPDEST SWAP2 POP DUP3 PUSH1 0x2 MUL DUP3 OR SWAP1 POP SWAP3 SWAP2 POP POP JUMP JUMPDEST PUSH2 0xE1C DUP3 PUSH2 0x8C0 JUMP JUMPDEST PUSH8 0xFFFFFFFFFFFFFFFF DUP2 GT ISZERO PUSH2 0xE35 JUMPI PUSH2 0xE34 PUSH2 0x9D2 JUMP JUMPDEST JUMPDEST PUSH2 0xE3F DUP3 SLOAD PUSH2 0xC46 JUMP JUMPDEST PUSH2 0xE4A DUP3 DUP3 DUP6 PUSH2 0xD8A JUMP JUMPDEST PUSH0 PUSH1 0x20 SWAP1 POP PUSH1 0x1F DUP4 GT PUSH1 0x1 DUP2 EQ PUSH2 0xE7B JUMPI PUSH0 DUP5 ISZERO PUSH2 0xE69 JUMPI DUP3 DUP8 ADD MLOAD SWAP1 POP JUMPDEST PUSH2 0xE73 DUP6 DUP3 PUSH2 0xDF8 JUMP JUMPDEST DUP7 SSTORE POP PUSH2 0xEDA JUMP JUMPDEST PUSH1 0x1F NOT DUP5 AND PUSH2 0xE89 DUP7 PUSH2 0xC76 JUMP JUMPDEST PUSH0 JUMPDEST DUP3 DUP2 LT ISZERO PUSH2 0xEB0 JUMPI DUP5 DUP10 ADD MLOAD DUP3 SSTORE PUSH1 0x1 DUP3 ADD SWAP2 POP PUSH1 0x20 DUP6 ADD SWAP5 POP PUSH1 0x20 DUP2 ADD SWAP1 POP PUSH2 0xE8B JUMP JUMPDEST DUP7 DUP4 LT ISZERO PUSH2 0xECD JUMPI DUP5 DUP10 ADD MLOAD PUSH2 0xEC9 PUSH1 0x1F DUP10 AND DUP3 PUSH2 0xDDC JUMP JUMPDEST DUP4 SSTORE POP JUMPDEST PUSH1 0x1 PUSH1 0x2 DUP9 MUL ADD DUP9 SSTORE POP POP POP JUMPDEST POP POP POP POP POP POP JUMP JUMPDEST PUSH0 PUSH2 0xEEC DUP3 PUSH2 0x782 JUMP JUMPDEST SWAP2 POP PUSH32 0xFFFFFFFFFFFFFFFFFFFFFFFFFFFFFFFFFFFFFFFFFFFFFFFFFFFFFFFFFFFFFFFF DUP3 SUB PUSH2 0xF1E JUMPI PUSH2 0xF1D PUSH2 0xBBC JUMP JUMPDEST JUMPDEST PUSH1 0x1 DUP3 ADD SWAP1 POP SWAP2 SWAP1 POP JUMP JUMPDEST PUSH32 0x53656E646572206973206E6F74206120636F6E74726962757465720000000000 PUSH0 DUP3 ADD MSTORE POP JUMP JUMPDEST PUSH0 PUSH2 0xF5D PUSH1 0x1B DUP4 PUSH2 0x8CA JUMP JUMPDEST SWAP2 POP PUSH2 0xF68 DUP3 PUSH2 0xF29 JUMP JUMPDEST PUSH1 0x20 DUP3 ADD SWAP1 POP SWAP2 SWAP1 POP JUMP JUMPDEST PUSH0 PUSH1 0x20 DUP3 ADD SWAP1 POP DUP2 DUP2 SUB PUSH0 DUP4 ADD MSTORE PUSH2 0xF8A DUP2 PUSH2 0xF51 JUMP JUMPDEST SWAP1 POP SWAP2 SWAP1 POP JUMP INVALID LOG2 PUSH5 0x6970667358 0x22 SLT KECCAK256 DUP3 0xED SIGNEXTEND DUP6 BALANCE 0x1F DUP15 DUP14 0xC7 DUP16 0x28 0xE0 0x29 CHAINID 0xE0 DUP1 POP 0x4E EXP 0xD1 0xD6 0x2C 0xD3 PUSH19 0x31E7CD793F55F64664736F6C63430008170033 LOG2 PUSH5 0x6970667358 0x22 SLT KECCAK256 0xFB KECCAK256 SMOD 0xEA INVALID PUSH17 0x21A25BA2AC046F310828A48527C864FAC4 PUSH3 0xC0FF8E SWAP6 0xC4 0xDB PUSH22 0x9264736F6C6343000817003300000000000000000000 "
    },
    "gasEstimates": {
      "creation": {
        "codeDepositCost": "1091200",
        "executionCost": "1132",
        "totalCost": "1092332"
      },
      "external": {
        "createCampanha(uint256)": "infinite",
        "deployedCampaigns(uint256)": "4943",
        "getDeployedCampaigns()": "infinite"
      }
    },
    "methodIdentifiers": {
      "createCampanha(uint256)": "216402ab",
      "deployedCampaigns(uint256)": "339d50a5",
      "getDeployedCampaigns()": "4acb9d4f"
    }
  },
  "storageLayout": {
    "storage": [
      {
        "astId": 4,
        "contract": "Campanha.sol:CampanhaFactory",
        "label": "deployedCampaigns",
        "offset": 0,
        "slot": "0",
        "type": "t_array(t_address)dyn_storage"
      }
    ],
    "types": {
      "t_address": {
        "encoding": "inplace",
        "label": "address",
        "numberOfBytes": "20"
      },
      "t_array(t_address)dyn_storage": {
        "base": "t_address",
        "encoding": "dynamic_array",
        "label": "address[]",
        "numberOfBytes": "32"
      }
    }
  },
  "userdoc": {
    "kind": "user",
    "methods": {},
    "version": 1
  }
}