{
  "abi": [
    {
      "inputs": [
        {
          "internalType": "uint256",
          "name": "minimum",
          "type": "uint256"
        }
      ],
      "name": "createCampanha",
      "outputs": [],
      "stateMutability": "nonpayable",
      "type": "function"
    },
    {
      "inputs": [
        {
          "internalType": "uint256",
          "name": "",
          "type": "uint256"
        }
      ],
      "name": "deployedCampaigns",
      "outputs": [
        {
          "internalType": "contract Campanha",
          "name": "",
          "type": "address"
        }
      ],
      "stateMutability": "view",
      "type": "function"
    },
    {
      "inputs": [],
      "name": "getDeployedCampaigns",
      "outputs": [
        {
          "internalType": "contract Campanha[]",
          "name": "",
          "type": "address[]"
        }
      ],
      "stateMutability": "view",
      "type": "function"
    }
  ],
  "devdoc": {
    "kind": "dev",
    "methods": {},
    "version": 1
  },
  "evm": {
    "assembly": "    /* \"Campanha.sol\":64:424  contract CampanhaFactory {... */\n  mstore(0x40, 0x80)\n  callvalue\n  dup1\n  iszero\n  tag_1\n  jumpi\n  0x00\n  dup1\n  revert\ntag_1:\n  pop\n  dataSize(sub_0)\n  dup1\n  dataOffset(sub_0)\n  0x00\n  codecopy\n  0x00\n  return\nstop\n\nsub_0: assembly {\n        /* \"Campanha.sol\":64:424  contract CampanhaFactory {... */\n      mstore(0x40, 0x80)\n      callvalue\n      dup1\n      iszero\n      tag_1\n      jumpi\n      0x00\n      dup1\n      revert\n    tag_1:\n      pop\n      jumpi(tag_2, lt(calldatasize, 0x04))\n      shr(0xe0, calldataload(0x00))\n      dup1\n      0x216402ab\n      eq\n      tag_3\n      jumpi\n      dup1\n      0x339d50a5\n      eq\n      tag_4\n      jumpi\n      dup1\n      0x4acb9d4f\n      eq\n      tag_5\n      jumpi\n    tag_2:\n      0x00\n      dup1\n      revert\n        /* \"Campanha.sol\":137:303  function createCampanha(uint256 minimum) public {... */\n    tag_3:\n      tag_6\n      0x04\n      dup1\n      calldatasize\n      sub\n      dup2\n      add\n      swap1\n      tag_7\n      swap2\n      swap1\n      tag_8\n      jump\t// in\n    tag_7:\n      tag_9\n      jump\t// in\n    tag_6:\n      stop\n        /* \"Campanha.sol\":95:130  Campanha[] public deployedCampaigns */\n    tag_4:\n      tag_10\n      0x04\n      dup1\n      calldatasize\n      sub\n      dup2\n      add\n      swap1\n      tag_11\n      swap2\n      swap1\n      tag_8\n      jump\t// in\n    tag_11:\n      tag_12\n      jump\t// in\n    tag_10:\n      mload(0x40)\n      tag_13\n      swap2\n      swap1\n      tag_14\n      jump\t// in\n    tag_13:\n      mload(0x40)\n      dup1\n      swap2\n      sub\n      swap1\n      return\n        /* \"Campanha.sol\":309:422  function getDeployedCampaigns() public view returns (Campanha[] memory) {... */\n    tag_5:\n      tag_15\n      tag_16\n      jump\t// in\n    tag_15:\n      mload(0x40)\n      tag_17\n      swap2\n      swap1\n      tag_18\n      jump\t// in\n    tag_17:\n      mload(0x40)\n      dup1\n      swap2\n      sub\n      swap1\n      return\n        /* \"Campanha.sol\":137:303  function createCampanha(uint256 minimum) public {... */\n    tag_9:\n        /* \"Campanha.sol\":195:215  Campanha newCampaign */\n      0x00\n        /* \"Campanha.sol\":231:238  minimum */\n      dup2\n        /* \"Campanha.sol\":240:250  msg.sender */\n      caller\n        /* \"Campanha.sol\":218:251  new Campanha(minimum, msg.sender) */\n      mload(0x40)\n      tag_20\n      swap1\n      tag_21\n      jump\t// in\n    tag_20:\n      tag_22\n      swap3\n      swap2\n      swap1\n      tag_23\n      jump\t// in\n    tag_22:\n      mload(0x40)\n      dup1\n      swap2\n      sub\n      swap1\n      0x00\n      create\n      dup1\n      iszero\n      dup1\n      iszero\n      tag_24\n      jumpi\n      returndatasize\n      0x00\n      dup1\n      returndatacopy\n      revert(0x00, returndatasize)\n    tag_24:\n      pop\n        /* \"Campanha.sol\":195:251  Campanha newCampaign = new Campanha(minimum, msg.sender) */\n      swap1\n      pop\n        /* \"Campanha.sol\":261:278  deployedCampaigns */\n      0x00\n        /* \"Campanha.sol\":284:295  newCampaign */\n      dup2\n        /* \"Campanha.sol\":261:296  deployedCampaigns.push(newCampaign) */\n      swap1\n      dup1\n      0x01\n      dup2\n      sload\n      add\n      dup1\n      dup3\n      sstore\n      dup1\n      swap2\n      pop\n      pop\n      0x01\n      swap1\n      sub\n      swap1\n      0x00\n      mstore\n      keccak256(0x00, 0x20)\n      add\n      0x00\n      swap1\n      swap2\n      swap1\n      swap2\n      swap1\n      swap2\n      0x0100\n      exp\n      dup2\n      sload\n      dup2\n      0xffffffffffffffffffffffffffffffffffffffff\n      mul\n      not\n      and\n      swap1\n      dup4\n      0xffffffffffffffffffffffffffffffffffffffff\n      and\n      mul\n      or\n      swap1\n      sstore\n      pop\n        /* \"Campanha.sol\":185:303  {... */\n      pop\n        /* \"Campanha.sol\":137:303  function createCampanha(uint256 minimum) public {... */\n      pop\n      jump\t// out\n        /* \"Campanha.sol\":95:130  Campanha[] public deployedCampaigns */\n    tag_12:\n      0x00\n      dup2\n      dup2\n      sload\n      dup2\n      lt\n      tag_26\n      jumpi\n      0x00\n      dup1\n      revert\n    tag_26:\n      swap1\n      0x00\n      mstore\n      keccak256(0x00, 0x20)\n      add\n      0x00\n      swap2\n      pop\n      sload\n      swap1\n      0x0100\n      exp\n      swap1\n      div\n      0xffffffffffffffffffffffffffffffffffffffff\n      and\n      dup2\n      jump\t// out\n        /* \"Campanha.sol\":309:422  function getDeployedCampaigns() public view returns (Campanha[] memory) {... */\n    tag_16:\n        /* \"Campanha.sol\":362:379  Campanha[] memory */\n      0x60\n        /* \"Campanha.sol\":398:415  deployedCampaigns */\n      0x00\n        /* \"Campanha.sol\":391:415  return deployedCampaigns */\n      dup1\n      sload\n      dup1\n      0x20\n      mul\n      0x20\n      add\n      mload(0x40)\n      swap1\n      dup2\n      add\n      0x40\n      mstore\n      dup1\n      swap3\n      swap2\n      swap1\n      dup2\n      dup2\n      mstore\n      0x20\n      add\n      dup3\n      dup1\n      sload\n      dup1\n      iszero\n      tag_29\n      jumpi\n      0x20\n      mul\n      dup3\n      add\n      swap2\n      swap1\n      0x00\n      mstore\n      keccak256(0x00, 0x20)\n      swap1\n    tag_30:\n      dup2\n      0x00\n      swap1\n      sload\n      swap1\n      0x0100\n      exp\n      swap1\n      div\n      0xffffffffffffffffffffffffffffffffffffffff\n      and\n      0xffffffffffffffffffffffffffffffffffffffff\n      and\n      dup2\n      mstore\n      0x20\n      add\n      swap1\n      0x01\n      add\n      swap1\n      dup1\n      dup4\n      gt\n      tag_30\n      jumpi\n    tag_29:\n      pop\n      pop\n      pop\n      pop\n      pop\n      swap1\n      pop\n        /* \"Campanha.sol\":309:422  function getDeployedCampaigns() public view returns (Campanha[] memory) {... */\n      swap1\n      jump\t// out\n    tag_21:\n      dataSize(sub_0)\n      dup1\n      dataOffset(sub_0)\n      dup4\n      codecopy\n      add\n      swap1\n      jump\t// out\n        /* \"#utility.yul\":88:205   */\n    tag_32:\n        /* \"#utility.yul\":197:198   */\n      0x00\n        /* \"#utility.yul\":194:195   */\n      dup1\n        /* \"#utility.yul\":187:199   */\n      revert\n        /* \"#utility.yul\":334:411   */\n    tag_34:\n        /* \"#utility.yul\":371:378   */\n      0x00\n        /* \"#utility.yul\":400:405   */\n      dup2\n        /* \"#utility.yul\":389:405   */\n      swap1\n      pop\n        /* \"#utility.yul\":334:411   */\n      swap2\n      swap1\n      pop\n      jump\t// out\n        /* \"#utility.yul\":417:539   */\n    tag_35:\n        /* \"#utility.yul\":490:514   */\n      tag_59\n        /* \"#utility.yul\":508:513   */\n      dup2\n        /* \"#utility.yul\":490:514   */\n      tag_34\n      jump\t// in\n    tag_59:\n        /* \"#utility.yul\":483:488   */\n      dup2\n        /* \"#utility.yul\":480:515   */\n      eq\n        /* \"#utility.yul\":470:533   */\n      tag_60\n      jumpi\n        /* \"#utility.yul\":529:530   */\n      0x00\n        /* \"#utility.yul\":526:527   */\n      dup1\n        /* \"#utility.yul\":519:531   */\n      revert\n        /* \"#utility.yul\":470:533   */\n    tag_60:\n        /* \"#utility.yul\":417:539   */\n      pop\n      jump\t// out\n        /* \"#utility.yul\":545:684   */\n    tag_36:\n        /* \"#utility.yul\":591:596   */\n      0x00\n        /* \"#utility.yul\":629:635   */\n      dup2\n        /* \"#utility.yul\":616:636   */\n      calldataload\n        /* \"#utility.yul\":607:636   */\n      swap1\n      pop\n        /* \"#utility.yul\":645:678   */\n      tag_62\n        /* \"#utility.yul\":672:677   */\n      dup2\n        /* \"#utility.yul\":645:678   */\n      tag_35\n      jump\t// in\n    tag_62:\n        /* \"#utility.yul\":545:684   */\n      swap3\n      swap2\n      pop\n      pop\n      jump\t// out\n        /* \"#utility.yul\":690:1019   */\n    tag_8:\n        /* \"#utility.yul\":749:755   */\n      0x00\n        /* \"#utility.yul\":798:800   */\n      0x20\n        /* \"#utility.yul\":786:795   */\n      dup3\n        /* \"#utility.yul\":777:784   */\n      dup5\n        /* \"#utility.yul\":773:796   */\n      sub\n        /* \"#utility.yul\":769:801   */\n      slt\n        /* \"#utility.yul\":766:885   */\n      iszero\n      tag_64\n      jumpi\n        /* \"#utility.yul\":804:883   */\n      tag_65\n      tag_32\n      jump\t// in\n    tag_65:\n        /* \"#utility.yul\":766:885   */\n    tag_64:\n        /* \"#utility.yul\":924:925   */\n      0x00\n        /* \"#utility.yul\":949:1002   */\n      tag_66\n        /* \"#utility.yul\":994:1001   */\n      dup5\n        /* \"#utility.yul\":985:991   */\n      dup3\n        /* \"#utility.yul\":974:983   */\n      dup6\n        /* \"#utility.yul\":970:992   */\n      add\n        /* \"#utility.yul\":949:1002   */\n      tag_36\n      jump\t// in\n    tag_66:\n        /* \"#utility.yul\":939:1002   */\n      swap2\n      pop\n        /* \"#utility.yul\":895:1012   */\n      pop\n        /* \"#utility.yul\":690:1019   */\n      swap3\n      swap2\n      pop\n      pop\n      jump\t// out\n        /* \"#utility.yul\":1025:1151   */\n    tag_37:\n        /* \"#utility.yul\":1062:1069   */\n      0x00\n        /* \"#utility.yul\":1102:1144   */\n      0xffffffffffffffffffffffffffffffffffffffff\n        /* \"#utility.yul\":1095:1100   */\n      dup3\n        /* \"#utility.yul\":1091:1145   */\n      and\n        /* \"#utility.yul\":1080:1145   */\n      swap1\n      pop\n        /* \"#utility.yul\":1025:1151   */\n      swap2\n      swap1\n      pop\n      jump\t// out\n        /* \"#utility.yul\":1157:1217   */\n    tag_38:\n        /* \"#utility.yul\":1185:1188   */\n      0x00\n        /* \"#utility.yul\":1206:1211   */\n      dup2\n        /* \"#utility.yul\":1199:1211   */\n      swap1\n      pop\n        /* \"#utility.yul\":1157:1217   */\n      swap2\n      swap1\n      pop\n      jump\t// out\n        /* \"#utility.yul\":1223:1365   */\n    tag_39:\n        /* \"#utility.yul\":1273:1282   */\n      0x00\n        /* \"#utility.yul\":1306:1359   */\n      tag_70\n        /* \"#utility.yul\":1324:1358   */\n      tag_71\n        /* \"#utility.yul\":1333:1357   */\n      tag_72\n        /* \"#utility.yul\":1351:1356   */\n      dup5\n        /* \"#utility.yul\":1333:1357   */\n      tag_37\n      jump\t// in\n    tag_72:\n        /* \"#utility.yul\":1324:1358   */\n      tag_38\n      jump\t// in\n    tag_71:\n        /* \"#utility.yul\":1306:1359   */\n      tag_37\n      jump\t// in\n    tag_70:\n        /* \"#utility.yul\":1293:1359   */\n      swap1\n      pop\n        /* \"#utility.yul\":1223:1365   */\n      swap2\n      swap1\n      pop\n      jump\t// out\n        /* \"#utility.yul\":1371:1497   */\n    tag_40:\n        /* \"#utility.yul\":1421:1430   */\n      0x00\n        /* \"#utility.yul\":1454:1491   */\n      tag_74\n        /* \"#utility.yul\":1485:1490   */\n      dup3\n        /* \"#utility.yul\":1454:1491   */\n      tag_39\n      jump\t// in\n    tag_74:\n        /* \"#utility.yul\":1441:1491   */\n      swap1\n      pop\n        /* \"#utility.yul\":1371:1497   */\n      swap2\n      swap1\n      pop\n      jump\t// out\n        /* \"#utility.yul\":1503:1645   */\n    tag_41:\n        /* \"#utility.yul\":1569:1578   */\n      0x00\n        /* \"#utility.yul\":1602:1639   */\n      tag_76\n        /* \"#utility.yul\":1633:1638   */\n      dup3\n        /* \"#utility.yul\":1602:1639   */\n      tag_40\n      jump\t// in\n    tag_76:\n        /* \"#utility.yul\":1589:1639   */\n      swap1\n      pop\n        /* \"#utility.yul\":1503:1645   */\n      swap2\n      swap1\n      pop\n      jump\t// out\n        /* \"#utility.yul\":1651:1814   */\n    tag_42:\n        /* \"#utility.yul\":1754:1807   */\n      tag_78\n        /* \"#utility.yul\":1801:1806   */\n      dup2\n        /* \"#utility.yul\":1754:1807   */\n      tag_41\n      jump\t// in\n    tag_78:\n        /* \"#utility.yul\":1749:1752   */\n      dup3\n        /* \"#utility.yul\":1742:1808   */\n      mstore\n        /* \"#utility.yul\":1651:1814   */\n      pop\n      pop\n      jump\t// out\n        /* \"#utility.yul\":1820:2074   */\n    tag_14:\n        /* \"#utility.yul\":1929:1933   */\n      0x00\n        /* \"#utility.yul\":1967:1969   */\n      0x20\n        /* \"#utility.yul\":1956:1965   */\n      dup3\n        /* \"#utility.yul\":1952:1970   */\n      add\n        /* \"#utility.yul\":1944:1970   */\n      swap1\n      pop\n        /* \"#utility.yul\":1980:2067   */\n      tag_80\n        /* \"#utility.yul\":2064:2065   */\n      0x00\n        /* \"#utility.yul\":2053:2062   */\n      dup4\n        /* \"#utility.yul\":2049:2066   */\n      add\n        /* \"#utility.yul\":2040:2046   */\n      dup5\n        /* \"#utility.yul\":1980:2067   */\n      tag_42\n      jump\t// in\n    tag_80:\n        /* \"#utility.yul\":1820:2074   */\n      swap3\n      swap2\n      pop\n      pop\n      jump\t// out\n        /* \"#utility.yul\":2080:2210   */\n    tag_43:\n        /* \"#utility.yul\":2163:2169   */\n      0x00\n        /* \"#utility.yul\":2197:2202   */\n      dup2\n        /* \"#utility.yul\":2191:2203   */\n      mload\n        /* \"#utility.yul\":2181:2203   */\n      swap1\n      pop\n        /* \"#utility.yul\":2080:2210   */\n      swap2\n      swap1\n      pop\n      jump\t// out\n        /* \"#utility.yul\":2216:2400   */\n    tag_44:\n        /* \"#utility.yul\":2315:2326   */\n      0x00\n        /* \"#utility.yul\":2349:2355   */\n      dup3\n        /* \"#utility.yul\":2344:2347   */\n      dup3\n        /* \"#utility.yul\":2337:2356   */\n      mstore\n        /* \"#utility.yul\":2389:2393   */\n      0x20\n        /* \"#utility.yul\":2384:2387   */\n      dup3\n        /* \"#utility.yul\":2380:2394   */\n      add\n        /* \"#utility.yul\":2365:2394   */\n      swap1\n      pop\n        /* \"#utility.yul\":2216:2400   */\n      swap3\n      swap2\n      pop\n      pop\n      jump\t// out\n        /* \"#utility.yul\":2406:2554   */\n    tag_45:\n        /* \"#utility.yul\":2489:2493   */\n      0x00\n        /* \"#utility.yul\":2512:2515   */\n      dup2\n        /* \"#utility.yul\":2504:2515   */\n      swap1\n      pop\n        /* \"#utility.yul\":2542:2546   */\n      0x20\n        /* \"#utility.yul\":2537:2540   */\n      dup3\n        /* \"#utility.yul\":2533:2547   */\n      add\n        /* \"#utility.yul\":2525:2547   */\n      swap1\n      pop\n        /* \"#utility.yul\":2406:2554   */\n      swap2\n      swap1\n      pop\n      jump\t// out\n        /* \"#utility.yul\":2560:2713   */\n    tag_46:\n        /* \"#utility.yul\":2653:2706   */\n      tag_85\n        /* \"#utility.yul\":2700:2705   */\n      dup2\n        /* \"#utility.yul\":2653:2706   */\n      tag_41\n      jump\t// in\n    tag_85:\n        /* \"#utility.yul\":2648:2651   */\n      dup3\n        /* \"#utility.yul\":2641:2707   */\n      mstore\n        /* \"#utility.yul\":2560:2713   */\n      pop\n      pop\n      jump\t// out\n        /* \"#utility.yul\":2719:2930   */\n    tag_47:\n        /* \"#utility.yul\":2804:2814   */\n      0x00\n        /* \"#utility.yul\":2825:2887   */\n      tag_87\n        /* \"#utility.yul\":2883:2886   */\n      dup4\n        /* \"#utility.yul\":2875:2881   */\n      dup4\n        /* \"#utility.yul\":2825:2887   */\n      tag_46\n      jump\t// in\n    tag_87:\n        /* \"#utility.yul\":2919:2923   */\n      0x20\n        /* \"#utility.yul\":2914:2917   */\n      dup4\n        /* \"#utility.yul\":2910:2924   */\n      add\n        /* \"#utility.yul\":2896:2924   */\n      swap1\n      pop\n        /* \"#utility.yul\":2719:2930   */\n      swap3\n      swap2\n      pop\n      pop\n      jump\t// out\n        /* \"#utility.yul\":2936:3065   */\n    tag_48:\n        /* \"#utility.yul\":3022:3026   */\n      0x00\n        /* \"#utility.yul\":3054:3058   */\n      0x20\n        /* \"#utility.yul\":3049:3052   */\n      dup3\n        /* \"#utility.yul\":3045:3059   */\n      add\n        /* \"#utility.yul\":3037:3059   */\n      swap1\n      pop\n        /* \"#utility.yul\":2936:3065   */\n      swap2\n      swap1\n      pop\n      jump\t// out\n        /* \"#utility.yul\":3111:3923   */\n    tag_49:\n        /* \"#utility.yul\":3246:3249   */\n      0x00\n        /* \"#utility.yul\":3275:3345   */\n      tag_90\n        /* \"#utility.yul\":3339:3344   */\n      dup3\n        /* \"#utility.yul\":3275:3345   */\n      tag_43\n      jump\t// in\n    tag_90:\n        /* \"#utility.yul\":3361:3447   */\n      tag_91\n        /* \"#utility.yul\":3440:3446   */\n      dup2\n        /* \"#utility.yul\":3435:3438   */\n      dup6\n        /* \"#utility.yul\":3361:3447   */\n      tag_44\n      jump\t// in\n    tag_91:\n        /* \"#utility.yul\":3354:3447   */\n      swap4\n      pop\n        /* \"#utility.yul\":3471:3543   */\n      tag_92\n        /* \"#utility.yul\":3537:3542   */\n      dup4\n        /* \"#utility.yul\":3471:3543   */\n      tag_45\n      jump\t// in\n    tag_92:\n        /* \"#utility.yul\":3566:3573   */\n      dup1\n        /* \"#utility.yul\":3597:3598   */\n      0x00\n        /* \"#utility.yul\":3582:3898   */\n    tag_93:\n        /* \"#utility.yul\":3607:3613   */\n      dup4\n        /* \"#utility.yul\":3604:3605   */\n      dup2\n        /* \"#utility.yul\":3601:3614   */\n      lt\n        /* \"#utility.yul\":3582:3898   */\n      iszero\n      tag_95\n      jumpi\n        /* \"#utility.yul\":3683:3689   */\n      dup2\n        /* \"#utility.yul\":3677:3690   */\n      mload\n        /* \"#utility.yul\":3710:3789   */\n      tag_96\n        /* \"#utility.yul\":3785:3788   */\n      dup9\n        /* \"#utility.yul\":3770:3783   */\n      dup3\n        /* \"#utility.yul\":3710:3789   */\n      tag_47\n      jump\t// in\n    tag_96:\n        /* \"#utility.yul\":3703:3789   */\n      swap8\n      pop\n        /* \"#utility.yul\":3812:3888   */\n      tag_97\n        /* \"#utility.yul\":3881:3887   */\n      dup4\n        /* \"#utility.yul\":3812:3888   */\n      tag_48\n      jump\t// in\n    tag_97:\n        /* \"#utility.yul\":3802:3888   */\n      swap3\n      pop\n        /* \"#utility.yul\":3642:3898   */\n      pop\n        /* \"#utility.yul\":3629:3630   */\n      0x01\n        /* \"#utility.yul\":3626:3627   */\n      dup2\n        /* \"#utility.yul\":3622:3631   */\n      add\n        /* \"#utility.yul\":3617:3631   */\n      swap1\n      pop\n        /* \"#utility.yul\":3582:3898   */\n      jump(tag_93)\n    tag_95:\n        /* \"#utility.yul\":3586:3600   */\n      pop\n        /* \"#utility.yul\":3914:3917   */\n      dup6\n        /* \"#utility.yul\":3907:3917   */\n      swap4\n      pop\n        /* \"#utility.yul\":3251:3923   */\n      pop\n      pop\n      pop\n        /* \"#utility.yul\":3111:3923   */\n      swap3\n      swap2\n      pop\n      pop\n      jump\t// out\n        /* \"#utility.yul\":3929:4334   */\n    tag_18:\n        /* \"#utility.yul\":4088:4092   */\n      0x00\n        /* \"#utility.yul\":4126:4128   */\n      0x20\n        /* \"#utility.yul\":4115:4124   */\n      dup3\n        /* \"#utility.yul\":4111:4129   */\n      add\n        /* \"#utility.yul\":4103:4129   */\n      swap1\n      pop\n        /* \"#utility.yul\":4175:4184   */\n      dup2\n        /* \"#utility.yul\":4169:4173   */\n      dup2\n        /* \"#utility.yul\":4165:4185   */\n      sub\n        /* \"#utility.yul\":4161:4162   */\n      0x00\n        /* \"#utility.yul\":4150:4159   */\n      dup4\n        /* \"#utility.yul\":4146:4163   */\n      add\n        /* \"#utility.yul\":4139:4186   */\n      mstore\n        /* \"#utility.yul\":4203:4327   */\n      tag_99\n        /* \"#utility.yul\":4322:4326   */\n      dup2\n        /* \"#utility.yul\":4313:4319   */\n      dup5\n        /* \"#utility.yul\":4203:4327   */\n      tag_49\n      jump\t// in\n    tag_99:\n        /* \"#utility.yul\":4195:4327   */\n      swap1\n      pop\n        /* \"#utility.yul\":3929:4334   */\n      swap3\n      swap2\n      pop\n      pop\n      jump\t// out\n        /* \"#utility.yul\":4340:4458   */\n    tag_50:\n        /* \"#utility.yul\":4427:4451   */\n      tag_101\n        /* \"#utility.yul\":4445:4450   */\n      dup2\n        /* \"#utility.yul\":4427:4451   */\n      tag_34\n      jump\t// in\n    tag_101:\n        /* \"#utility.yul\":4422:4425   */\n      dup3\n        /* \"#utility.yul\":4415:4452   */\n      mstore\n        /* \"#utility.yul\":4340:4458   */\n      pop\n      pop\n      jump\t// out\n        /* \"#utility.yul\":4464:4560   */\n    tag_51:\n        /* \"#utility.yul\":4501:4508   */\n      0x00\n        /* \"#utility.yul\":4530:4554   */\n      tag_103\n        /* \"#utility.yul\":4548:4553   */\n      dup3\n        /* \"#utility.yul\":4530:4554   */\n      tag_37\n      jump\t// in\n    tag_103:\n        /* \"#utility.yul\":4519:4554   */\n      swap1\n      pop\n        /* \"#utility.yul\":4464:4560   */\n      swap2\n      swap1\n      pop\n      jump\t// out\n        /* \"#utility.yul\":4566:4684   */\n    tag_52:\n        /* \"#utility.yul\":4653:4677   */\n      tag_105\n        /* \"#utility.yul\":4671:4676   */\n      dup2\n        /* \"#utility.yul\":4653:4677   */\n      tag_51\n      jump\t// in\n    tag_105:\n        /* \"#utility.yul\":4648:4651   */\n      dup3\n        /* \"#utility.yul\":4641:4678   */\n      mstore\n        /* \"#utility.yul\":4566:4684   */\n      pop\n      pop\n      jump\t// out\n        /* \"#utility.yul\":4690:5022   */\n    tag_23:\n        /* \"#utility.yul\":4811:4815   */\n      0x00\n        /* \"#utility.yul\":4849:4851   */\n      0x40\n        /* \"#utility.yul\":4838:4847   */\n      dup3\n        /* \"#utility.yul\":4834:4852   */\n      add\n        /* \"#utility.yul\":4826:4852   */\n      swap1\n      pop\n        /* \"#utility.yul\":4862:4933   */\n      tag_107\n        /* \"#utility.yul\":4930:4931   */\n      0x00\n        /* \"#utility.yul\":4919:4928   */\n      dup4\n        /* \"#utility.yul\":4915:4932   */\n      add\n        /* \"#utility.yul\":4906:4912   */\n      dup6\n        /* \"#utility.yul\":4862:4933   */\n      tag_50\n      jump\t// in\n    tag_107:\n        /* \"#utility.yul\":4943:5015   */\n      tag_108\n        /* \"#utility.yul\":5011:5013   */\n      0x20\n        /* \"#utility.yul\":5000:5009   */\n      dup4\n        /* \"#utility.yul\":4996:5014   */\n      add\n        /* \"#utility.yul\":4987:4993   */\n      dup5\n        /* \"#utility.yul\":4943:5015   */\n      tag_52\n      jump\t// in\n    tag_108:\n        /* \"#utility.yul\":4690:5022   */\n      swap4\n      swap3\n      pop\n      pop\n      pop\n      jump\t// out\n    stop\n\n    sub_0: assembly {\n            /* \"Campanha.sol\":426:3125  contract Campanha {... */\n          mstore(0x40, 0x80)\n            /* \"Campanha.sol\":885:1004  constructor(uint256 minimum, address creator) {... */\n          callvalue\n          dup1\n          iszero\n          tag_1\n          jumpi\n          0x00\n          dup1\n          revert\n        tag_1:\n          pop\n          mload(0x40)\n          sub(codesize, bytecodeSize)\n          dup1\n          bytecodeSize\n          dup4\n          codecopy\n          dup2\n          dup2\n          add\n          0x40\n          mstore\n          dup2\n          add\n          swap1\n          tag_2\n          swap2\n          swap1\n          tag_3\n          jump\t// in\n        tag_2:\n            /* \"Campanha.sol\":951:958  creator */\n          dup1\n            /* \"Campanha.sol\":941:948  manager */\n          0x00\n          dup1\n            /* \"Campanha.sol\":941:958  manager = creator */\n          0x0100\n          exp\n          dup2\n          sload\n          dup2\n          0xffffffffffffffffffffffffffffffffffffffff\n          mul\n          not\n          and\n          swap1\n          dup4\n          0xffffffffffffffffffffffffffffffffffffffff\n          and\n          mul\n          or\n          swap1\n          sstore\n          pop\n            /* \"Campanha.sol\":990:997  minimum */\n          dup2\n            /* \"Campanha.sol\":968:987  minimumContribution */\n          0x01\n            /* \"Campanha.sol\":968:997  minimumContribution = minimum */\n          dup2\n          swap1\n          sstore\n          pop\n            /* \"Campanha.sol\":885:1004  constructor(uint256 minimum, address creator) {... */\n          pop\n          pop\n            /* \"Campanha.sol\":426:3125  contract Campanha {... */\n          jump(tag_6)\n            /* \"#utility.yul\":88:205   */\n        tag_8:\n            /* \"#utility.yul\":197:198   */\n          0x00\n            /* \"#utility.yul\":194:195   */\n          dup1\n            /* \"#utility.yul\":187:199   */\n          revert\n            /* \"#utility.yul\":334:411   */\n        tag_10:\n            /* \"#utility.yul\":371:378   */\n          0x00\n            /* \"#utility.yul\":400:405   */\n          dup2\n            /* \"#utility.yul\":389:405   */\n          swap1\n          pop\n            /* \"#utility.yul\":334:411   */\n          swap2\n          swap1\n          pop\n          jump\t// out\n            /* \"#utility.yul\":417:539   */\n        tag_11:\n            /* \"#utility.yul\":490:514   */\n          tag_23\n            /* \"#utility.yul\":508:513   */\n          dup2\n            /* \"#utility.yul\":490:514   */\n          tag_10\n          jump\t// in\n        tag_23:\n            /* \"#utility.yul\":483:488   */\n          dup2\n            /* \"#utility.yul\":480:515   */\n          eq\n            /* \"#utility.yul\":470:533   */\n          tag_24\n          jumpi\n            /* \"#utility.yul\":529:530   */\n          0x00\n            /* \"#utility.yul\":526:527   */\n          dup1\n            /* \"#utility.yul\":519:531   */\n          revert\n            /* \"#utility.yul\":470:533   */\n        tag_24:\n            /* \"#utility.yul\":417:539   */\n          pop\n          jump\t// out\n            /* \"#utility.yul\":545:688   */\n        tag_12:\n            /* \"#utility.yul\":602:607   */\n          0x00\n            /* \"#utility.yul\":633:639   */\n          dup2\n            /* \"#utility.yul\":627:640   */\n          mload\n            /* \"#utility.yul\":618:640   */\n          swap1\n          pop\n            /* \"#utility.yul\":649:682   */\n          tag_26\n            /* \"#utility.yul\":676:681   */\n          dup2\n            /* \"#utility.yul\":649:682   */\n          tag_11\n          jump\t// in\n        tag_26:\n            /* \"#utility.yul\":545:688   */\n          swap3\n          swap2\n          pop\n          pop\n          jump\t// out\n            /* \"#utility.yul\":694:820   */\n        tag_13:\n            /* \"#utility.yul\":731:738   */\n          0x00\n            /* \"#utility.yul\":771:813   */\n          0xffffffffffffffffffffffffffffffffffffffff\n            /* \"#utility.yul\":764:769   */\n          dup3\n            /* \"#utility.yul\":760:814   */\n          and\n            /* \"#utility.yul\":749:814   */\n          swap1\n          pop\n            /* \"#utility.yul\":694:820   */\n          swap2\n          swap1\n          pop\n          jump\t// out\n            /* \"#utility.yul\":826:922   */\n        tag_14:\n            /* \"#utility.yul\":863:870   */\n          0x00\n            /* \"#utility.yul\":892:916   */\n          tag_29\n            /* \"#utility.yul\":910:915   */\n          dup3\n            /* \"#utility.yul\":892:916   */\n          tag_13\n          jump\t// in\n        tag_29:\n            /* \"#utility.yul\":881:916   */\n          swap1\n          pop\n            /* \"#utility.yul\":826:922   */\n          swap2\n          swap1\n          pop\n          jump\t// out\n            /* \"#utility.yul\":928:1050   */\n        tag_15:\n            /* \"#utility.yul\":1001:1025   */\n          tag_31\n            /* \"#utility.yul\":1019:1024   */\n          dup2\n            /* \"#utility.yul\":1001:1025   */\n          tag_14\n          jump\t// in\n        tag_31:\n            /* \"#utility.yul\":994:999   */\n          dup2\n            /* \"#utility.yul\":991:1026   */\n          eq\n            /* \"#utility.yul\":981:1044   */\n          tag_32\n          jumpi\n            /* \"#utility.yul\":1040:1041   */\n          0x00\n            /* \"#utility.yul\":1037:1038   */\n          dup1\n            /* \"#utility.yul\":1030:1042   */\n          revert\n            /* \"#utility.yul\":981:1044   */\n        tag_32:\n            /* \"#utility.yul\":928:1050   */\n          pop\n          jump\t// out\n            /* \"#utility.yul\":1056:1199   */\n        tag_16:\n            /* \"#utility.yul\":1113:1118   */\n          0x00\n            /* \"#utility.yul\":1144:1150   */\n          dup2\n            /* \"#utility.yul\":1138:1151   */\n          mload\n            /* \"#utility.yul\":1129:1151   */\n          swap1\n          pop\n            /* \"#utility.yul\":1160:1193   */\n          tag_34\n            /* \"#utility.yul\":1187:1192   */\n          dup2\n            /* \"#utility.yul\":1160:1193   */\n          tag_15\n          jump\t// in\n        tag_34:\n            /* \"#utility.yul\":1056:1199   */\n          swap3\n          swap2\n          pop\n          pop\n          jump\t// out\n            /* \"#utility.yul\":1205:1712   */\n        tag_3:\n            /* \"#utility.yul\":1284:1290   */\n          0x00\n            /* \"#utility.yul\":1292:1298   */\n          dup1\n            /* \"#utility.yul\":1341:1343   */\n          0x40\n            /* \"#utility.yul\":1329:1338   */\n          dup4\n            /* \"#utility.yul\":1320:1327   */\n          dup6\n            /* \"#utility.yul\":1316:1339   */\n          sub\n            /* \"#utility.yul\":1312:1344   */\n          slt\n            /* \"#utility.yul\":1309:1428   */\n          iszero\n          tag_36\n          jumpi\n            /* \"#utility.yul\":1347:1426   */\n          tag_37\n          tag_8\n          jump\t// in\n        tag_37:\n            /* \"#utility.yul\":1309:1428   */\n        tag_36:\n            /* \"#utility.yul\":1467:1468   */\n          0x00\n            /* \"#utility.yul\":1492:1556   */\n          tag_38\n            /* \"#utility.yul\":1548:1555   */\n          dup6\n            /* \"#utility.yul\":1539:1545   */\n          dup3\n            /* \"#utility.yul\":1528:1537   */\n          dup7\n            /* \"#utility.yul\":1524:1546   */\n          add\n            /* \"#utility.yul\":1492:1556   */\n          tag_12\n          jump\t// in\n        tag_38:\n            /* \"#utility.yul\":1482:1556   */\n          swap3\n          pop\n            /* \"#utility.yul\":1438:1566   */\n          pop\n            /* \"#utility.yul\":1605:1607   */\n          0x20\n            /* \"#utility.yul\":1631:1695   */\n          tag_39\n            /* \"#utility.yul\":1687:1694   */\n          dup6\n            /* \"#utility.yul\":1678:1684   */\n          dup3\n            /* \"#utility.yul\":1667:1676   */\n          dup7\n            /* \"#utility.yul\":1663:1685   */\n          add\n            /* \"#utility.yul\":1631:1695   */\n          tag_16\n          jump\t// in\n        tag_39:\n            /* \"#utility.yul\":1621:1695   */\n          swap2\n          pop\n            /* \"#utility.yul\":1576:1705   */\n          pop\n            /* \"#utility.yul\":1205:1712   */\n          swap3\n          pop\n          swap3\n          swap1\n          pop\n          jump\t// out\n            /* \"Campanha.sol\":426:3125  contract Campanha {... */\n        tag_6:\n          dataSize(sub_0)\n          dup1\n          dataOffset(sub_0)\n          0x00\n          codecopy\n          0x00\n          return\n        stop\n\n        sub_0: assembly {\n                /* \"Campanha.sol\":426:3125  contract Campanha {... */\n              mstore(0x40, 0x80)\n              jumpi(tag_1, lt(calldatasize, 0x04))\n              shr(0xe0, calldataload(0x00))\n              dup1\n              0x481c6a75\n              gt\n              tag_13\n              jumpi\n              dup1\n              0x481c6a75\n              eq\n              tag_7\n              jumpi\n              dup1\n              0x82fde093\n              eq\n              tag_8\n              jumpi\n              dup1\n              0x8a9cfd55\n              eq\n              tag_9\n              jumpi\n              dup1\n              0x937e09b1\n              eq\n              tag_10\n              jumpi\n              dup1\n              0xd7bb99ba\n              eq\n              tag_11\n              jumpi\n              dup1\n              0xd7d1bbdb\n              eq\n              tag_12\n              jumpi\n              jump(tag_1)\n            tag_13:\n              dup1\n              0x02e9d43b\n              eq\n              tag_2\n              jumpi\n              dup1\n              0x03441006\n              eq\n              tag_3\n              jumpi\n              dup1\n              0x3410452a\n              eq\n              tag_4\n              jumpi\n              dup1\n              0x34b66460\n              eq\n              tag_5\n              jumpi\n              dup1\n              0x4051ddac\n              eq\n              tag_6\n              jumpi\n            tag_1:\n              0x00\n              dup1\n              revert\n                /* \"Campanha.sol\":832:878  mapping(uint256 => Request) public requestList */\n            tag_2:\n              callvalue\n              dup1\n              iszero\n              tag_14\n              jumpi\n              0x00\n              dup1\n              revert\n            tag_14:\n              pop\n              tag_15\n              0x04\n              dup1\n              calldatasize\n              sub\n              dup2\n              add\n              swap1\n              tag_16\n              swap2\n              swap1\n              tag_17\n              jump\t// in\n            tag_16:\n              tag_18\n              jump\t// in\n            tag_15:\n              mload(0x40)\n              tag_19\n              swap6\n              swap5\n              swap4\n              swap3\n              swap2\n              swap1\n              tag_20\n              jump\t// in\n            tag_19:\n              mload(0x40)\n              dup1\n              swap2\n              sub\n              swap1\n              return\n                /* \"Campanha.sol\":2272:2726  function finalizeRequest(uint256 index) public restricted {... */\n            tag_3:\n              callvalue\n              dup1\n              iszero\n              tag_21\n              jumpi\n              0x00\n              dup1\n              revert\n            tag_21:\n              pop\n              tag_22\n              0x04\n              dup1\n              calldatasize\n              sub\n              dup2\n              add\n              swap1\n              tag_23\n              swap2\n              swap1\n              tag_17\n              jump\t// in\n            tag_23:\n              tag_24\n              jump\t// in\n            tag_22:\n              stop\n                /* \"Campanha.sol\":3030:3123  function getRequestsCount() public view returns (uint256) {... */\n            tag_4:\n              callvalue\n              dup1\n              iszero\n              tag_25\n              jumpi\n              0x00\n              dup1\n              revert\n            tag_25:\n              pop\n              tag_26\n              tag_27\n              jump\t// in\n            tag_26:\n              mload(0x40)\n              tag_28\n              swap2\n              swap1\n              tag_29\n              jump\t// in\n            tag_28:\n              mload(0x40)\n              dup1\n              swap2\n              sub\n              swap1\n              return\n                /* \"Campanha.sol\":722:766  mapping(address => bool) public contributers */\n            tag_5:\n              callvalue\n              dup1\n              iszero\n              tag_30\n              jumpi\n              0x00\n              dup1\n              revert\n            tag_30:\n              pop\n              tag_31\n              0x04\n              dup1\n              calldatasize\n              sub\n              dup2\n              add\n              swap1\n              tag_32\n              swap2\n              swap1\n              tag_33\n              jump\t// in\n            tag_32:\n              tag_34\n              jump\t// in\n            tag_31:\n              mload(0x40)\n              tag_35\n              swap2\n              swap1\n              tag_36\n              jump\t// in\n            tag_35:\n              mload(0x40)\n              dup1\n              swap2\n              sub\n              swap1\n              return\n                /* \"Campanha.sol\":2732:3024  function getSummary()... */\n            tag_6:\n              callvalue\n              dup1\n              iszero\n              tag_37\n              jumpi\n              0x00\n              dup1\n              revert\n            tag_37:\n              pop\n              tag_38\n              tag_39\n              jump\t// in\n            tag_38:\n              mload(0x40)\n              tag_40\n              swap6\n              swap5\n              swap4\n              swap3\n              swap2\n              swap1\n              tag_41\n              jump\t// in\n            tag_40:\n              mload(0x40)\n              dup1\n              swap2\n              sub\n              swap1\n              return\n                /* \"Campanha.sol\":654:676  address public manager */\n            tag_7:\n              callvalue\n              dup1\n              iszero\n              tag_42\n              jumpi\n              0x00\n              dup1\n              revert\n            tag_42:\n              pop\n              tag_43\n              tag_44\n              jump\t// in\n            tag_43:\n              mload(0x40)\n              tag_45\n              swap2\n              swap1\n              tag_46\n              jump\t// in\n            tag_45:\n              mload(0x40)\n              dup1\n              swap2\n              sub\n              swap1\n              return\n                /* \"Campanha.sol\":772:801  uint256 public approversCount */\n            tag_8:\n              callvalue\n              dup1\n              iszero\n              tag_47\n              jumpi\n              0x00\n              dup1\n              revert\n            tag_47:\n              pop\n              tag_48\n              tag_49\n              jump\t// in\n            tag_48:\n              mload(0x40)\n              tag_50\n              swap2\n              swap1\n              tag_29\n              jump\t// in\n            tag_50:\n              mload(0x40)\n              dup1\n              swap2\n              sub\n              swap1\n              return\n                /* \"Campanha.sol\":1423:1794  function createRequest(... */\n            tag_9:\n              callvalue\n              dup1\n              iszero\n              tag_51\n              jumpi\n              0x00\n              dup1\n              revert\n            tag_51:\n              pop\n              tag_52\n              0x04\n              dup1\n              calldatasize\n              sub\n              dup2\n              add\n              swap1\n              tag_53\n              swap2\n              swap1\n              tag_54\n              jump\t// in\n            tag_53:\n              tag_55\n              jump\t// in\n            tag_52:\n              stop\n                /* \"Campanha.sol\":682:716  uint256 public minimumContribution */\n            tag_10:\n              callvalue\n              dup1\n              iszero\n              tag_56\n              jumpi\n              0x00\n              dup1\n              revert\n            tag_56:\n              pop\n              tag_57\n              tag_58\n              jump\t// in\n            tag_57:\n              mload(0x40)\n              tag_59\n              swap2\n              swap1\n              tag_29\n              jump\t// in\n            tag_59:\n              mload(0x40)\n              dup1\n              swap2\n              sub\n              swap1\n              return\n                /* \"Campanha.sol\":1183:1417  function contribute() public payable {... */\n            tag_11:\n              tag_60\n              tag_61\n              jump\t// in\n            tag_60:\n              stop\n                /* \"Campanha.sol\":1800:2266  function approveRequest(uint256 index) public {... */\n            tag_12:\n              callvalue\n              dup1\n              iszero\n              tag_62\n              jumpi\n              0x00\n              dup1\n              revert\n            tag_62:\n              pop\n              tag_63\n              0x04\n              dup1\n              calldatasize\n              sub\n              dup2\n              add\n              swap1\n              tag_64\n              swap2\n              swap1\n              tag_17\n              jump\t// in\n            tag_64:\n              tag_65\n              jump\t// in\n            tag_63:\n              stop\n                /* \"Campanha.sol\":832:878  mapping(uint256 => Request) public requestList */\n            tag_18:\n              mstore(0x20, 0x05)\n              dup1\n              0x00\n              mstore\n              keccak256(0x00, 0x40)\n              0x00\n              swap2\n              pop\n              swap1\n              pop\n              dup1\n              0x00\n              add\n              dup1\n              sload\n              tag_66\n              swap1\n              tag_67\n              jump\t// in\n            tag_66:\n              dup1\n              0x1f\n              add\n              0x20\n              dup1\n              swap2\n              div\n              mul\n              0x20\n              add\n              mload(0x40)\n              swap1\n              dup2\n              add\n              0x40\n              mstore\n              dup1\n              swap3\n              swap2\n              swap1\n              dup2\n              dup2\n              mstore\n              0x20\n              add\n              dup3\n              dup1\n              sload\n              tag_68\n              swap1\n              tag_67\n              jump\t// in\n            tag_68:\n              dup1\n              iszero\n              tag_69\n              jumpi\n              dup1\n              0x1f\n              lt\n              tag_70\n              jumpi\n              0x0100\n              dup1\n              dup4\n              sload\n              div\n              mul\n              dup4\n              mstore\n              swap2\n              0x20\n              add\n              swap2\n              jump(tag_69)\n            tag_70:\n              dup3\n              add\n              swap2\n              swap1\n              0x00\n              mstore\n              keccak256(0x00, 0x20)\n              swap1\n            tag_71:\n              dup2\n              sload\n              dup2\n              mstore\n              swap1\n              0x01\n              add\n              swap1\n              0x20\n              add\n              dup1\n              dup4\n              gt\n              tag_71\n              jumpi\n              dup3\n              swap1\n              sub\n              0x1f\n              and\n              dup3\n              add\n              swap2\n            tag_69:\n              pop\n              pop\n              pop\n              pop\n              pop\n              swap1\n              dup1\n              0x01\n              add\n              sload\n              swap1\n              dup1\n              0x02\n              add\n              0x00\n              swap1\n              sload\n              swap1\n              0x0100\n              exp\n              swap1\n              div\n              0xffffffffffffffffffffffffffffffffffffffff\n              and\n              swap1\n              dup1\n              0x02\n              add\n              0x14\n              swap1\n              sload\n              swap1\n              0x0100\n              exp\n              swap1\n              div\n              0xff\n              and\n              swap1\n              dup1\n              0x03\n              add\n              sload\n              swap1\n              pop\n              dup6\n              jump\t// out\n                /* \"Campanha.sol\":2272:2726  function finalizeRequest(uint256 index) public restricted {... */\n            tag_24:\n                /* \"Campanha.sol\":1077:1084  manager */\n              0x00\n              dup1\n              sload\n              swap1\n              0x0100\n              exp\n              swap1\n              div\n              0xffffffffffffffffffffffffffffffffffffffff\n              and\n                /* \"Campanha.sol\":1063:1084  msg.sender == manager */\n              0xffffffffffffffffffffffffffffffffffffffff\n              and\n                /* \"Campanha.sol\":1063:1073  msg.sender */\n              caller\n                /* \"Campanha.sol\":1063:1084  msg.sender == manager */\n              0xffffffffffffffffffffffffffffffffffffffff\n              and\n              eq\n                /* \"Campanha.sol\":1042:1159  require(... */\n              tag_73\n              jumpi\n              mload(0x40)\n              0x08c379a000000000000000000000000000000000000000000000000000000000\n              dup2\n              mstore\n              0x04\n              add\n              tag_74\n              swap1\n              tag_75\n              jump\t// in\n            tag_74:\n              mload(0x40)\n              dup1\n              swap2\n              sub\n              swap1\n              revert\n            tag_73:\n                /* \"Campanha.sol\":2340:2363  Request storage request */\n              0x00\n                /* \"Campanha.sol\":2366:2377  requestList */\n              0x05\n                /* \"Campanha.sol\":2366:2384  requestList[index] */\n              0x00\n                /* \"Campanha.sol\":2378:2383  index */\n              dup4\n                /* \"Campanha.sol\":2366:2384  requestList[index] */\n              dup2\n              mstore\n              0x20\n              add\n              swap1\n              dup2\n              mstore\n              0x20\n              add\n              0x00\n              keccak256\n                /* \"Campanha.sol\":2340:2384  Request storage request = requestList[index] */\n              swap1\n              pop\n                /* \"Campanha.sol\":2458:2459  2 */\n              0x02\n                /* \"Campanha.sol\":2441:2455  approversCount */\n              sload(0x03)\n                /* \"Campanha.sol\":2441:2459  approversCount / 2 */\n              tag_77\n              swap2\n              swap1\n              tag_78\n              jump\t// in\n            tag_77:\n                /* \"Campanha.sol\":2416:2423  request */\n              dup2\n                /* \"Campanha.sol\":2416:2437  request.approvalCount */\n              0x03\n              add\n              sload\n                /* \"Campanha.sol\":2416:2460  request.approvalCount > (approversCount / 2) */\n              gt\n                /* \"Campanha.sol\":2395:2546  require(... */\n              tag_79\n              jumpi\n              mload(0x40)\n              0x08c379a000000000000000000000000000000000000000000000000000000000\n              dup2\n              mstore\n              0x04\n              add\n              tag_80\n              swap1\n              tag_81\n              jump\t// in\n            tag_80:\n              mload(0x40)\n              dup1\n              swap2\n              sub\n              swap1\n              revert\n            tag_79:\n                /* \"Campanha.sol\":2565:2572  request */\n              dup1\n                /* \"Campanha.sol\":2565:2581  request.complete */\n              0x02\n              add\n              0x14\n              swap1\n              sload\n              swap1\n              0x0100\n              exp\n              swap1\n              div\n              0xff\n              and\n                /* \"Campanha.sol\":2564:2581  !request.complete */\n              iszero\n                /* \"Campanha.sol\":2556:2625  require(!request.complete, \"This request has already been finalized\") */\n              tag_82\n              jumpi\n              mload(0x40)\n              0x08c379a000000000000000000000000000000000000000000000000000000000\n              dup2\n              mstore\n              0x04\n              add\n              tag_83\n              swap1\n              tag_84\n              jump\t// in\n            tag_83:\n              mload(0x40)\n              dup1\n              swap2\n              sub\n              swap1\n              revert\n            tag_82:\n                /* \"Campanha.sol\":2644:2651  request */\n              dup1\n                /* \"Campanha.sol\":2644:2661  request.recipient */\n              0x02\n              add\n              0x00\n              swap1\n              sload\n              swap1\n              0x0100\n              exp\n              swap1\n              div\n              0xffffffffffffffffffffffffffffffffffffffff\n              and\n                /* \"Campanha.sol\":2636:2671  payable(request.recipient).transfer */\n              0xffffffffffffffffffffffffffffffffffffffff\n              and\n                /* \"Campanha.sol\":2636:2686  payable(request.recipient).transfer(request.value) */\n              0x08fc\n                /* \"Campanha.sol\":2672:2679  request */\n              dup3\n                /* \"Campanha.sol\":2672:2685  request.value */\n              0x01\n              add\n              sload\n                /* \"Campanha.sol\":2636:2686  payable(request.recipient).transfer(request.value) */\n              swap1\n              dup2\n              iszero\n              mul\n              swap1\n              mload(0x40)\n              0x00\n              mload(0x40)\n              dup1\n              dup4\n              sub\n              dup2\n              dup6\n              dup9\n              dup9\n              call\n              swap4\n              pop\n              pop\n              pop\n              pop\n              iszero\n              dup1\n              iszero\n              tag_86\n              jumpi\n              returndatasize\n              0x00\n              dup1\n              returndatacopy\n              revert(0x00, returndatasize)\n            tag_86:\n              pop\n                /* \"Campanha.sol\":2715:2719  true */\n              0x01\n                /* \"Campanha.sol\":2696:2703  request */\n              dup2\n                /* \"Campanha.sol\":2696:2712  request.complete */\n              0x02\n              add\n              0x14\n                /* \"Campanha.sol\":2696:2719  request.complete = true */\n              0x0100\n              exp\n              dup2\n              sload\n              dup2\n              0xff\n              mul\n              not\n              and\n              swap1\n              dup4\n              iszero\n              iszero\n              mul\n              or\n              swap1\n              sstore\n              pop\n                /* \"Campanha.sol\":2330:2726  {... */\n              pop\n                /* \"Campanha.sol\":2272:2726  function finalizeRequest(uint256 index) public restricted {... */\n              pop\n              jump\t// out\n                /* \"Campanha.sol\":3030:3123  function getRequestsCount() public view returns (uint256) {... */\n            tag_27:\n                /* \"Campanha.sol\":3079:3086  uint256 */\n              0x00\n                /* \"Campanha.sol\":3105:3116  numRequests */\n              sload(0x04)\n                /* \"Campanha.sol\":3098:3116  return numRequests */\n              swap1\n              pop\n                /* \"Campanha.sol\":3030:3123  function getRequestsCount() public view returns (uint256) {... */\n              swap1\n              jump\t// out\n                /* \"Campanha.sol\":722:766  mapping(address => bool) public contributers */\n            tag_34:\n              mstore(0x20, 0x02)\n              dup1\n              0x00\n              mstore\n              keccak256(0x00, 0x40)\n              0x00\n              swap2\n              pop\n              sload\n              swap1\n              0x0100\n              exp\n              swap1\n              div\n              0xff\n              and\n              dup2\n              jump\t// out\n                /* \"Campanha.sol\":2732:3024  function getSummary()... */\n            tag_39:\n                /* \"Campanha.sol\":2799:2806  uint256 */\n              0x00\n                /* \"Campanha.sol\":2808:2815  uint256 */\n              dup1\n                /* \"Campanha.sol\":2817:2824  uint256 */\n              0x00\n                /* \"Campanha.sol\":2826:2833  uint256 */\n              dup1\n                /* \"Campanha.sol\":2835:2842  address */\n              0x00\n                /* \"Campanha.sol\":2879:2898  minimumContribution */\n              sload(0x01)\n                /* \"Campanha.sol\":2912:2933  address(this).balance */\n              selfbalance\n                /* \"Campanha.sol\":2947:2958  numRequests */\n              sload(0x04)\n                /* \"Campanha.sol\":2972:2986  approversCount */\n              sload(0x03)\n                /* \"Campanha.sol\":3000:3007  manager */\n              0x00\n              dup1\n              sload\n              swap1\n              0x0100\n              exp\n              swap1\n              div\n              0xffffffffffffffffffffffffffffffffffffffff\n              and\n                /* \"Campanha.sol\":2858:3017  return (... */\n              swap5\n              pop\n              swap5\n              pop\n              swap5\n              pop\n              swap5\n              pop\n              swap5\n              pop\n                /* \"Campanha.sol\":2732:3024  function getSummary()... */\n              swap1\n              swap2\n              swap3\n              swap4\n              swap5\n              jump\t// out\n                /* \"Campanha.sol\":654:676  address public manager */\n            tag_44:\n              0x00\n              dup1\n              sload\n              swap1\n              0x0100\n              exp\n              swap1\n              div\n              0xffffffffffffffffffffffffffffffffffffffff\n              and\n              dup2\n              jump\t// out\n                /* \"Campanha.sol\":772:801  uint256 public approversCount */\n            tag_49:\n              sload(0x03)\n              dup2\n              jump\t// out\n                /* \"Campanha.sol\":1423:1794  function createRequest(... */\n            tag_55:\n                /* \"Campanha.sol\":1077:1084  manager */\n              0x00\n              dup1\n              sload\n              swap1\n              0x0100\n              exp\n              swap1\n              div\n              0xffffffffffffffffffffffffffffffffffffffff\n              and\n                /* \"Campanha.sol\":1063:1084  msg.sender == manager */\n              0xffffffffffffffffffffffffffffffffffffffff\n              and\n                /* \"Campanha.sol\":1063:1073  msg.sender */\n              caller\n                /* \"Campanha.sol\":1063:1084  msg.sender == manager */\n              0xffffffffffffffffffffffffffffffffffffffff\n              and\n              eq\n                /* \"Campanha.sol\":1042:1159  require(... */\n              tag_90\n              jumpi\n              mload(0x40)\n              0x08c379a000000000000000000000000000000000000000000000000000000000\n              dup2\n              mstore\n              0x04\n              add\n              tag_91\n              swap1\n              tag_75\n              jump\t// in\n            tag_91:\n              mload(0x40)\n              dup1\n              swap2\n              sub\n              swap1\n              revert\n            tag_90:\n                /* \"Campanha.sol\":1550:1576  Request storage newRequest */\n              0x00\n                /* \"Campanha.sol\":1579:1590  requestList */\n              0x05\n                /* \"Campanha.sol\":1579:1605  requestList[numRequests++] */\n              0x00\n                /* \"Campanha.sol\":1591:1602  numRequests */\n              0x04\n              0x00\n                /* \"Campanha.sol\":1591:1604  numRequests++ */\n              dup2\n              sload\n              dup1\n              swap3\n              swap2\n              swap1\n              tag_93\n              swap1\n              tag_94\n              jump\t// in\n            tag_93:\n              swap2\n              swap1\n              pop\n              sstore\n                /* \"Campanha.sol\":1579:1605  requestList[numRequests++] */\n              dup2\n              mstore\n              0x20\n              add\n              swap1\n              dup2\n              mstore\n              0x20\n              add\n              0x00\n              keccak256\n                /* \"Campanha.sol\":1550:1605  Request storage newRequest = requestList[numRequests++] */\n              swap1\n              pop\n                /* \"Campanha.sol\":1640:1644  desc */\n              dup4\n                /* \"Campanha.sol\":1615:1625  newRequest */\n              dup2\n                /* \"Campanha.sol\":1615:1637  newRequest.description */\n              0x00\n              add\n                /* \"Campanha.sol\":1615:1644  newRequest.description = desc */\n              swap1\n              dup2\n              tag_95\n              swap2\n              swap1\n              tag_96\n              jump\t// in\n            tag_95:\n              pop\n                /* \"Campanha.sol\":1673:1676  val */\n              dup3\n                /* \"Campanha.sol\":1654:1664  newRequest */\n              dup2\n                /* \"Campanha.sol\":1654:1670  newRequest.value */\n              0x01\n              add\n                /* \"Campanha.sol\":1654:1676  newRequest.value = val */\n              dup2\n              swap1\n              sstore\n              pop\n                /* \"Campanha.sol\":1709:1712  rec */\n              dup2\n                /* \"Campanha.sol\":1686:1696  newRequest */\n              dup2\n                /* \"Campanha.sol\":1686:1706  newRequest.recipient */\n              0x02\n              add\n              0x00\n                /* \"Campanha.sol\":1686:1712  newRequest.recipient = rec */\n              0x0100\n              exp\n              dup2\n              sload\n              dup2\n              0xffffffffffffffffffffffffffffffffffffffff\n              mul\n              not\n              and\n              swap1\n              dup4\n              0xffffffffffffffffffffffffffffffffffffffff\n              and\n              mul\n              or\n              swap1\n              sstore\n              pop\n                /* \"Campanha.sol\":1744:1749  false */\n              0x00\n                /* \"Campanha.sol\":1722:1732  newRequest */\n              dup2\n                /* \"Campanha.sol\":1722:1741  newRequest.complete */\n              0x02\n              add\n              0x14\n                /* \"Campanha.sol\":1722:1749  newRequest.complete = false */\n              0x0100\n              exp\n              dup2\n              sload\n              dup2\n              0xff\n              mul\n              not\n              and\n              swap1\n              dup4\n              iszero\n              iszero\n              mul\n              or\n              swap1\n              sstore\n              pop\n                /* \"Campanha.sol\":1786:1787  0 */\n              0x00\n                /* \"Campanha.sol\":1759:1769  newRequest */\n              dup2\n                /* \"Campanha.sol\":1759:1783  newRequest.approvalCount */\n              0x03\n              add\n                /* \"Campanha.sol\":1759:1787  newRequest.approvalCount = 0 */\n              dup2\n              swap1\n              sstore\n              pop\n                /* \"Campanha.sol\":1540:1794  {... */\n              pop\n                /* \"Campanha.sol\":1423:1794  function createRequest(... */\n              pop\n              pop\n              pop\n              jump\t// out\n                /* \"Campanha.sol\":682:716  uint256 public minimumContribution */\n            tag_58:\n              sload(0x01)\n              dup2\n              jump\t// out\n                /* \"Campanha.sol\":1183:1417  function contribute() public payable {... */\n            tag_61:\n                /* \"Campanha.sol\":1264:1283  minimumContribution */\n              sload(0x01)\n                /* \"Campanha.sol\":1251:1260  msg.value */\n              callvalue\n                /* \"Campanha.sol\":1251:1283  msg.value >= minimumContribution */\n              lt\n              iszero\n                /* \"Campanha.sol\":1230:1343  require(... */\n              tag_98\n              jumpi\n              mload(0x40)\n              0x08c379a000000000000000000000000000000000000000000000000000000000\n              dup2\n              mstore\n              0x04\n              add\n              tag_99\n              swap1\n              tag_100\n              jump\t// in\n            tag_99:\n              mload(0x40)\n              dup1\n              swap2\n              sub\n              swap1\n              revert\n            tag_98:\n                /* \"Campanha.sol\":1380:1384  true */\n              0x01\n                /* \"Campanha.sol\":1353:1365  contributers */\n              0x02\n                /* \"Campanha.sol\":1353:1377  contributers[msg.sender] */\n              0x00\n                /* \"Campanha.sol\":1366:1376  msg.sender */\n              caller\n                /* \"Campanha.sol\":1353:1377  contributers[msg.sender] */\n              0xffffffffffffffffffffffffffffffffffffffff\n              and\n              0xffffffffffffffffffffffffffffffffffffffff\n              and\n              dup2\n              mstore\n              0x20\n              add\n              swap1\n              dup2\n              mstore\n              0x20\n              add\n              0x00\n              keccak256\n              0x00\n                /* \"Campanha.sol\":1353:1384  contributers[msg.sender] = true */\n              0x0100\n              exp\n              dup2\n              sload\n              dup2\n              0xff\n              mul\n              not\n              and\n              swap1\n              dup4\n              iszero\n              iszero\n              mul\n              or\n              swap1\n              sstore\n              pop\n                /* \"Campanha.sol\":1394:1408  approversCount */\n              0x03\n              0x00\n                /* \"Campanha.sol\":1394:1410  approversCount++ */\n              dup2\n              sload\n              dup1\n              swap3\n              swap2\n              swap1\n              tag_101\n              swap1\n              tag_94\n              jump\t// in\n            tag_101:\n              swap2\n              swap1\n              pop\n              sstore\n              pop\n                /* \"Campanha.sol\":1183:1417  function contribute() public payable {... */\n              jump\t// out\n                /* \"Campanha.sol\":1800:2266  function approveRequest(uint256 index) public {... */\n            tag_65:\n                /* \"Campanha.sol\":1856:1881  Request storage requester */\n              0x00\n                /* \"Campanha.sol\":1884:1895  requestList */\n              0x05\n                /* \"Campanha.sol\":1884:1902  requestList[index] */\n              0x00\n                /* \"Campanha.sol\":1896:1901  index */\n              dup4\n                /* \"Campanha.sol\":1884:1902  requestList[index] */\n              dup2\n              mstore\n              0x20\n              add\n              swap1\n              dup2\n              mstore\n              0x20\n              add\n              0x00\n              keccak256\n                /* \"Campanha.sol\":1856:1902  Request storage requester = requestList[index] */\n              swap1\n              pop\n                /* \"Campanha.sol\":1934:1946  contributers */\n              0x02\n                /* \"Campanha.sol\":1934:1958  contributers[msg.sender] */\n              0x00\n                /* \"Campanha.sol\":1947:1957  msg.sender */\n              caller\n                /* \"Campanha.sol\":1934:1958  contributers[msg.sender] */\n              0xffffffffffffffffffffffffffffffffffffffff\n              and\n              0xffffffffffffffffffffffffffffffffffffffff\n              and\n              dup2\n              mstore\n              0x20\n              add\n              swap1\n              dup2\n              mstore\n              0x20\n              add\n              0x00\n              keccak256\n              0x00\n              swap1\n              sload\n              swap1\n              0x0100\n              exp\n              swap1\n              div\n              0xff\n              and\n                /* \"Campanha.sol\":1913:2040  require(... */\n              tag_103\n              jumpi\n              mload(0x40)\n              0x08c379a000000000000000000000000000000000000000000000000000000000\n              dup2\n              mstore\n              0x04\n              add\n              tag_104\n              swap1\n              tag_105\n              jump\t// in\n            tag_104:\n              mload(0x40)\n              dup1\n              swap2\n              sub\n              swap1\n              revert\n            tag_103:\n                /* \"Campanha.sol\":2072:2081  requester */\n              dup1\n                /* \"Campanha.sol\":2072:2091  requester.approvals */\n              0x04\n              add\n                /* \"Campanha.sol\":2072:2103  requester.approvals[msg.sender] */\n              0x00\n                /* \"Campanha.sol\":2092:2102  msg.sender */\n              caller\n                /* \"Campanha.sol\":2072:2103  requester.approvals[msg.sender] */\n              0xffffffffffffffffffffffffffffffffffffffff\n              and\n              0xffffffffffffffffffffffffffffffffffffffff\n              and\n              dup2\n              mstore\n              0x20\n              add\n              swap1\n              dup2\n              mstore\n              0x20\n              add\n              0x00\n              keccak256\n              0x00\n              swap1\n              sload\n              swap1\n              0x0100\n              exp\n              swap1\n              div\n              0xff\n              and\n                /* \"Campanha.sol\":2071:2103  !requester.approvals[msg.sender] */\n              iszero\n                /* \"Campanha.sol\":2050:2175  require(... */\n              tag_106\n              jumpi\n              mload(0x40)\n              0x08c379a000000000000000000000000000000000000000000000000000000000\n              dup2\n              mstore\n              0x04\n              add\n              tag_107\n              swap1\n              tag_108\n              jump\t// in\n            tag_107:\n              mload(0x40)\n              dup1\n              swap2\n              sub\n              swap1\n              revert\n            tag_106:\n                /* \"Campanha.sol\":2220:2224  true */\n              0x01\n                /* \"Campanha.sol\":2186:2195  requester */\n              dup2\n                /* \"Campanha.sol\":2186:2205  requester.approvals */\n              0x04\n              add\n                /* \"Campanha.sol\":2186:2217  requester.approvals[msg.sender] */\n              0x00\n                /* \"Campanha.sol\":2206:2216  msg.sender */\n              caller\n                /* \"Campanha.sol\":2186:2217  requester.approvals[msg.sender] */\n              0xffffffffffffffffffffffffffffffffffffffff\n              and\n              0xffffffffffffffffffffffffffffffffffffffff\n              and\n              dup2\n              mstore\n              0x20\n              add\n              swap1\n              dup2\n              mstore\n              0x20\n              add\n              0x00\n              keccak256\n              0x00\n                /* \"Campanha.sol\":2186:2224  requester.approvals[msg.sender] = true */\n              0x0100\n              exp\n              dup2\n              sload\n              dup2\n              0xff\n              mul\n              not\n              and\n              swap1\n              dup4\n              iszero\n              iszero\n              mul\n              or\n              swap1\n              sstore\n              pop\n                /* \"Campanha.sol\":2234:2243  requester */\n              dup1\n                /* \"Campanha.sol\":2234:2257  requester.approvalCount */\n              0x03\n              add\n              0x00\n                /* \"Campanha.sol\":2234:2259  requester.approvalCount++ */\n              dup2\n              sload\n              dup1\n              swap3\n              swap2\n              swap1\n              tag_109\n              swap1\n              tag_94\n              jump\t// in\n            tag_109:\n              swap2\n              swap1\n              pop\n              sstore\n              pop\n                /* \"Campanha.sol\":1846:2266  {... */\n              pop\n                /* \"Campanha.sol\":1800:2266  function approveRequest(uint256 index) public {... */\n              pop\n              jump\t// out\n                /* \"#utility.yul\":7:82   */\n            tag_110:\n                /* \"#utility.yul\":40:46   */\n              0x00\n                /* \"#utility.yul\":73:75   */\n              0x40\n                /* \"#utility.yul\":67:76   */\n              mload\n                /* \"#utility.yul\":57:76   */\n              swap1\n              pop\n                /* \"#utility.yul\":7:82   */\n              swap1\n              jump\t// out\n                /* \"#utility.yul\":88:205   */\n            tag_111:\n                /* \"#utility.yul\":197:198   */\n              0x00\n                /* \"#utility.yul\":194:195   */\n              dup1\n                /* \"#utility.yul\":187:199   */\n              revert\n                /* \"#utility.yul\":211:328   */\n            tag_112:\n                /* \"#utility.yul\":320:321   */\n              0x00\n                /* \"#utility.yul\":317:318   */\n              dup1\n                /* \"#utility.yul\":310:322   */\n              revert\n                /* \"#utility.yul\":334:411   */\n            tag_113:\n                /* \"#utility.yul\":371:378   */\n              0x00\n                /* \"#utility.yul\":400:405   */\n              dup2\n                /* \"#utility.yul\":389:405   */\n              swap1\n              pop\n                /* \"#utility.yul\":334:411   */\n              swap2\n              swap1\n              pop\n              jump\t// out\n                /* \"#utility.yul\":417:539   */\n            tag_114:\n                /* \"#utility.yul\":490:514   */\n              tag_174\n                /* \"#utility.yul\":508:513   */\n              dup2\n                /* \"#utility.yul\":490:514   */\n              tag_113\n              jump\t// in\n            tag_174:\n                /* \"#utility.yul\":483:488   */\n              dup2\n                /* \"#utility.yul\":480:515   */\n              eq\n                /* \"#utility.yul\":470:533   */\n              tag_175\n              jumpi\n                /* \"#utility.yul\":529:530   */\n              0x00\n                /* \"#utility.yul\":526:527   */\n              dup1\n                /* \"#utility.yul\":519:531   */\n              revert\n                /* \"#utility.yul\":470:533   */\n            tag_175:\n                /* \"#utility.yul\":417:539   */\n              pop\n              jump\t// out\n                /* \"#utility.yul\":545:684   */\n            tag_115:\n                /* \"#utility.yul\":591:596   */\n              0x00\n                /* \"#utility.yul\":629:635   */\n              dup2\n                /* \"#utility.yul\":616:636   */\n              calldataload\n                /* \"#utility.yul\":607:636   */\n              swap1\n              pop\n                /* \"#utility.yul\":645:678   */\n              tag_177\n                /* \"#utility.yul\":672:677   */\n              dup2\n                /* \"#utility.yul\":645:678   */\n              tag_114\n              jump\t// in\n            tag_177:\n                /* \"#utility.yul\":545:684   */\n              swap3\n              swap2\n              pop\n              pop\n              jump\t// out\n                /* \"#utility.yul\":690:1019   */\n            tag_17:\n                /* \"#utility.yul\":749:755   */\n              0x00\n                /* \"#utility.yul\":798:800   */\n              0x20\n                /* \"#utility.yul\":786:795   */\n              dup3\n                /* \"#utility.yul\":777:784   */\n              dup5\n                /* \"#utility.yul\":773:796   */\n              sub\n                /* \"#utility.yul\":769:801   */\n              slt\n                /* \"#utility.yul\":766:885   */\n              iszero\n              tag_179\n              jumpi\n                /* \"#utility.yul\":804:883   */\n              tag_180\n              tag_111\n              jump\t// in\n            tag_180:\n                /* \"#utility.yul\":766:885   */\n            tag_179:\n                /* \"#utility.yul\":924:925   */\n              0x00\n                /* \"#utility.yul\":949:1002   */\n              tag_181\n                /* \"#utility.yul\":994:1001   */\n              dup5\n                /* \"#utility.yul\":985:991   */\n              dup3\n                /* \"#utility.yul\":974:983   */\n              dup6\n                /* \"#utility.yul\":970:992   */\n              add\n                /* \"#utility.yul\":949:1002   */\n              tag_115\n              jump\t// in\n            tag_181:\n                /* \"#utility.yul\":939:1002   */\n              swap2\n              pop\n                /* \"#utility.yul\":895:1012   */\n              pop\n                /* \"#utility.yul\":690:1019   */\n              swap3\n              swap2\n              pop\n              pop\n              jump\t// out\n                /* \"#utility.yul\":1025:1124   */\n            tag_116:\n                /* \"#utility.yul\":1077:1083   */\n              0x00\n                /* \"#utility.yul\":1111:1116   */\n              dup2\n                /* \"#utility.yul\":1105:1117   */\n              mload\n                /* \"#utility.yul\":1095:1117   */\n              swap1\n              pop\n                /* \"#utility.yul\":1025:1124   */\n              swap2\n              swap1\n              pop\n              jump\t// out\n                /* \"#utility.yul\":1130:1299   */\n            tag_117:\n                /* \"#utility.yul\":1214:1225   */\n              0x00\n                /* \"#utility.yul\":1248:1254   */\n              dup3\n                /* \"#utility.yul\":1243:1246   */\n              dup3\n                /* \"#utility.yul\":1236:1255   */\n              mstore\n                /* \"#utility.yul\":1288:1292   */\n              0x20\n                /* \"#utility.yul\":1283:1286   */\n              dup3\n                /* \"#utility.yul\":1279:1293   */\n              add\n                /* \"#utility.yul\":1264:1293   */\n              swap1\n              pop\n                /* \"#utility.yul\":1130:1299   */\n              swap3\n              swap2\n              pop\n              pop\n              jump\t// out\n                /* \"#utility.yul\":1305:1551   */\n            tag_118:\n                /* \"#utility.yul\":1386:1387   */\n              0x00\n                /* \"#utility.yul\":1396:1509   */\n            tag_185:\n                /* \"#utility.yul\":1410:1416   */\n              dup4\n                /* \"#utility.yul\":1407:1408   */\n              dup2\n                /* \"#utility.yul\":1404:1417   */\n              lt\n                /* \"#utility.yul\":1396:1509   */\n              iszero\n              tag_187\n              jumpi\n                /* \"#utility.yul\":1495:1496   */\n              dup1\n                /* \"#utility.yul\":1490:1493   */\n              dup3\n                /* \"#utility.yul\":1486:1497   */\n              add\n                /* \"#utility.yul\":1480:1498   */\n              mload\n                /* \"#utility.yul\":1476:1477   */\n              dup2\n                /* \"#utility.yul\":1471:1474   */\n              dup5\n                /* \"#utility.yul\":1467:1478   */\n              add\n                /* \"#utility.yul\":1460:1499   */\n              mstore\n                /* \"#utility.yul\":1432:1434   */\n              0x20\n                /* \"#utility.yul\":1429:1430   */\n              dup2\n                /* \"#utility.yul\":1425:1435   */\n              add\n                /* \"#utility.yul\":1420:1435   */\n              swap1\n              pop\n                /* \"#utility.yul\":1396:1509   */\n              jump(tag_185)\n            tag_187:\n                /* \"#utility.yul\":1543:1544   */\n              0x00\n                /* \"#utility.yul\":1534:1540   */\n              dup5\n                /* \"#utility.yul\":1529:1532   */\n              dup5\n                /* \"#utility.yul\":1525:1541   */\n              add\n                /* \"#utility.yul\":1518:1545   */\n              mstore\n                /* \"#utility.yul\":1367:1551   */\n              pop\n                /* \"#utility.yul\":1305:1551   */\n              pop\n              pop\n              pop\n              jump\t// out\n                /* \"#utility.yul\":1557:1659   */\n            tag_119:\n                /* \"#utility.yul\":1598:1604   */\n              0x00\n                /* \"#utility.yul\":1649:1651   */\n              0x1f\n                /* \"#utility.yul\":1645:1652   */\n              not\n                /* \"#utility.yul\":1640:1642   */\n              0x1f\n                /* \"#utility.yul\":1633:1638   */\n              dup4\n                /* \"#utility.yul\":1629:1643   */\n              add\n                /* \"#utility.yul\":1625:1653   */\n              and\n                /* \"#utility.yul\":1615:1653   */\n              swap1\n              pop\n                /* \"#utility.yul\":1557:1659   */\n              swap2\n              swap1\n              pop\n              jump\t// out\n                /* \"#utility.yul\":1665:2042   */\n            tag_120:\n                /* \"#utility.yul\":1753:1756   */\n              0x00\n                /* \"#utility.yul\":1781:1820   */\n              tag_190\n                /* \"#utility.yul\":1814:1819   */\n              dup3\n                /* \"#utility.yul\":1781:1820   */\n              tag_116\n              jump\t// in\n            tag_190:\n                /* \"#utility.yul\":1836:1907   */\n              tag_191\n                /* \"#utility.yul\":1900:1906   */\n              dup2\n                /* \"#utility.yul\":1895:1898   */\n              dup6\n                /* \"#utility.yul\":1836:1907   */\n              tag_117\n              jump\t// in\n            tag_191:\n                /* \"#utility.yul\":1829:1907   */\n              swap4\n              pop\n                /* \"#utility.yul\":1916:1981   */\n              tag_192\n                /* \"#utility.yul\":1974:1980   */\n              dup2\n                /* \"#utility.yul\":1969:1972   */\n              dup6\n                /* \"#utility.yul\":1962:1966   */\n              0x20\n                /* \"#utility.yul\":1955:1960   */\n              dup7\n                /* \"#utility.yul\":1951:1967   */\n              add\n                /* \"#utility.yul\":1916:1981   */\n              tag_118\n              jump\t// in\n            tag_192:\n                /* \"#utility.yul\":2006:2035   */\n              tag_193\n                /* \"#utility.yul\":2028:2034   */\n              dup2\n                /* \"#utility.yul\":2006:2035   */\n              tag_119\n              jump\t// in\n            tag_193:\n                /* \"#utility.yul\":2001:2004   */\n              dup5\n                /* \"#utility.yul\":1997:2036   */\n              add\n                /* \"#utility.yul\":1990:2036   */\n              swap2\n              pop\n                /* \"#utility.yul\":1757:2042   */\n              pop\n                /* \"#utility.yul\":1665:2042   */\n              swap3\n              swap2\n              pop\n              pop\n              jump\t// out\n                /* \"#utility.yul\":2048:2166   */\n            tag_121:\n                /* \"#utility.yul\":2135:2159   */\n              tag_195\n                /* \"#utility.yul\":2153:2158   */\n              dup2\n                /* \"#utility.yul\":2135:2159   */\n              tag_113\n              jump\t// in\n            tag_195:\n                /* \"#utility.yul\":2130:2133   */\n              dup3\n                /* \"#utility.yul\":2123:2160   */\n              mstore\n                /* \"#utility.yul\":2048:2166   */\n              pop\n              pop\n              jump\t// out\n                /* \"#utility.yul\":2172:2298   */\n            tag_122:\n                /* \"#utility.yul\":2209:2216   */\n              0x00\n                /* \"#utility.yul\":2249:2291   */\n              0xffffffffffffffffffffffffffffffffffffffff\n                /* \"#utility.yul\":2242:2247   */\n              dup3\n                /* \"#utility.yul\":2238:2292   */\n              and\n                /* \"#utility.yul\":2227:2292   */\n              swap1\n              pop\n                /* \"#utility.yul\":2172:2298   */\n              swap2\n              swap1\n              pop\n              jump\t// out\n                /* \"#utility.yul\":2304:2400   */\n            tag_123:\n                /* \"#utility.yul\":2341:2348   */\n              0x00\n                /* \"#utility.yul\":2370:2394   */\n              tag_198\n                /* \"#utility.yul\":2388:2393   */\n              dup3\n                /* \"#utility.yul\":2370:2394   */\n              tag_122\n              jump\t// in\n            tag_198:\n                /* \"#utility.yul\":2359:2394   */\n              swap1\n              pop\n                /* \"#utility.yul\":2304:2400   */\n              swap2\n              swap1\n              pop\n              jump\t// out\n                /* \"#utility.yul\":2406:2524   */\n            tag_124:\n                /* \"#utility.yul\":2493:2517   */\n              tag_200\n                /* \"#utility.yul\":2511:2516   */\n              dup2\n                /* \"#utility.yul\":2493:2517   */\n              tag_123\n              jump\t// in\n            tag_200:\n                /* \"#utility.yul\":2488:2491   */\n              dup3\n                /* \"#utility.yul\":2481:2518   */\n              mstore\n                /* \"#utility.yul\":2406:2524   */\n              pop\n              pop\n              jump\t// out\n                /* \"#utility.yul\":2530:2620   */\n            tag_125:\n                /* \"#utility.yul\":2564:2571   */\n              0x00\n                /* \"#utility.yul\":2607:2612   */\n              dup2\n                /* \"#utility.yul\":2600:2613   */\n              iszero\n                /* \"#utility.yul\":2593:2614   */\n              iszero\n                /* \"#utility.yul\":2582:2614   */\n              swap1\n              pop\n                /* \"#utility.yul\":2530:2620   */\n              swap2\n              swap1\n              pop\n              jump\t// out\n                /* \"#utility.yul\":2626:2735   */\n            tag_126:\n                /* \"#utility.yul\":2707:2728   */\n              tag_203\n                /* \"#utility.yul\":2722:2727   */\n              dup2\n                /* \"#utility.yul\":2707:2728   */\n              tag_125\n              jump\t// in\n            tag_203:\n                /* \"#utility.yul\":2702:2705   */\n              dup3\n                /* \"#utility.yul\":2695:2729   */\n              mstore\n                /* \"#utility.yul\":2626:2735   */\n              pop\n              pop\n              jump\t// out\n                /* \"#utility.yul\":2741:3484   */\n            tag_20:\n                /* \"#utility.yul\":2960:2964   */\n              0x00\n                /* \"#utility.yul\":2998:3001   */\n              0xa0\n                /* \"#utility.yul\":2987:2996   */\n              dup3\n                /* \"#utility.yul\":2983:3002   */\n              add\n                /* \"#utility.yul\":2975:3002   */\n              swap1\n              pop\n                /* \"#utility.yul\":3048:3057   */\n              dup2\n                /* \"#utility.yul\":3042:3046   */\n              dup2\n                /* \"#utility.yul\":3038:3058   */\n              sub\n                /* \"#utility.yul\":3034:3035   */\n              0x00\n                /* \"#utility.yul\":3023:3032   */\n              dup4\n                /* \"#utility.yul\":3019:3036   */\n              add\n                /* \"#utility.yul\":3012:3059   */\n              mstore\n                /* \"#utility.yul\":3076:3154   */\n              tag_205\n                /* \"#utility.yul\":3149:3153   */\n              dup2\n                /* \"#utility.yul\":3140:3146   */\n              dup9\n                /* \"#utility.yul\":3076:3154   */\n              tag_120\n              jump\t// in\n            tag_205:\n                /* \"#utility.yul\":3068:3154   */\n              swap1\n              pop\n                /* \"#utility.yul\":3164:3236   */\n              tag_206\n                /* \"#utility.yul\":3232:3234   */\n              0x20\n                /* \"#utility.yul\":3221:3230   */\n              dup4\n                /* \"#utility.yul\":3217:3235   */\n              add\n                /* \"#utility.yul\":3208:3214   */\n              dup8\n                /* \"#utility.yul\":3164:3236   */\n              tag_121\n              jump\t// in\n            tag_206:\n                /* \"#utility.yul\":3246:3318   */\n              tag_207\n                /* \"#utility.yul\":3314:3316   */\n              0x40\n                /* \"#utility.yul\":3303:3312   */\n              dup4\n                /* \"#utility.yul\":3299:3317   */\n              add\n                /* \"#utility.yul\":3290:3296   */\n              dup7\n                /* \"#utility.yul\":3246:3318   */\n              tag_124\n              jump\t// in\n            tag_207:\n                /* \"#utility.yul\":3328:3394   */\n              tag_208\n                /* \"#utility.yul\":3390:3392   */\n              0x60\n                /* \"#utility.yul\":3379:3388   */\n              dup4\n                /* \"#utility.yul\":3375:3393   */\n              add\n                /* \"#utility.yul\":3366:3372   */\n              dup6\n                /* \"#utility.yul\":3328:3394   */\n              tag_126\n              jump\t// in\n            tag_208:\n                /* \"#utility.yul\":3404:3477   */\n              tag_209\n                /* \"#utility.yul\":3472:3475   */\n              0x80\n                /* \"#utility.yul\":3461:3470   */\n              dup4\n                /* \"#utility.yul\":3457:3476   */\n              add\n                /* \"#utility.yul\":3448:3454   */\n              dup5\n                /* \"#utility.yul\":3404:3477   */\n              tag_121\n              jump\t// in\n            tag_209:\n                /* \"#utility.yul\":2741:3484   */\n              swap7\n              swap6\n              pop\n              pop\n              pop\n              pop\n              pop\n              pop\n              jump\t// out\n                /* \"#utility.yul\":3490:3712   */\n            tag_29:\n                /* \"#utility.yul\":3583:3587   */\n              0x00\n                /* \"#utility.yul\":3621:3623   */\n              0x20\n                /* \"#utility.yul\":3610:3619   */\n              dup3\n                /* \"#utility.yul\":3606:3624   */\n              add\n                /* \"#utility.yul\":3598:3624   */\n              swap1\n              pop\n                /* \"#utility.yul\":3634:3705   */\n              tag_211\n                /* \"#utility.yul\":3702:3703   */\n              0x00\n                /* \"#utility.yul\":3691:3700   */\n              dup4\n                /* \"#utility.yul\":3687:3704   */\n              add\n                /* \"#utility.yul\":3678:3684   */\n              dup5\n                /* \"#utility.yul\":3634:3705   */\n              tag_121\n              jump\t// in\n            tag_211:\n                /* \"#utility.yul\":3490:3712   */\n              swap3\n              swap2\n              pop\n              pop\n              jump\t// out\n                /* \"#utility.yul\":3718:3840   */\n            tag_127:\n                /* \"#utility.yul\":3791:3815   */\n              tag_213\n                /* \"#utility.yul\":3809:3814   */\n              dup2\n                /* \"#utility.yul\":3791:3815   */\n              tag_123\n              jump\t// in\n            tag_213:\n                /* \"#utility.yul\":3784:3789   */\n              dup2\n                /* \"#utility.yul\":3781:3816   */\n              eq\n                /* \"#utility.yul\":3771:3834   */\n              tag_214\n              jumpi\n                /* \"#utility.yul\":3830:3831   */\n              0x00\n                /* \"#utility.yul\":3827:3828   */\n              dup1\n                /* \"#utility.yul\":3820:3832   */\n              revert\n                /* \"#utility.yul\":3771:3834   */\n            tag_214:\n                /* \"#utility.yul\":3718:3840   */\n              pop\n              jump\t// out\n                /* \"#utility.yul\":3846:3985   */\n            tag_128:\n                /* \"#utility.yul\":3892:3897   */\n              0x00\n                /* \"#utility.yul\":3930:3936   */\n              dup2\n                /* \"#utility.yul\":3917:3937   */\n              calldataload\n                /* \"#utility.yul\":3908:3937   */\n              swap1\n              pop\n                /* \"#utility.yul\":3946:3979   */\n              tag_216\n                /* \"#utility.yul\":3973:3978   */\n              dup2\n                /* \"#utility.yul\":3946:3979   */\n              tag_127\n              jump\t// in\n            tag_216:\n                /* \"#utility.yul\":3846:3985   */\n              swap3\n              swap2\n              pop\n              pop\n              jump\t// out\n                /* \"#utility.yul\":3991:4320   */\n            tag_33:\n                /* \"#utility.yul\":4050:4056   */\n              0x00\n                /* \"#utility.yul\":4099:4101   */\n              0x20\n                /* \"#utility.yul\":4087:4096   */\n              dup3\n                /* \"#utility.yul\":4078:4085   */\n              dup5\n                /* \"#utility.yul\":4074:4097   */\n              sub\n                /* \"#utility.yul\":4070:4102   */\n              slt\n                /* \"#utility.yul\":4067:4186   */\n              iszero\n              tag_218\n              jumpi\n                /* \"#utility.yul\":4105:4184   */\n              tag_219\n              tag_111\n              jump\t// in\n            tag_219:\n                /* \"#utility.yul\":4067:4186   */\n            tag_218:\n                /* \"#utility.yul\":4225:4226   */\n              0x00\n                /* \"#utility.yul\":4250:4303   */\n              tag_220\n                /* \"#utility.yul\":4295:4302   */\n              dup5\n                /* \"#utility.yul\":4286:4292   */\n              dup3\n                /* \"#utility.yul\":4275:4284   */\n              dup6\n                /* \"#utility.yul\":4271:4293   */\n              add\n                /* \"#utility.yul\":4250:4303   */\n              tag_128\n              jump\t// in\n            tag_220:\n                /* \"#utility.yul\":4240:4303   */\n              swap2\n              pop\n                /* \"#utility.yul\":4196:4313   */\n              pop\n                /* \"#utility.yul\":3991:4320   */\n              swap3\n              swap2\n              pop\n              pop\n              jump\t// out\n                /* \"#utility.yul\":4326:4536   */\n            tag_36:\n                /* \"#utility.yul\":4413:4417   */\n              0x00\n                /* \"#utility.yul\":4451:4453   */\n              0x20\n                /* \"#utility.yul\":4440:4449   */\n              dup3\n                /* \"#utility.yul\":4436:4454   */\n              add\n                /* \"#utility.yul\":4428:4454   */\n              swap1\n              pop\n                /* \"#utility.yul\":4464:4529   */\n              tag_222\n                /* \"#utility.yul\":4526:4527   */\n              0x00\n                /* \"#utility.yul\":4515:4524   */\n              dup4\n                /* \"#utility.yul\":4511:4528   */\n              add\n                /* \"#utility.yul\":4502:4508   */\n              dup5\n                /* \"#utility.yul\":4464:4529   */\n              tag_126\n              jump\t// in\n            tag_222:\n                /* \"#utility.yul\":4326:4536   */\n              swap3\n              swap2\n              pop\n              pop\n              jump\t// out\n                /* \"#utility.yul\":4542:5206   */\n            tag_41:\n                /* \"#utility.yul\":4747:4751   */\n              0x00\n                /* \"#utility.yul\":4785:4788   */\n              0xa0\n                /* \"#utility.yul\":4774:4783   */\n              dup3\n                /* \"#utility.yul\":4770:4789   */\n              add\n                /* \"#utility.yul\":4762:4789   */\n              swap1\n              pop\n                /* \"#utility.yul\":4799:4870   */\n              tag_224\n                /* \"#utility.yul\":4867:4868   */\n              0x00\n                /* \"#utility.yul\":4856:4865   */\n              dup4\n                /* \"#utility.yul\":4852:4869   */\n              add\n                /* \"#utility.yul\":4843:4849   */\n              dup9\n                /* \"#utility.yul\":4799:4870   */\n              tag_121\n              jump\t// in\n            tag_224:\n                /* \"#utility.yul\":4880:4952   */\n              tag_225\n                /* \"#utility.yul\":4948:4950   */\n              0x20\n                /* \"#utility.yul\":4937:4946   */\n              dup4\n                /* \"#utility.yul\":4933:4951   */\n              add\n                /* \"#utility.yul\":4924:4930   */\n              dup8\n                /* \"#utility.yul\":4880:4952   */\n              tag_121\n              jump\t// in\n            tag_225:\n                /* \"#utility.yul\":4962:5034   */\n              tag_226\n                /* \"#utility.yul\":5030:5032   */\n              0x40\n                /* \"#utility.yul\":5019:5028   */\n              dup4\n                /* \"#utility.yul\":5015:5033   */\n              add\n                /* \"#utility.yul\":5006:5012   */\n              dup7\n                /* \"#utility.yul\":4962:5034   */\n              tag_121\n              jump\t// in\n            tag_226:\n                /* \"#utility.yul\":5044:5116   */\n              tag_227\n                /* \"#utility.yul\":5112:5114   */\n              0x60\n                /* \"#utility.yul\":5101:5110   */\n              dup4\n                /* \"#utility.yul\":5097:5115   */\n              add\n                /* \"#utility.yul\":5088:5094   */\n              dup6\n                /* \"#utility.yul\":5044:5116   */\n              tag_121\n              jump\t// in\n            tag_227:\n                /* \"#utility.yul\":5126:5199   */\n              tag_228\n                /* \"#utility.yul\":5194:5197   */\n              0x80\n                /* \"#utility.yul\":5183:5192   */\n              dup4\n                /* \"#utility.yul\":5179:5198   */\n              add\n                /* \"#utility.yul\":5170:5176   */\n              dup5\n                /* \"#utility.yul\":5126:5199   */\n              tag_124\n              jump\t// in\n            tag_228:\n                /* \"#utility.yul\":4542:5206   */\n              swap7\n              swap6\n              pop\n              pop\n              pop\n              pop\n              pop\n              pop\n              jump\t// out\n                /* \"#utility.yul\":5212:5434   */\n            tag_46:\n                /* \"#utility.yul\":5305:5309   */\n              0x00\n                /* \"#utility.yul\":5343:5345   */\n              0x20\n                /* \"#utility.yul\":5332:5341   */\n              dup3\n                /* \"#utility.yul\":5328:5346   */\n              add\n                /* \"#utility.yul\":5320:5346   */\n              swap1\n              pop\n                /* \"#utility.yul\":5356:5427   */\n              tag_230\n                /* \"#utility.yul\":5424:5425   */\n              0x00\n                /* \"#utility.yul\":5413:5422   */\n              dup4\n                /* \"#utility.yul\":5409:5426   */\n              add\n                /* \"#utility.yul\":5400:5406   */\n              dup5\n                /* \"#utility.yul\":5356:5427   */\n              tag_124\n              jump\t// in\n            tag_230:\n                /* \"#utility.yul\":5212:5434   */\n              swap3\n              swap2\n              pop\n              pop\n              jump\t// out\n                /* \"#utility.yul\":5440:5557   */\n            tag_129:\n                /* \"#utility.yul\":5549:5550   */\n              0x00\n                /* \"#utility.yul\":5546:5547   */\n              dup1\n                /* \"#utility.yul\":5539:5551   */\n              revert\n                /* \"#utility.yul\":5563:5680   */\n            tag_130:\n                /* \"#utility.yul\":5672:5673   */\n              0x00\n                /* \"#utility.yul\":5669:5670   */\n              dup1\n                /* \"#utility.yul\":5662:5674   */\n              revert\n                /* \"#utility.yul\":5686:5866   */\n            tag_131:\n                /* \"#utility.yul\":5734:5811   */\n              0x4e487b7100000000000000000000000000000000000000000000000000000000\n                /* \"#utility.yul\":5731:5732   */\n              0x00\n                /* \"#utility.yul\":5724:5812   */\n              mstore\n                /* \"#utility.yul\":5831:5835   */\n              0x41\n                /* \"#utility.yul\":5828:5829   */\n              0x04\n                /* \"#utility.yul\":5821:5836   */\n              mstore\n                /* \"#utility.yul\":5855:5859   */\n              0x24\n                /* \"#utility.yul\":5852:5853   */\n              0x00\n                /* \"#utility.yul\":5845:5860   */\n              revert\n                /* \"#utility.yul\":5872:6153   */\n            tag_132:\n                /* \"#utility.yul\":5955:5982   */\n              tag_235\n                /* \"#utility.yul\":5977:5981   */\n              dup3\n                /* \"#utility.yul\":5955:5982   */\n              tag_119\n              jump\t// in\n            tag_235:\n                /* \"#utility.yul\":5947:5953   */\n              dup2\n                /* \"#utility.yul\":5943:5983   */\n              add\n                /* \"#utility.yul\":6085:6091   */\n              dup2\n                /* \"#utility.yul\":6073:6083   */\n              dup2\n                /* \"#utility.yul\":6070:6092   */\n              lt\n                /* \"#utility.yul\":6049:6067   */\n              0xffffffffffffffff\n                /* \"#utility.yul\":6037:6047   */\n              dup3\n                /* \"#utility.yul\":6034:6068   */\n              gt\n                /* \"#utility.yul\":6031:6093   */\n              or\n                /* \"#utility.yul\":6028:6116   */\n              iszero\n              tag_236\n              jumpi\n                /* \"#utility.yul\":6096:6114   */\n              tag_237\n              tag_131\n              jump\t// in\n            tag_237:\n                /* \"#utility.yul\":6028:6116   */\n            tag_236:\n                /* \"#utility.yul\":6136:6146   */\n              dup1\n                /* \"#utility.yul\":6132:6134   */\n              0x40\n                /* \"#utility.yul\":6125:6147   */\n              mstore\n                /* \"#utility.yul\":5915:6153   */\n              pop\n                /* \"#utility.yul\":5872:6153   */\n              pop\n              pop\n              jump\t// out\n                /* \"#utility.yul\":6159:6288   */\n            tag_133:\n                /* \"#utility.yul\":6193:6199   */\n              0x00\n                /* \"#utility.yul\":6220:6240   */\n              tag_239\n              tag_110\n              jump\t// in\n            tag_239:\n                /* \"#utility.yul\":6210:6240   */\n              swap1\n              pop\n                /* \"#utility.yul\":6249:6282   */\n              tag_240\n                /* \"#utility.yul\":6277:6281   */\n              dup3\n                /* \"#utility.yul\":6269:6275   */\n              dup3\n                /* \"#utility.yul\":6249:6282   */\n              tag_132\n              jump\t// in\n            tag_240:\n                /* \"#utility.yul\":6159:6288   */\n              swap2\n              swap1\n              pop\n              jump\t// out\n                /* \"#utility.yul\":6294:6602   */\n            tag_134:\n                /* \"#utility.yul\":6356:6360   */\n              0x00\n                /* \"#utility.yul\":6446:6464   */\n              0xffffffffffffffff\n                /* \"#utility.yul\":6438:6444   */\n              dup3\n                /* \"#utility.yul\":6435:6465   */\n              gt\n                /* \"#utility.yul\":6432:6488   */\n              iszero\n              tag_242\n              jumpi\n                /* \"#utility.yul\":6468:6486   */\n              tag_243\n              tag_131\n              jump\t// in\n            tag_243:\n                /* \"#utility.yul\":6432:6488   */\n            tag_242:\n                /* \"#utility.yul\":6506:6535   */\n              tag_244\n                /* \"#utility.yul\":6528:6534   */\n              dup3\n                /* \"#utility.yul\":6506:6535   */\n              tag_119\n              jump\t// in\n            tag_244:\n                /* \"#utility.yul\":6498:6535   */\n              swap1\n              pop\n                /* \"#utility.yul\":6590:6594   */\n              0x20\n                /* \"#utility.yul\":6584:6588   */\n              dup2\n                /* \"#utility.yul\":6580:6595   */\n              add\n                /* \"#utility.yul\":6572:6595   */\n              swap1\n              pop\n                /* \"#utility.yul\":6294:6602   */\n              swap2\n              swap1\n              pop\n              jump\t// out\n                /* \"#utility.yul\":6608:6754   */\n            tag_135:\n                /* \"#utility.yul\":6705:6711   */\n              dup3\n                /* \"#utility.yul\":6700:6703   */\n              dup2\n                /* \"#utility.yul\":6695:6698   */\n              dup4\n                /* \"#utility.yul\":6682:6712   */\n              calldatacopy\n                /* \"#utility.yul\":6746:6747   */\n              0x00\n                /* \"#utility.yul\":6737:6743   */\n              dup4\n                /* \"#utility.yul\":6732:6735   */\n              dup4\n                /* \"#utility.yul\":6728:6744   */\n              add\n                /* \"#utility.yul\":6721:6748   */\n              mstore\n                /* \"#utility.yul\":6608:6754   */\n              pop\n              pop\n              pop\n              jump\t// out\n                /* \"#utility.yul\":6760:7185   */\n            tag_136:\n                /* \"#utility.yul\":6838:6843   */\n              0x00\n                /* \"#utility.yul\":6863:6929   */\n              tag_247\n                /* \"#utility.yul\":6879:6928   */\n              tag_248\n                /* \"#utility.yul\":6921:6927   */\n              dup5\n                /* \"#utility.yul\":6879:6928   */\n              tag_134\n              jump\t// in\n            tag_248:\n                /* \"#utility.yul\":6863:6929   */\n              tag_133\n              jump\t// in\n            tag_247:\n                /* \"#utility.yul\":6854:6929   */\n              swap1\n              pop\n                /* \"#utility.yul\":6952:6958   */\n              dup3\n                /* \"#utility.yul\":6945:6950   */\n              dup2\n                /* \"#utility.yul\":6938:6959   */\n              mstore\n                /* \"#utility.yul\":6990:6994   */\n              0x20\n                /* \"#utility.yul\":6983:6988   */\n              dup2\n                /* \"#utility.yul\":6979:6995   */\n              add\n                /* \"#utility.yul\":7028:7031   */\n              dup5\n                /* \"#utility.yul\":7019:7025   */\n              dup5\n                /* \"#utility.yul\":7014:7017   */\n              dup5\n                /* \"#utility.yul\":7010:7026   */\n              add\n                /* \"#utility.yul\":7007:7032   */\n              gt\n                /* \"#utility.yul\":7004:7116   */\n              iszero\n              tag_249\n              jumpi\n                /* \"#utility.yul\":7035:7114   */\n              tag_250\n              tag_130\n              jump\t// in\n            tag_250:\n                /* \"#utility.yul\":7004:7116   */\n            tag_249:\n                /* \"#utility.yul\":7125:7179   */\n              tag_251\n                /* \"#utility.yul\":7172:7178   */\n              dup5\n                /* \"#utility.yul\":7167:7170   */\n              dup3\n                /* \"#utility.yul\":7162:7165   */\n              dup6\n                /* \"#utility.yul\":7125:7179   */\n              tag_135\n              jump\t// in\n            tag_251:\n                /* \"#utility.yul\":6844:7185   */\n              pop\n                /* \"#utility.yul\":6760:7185   */\n              swap4\n              swap3\n              pop\n              pop\n              pop\n              jump\t// out\n                /* \"#utility.yul\":7205:7545   */\n            tag_137:\n                /* \"#utility.yul\":7261:7266   */\n              0x00\n                /* \"#utility.yul\":7310:7313   */\n              dup3\n                /* \"#utility.yul\":7303:7307   */\n              0x1f\n                /* \"#utility.yul\":7295:7301   */\n              dup4\n                /* \"#utility.yul\":7291:7308   */\n              add\n                /* \"#utility.yul\":7287:7314   */\n              slt\n                /* \"#utility.yul\":7277:7399   */\n              tag_253\n              jumpi\n                /* \"#utility.yul\":7318:7397   */\n              tag_254\n              tag_129\n              jump\t// in\n            tag_254:\n                /* \"#utility.yul\":7277:7399   */\n            tag_253:\n                /* \"#utility.yul\":7435:7441   */\n              dup2\n                /* \"#utility.yul\":7422:7442   */\n              calldataload\n                /* \"#utility.yul\":7460:7539   */\n              tag_255\n                /* \"#utility.yul\":7535:7538   */\n              dup5\n                /* \"#utility.yul\":7527:7533   */\n              dup3\n                /* \"#utility.yul\":7520:7524   */\n              0x20\n                /* \"#utility.yul\":7512:7518   */\n              dup7\n                /* \"#utility.yul\":7508:7525   */\n              add\n                /* \"#utility.yul\":7460:7539   */\n              tag_136\n              jump\t// in\n            tag_255:\n                /* \"#utility.yul\":7451:7539   */\n              swap2\n              pop\n                /* \"#utility.yul\":7267:7545   */\n              pop\n                /* \"#utility.yul\":7205:7545   */\n              swap3\n              swap2\n              pop\n              pop\n              jump\t// out\n                /* \"#utility.yul\":7551:8350   */\n            tag_54:\n                /* \"#utility.yul\":7638:7644   */\n              0x00\n                /* \"#utility.yul\":7646:7652   */\n              dup1\n                /* \"#utility.yul\":7654:7660   */\n              0x00\n                /* \"#utility.yul\":7703:7705   */\n              0x60\n                /* \"#utility.yul\":7691:7700   */\n              dup5\n                /* \"#utility.yul\":7682:7689   */\n              dup7\n                /* \"#utility.yul\":7678:7701   */\n              sub\n                /* \"#utility.yul\":7674:7706   */\n              slt\n                /* \"#utility.yul\":7671:7790   */\n              iszero\n              tag_257\n              jumpi\n                /* \"#utility.yul\":7709:7788   */\n              tag_258\n              tag_111\n              jump\t// in\n            tag_258:\n                /* \"#utility.yul\":7671:7790   */\n            tag_257:\n                /* \"#utility.yul\":7857:7858   */\n              0x00\n                /* \"#utility.yul\":7846:7855   */\n              dup5\n                /* \"#utility.yul\":7842:7859   */\n              add\n                /* \"#utility.yul\":7829:7860   */\n              calldataload\n                /* \"#utility.yul\":7887:7905   */\n              0xffffffffffffffff\n                /* \"#utility.yul\":7879:7885   */\n              dup2\n                /* \"#utility.yul\":7876:7906   */\n              gt\n                /* \"#utility.yul\":7873:7990   */\n              iszero\n              tag_259\n              jumpi\n                /* \"#utility.yul\":7909:7988   */\n              tag_260\n              tag_112\n              jump\t// in\n            tag_260:\n                /* \"#utility.yul\":7873:7990   */\n            tag_259:\n                /* \"#utility.yul\":8014:8077   */\n              tag_261\n                /* \"#utility.yul\":8069:8076   */\n              dup7\n                /* \"#utility.yul\":8060:8066   */\n              dup3\n                /* \"#utility.yul\":8049:8058   */\n              dup8\n                /* \"#utility.yul\":8045:8067   */\n              add\n                /* \"#utility.yul\":8014:8077   */\n              tag_137\n              jump\t// in\n            tag_261:\n                /* \"#utility.yul\":8004:8077   */\n              swap4\n              pop\n                /* \"#utility.yul\":7800:8087   */\n              pop\n                /* \"#utility.yul\":8126:8128   */\n              0x20\n                /* \"#utility.yul\":8152:8205   */\n              tag_262\n                /* \"#utility.yul\":8197:8204   */\n              dup7\n                /* \"#utility.yul\":8188:8194   */\n              dup3\n                /* \"#utility.yul\":8177:8186   */\n              dup8\n                /* \"#utility.yul\":8173:8195   */\n              add\n                /* \"#utility.yul\":8152:8205   */\n              tag_115\n              jump\t// in\n            tag_262:\n                /* \"#utility.yul\":8142:8205   */\n              swap3\n              pop\n                /* \"#utility.yul\":8097:8215   */\n              pop\n                /* \"#utility.yul\":8254:8256   */\n              0x40\n                /* \"#utility.yul\":8280:8333   */\n              tag_263\n                /* \"#utility.yul\":8325:8332   */\n              dup7\n                /* \"#utility.yul\":8316:8322   */\n              dup3\n                /* \"#utility.yul\":8305:8314   */\n              dup8\n                /* \"#utility.yul\":8301:8323   */\n              add\n                /* \"#utility.yul\":8280:8333   */\n              tag_128\n              jump\t// in\n            tag_263:\n                /* \"#utility.yul\":8270:8333   */\n              swap2\n              pop\n                /* \"#utility.yul\":8225:8343   */\n              pop\n                /* \"#utility.yul\":7551:8350   */\n              swap3\n              pop\n              swap3\n              pop\n              swap3\n              jump\t// out\n                /* \"#utility.yul\":8356:8536   */\n            tag_138:\n                /* \"#utility.yul\":8404:8481   */\n              0x4e487b7100000000000000000000000000000000000000000000000000000000\n                /* \"#utility.yul\":8401:8402   */\n              0x00\n                /* \"#utility.yul\":8394:8482   */\n              mstore\n                /* \"#utility.yul\":8501:8505   */\n              0x22\n                /* \"#utility.yul\":8498:8499   */\n              0x04\n                /* \"#utility.yul\":8491:8506   */\n              mstore\n                /* \"#utility.yul\":8525:8529   */\n              0x24\n                /* \"#utility.yul\":8522:8523   */\n              0x00\n                /* \"#utility.yul\":8515:8530   */\n              revert\n                /* \"#utility.yul\":8542:8862   */\n            tag_67:\n                /* \"#utility.yul\":8586:8592   */\n              0x00\n                /* \"#utility.yul\":8623:8624   */\n              0x02\n                /* \"#utility.yul\":8617:8621   */\n              dup3\n                /* \"#utility.yul\":8613:8625   */\n              div\n                /* \"#utility.yul\":8603:8625   */\n              swap1\n              pop\n                /* \"#utility.yul\":8670:8671   */\n              0x01\n                /* \"#utility.yul\":8664:8668   */\n              dup3\n                /* \"#utility.yul\":8660:8672   */\n              and\n                /* \"#utility.yul\":8691:8709   */\n              dup1\n                /* \"#utility.yul\":8681:8762   */\n              tag_266\n              jumpi\n                /* \"#utility.yul\":8747:8751   */\n              0x7f\n                /* \"#utility.yul\":8739:8745   */\n              dup3\n                /* \"#utility.yul\":8735:8752   */\n              and\n                /* \"#utility.yul\":8725:8752   */\n              swap2\n              pop\n                /* \"#utility.yul\":8681:8762   */\n            tag_266:\n                /* \"#utility.yul\":8809:8811   */\n              0x20\n                /* \"#utility.yul\":8801:8807   */\n              dup3\n                /* \"#utility.yul\":8798:8812   */\n              lt\n                /* \"#utility.yul\":8778:8796   */\n              dup2\n                /* \"#utility.yul\":8775:8813   */\n              sub\n                /* \"#utility.yul\":8772:8856   */\n              tag_267\n              jumpi\n                /* \"#utility.yul\":8828:8846   */\n              tag_268\n              tag_138\n              jump\t// in\n            tag_268:\n                /* \"#utility.yul\":8772:8856   */\n            tag_267:\n                /* \"#utility.yul\":8593:8862   */\n              pop\n                /* \"#utility.yul\":8542:8862   */\n              swap2\n              swap1\n              pop\n              jump\t// out\n                /* \"#utility.yul\":8868:9104   */\n            tag_139:\n                /* \"#utility.yul\":9008:9042   */\n              0x4f6e6c79207468652063616d706169676e206d616e616765722063616e206361\n                /* \"#utility.yul\":9004:9005   */\n              0x00\n                /* \"#utility.yul\":8996:9002   */\n              dup3\n                /* \"#utility.yul\":8992:9006   */\n              add\n                /* \"#utility.yul\":8985:9043   */\n              mstore\n                /* \"#utility.yul\":9077:9096   */\n              0x6c6c20746869732066756e6374696f6e2e000000000000000000000000000000\n                /* \"#utility.yul\":9072:9074   */\n              0x20\n                /* \"#utility.yul\":9064:9070   */\n              dup3\n                /* \"#utility.yul\":9060:9075   */\n              add\n                /* \"#utility.yul\":9053:9097   */\n              mstore\n                /* \"#utility.yul\":8868:9104   */\n              pop\n              jump\t// out\n                /* \"#utility.yul\":9110:9476   */\n            tag_140:\n                /* \"#utility.yul\":9252:9255   */\n              0x00\n                /* \"#utility.yul\":9273:9340   */\n              tag_271\n                /* \"#utility.yul\":9337:9339   */\n              0x31\n                /* \"#utility.yul\":9332:9335   */\n              dup4\n                /* \"#utility.yul\":9273:9340   */\n              tag_117\n              jump\t// in\n            tag_271:\n                /* \"#utility.yul\":9266:9340   */\n              swap2\n              pop\n                /* \"#utility.yul\":9349:9442   */\n              tag_272\n                /* \"#utility.yul\":9438:9441   */\n              dup3\n                /* \"#utility.yul\":9349:9442   */\n              tag_139\n              jump\t// in\n            tag_272:\n                /* \"#utility.yul\":9467:9469   */\n              0x40\n                /* \"#utility.yul\":9462:9465   */\n              dup3\n                /* \"#utility.yul\":9458:9470   */\n              add\n                /* \"#utility.yul\":9451:9470   */\n              swap1\n              pop\n                /* \"#utility.yul\":9110:9476   */\n              swap2\n              swap1\n              pop\n              jump\t// out\n                /* \"#utility.yul\":9482:9901   */\n            tag_75:\n                /* \"#utility.yul\":9648:9652   */\n              0x00\n                /* \"#utility.yul\":9686:9688   */\n              0x20\n                /* \"#utility.yul\":9675:9684   */\n              dup3\n                /* \"#utility.yul\":9671:9689   */\n              add\n                /* \"#utility.yul\":9663:9689   */\n              swap1\n              pop\n                /* \"#utility.yul\":9735:9744   */\n              dup2\n                /* \"#utility.yul\":9729:9733   */\n              dup2\n                /* \"#utility.yul\":9725:9745   */\n              sub\n                /* \"#utility.yul\":9721:9722   */\n              0x00\n                /* \"#utility.yul\":9710:9719   */\n              dup4\n                /* \"#utility.yul\":9706:9723   */\n              add\n                /* \"#utility.yul\":9699:9746   */\n              mstore\n                /* \"#utility.yul\":9763:9894   */\n              tag_274\n                /* \"#utility.yul\":9889:9893   */\n              dup2\n                /* \"#utility.yul\":9763:9894   */\n              tag_140\n              jump\t// in\n            tag_274:\n                /* \"#utility.yul\":9755:9894   */\n              swap1\n              pop\n                /* \"#utility.yul\":9482:9901   */\n              swap2\n              swap1\n              pop\n              jump\t// out\n                /* \"#utility.yul\":9907:10087   */\n            tag_141:\n                /* \"#utility.yul\":9955:10032   */\n              0x4e487b7100000000000000000000000000000000000000000000000000000000\n                /* \"#utility.yul\":9952:9953   */\n              0x00\n                /* \"#utility.yul\":9945:10033   */\n              mstore\n                /* \"#utility.yul\":10052:10056   */\n              0x12\n                /* \"#utility.yul\":10049:10050   */\n              0x04\n                /* \"#utility.yul\":10042:10057   */\n              mstore\n                /* \"#utility.yul\":10076:10080   */\n              0x24\n                /* \"#utility.yul\":10073:10074   */\n              0x00\n                /* \"#utility.yul\":10066:10081   */\n              revert\n                /* \"#utility.yul\":10093:10273   */\n            tag_142:\n                /* \"#utility.yul\":10141:10218   */\n              0x4e487b7100000000000000000000000000000000000000000000000000000000\n                /* \"#utility.yul\":10138:10139   */\n              0x00\n                /* \"#utility.yul\":10131:10219   */\n              mstore\n                /* \"#utility.yul\":10238:10242   */\n              0x11\n                /* \"#utility.yul\":10235:10236   */\n              0x04\n                /* \"#utility.yul\":10228:10243   */\n              mstore\n                /* \"#utility.yul\":10262:10266   */\n              0x24\n                /* \"#utility.yul\":10259:10260   */\n              0x00\n                /* \"#utility.yul\":10252:10267   */\n              revert\n                /* \"#utility.yul\":10279:10464   */\n            tag_78:\n                /* \"#utility.yul\":10319:10320   */\n              0x00\n                /* \"#utility.yul\":10336:10356   */\n              tag_278\n                /* \"#utility.yul\":10354:10355   */\n              dup3\n                /* \"#utility.yul\":10336:10356   */\n              tag_113\n              jump\t// in\n            tag_278:\n                /* \"#utility.yul\":10331:10356   */\n              swap2\n              pop\n                /* \"#utility.yul\":10370:10390   */\n              tag_279\n                /* \"#utility.yul\":10388:10389   */\n              dup4\n                /* \"#utility.yul\":10370:10390   */\n              tag_113\n              jump\t// in\n            tag_279:\n                /* \"#utility.yul\":10365:10390   */\n              swap3\n              pop\n                /* \"#utility.yul\":10409:10410   */\n              dup3\n                /* \"#utility.yul\":10399:10434   */\n              tag_280\n              jumpi\n                /* \"#utility.yul\":10414:10432   */\n              tag_281\n              tag_141\n              jump\t// in\n            tag_281:\n                /* \"#utility.yul\":10399:10434   */\n            tag_280:\n                /* \"#utility.yul\":10456:10457   */\n              dup3\n                /* \"#utility.yul\":10453:10454   */\n              dup3\n                /* \"#utility.yul\":10449:10458   */\n              div\n                /* \"#utility.yul\":10444:10458   */\n              swap1\n              pop\n                /* \"#utility.yul\":10279:10464   */\n              swap3\n              swap2\n              pop\n              pop\n              jump\t// out\n                /* \"#utility.yul\":10470:10717   */\n            tag_143:\n                /* \"#utility.yul\":10610:10644   */\n              0x546869732072657175657374206e65656473206d6f726520617070726f76616c\n                /* \"#utility.yul\":10606:10607   */\n              0x00\n                /* \"#utility.yul\":10598:10604   */\n              dup3\n                /* \"#utility.yul\":10594:10608   */\n              add\n                /* \"#utility.yul\":10587:10645   */\n              mstore\n                /* \"#utility.yul\":10679:10709   */\n              0x73206265666f72652069742063616e2062652066696e616c697a656400000000\n                /* \"#utility.yul\":10674:10676   */\n              0x20\n                /* \"#utility.yul\":10666:10672   */\n              dup3\n                /* \"#utility.yul\":10662:10677   */\n              add\n                /* \"#utility.yul\":10655:10710   */\n              mstore\n                /* \"#utility.yul\":10470:10717   */\n              pop\n              jump\t// out\n                /* \"#utility.yul\":10723:11089   */\n            tag_144:\n                /* \"#utility.yul\":10865:10868   */\n              0x00\n                /* \"#utility.yul\":10886:10953   */\n              tag_284\n                /* \"#utility.yul\":10950:10952   */\n              0x3c\n                /* \"#utility.yul\":10945:10948   */\n              dup4\n                /* \"#utility.yul\":10886:10953   */\n              tag_117\n              jump\t// in\n            tag_284:\n                /* \"#utility.yul\":10879:10953   */\n              swap2\n              pop\n                /* \"#utility.yul\":10962:11055   */\n              tag_285\n                /* \"#utility.yul\":11051:11054   */\n              dup3\n                /* \"#utility.yul\":10962:11055   */\n              tag_143\n              jump\t// in\n            tag_285:\n                /* \"#utility.yul\":11080:11082   */\n              0x40\n                /* \"#utility.yul\":11075:11078   */\n              dup3\n                /* \"#utility.yul\":11071:11083   */\n              add\n                /* \"#utility.yul\":11064:11083   */\n              swap1\n              pop\n                /* \"#utility.yul\":10723:11089   */\n              swap2\n              swap1\n              pop\n              jump\t// out\n                /* \"#utility.yul\":11095:11514   */\n            tag_81:\n                /* \"#utility.yul\":11261:11265   */\n              0x00\n                /* \"#utility.yul\":11299:11301   */\n              0x20\n                /* \"#utility.yul\":11288:11297   */\n              dup3\n                /* \"#utility.yul\":11284:11302   */\n              add\n                /* \"#utility.yul\":11276:11302   */\n              swap1\n              pop\n                /* \"#utility.yul\":11348:11357   */\n              dup2\n                /* \"#utility.yul\":11342:11346   */\n              dup2\n                /* \"#utility.yul\":11338:11358   */\n              sub\n                /* \"#utility.yul\":11334:11335   */\n              0x00\n                /* \"#utility.yul\":11323:11332   */\n              dup4\n                /* \"#utility.yul\":11319:11336   */\n              add\n                /* \"#utility.yul\":11312:11359   */\n              mstore\n                /* \"#utility.yul\":11376:11507   */\n              tag_287\n                /* \"#utility.yul\":11502:11506   */\n              dup2\n                /* \"#utility.yul\":11376:11507   */\n              tag_144\n              jump\t// in\n            tag_287:\n                /* \"#utility.yul\":11368:11507   */\n              swap1\n              pop\n                /* \"#utility.yul\":11095:11514   */\n              swap2\n              swap1\n              pop\n              jump\t// out\n                /* \"#utility.yul\":11520:11746   */\n            tag_145:\n                /* \"#utility.yul\":11660:11694   */\n              0x5468697320726571756573742068617320616c7265616479206265656e206669\n                /* \"#utility.yul\":11656:11657   */\n              0x00\n                /* \"#utility.yul\":11648:11654   */\n              dup3\n                /* \"#utility.yul\":11644:11658   */\n              add\n                /* \"#utility.yul\":11637:11695   */\n              mstore\n                /* \"#utility.yul\":11729:11738   */\n              0x6e616c697a656400000000000000000000000000000000000000000000000000\n                /* \"#utility.yul\":11724:11726   */\n              0x20\n                /* \"#utility.yul\":11716:11722   */\n              dup3\n                /* \"#utility.yul\":11712:11727   */\n              add\n                /* \"#utility.yul\":11705:11739   */\n              mstore\n                /* \"#utility.yul\":11520:11746   */\n              pop\n              jump\t// out\n                /* \"#utility.yul\":11752:12118   */\n            tag_146:\n                /* \"#utility.yul\":11894:11897   */\n              0x00\n                /* \"#utility.yul\":11915:11982   */\n              tag_290\n                /* \"#utility.yul\":11979:11981   */\n              0x27\n                /* \"#utility.yul\":11974:11977   */\n              dup4\n                /* \"#utility.yul\":11915:11982   */\n              tag_117\n              jump\t// in\n            tag_290:\n                /* \"#utility.yul\":11908:11982   */\n              swap2\n              pop\n                /* \"#utility.yul\":11991:12084   */\n              tag_291\n                /* \"#utility.yul\":12080:12083   */\n              dup3\n                /* \"#utility.yul\":11991:12084   */\n              tag_145\n              jump\t// in\n            tag_291:\n                /* \"#utility.yul\":12109:12111   */\n              0x40\n                /* \"#utility.yul\":12104:12107   */\n              dup3\n                /* \"#utility.yul\":12100:12112   */\n              add\n                /* \"#utility.yul\":12093:12112   */\n              swap1\n              pop\n                /* \"#utility.yul\":11752:12118   */\n              swap2\n              swap1\n              pop\n              jump\t// out\n                /* \"#utility.yul\":12124:12543   */\n            tag_84:\n                /* \"#utility.yul\":12290:12294   */\n              0x00\n                /* \"#utility.yul\":12328:12330   */\n              0x20\n                /* \"#utility.yul\":12317:12326   */\n              dup3\n                /* \"#utility.yul\":12313:12331   */\n              add\n                /* \"#utility.yul\":12305:12331   */\n              swap1\n              pop\n                /* \"#utility.yul\":12377:12386   */\n              dup2\n                /* \"#utility.yul\":12371:12375   */\n              dup2\n                /* \"#utility.yul\":12367:12387   */\n              sub\n                /* \"#utility.yul\":12363:12364   */\n              0x00\n                /* \"#utility.yul\":12352:12361   */\n              dup4\n                /* \"#utility.yul\":12348:12365   */\n              add\n                /* \"#utility.yul\":12341:12388   */\n              mstore\n                /* \"#utility.yul\":12405:12536   */\n              tag_293\n                /* \"#utility.yul\":12531:12535   */\n              dup2\n                /* \"#utility.yul\":12405:12536   */\n              tag_146\n              jump\t// in\n            tag_293:\n                /* \"#utility.yul\":12397:12536   */\n              swap1\n              pop\n                /* \"#utility.yul\":12124:12543   */\n              swap2\n              swap1\n              pop\n              jump\t// out\n                /* \"#utility.yul\":12549:12782   */\n            tag_94:\n                /* \"#utility.yul\":12588:12591   */\n              0x00\n                /* \"#utility.yul\":12611:12635   */\n              tag_295\n                /* \"#utility.yul\":12629:12634   */\n              dup3\n                /* \"#utility.yul\":12611:12635   */\n              tag_113\n              jump\t// in\n            tag_295:\n                /* \"#utility.yul\":12602:12635   */\n              swap2\n              pop\n                /* \"#utility.yul\":12657:12723   */\n              0xffffffffffffffffffffffffffffffffffffffffffffffffffffffffffffffff\n                /* \"#utility.yul\":12650:12655   */\n              dup3\n                /* \"#utility.yul\":12647:12724   */\n              sub\n                /* \"#utility.yul\":12644:12747   */\n              tag_296\n              jumpi\n                /* \"#utility.yul\":12727:12745   */\n              tag_297\n              tag_142\n              jump\t// in\n            tag_297:\n                /* \"#utility.yul\":12644:12747   */\n            tag_296:\n                /* \"#utility.yul\":12774:12775   */\n              0x01\n                /* \"#utility.yul\":12767:12772   */\n              dup3\n                /* \"#utility.yul\":12763:12776   */\n              add\n                /* \"#utility.yul\":12756:12776   */\n              swap1\n              pop\n                /* \"#utility.yul\":12549:12782   */\n              swap2\n              swap1\n              pop\n              jump\t// out\n                /* \"#utility.yul\":12788:12929   */\n            tag_147:\n                /* \"#utility.yul\":12837:12841   */\n              0x00\n                /* \"#utility.yul\":12860:12863   */\n              dup2\n                /* \"#utility.yul\":12852:12863   */\n              swap1\n              pop\n                /* \"#utility.yul\":12883:12886   */\n              dup2\n                /* \"#utility.yul\":12880:12881   */\n              0x00\n                /* \"#utility.yul\":12873:12887   */\n              mstore\n                /* \"#utility.yul\":12917:12921   */\n              0x20\n                /* \"#utility.yul\":12914:12915   */\n              0x00\n                /* \"#utility.yul\":12904:12922   */\n              keccak256\n                /* \"#utility.yul\":12896:12922   */\n              swap1\n              pop\n                /* \"#utility.yul\":12788:12929   */\n              swap2\n              swap1\n              pop\n              jump\t// out\n                /* \"#utility.yul\":12935:13028   */\n            tag_148:\n                /* \"#utility.yul\":12972:12978   */\n              0x00\n                /* \"#utility.yul\":13019:13021   */\n              0x20\n                /* \"#utility.yul\":13014:13016   */\n              0x1f\n                /* \"#utility.yul\":13007:13012   */\n              dup4\n                /* \"#utility.yul\":13003:13017   */\n              add\n                /* \"#utility.yul\":12999:13022   */\n              div\n                /* \"#utility.yul\":12989:13022   */\n              swap1\n              pop\n                /* \"#utility.yul\":12935:13028   */\n              swap2\n              swap1\n              pop\n              jump\t// out\n                /* \"#utility.yul\":13034:13141   */\n            tag_149:\n                /* \"#utility.yul\":13078:13086   */\n              0x00\n                /* \"#utility.yul\":13128:13133   */\n              dup3\n                /* \"#utility.yul\":13122:13126   */\n              dup3\n                /* \"#utility.yul\":13118:13134   */\n              shl\n                /* \"#utility.yul\":13097:13134   */\n              swap1\n              pop\n                /* \"#utility.yul\":13034:13141   */\n              swap3\n              swap2\n              pop\n              pop\n              jump\t// out\n                /* \"#utility.yul\":13147:13540   */\n            tag_150:\n                /* \"#utility.yul\":13216:13222   */\n              0x00\n                /* \"#utility.yul\":13266:13267   */\n              0x08\n                /* \"#utility.yul\":13254:13264   */\n              dup4\n                /* \"#utility.yul\":13250:13268   */\n              mul\n                /* \"#utility.yul\":13289:13386   */\n              tag_302\n                /* \"#utility.yul\":13319:13385   */\n              0xffffffffffffffffffffffffffffffffffffffffffffffffffffffffffffffff\n                /* \"#utility.yul\":13308:13317   */\n              dup3\n                /* \"#utility.yul\":13289:13386   */\n              tag_149\n              jump\t// in\n            tag_302:\n                /* \"#utility.yul\":13407:13446   */\n              tag_303\n                /* \"#utility.yul\":13437:13445   */\n              dup7\n                /* \"#utility.yul\":13426:13435   */\n              dup4\n                /* \"#utility.yul\":13407:13446   */\n              tag_149\n              jump\t// in\n            tag_303:\n                /* \"#utility.yul\":13395:13446   */\n              swap6\n              pop\n                /* \"#utility.yul\":13479:13483   */\n              dup1\n                /* \"#utility.yul\":13475:13484   */\n              not\n                /* \"#utility.yul\":13468:13473   */\n              dup5\n                /* \"#utility.yul\":13464:13485   */\n              and\n                /* \"#utility.yul\":13455:13485   */\n              swap4\n              pop\n                /* \"#utility.yul\":13528:13532   */\n              dup1\n                /* \"#utility.yul\":13518:13526   */\n              dup7\n                /* \"#utility.yul\":13514:13533   */\n              and\n                /* \"#utility.yul\":13507:13512   */\n              dup5\n                /* \"#utility.yul\":13504:13534   */\n              or\n                /* \"#utility.yul\":13494:13534   */\n              swap3\n              pop\n                /* \"#utility.yul\":13223:13540   */\n              pop\n              pop\n                /* \"#utility.yul\":13147:13540   */\n              swap4\n              swap3\n              pop\n              pop\n              pop\n              jump\t// out\n                /* \"#utility.yul\":13546:13606   */\n            tag_151:\n                /* \"#utility.yul\":13574:13577   */\n              0x00\n                /* \"#utility.yul\":13595:13600   */\n              dup2\n                /* \"#utility.yul\":13588:13600   */\n              swap1\n              pop\n                /* \"#utility.yul\":13546:13606   */\n              swap2\n              swap1\n              pop\n              jump\t// out\n                /* \"#utility.yul\":13612:13754   */\n            tag_152:\n                /* \"#utility.yul\":13662:13671   */\n              0x00\n                /* \"#utility.yul\":13695:13748   */\n              tag_306\n                /* \"#utility.yul\":13713:13747   */\n              tag_307\n                /* \"#utility.yul\":13722:13746   */\n              tag_308\n                /* \"#utility.yul\":13740:13745   */\n              dup5\n                /* \"#utility.yul\":13722:13746   */\n              tag_113\n              jump\t// in\n            tag_308:\n                /* \"#utility.yul\":13713:13747   */\n              tag_151\n              jump\t// in\n            tag_307:\n                /* \"#utility.yul\":13695:13748   */\n              tag_113\n              jump\t// in\n            tag_306:\n                /* \"#utility.yul\":13682:13748   */\n              swap1\n              pop\n                /* \"#utility.yul\":13612:13754   */\n              swap2\n              swap1\n              pop\n              jump\t// out\n                /* \"#utility.yul\":13760:13835   */\n            tag_153:\n                /* \"#utility.yul\":13803:13806   */\n              0x00\n                /* \"#utility.yul\":13824:13829   */\n              dup2\n                /* \"#utility.yul\":13817:13829   */\n              swap1\n              pop\n                /* \"#utility.yul\":13760:13835   */\n              swap2\n              swap1\n              pop\n              jump\t// out\n                /* \"#utility.yul\":13841:14110   */\n            tag_154:\n                /* \"#utility.yul\":13951:13990   */\n              tag_311\n                /* \"#utility.yul\":13982:13989   */\n              dup4\n                /* \"#utility.yul\":13951:13990   */\n              tag_152\n              jump\t// in\n            tag_311:\n                /* \"#utility.yul\":14012:14103   */\n              tag_312\n                /* \"#utility.yul\":14061:14102   */\n              tag_313\n                /* \"#utility.yul\":14085:14101   */\n              dup3\n                /* \"#utility.yul\":14061:14102   */\n              tag_153\n              jump\t// in\n            tag_313:\n                /* \"#utility.yul\":14053:14059   */\n              dup5\n                /* \"#utility.yul\":14046:14050   */\n              dup5\n                /* \"#utility.yul\":14040:14051   */\n              sload\n                /* \"#utility.yul\":14012:14103   */\n              tag_150\n              jump\t// in\n            tag_312:\n                /* \"#utility.yul\":14006:14010   */\n              dup3\n                /* \"#utility.yul\":13999:14104   */\n              sstore\n                /* \"#utility.yul\":13917:14110   */\n              pop\n                /* \"#utility.yul\":13841:14110   */\n              pop\n              pop\n              pop\n              jump\t// out\n                /* \"#utility.yul\":14116:14189   */\n            tag_155:\n                /* \"#utility.yul\":14161:14164   */\n              0x00\n                /* \"#utility.yul\":14116:14189   */\n              swap1\n              jump\t// out\n                /* \"#utility.yul\":14195:14384   */\n            tag_156:\n                /* \"#utility.yul\":14272:14304   */\n              tag_316\n              tag_155\n              jump\t// in\n            tag_316:\n                /* \"#utility.yul\":14313:14378   */\n              tag_317\n                /* \"#utility.yul\":14371:14377   */\n              dup2\n                /* \"#utility.yul\":14363:14369   */\n              dup5\n                /* \"#utility.yul\":14357:14361   */\n              dup5\n                /* \"#utility.yul\":14313:14378   */\n              tag_154\n              jump\t// in\n            tag_317:\n                /* \"#utility.yul\":14248:14384   */\n              pop\n                /* \"#utility.yul\":14195:14384   */\n              pop\n              pop\n              jump\t// out\n                /* \"#utility.yul\":14390:14576   */\n            tag_157:\n                /* \"#utility.yul\":14450:14570   */\n            tag_319:\n                /* \"#utility.yul\":14467:14470   */\n              dup2\n                /* \"#utility.yul\":14460:14465   */\n              dup2\n                /* \"#utility.yul\":14457:14471   */\n              lt\n                /* \"#utility.yul\":14450:14570   */\n              iszero\n              tag_321\n              jumpi\n                /* \"#utility.yul\":14521:14560   */\n              tag_322\n                /* \"#utility.yul\":14558:14559   */\n              0x00\n                /* \"#utility.yul\":14551:14556   */\n              dup3\n                /* \"#utility.yul\":14521:14560   */\n              tag_156\n              jump\t// in\n            tag_322:\n                /* \"#utility.yul\":14494:14495   */\n              0x01\n                /* \"#utility.yul\":14487:14492   */\n              dup2\n                /* \"#utility.yul\":14483:14496   */\n              add\n                /* \"#utility.yul\":14474:14496   */\n              swap1\n              pop\n                /* \"#utility.yul\":14450:14570   */\n              jump(tag_319)\n            tag_321:\n                /* \"#utility.yul\":14390:14576   */\n              pop\n              pop\n              jump\t// out\n                /* \"#utility.yul\":14582:15125   */\n            tag_158:\n                /* \"#utility.yul\":14683:14685   */\n              0x1f\n                /* \"#utility.yul\":14678:14681   */\n              dup3\n                /* \"#utility.yul\":14675:14686   */\n              gt\n                /* \"#utility.yul\":14672:15118   */\n              iszero\n              tag_324\n              jumpi\n                /* \"#utility.yul\":14717:14755   */\n              tag_325\n                /* \"#utility.yul\":14749:14754   */\n              dup2\n                /* \"#utility.yul\":14717:14755   */\n              tag_147\n              jump\t// in\n            tag_325:\n                /* \"#utility.yul\":14801:14830   */\n              tag_326\n                /* \"#utility.yul\":14819:14829   */\n              dup5\n                /* \"#utility.yul\":14801:14830   */\n              tag_148\n              jump\t// in\n            tag_326:\n                /* \"#utility.yul\":14791:14799   */\n              dup2\n                /* \"#utility.yul\":14787:14831   */\n              add\n                /* \"#utility.yul\":14984:14986   */\n              0x20\n                /* \"#utility.yul\":14972:14982   */\n              dup6\n                /* \"#utility.yul\":14969:14987   */\n              lt\n                /* \"#utility.yul\":14966:15015   */\n              iszero\n              tag_327\n              jumpi\n                /* \"#utility.yul\":15005:15013   */\n              dup2\n                /* \"#utility.yul\":14990:15013   */\n              swap1\n              pop\n                /* \"#utility.yul\":14966:15015   */\n            tag_327:\n                /* \"#utility.yul\":15028:15108   */\n              tag_328\n                /* \"#utility.yul\":15084:15106   */\n              tag_329\n                /* \"#utility.yul\":15102:15105   */\n              dup6\n                /* \"#utility.yul\":15084:15106   */\n              tag_148\n              jump\t// in\n            tag_329:\n                /* \"#utility.yul\":15074:15082   */\n              dup4\n                /* \"#utility.yul\":15070:15107   */\n              add\n                /* \"#utility.yul\":15057:15068   */\n              dup3\n                /* \"#utility.yul\":15028:15108   */\n              tag_157\n              jump\t// in\n            tag_328:\n                /* \"#utility.yul\":14687:15118   */\n              pop\n              pop\n                /* \"#utility.yul\":14672:15118   */\n            tag_324:\n                /* \"#utility.yul\":14582:15125   */\n              pop\n              pop\n              pop\n              jump\t// out\n                /* \"#utility.yul\":15131:15248   */\n            tag_159:\n                /* \"#utility.yul\":15185:15193   */\n              0x00\n                /* \"#utility.yul\":15235:15240   */\n              dup3\n                /* \"#utility.yul\":15229:15233   */\n              dup3\n                /* \"#utility.yul\":15225:15241   */\n              shr\n                /* \"#utility.yul\":15204:15241   */\n              swap1\n              pop\n                /* \"#utility.yul\":15131:15248   */\n              swap3\n              swap2\n              pop\n              pop\n              jump\t// out\n                /* \"#utility.yul\":15254:15423   */\n            tag_160:\n                /* \"#utility.yul\":15298:15304   */\n              0x00\n                /* \"#utility.yul\":15331:15382   */\n              tag_332\n                /* \"#utility.yul\":15379:15380   */\n              0x00\n                /* \"#utility.yul\":15375:15381   */\n              not\n                /* \"#utility.yul\":15367:15372   */\n              dup5\n                /* \"#utility.yul\":15364:15365   */\n              0x08\n                /* \"#utility.yul\":15360:15373   */\n              mul\n                /* \"#utility.yul\":15331:15382   */\n              tag_159\n              jump\t// in\n            tag_332:\n                /* \"#utility.yul\":15327:15383   */\n              not\n                /* \"#utility.yul\":15412:15416   */\n              dup1\n                /* \"#utility.yul\":15406:15410   */\n              dup4\n                /* \"#utility.yul\":15402:15417   */\n              and\n                /* \"#utility.yul\":15392:15417   */\n              swap2\n              pop\n                /* \"#utility.yul\":15305:15423   */\n              pop\n                /* \"#utility.yul\":15254:15423   */\n              swap3\n              swap2\n              pop\n              pop\n              jump\t// out\n                /* \"#utility.yul\":15428:15723   */\n            tag_161:\n                /* \"#utility.yul\":15504:15508   */\n              0x00\n                /* \"#utility.yul\":15650:15679   */\n              tag_334\n                /* \"#utility.yul\":15675:15678   */\n              dup4\n                /* \"#utility.yul\":15669:15673   */\n              dup4\n                /* \"#utility.yul\":15650:15679   */\n              tag_160\n              jump\t// in\n            tag_334:\n                /* \"#utility.yul\":15642:15679   */\n              swap2\n              pop\n                /* \"#utility.yul\":15712:15715   */\n              dup3\n                /* \"#utility.yul\":15709:15710   */\n              0x02\n                /* \"#utility.yul\":15705:15716   */\n              mul\n                /* \"#utility.yul\":15699:15703   */\n              dup3\n                /* \"#utility.yul\":15696:15717   */\n              or\n                /* \"#utility.yul\":15688:15717   */\n              swap1\n              pop\n                /* \"#utility.yul\":15428:15723   */\n              swap3\n              swap2\n              pop\n              pop\n              jump\t// out\n                /* \"#utility.yul\":15728:17123   */\n            tag_96:\n                /* \"#utility.yul\":15845:15882   */\n              tag_336\n                /* \"#utility.yul\":15878:15881   */\n              dup3\n                /* \"#utility.yul\":15845:15882   */\n              tag_116\n              jump\t// in\n            tag_336:\n                /* \"#utility.yul\":15947:15965   */\n              0xffffffffffffffff\n                /* \"#utility.yul\":15939:15945   */\n              dup2\n                /* \"#utility.yul\":15936:15966   */\n              gt\n                /* \"#utility.yul\":15933:15989   */\n              iszero\n              tag_337\n              jumpi\n                /* \"#utility.yul\":15969:15987   */\n              tag_338\n              tag_131\n              jump\t// in\n            tag_338:\n                /* \"#utility.yul\":15933:15989   */\n            tag_337:\n                /* \"#utility.yul\":16013:16051   */\n              tag_339\n                /* \"#utility.yul\":16045:16049   */\n              dup3\n                /* \"#utility.yul\":16039:16050   */\n              sload\n                /* \"#utility.yul\":16013:16051   */\n              tag_67\n              jump\t// in\n            tag_339:\n                /* \"#utility.yul\":16098:16165   */\n              tag_340\n                /* \"#utility.yul\":16158:16164   */\n              dup3\n                /* \"#utility.yul\":16150:16156   */\n              dup3\n                /* \"#utility.yul\":16144:16148   */\n              dup6\n                /* \"#utility.yul\":16098:16165   */\n              tag_158\n              jump\t// in\n            tag_340:\n                /* \"#utility.yul\":16192:16193   */\n              0x00\n                /* \"#utility.yul\":16216:16220   */\n              0x20\n                /* \"#utility.yul\":16203:16220   */\n              swap1\n              pop\n                /* \"#utility.yul\":16248:16250   */\n              0x1f\n                /* \"#utility.yul\":16240:16246   */\n              dup4\n                /* \"#utility.yul\":16237:16251   */\n              gt\n                /* \"#utility.yul\":16265:16266   */\n              0x01\n                /* \"#utility.yul\":16260:16878   */\n              dup2\n              eq\n              tag_342\n              jumpi\n                /* \"#utility.yul\":16922:16923   */\n              0x00\n                /* \"#utility.yul\":16939:16945   */\n              dup5\n                /* \"#utility.yul\":16936:17013   */\n              iszero\n              tag_343\n              jumpi\n                /* \"#utility.yul\":16988:16997   */\n              dup3\n                /* \"#utility.yul\":16983:16986   */\n              dup8\n                /* \"#utility.yul\":16979:16998   */\n              add\n                /* \"#utility.yul\":16973:16999   */\n              mload\n                /* \"#utility.yul\":16964:16999   */\n              swap1\n              pop\n                /* \"#utility.yul\":16936:17013   */\n            tag_343:\n                /* \"#utility.yul\":17039:17106   */\n              tag_344\n                /* \"#utility.yul\":17099:17105   */\n              dup6\n                /* \"#utility.yul\":17092:17097   */\n              dup3\n                /* \"#utility.yul\":17039:17106   */\n              tag_161\n              jump\t// in\n            tag_344:\n                /* \"#utility.yul\":17033:17037   */\n              dup7\n                /* \"#utility.yul\":17026:17107   */\n              sstore\n                /* \"#utility.yul\":16895:17117   */\n              pop\n                /* \"#utility.yul\":16230:17117   */\n              jump(tag_341)\n                /* \"#utility.yul\":16260:16878   */\n            tag_342:\n                /* \"#utility.yul\":16312:16316   */\n              0x1f\n                /* \"#utility.yul\":16308:16317   */\n              not\n                /* \"#utility.yul\":16300:16306   */\n              dup5\n                /* \"#utility.yul\":16296:16318   */\n              and\n                /* \"#utility.yul\":16346:16383   */\n              tag_345\n                /* \"#utility.yul\":16378:16382   */\n              dup7\n                /* \"#utility.yul\":16346:16383   */\n              tag_147\n              jump\t// in\n            tag_345:\n                /* \"#utility.yul\":16405:16406   */\n              0x00\n                /* \"#utility.yul\":16419:16627   */\n            tag_346:\n                /* \"#utility.yul\":16433:16440   */\n              dup3\n                /* \"#utility.yul\":16430:16431   */\n              dup2\n                /* \"#utility.yul\":16427:16441   */\n              lt\n                /* \"#utility.yul\":16419:16627   */\n              iszero\n              tag_348\n              jumpi\n                /* \"#utility.yul\":16512:16521   */\n              dup5\n                /* \"#utility.yul\":16507:16510   */\n              dup10\n                /* \"#utility.yul\":16503:16522   */\n              add\n                /* \"#utility.yul\":16497:16523   */\n              mload\n                /* \"#utility.yul\":16489:16495   */\n              dup3\n                /* \"#utility.yul\":16482:16524   */\n              sstore\n                /* \"#utility.yul\":16563:16564   */\n              0x01\n                /* \"#utility.yul\":16555:16561   */\n              dup3\n                /* \"#utility.yul\":16551:16565   */\n              add\n                /* \"#utility.yul\":16541:16565   */\n              swap2\n              pop\n                /* \"#utility.yul\":16610:16612   */\n              0x20\n                /* \"#utility.yul\":16599:16608   */\n              dup6\n                /* \"#utility.yul\":16595:16613   */\n              add\n                /* \"#utility.yul\":16582:16613   */\n              swap5\n              pop\n                /* \"#utility.yul\":16456:16460   */\n              0x20\n                /* \"#utility.yul\":16453:16454   */\n              dup2\n                /* \"#utility.yul\":16449:16461   */\n              add\n                /* \"#utility.yul\":16444:16461   */\n              swap1\n              pop\n                /* \"#utility.yul\":16419:16627   */\n              jump(tag_346)\n            tag_348:\n                /* \"#utility.yul\":16655:16661   */\n              dup7\n                /* \"#utility.yul\":16646:16653   */\n              dup4\n                /* \"#utility.yul\":16643:16662   */\n              lt\n                /* \"#utility.yul\":16640:16819   */\n              iszero\n              tag_349\n              jumpi\n                /* \"#utility.yul\":16713:16722   */\n              dup5\n                /* \"#utility.yul\":16708:16711   */\n              dup10\n                /* \"#utility.yul\":16704:16723   */\n              add\n                /* \"#utility.yul\":16698:16724   */\n              mload\n                /* \"#utility.yul\":16756:16804   */\n              tag_350\n                /* \"#utility.yul\":16798:16802   */\n              0x1f\n                /* \"#utility.yul\":16790:16796   */\n              dup10\n                /* \"#utility.yul\":16786:16803   */\n              and\n                /* \"#utility.yul\":16775:16784   */\n              dup3\n                /* \"#utility.yul\":16756:16804   */\n              tag_160\n              jump\t// in\n            tag_350:\n                /* \"#utility.yul\":16748:16754   */\n              dup4\n                /* \"#utility.yul\":16741:16805   */\n              sstore\n                /* \"#utility.yul\":16663:16819   */\n              pop\n                /* \"#utility.yul\":16640:16819   */\n            tag_349:\n                /* \"#utility.yul\":16865:16866   */\n              0x01\n                /* \"#utility.yul\":16861:16862   */\n              0x02\n                /* \"#utility.yul\":16853:16859   */\n              dup9\n                /* \"#utility.yul\":16849:16863   */\n              mul\n                /* \"#utility.yul\":16845:16867   */\n              add\n                /* \"#utility.yul\":16839:16843   */\n              dup9\n                /* \"#utility.yul\":16832:16868   */\n              sstore\n                /* \"#utility.yul\":16267:16878   */\n              pop\n              pop\n              pop\n                /* \"#utility.yul\":16230:17117   */\n            tag_341:\n              pop\n                /* \"#utility.yul\":15820:17123   */\n              pop\n              pop\n              pop\n                /* \"#utility.yul\":15728:17123   */\n              pop\n              pop\n              jump\t// out\n                /* \"#utility.yul\":17129:17350   */\n            tag_162:\n                /* \"#utility.yul\":17269:17303   */\n              0x41206d696e696d756d20636f6e747269627574696f6e20697320726571756972\n                /* \"#utility.yul\":17265:17266   */\n              0x00\n                /* \"#utility.yul\":17257:17263   */\n              dup3\n                /* \"#utility.yul\":17253:17267   */\n              add\n                /* \"#utility.yul\":17246:17304   */\n              mstore\n                /* \"#utility.yul\":17338:17342   */\n              0x6564000000000000000000000000000000000000000000000000000000000000\n                /* \"#utility.yul\":17333:17335   */\n              0x20\n                /* \"#utility.yul\":17325:17331   */\n              dup3\n                /* \"#utility.yul\":17321:17336   */\n              add\n                /* \"#utility.yul\":17314:17343   */\n              mstore\n                /* \"#utility.yul\":17129:17350   */\n              pop\n              jump\t// out\n                /* \"#utility.yul\":17356:17722   */\n            tag_163:\n                /* \"#utility.yul\":17498:17501   */\n              0x00\n                /* \"#utility.yul\":17519:17586   */\n              tag_353\n                /* \"#utility.yul\":17583:17585   */\n              0x22\n                /* \"#utility.yul\":17578:17581   */\n              dup4\n                /* \"#utility.yul\":17519:17586   */\n              tag_117\n              jump\t// in\n            tag_353:\n                /* \"#utility.yul\":17512:17586   */\n              swap2\n              pop\n                /* \"#utility.yul\":17595:17688   */\n              tag_354\n                /* \"#utility.yul\":17684:17687   */\n              dup3\n                /* \"#utility.yul\":17595:17688   */\n              tag_162\n              jump\t// in\n            tag_354:\n                /* \"#utility.yul\":17713:17715   */\n              0x40\n                /* \"#utility.yul\":17708:17711   */\n              dup3\n                /* \"#utility.yul\":17704:17716   */\n              add\n                /* \"#utility.yul\":17697:17716   */\n              swap1\n              pop\n                /* \"#utility.yul\":17356:17722   */\n              swap2\n              swap1\n              pop\n              jump\t// out\n                /* \"#utility.yul\":17728:18147   */\n            tag_100:\n                /* \"#utility.yul\":17894:17898   */\n              0x00\n                /* \"#utility.yul\":17932:17934   */\n              0x20\n                /* \"#utility.yul\":17921:17930   */\n              dup3\n                /* \"#utility.yul\":17917:17935   */\n              add\n                /* \"#utility.yul\":17909:17935   */\n              swap1\n              pop\n                /* \"#utility.yul\":17981:17990   */\n              dup2\n                /* \"#utility.yul\":17975:17979   */\n              dup2\n                /* \"#utility.yul\":17971:17991   */\n              sub\n                /* \"#utility.yul\":17967:17968   */\n              0x00\n                /* \"#utility.yul\":17956:17965   */\n              dup4\n                /* \"#utility.yul\":17952:17969   */\n              add\n                /* \"#utility.yul\":17945:17992   */\n              mstore\n                /* \"#utility.yul\":18009:18140   */\n              tag_356\n                /* \"#utility.yul\":18135:18139   */\n              dup2\n                /* \"#utility.yul\":18009:18140   */\n              tag_163\n              jump\t// in\n            tag_356:\n                /* \"#utility.yul\":18001:18140   */\n              swap1\n              pop\n                /* \"#utility.yul\":17728:18147   */\n              swap2\n              swap1\n              pop\n              jump\t// out\n                /* \"#utility.yul\":18153:18396   */\n            tag_164:\n                /* \"#utility.yul\":18293:18327   */\n              0x4f6e6c7920636f6e7472696275746f72732063616e20617070726f7665206120\n                /* \"#utility.yul\":18289:18290   */\n              0x00\n                /* \"#utility.yul\":18281:18287   */\n              dup3\n                /* \"#utility.yul\":18277:18291   */\n              add\n                /* \"#utility.yul\":18270:18328   */\n              mstore\n                /* \"#utility.yul\":18362:18388   */\n              0x7370656369666963207061796d656e7420726571756573740000000000000000\n                /* \"#utility.yul\":18357:18359   */\n              0x20\n                /* \"#utility.yul\":18349:18355   */\n              dup3\n                /* \"#utility.yul\":18345:18360   */\n              add\n                /* \"#utility.yul\":18338:18389   */\n              mstore\n                /* \"#utility.yul\":18153:18396   */\n              pop\n              jump\t// out\n                /* \"#utility.yul\":18402:18768   */\n            tag_165:\n                /* \"#utility.yul\":18544:18547   */\n              0x00\n                /* \"#utility.yul\":18565:18632   */\n              tag_359\n                /* \"#utility.yul\":18629:18631   */\n              0x38\n                /* \"#utility.yul\":18624:18627   */\n              dup4\n                /* \"#utility.yul\":18565:18632   */\n              tag_117\n              jump\t// in\n            tag_359:\n                /* \"#utility.yul\":18558:18632   */\n              swap2\n              pop\n                /* \"#utility.yul\":18641:18734   */\n              tag_360\n                /* \"#utility.yul\":18730:18733   */\n              dup3\n                /* \"#utility.yul\":18641:18734   */\n              tag_164\n              jump\t// in\n            tag_360:\n                /* \"#utility.yul\":18759:18761   */\n              0x40\n                /* \"#utility.yul\":18754:18757   */\n              dup3\n                /* \"#utility.yul\":18750:18762   */\n              add\n                /* \"#utility.yul\":18743:18762   */\n              swap1\n              pop\n                /* \"#utility.yul\":18402:18768   */\n              swap2\n              swap1\n              pop\n              jump\t// out\n                /* \"#utility.yul\":18774:19193   */\n            tag_105:\n                /* \"#utility.yul\":18940:18944   */\n              0x00\n                /* \"#utility.yul\":18978:18980   */\n              0x20\n                /* \"#utility.yul\":18967:18976   */\n              dup3\n                /* \"#utility.yul\":18963:18981   */\n              add\n                /* \"#utility.yul\":18955:18981   */\n              swap1\n              pop\n                /* \"#utility.yul\":19027:19036   */\n              dup2\n                /* \"#utility.yul\":19021:19025   */\n              dup2\n                /* \"#utility.yul\":19017:19037   */\n              sub\n                /* \"#utility.yul\":19013:19014   */\n              0x00\n                /* \"#utility.yul\":19002:19011   */\n              dup4\n                /* \"#utility.yul\":18998:19015   */\n              add\n                /* \"#utility.yul\":18991:19038   */\n              mstore\n                /* \"#utility.yul\":19055:19186   */\n              tag_362\n                /* \"#utility.yul\":19181:19185   */\n              dup2\n                /* \"#utility.yul\":19055:19186   */\n              tag_165\n              jump\t// in\n            tag_362:\n                /* \"#utility.yul\":19047:19186   */\n              swap1\n              pop\n                /* \"#utility.yul\":18774:19193   */\n              swap2\n              swap1\n              pop\n              jump\t// out\n                /* \"#utility.yul\":19199:19432   */\n            tag_166:\n                /* \"#utility.yul\":19339:19373   */\n              0x596f75206861766520616c726561647920766f74656420746f20617070726f76\n                /* \"#utility.yul\":19335:19336   */\n              0x00\n                /* \"#utility.yul\":19327:19333   */\n              dup3\n                /* \"#utility.yul\":19323:19337   */\n              add\n                /* \"#utility.yul\":19316:19374   */\n              mstore\n                /* \"#utility.yul\":19408:19424   */\n              0x6520746869732072657175657374000000000000000000000000000000000000\n                /* \"#utility.yul\":19403:19405   */\n              0x20\n                /* \"#utility.yul\":19395:19401   */\n              dup3\n                /* \"#utility.yul\":19391:19406   */\n              add\n                /* \"#utility.yul\":19384:19425   */\n              mstore\n                /* \"#utility.yul\":19199:19432   */\n              pop\n              jump\t// out\n                /* \"#utility.yul\":19438:19804   */\n            tag_167:\n                /* \"#utility.yul\":19580:19583   */\n              0x00\n                /* \"#utility.yul\":19601:19668   */\n              tag_365\n                /* \"#utility.yul\":19665:19667   */\n              0x2e\n                /* \"#utility.yul\":19660:19663   */\n              dup4\n                /* \"#utility.yul\":19601:19668   */\n              tag_117\n              jump\t// in\n            tag_365:\n                /* \"#utility.yul\":19594:19668   */\n              swap2\n              pop\n                /* \"#utility.yul\":19677:19770   */\n              tag_366\n                /* \"#utility.yul\":19766:19769   */\n              dup3\n                /* \"#utility.yul\":19677:19770   */\n              tag_166\n              jump\t// in\n            tag_366:\n                /* \"#utility.yul\":19795:19797   */\n              0x40\n                /* \"#utility.yul\":19790:19793   */\n              dup3\n                /* \"#utility.yul\":19786:19798   */\n              add\n                /* \"#utility.yul\":19779:19798   */\n              swap1\n              pop\n                /* \"#utility.yul\":19438:19804   */\n              swap2\n              swap1\n              pop\n              jump\t// out\n                /* \"#utility.yul\":19810:20229   */\n            tag_108:\n                /* \"#utility.yul\":19976:19980   */\n              0x00\n                /* \"#utility.yul\":20014:20016   */\n              0x20\n                /* \"#utility.yul\":20003:20012   */\n              dup3\n                /* \"#utility.yul\":19999:20017   */\n              add\n                /* \"#utility.yul\":19991:20017   */\n              swap1\n              pop\n                /* \"#utility.yul\":20063:20072   */\n              dup2\n                /* \"#utility.yul\":20057:20061   */\n              dup2\n                /* \"#utility.yul\":20053:20073   */\n              sub\n                /* \"#utility.yul\":20049:20050   */\n              0x00\n                /* \"#utility.yul\":20038:20047   */\n              dup4\n                /* \"#utility.yul\":20034:20051   */\n              add\n                /* \"#utility.yul\":20027:20074   */\n              mstore\n                /* \"#utility.yul\":20091:20222   */\n              tag_368\n                /* \"#utility.yul\":20217:20221   */\n              dup2\n                /* \"#utility.yul\":20091:20222   */\n              tag_167\n              jump\t// in\n            tag_368:\n                /* \"#utility.yul\":20083:20222   */\n              swap1\n              pop\n                /* \"#utility.yul\":19810:20229   */\n              swap2\n              swap1\n              pop\n              jump\t// out\n\n            auxdata: 0xa26469706673582212208e77522e5bb4f725d0df5cbcc9804f5bbc897a2950b6bc66fd96eb29f67cb33564736f6c63430008170033\n        }\n    }\n\n    auxdata: 0xa26469706673582212204cbd195448a8912096ce47fcceb63c403004febc0e8b7c2858d7976fa6f43b7364736f6c63430008170033\n}\n",
    "bytecode": {
      "linkReferences": {},
      "object": "608060405234801561000f575f80fd5b50611a958061001d5f395ff3fe608060405234801561000f575f80fd5b506004361061003f575f3560e01c8063216402ab14610043578063339d50a51461005f5780634acb9d4f1461008f575b5f80fd5b61005d6004803603810190610058919061024e565b6100ad565b005b6100796004803603810190610074919061024e565b610146565b60405161008691906102f3565b60405180910390f35b610097610180565b6040516100a491906103c3565b60405180910390f35b5f81336040516100bc9061020a565b6100c7929190610412565b604051809103905ff0801580156100e0573d5f803e3d5ffd5b5090505f81908060018154018082558091505060019003905f5260205f20015f9091909190916101000a81548173ffffffffffffffffffffffffffffffffffffffff021916908373ffffffffffffffffffffffffffffffffffffffff1602179055505050565b5f8181548110610154575f80fd5b905f5260205f20015f915054906101000a900473ffffffffffffffffffffffffffffffffffffffff1681565b60605f80548060200260200160405190810160405280929190818152602001828054801561020057602002820191905f5260205f20905b815f9054906101000a900473ffffffffffffffffffffffffffffffffffffffff1673ffffffffffffffffffffffffffffffffffffffff16815260200190600101908083116101b7575b5050505050905090565b6116268061043a83390190565b5f80fd5b5f819050919050565b61022d8161021b565b8114610237575f80fd5b50565b5f8135905061024881610224565b92915050565b5f6020828403121561026357610262610217565b5b5f6102708482850161023a565b91505092915050565b5f73ffffffffffffffffffffffffffffffffffffffff82169050919050565b5f819050919050565b5f6102bb6102b66102b184610279565b610298565b610279565b9050919050565b5f6102cc826102a1565b9050919050565b5f6102dd826102c2565b9050919050565b6102ed816102d3565b82525050565b5f6020820190506103065f8301846102e4565b92915050565b5f81519050919050565b5f82825260208201905092915050565b5f819050602082019050919050565b61033e816102d3565b82525050565b5f61034f8383610335565b60208301905092915050565b5f602082019050919050565b5f6103718261030c565b61037b8185610316565b935061038683610326565b805f5b838110156103b657815161039d8882610344565b97506103a88361035b565b925050600181019050610389565b5085935050505092915050565b5f6020820190508181035f8301526103db8184610367565b905092915050565b6103ec8161021b565b82525050565b5f6103fc82610279565b9050919050565b61040c816103f2565b82525050565b5f6040820190506104255f8301856103e3565b6104326020830184610403565b939250505056fe608060405234801562000010575f80fd5b506040516200162638038062001626833981810160405281019062000036919062000121565b805f806101000a81548173ffffffffffffffffffffffffffffffffffffffff021916908373ffffffffffffffffffffffffffffffffffffffff16021790555081600181905550505062000166565b5f80fd5b5f819050919050565b6200009c8162000088565b8114620000a7575f80fd5b50565b5f81519050620000ba8162000091565b92915050565b5f73ffffffffffffffffffffffffffffffffffffffff82169050919050565b5f620000eb82620000c0565b9050919050565b620000fd81620000df565b811462000108575f80fd5b50565b5f815190506200011b81620000f2565b92915050565b5f80604083850312156200013a576200013962000084565b5b5f6200014985828601620000aa565b92505060206200015c858286016200010b565b9150509250929050565b6114b280620001745f395ff3fe60806040526004361061009b575f3560e01c8063481c6a7511610063578063481c6a751461019b57806382fde093146101c55780638a9cfd55146101ef578063937e09b114610217578063d7bb99ba14610241578063d7d1bbdb1461024b5761009b565b806302e9d43b1461009f57806303441006146100df5780633410452a1461010757806334b66460146101315780634051ddac1461016d575b5f80fd5b3480156100aa575f80fd5b506100c560048036038101906100c09190610990565b610273565b6040516100d6959493929190610aad565b60405180910390f35b3480156100ea575f80fd5b5061010560048036038101906101009190610990565b610357565b005b348015610112575f80fd5b5061011b61052a565b6040516101289190610b05565b60405180910390f35b34801561013c575f80fd5b5061015760048036038101906101529190610b48565b610533565b6040516101649190610b73565b60405180910390f35b348015610178575f80fd5b50610181610550565b604051610192959493929190610b8c565b60405180910390f35b3480156101a6575f80fd5b506101af610590565b6040516101bc9190610bdd565b60405180910390f35b3480156101d0575f80fd5b506101d96105b3565b6040516101e69190610b05565b60405180910390f35b3480156101fa575f80fd5b5061021560048036038101906102109190610d22565b6105b9565b005b348015610222575f80fd5b5061022b6106f6565b6040516102389190610b05565b60405180910390f35b6102496106fc565b005b348015610256575f80fd5b50610271600480360381019061026c9190610990565b6107af565b005b6005602052805f5260405f205f91509050805f01805461029290610dbb565b80601f01602080910402602001604051908101604052809291908181526020018280546102be90610dbb565b80156103095780601f106102e057610100808354040283529160200191610309565b820191905f5260205f20905b8154815290600101906020018083116102ec57829003601f168201915b505050505090806001015490806002015f9054906101000a900473ffffffffffffffffffffffffffffffffffffffff16908060020160149054906101000a900460ff16908060030154905085565b5f8054906101000a900473ffffffffffffffffffffffffffffffffffffffff1673ffffffffffffffffffffffffffffffffffffffff163373ffffffffffffffffffffffffffffffffffffffff16146103e4576040517f08c379a00000000000000000000000000000000000000000000000000000000081526004016103db90610e5b565b60405180910390fd5b5f60055f8381526020019081526020015f20905060026003546104079190610ed3565b81600301541161044c576040517f08c379a000000000000000000000000000000000000000000000000000000000815260040161044390610f73565b60405180910390fd5b8060020160149054906101000a900460ff161561049e576040517f08c379a000000000000000000000000000000000000000000000000000000000815260040161049590611001565b60405180910390fd5b806002015f9054906101000a900473ffffffffffffffffffffffffffffffffffffffff1673ffffffffffffffffffffffffffffffffffffffff166108fc826001015490811502906040515f60405180830381858888f19350505050158015610508573d5f803e3d5ffd5b5060018160020160146101000a81548160ff0219169083151502179055505050565b5f600454905090565b6002602052805f5260405f205f915054906101000a900460ff1681565b5f805f805f600154476004546003545f8054906101000a900473ffffffffffffffffffffffffffffffffffffffff16945094509450945094509091929394565b5f8054906101000a900473ffffffffffffffffffffffffffffffffffffffff1681565b60035481565b5f8054906101000a900473ffffffffffffffffffffffffffffffffffffffff1673ffffffffffffffffffffffffffffffffffffffff163373ffffffffffffffffffffffffffffffffffffffff1614610646576040517f08c379a000000000000000000000000000000000000000000000000000000000815260040161063d90610e5b565b60405180910390fd5b5f60055f60045f81548092919061065c9061101f565b9190505581526020019081526020015f20905083815f01908161067f9190611203565b5082816001018190555081816002015f6101000a81548173ffffffffffffffffffffffffffffffffffffffff021916908373ffffffffffffffffffffffffffffffffffffffff1602179055505f8160020160146101000a81548160ff0219169083151502179055505f816003018190555050505050565b60015481565b600154341015610741576040517f08c379a000000000000000000000000000000000000000000000000000000000815260040161073890611342565b60405180910390fd5b600160025f3373ffffffffffffffffffffffffffffffffffffffff1673ffffffffffffffffffffffffffffffffffffffff1681526020019081526020015f205f6101000a81548160ff02191690831515021790555060035f8154809291906107a89061101f565b9190505550565b5f60055f8381526020019081526020015f20905060025f3373ffffffffffffffffffffffffffffffffffffffff1673ffffffffffffffffffffffffffffffffffffffff1681526020019081526020015f205f9054906101000a900460ff1661084c576040517f08c379a0000000000000000000000000000000000000000000000000000000008152600401610843906113d0565b60405180910390fd5b806004015f3373ffffffffffffffffffffffffffffffffffffffff1673ffffffffffffffffffffffffffffffffffffffff1681526020019081526020015f205f9054906101000a900460ff16156108d8576040517f08c379a00000000000000000000000000000000000000000000000000000000081526004016108cf9061145e565b60405180910390fd5b6001816004015f3373ffffffffffffffffffffffffffffffffffffffff1673ffffffffffffffffffffffffffffffffffffffff1681526020019081526020015f205f6101000a81548160ff021916908315150217905550806003015f8154809291906109439061101f565b91905055505050565b5f604051905090565b5f80fd5b5f80fd5b5f819050919050565b61096f8161095d565b8114610979575f80fd5b50565b5f8135905061098a81610966565b92915050565b5f602082840312156109a5576109a4610955565b5b5f6109b28482850161097c565b91505092915050565b5f81519050919050565b5f82825260208201905092915050565b5f5b838110156109f25780820151818401526020810190506109d7565b5f8484015250505050565b5f601f19601f8301169050919050565b5f610a17826109bb565b610a2181856109c5565b9350610a318185602086016109d5565b610a3a816109fd565b840191505092915050565b610a4e8161095d565b82525050565b5f73ffffffffffffffffffffffffffffffffffffffff82169050919050565b5f610a7d82610a54565b9050919050565b610a8d81610a73565b82525050565b5f8115159050919050565b610aa781610a93565b82525050565b5f60a0820190508181035f830152610ac58188610a0d565b9050610ad46020830187610a45565b610ae16040830186610a84565b610aee6060830185610a9e565b610afb6080830184610a45565b9695505050505050565b5f602082019050610b185f830184610a45565b92915050565b610b2781610a73565b8114610b31575f80fd5b50565b5f81359050610b4281610b1e565b92915050565b5f60208284031215610b5d57610b5c610955565b5b5f610b6a84828501610b34565b91505092915050565b5f602082019050610b865f830184610a9e565b92915050565b5f60a082019050610b9f5f830188610a45565b610bac6020830187610a45565b610bb96040830186610a45565b610bc66060830185610a45565b610bd36080830184610a84565b9695505050505050565b5f602082019050610bf05f830184610a84565b92915050565b5f80fd5b5f80fd5b7f4e487b71000000000000000000000000000000000000000000000000000000005f52604160045260245ffd5b610c34826109fd565b810181811067ffffffffffffffff82111715610c5357610c52610bfe565b5b80604052505050565b5f610c6561094c565b9050610c718282610c2b565b919050565b5f67ffffffffffffffff821115610c9057610c8f610bfe565b5b610c99826109fd565b9050602081019050919050565b828183375f83830152505050565b5f610cc6610cc184610c76565b610c5c565b905082815260208101848484011115610ce257610ce1610bfa565b5b610ced848285610ca6565b509392505050565b5f82601f830112610d0957610d08610bf6565b5b8135610d19848260208601610cb4565b91505092915050565b5f805f60608486031215610d3957610d38610955565b5b5f84013567ffffffffffffffff811115610d5657610d55610959565b5b610d6286828701610cf5565b9350506020610d738682870161097c565b9250506040610d8486828701610b34565b9150509250925092565b7f4e487b71000000000000000000000000000000000000000000000000000000005f52602260045260245ffd5b5f6002820490506001821680610dd257607f821691505b602082108103610de557610de4610d8e565b5b50919050565b7f4f6e6c79207468652063616d706169676e206d616e616765722063616e2063615f8201527f6c6c20746869732066756e6374696f6e2e000000000000000000000000000000602082015250565b5f610e456031836109c5565b9150610e5082610deb565b604082019050919050565b5f6020820190508181035f830152610e7281610e39565b9050919050565b7f4e487b71000000000000000000000000000000000000000000000000000000005f52601260045260245ffd5b7f4e487b71000000000000000000000000000000000000000000000000000000005f52601160045260245ffd5b5f610edd8261095d565b9150610ee88361095d565b925082610ef857610ef7610e79565b5b828204905092915050565b7f546869732072657175657374206e65656473206d6f726520617070726f76616c5f8201527f73206265666f72652069742063616e2062652066696e616c697a656400000000602082015250565b5f610f5d603c836109c5565b9150610f6882610f03565b604082019050919050565b5f6020820190508181035f830152610f8a81610f51565b9050919050565b7f5468697320726571756573742068617320616c7265616479206265656e2066695f8201527f6e616c697a656400000000000000000000000000000000000000000000000000602082015250565b5f610feb6027836109c5565b9150610ff682610f91565b604082019050919050565b5f6020820190508181035f83015261101881610fdf565b9050919050565b5f6110298261095d565b91507fffffffffffffffffffffffffffffffffffffffffffffffffffffffffffffffff820361105b5761105a610ea6565b5b600182019050919050565b5f819050815f5260205f209050919050565b5f6020601f8301049050919050565b5f82821b905092915050565b5f600883026110c27fffffffffffffffffffffffffffffffffffffffffffffffffffffffffffffffff82611087565b6110cc8683611087565b95508019841693508086168417925050509392505050565b5f819050919050565b5f6111076111026110fd8461095d565b6110e4565b61095d565b9050919050565b5f819050919050565b611120836110ed565b61113461112c8261110e565b848454611093565b825550505050565b5f90565b61114861113c565b611153818484611117565b505050565b5b818110156111765761116b5f82611140565b600181019050611159565b5050565b601f8211156111bb5761118c81611066565b61119584611078565b810160208510156111a4578190505b6111b86111b085611078565b830182611158565b50505b505050565b5f82821c905092915050565b5f6111db5f19846008026111c0565b1980831691505092915050565b5f6111f383836111cc565b9150826002028217905092915050565b61120c826109bb565b67ffffffffffffffff81111561122557611224610bfe565b5b61122f8254610dbb565b61123a82828561117a565b5f60209050601f83116001811461126b575f8415611259578287015190505b61126385826111e8565b8655506112ca565b601f19841661127986611066565b5f5b828110156112a05784890151825560018201915060208501945060208101905061127b565b868310156112bd57848901516112b9601f8916826111cc565b8355505b6001600288020188555050505b505050505050565b7f41206d696e696d756d20636f6e747269627574696f6e206973207265717569725f8201527f6564000000000000000000000000000000000000000000000000000000000000602082015250565b5f61132c6022836109c5565b9150611337826112d2565b604082019050919050565b5f6020820190508181035f83015261135981611320565b9050919050565b7f4f6e6c7920636f6e7472696275746f72732063616e20617070726f76652061205f8201527f7370656369666963207061796d656e7420726571756573740000000000000000602082015250565b5f6113ba6038836109c5565b91506113c582611360565b604082019050919050565b5f6020820190508181035f8301526113e7816113ae565b9050919050565b7f596f75206861766520616c726561647920766f74656420746f20617070726f765f8201527f6520746869732072657175657374000000000000000000000000000000000000602082015250565b5f611448602e836109c5565b9150611453826113ee565b604082019050919050565b5f6020820190508181035f8301526114758161143c565b905091905056fea26469706673582212208e77522e5bb4f725d0df5cbcc9804f5bbc897a2950b6bc66fd96eb29f67cb33564736f6c63430008170033a26469706673582212204cbd195448a8912096ce47fcceb63c403004febc0e8b7c2858d7976fa6f43b7364736f6c63430008170033",
      "opcodes": "PUSH1 0x80 PUSH1 0x40 MSTORE CALLVALUE DUP1 ISZERO PUSH2 0xF JUMPI PUSH0 DUP1 REVERT JUMPDEST POP PUSH2 0x1A95 DUP1 PUSH2 0x1D PUSH0 CODECOPY PUSH0 RETURN INVALID PUSH1 0x80 PUSH1 0x40 MSTORE CALLVALUE DUP1 ISZERO PUSH2 0xF JUMPI PUSH0 DUP1 REVERT JUMPDEST POP PUSH1 0x4 CALLDATASIZE LT PUSH2 0x3F JUMPI PUSH0 CALLDATALOAD PUSH1 0xE0 SHR DUP1 PUSH4 0x216402AB EQ PUSH2 0x43 JUMPI DUP1 PUSH4 0x339D50A5 EQ PUSH2 0x5F JUMPI DUP1 PUSH4 0x4ACB9D4F EQ PUSH2 0x8F JUMPI JUMPDEST PUSH0 DUP1 REVERT JUMPDEST PUSH2 0x5D PUSH1 0x4 DUP1 CALLDATASIZE SUB DUP2 ADD SWAP1 PUSH2 0x58 SWAP2 SWAP1 PUSH2 0x24E JUMP JUMPDEST PUSH2 0xAD JUMP JUMPDEST STOP JUMPDEST PUSH2 0x79 PUSH1 0x4 DUP1 CALLDATASIZE SUB DUP2 ADD SWAP1 PUSH2 0x74 SWAP2 SWAP1 PUSH2 0x24E JUMP JUMPDEST PUSH2 0x146 JUMP JUMPDEST PUSH1 0x40 MLOAD PUSH2 0x86 SWAP2 SWAP1 PUSH2 0x2F3 JUMP JUMPDEST PUSH1 0x40 MLOAD DUP1 SWAP2 SUB SWAP1 RETURN JUMPDEST PUSH2 0x97 PUSH2 0x180 JUMP JUMPDEST PUSH1 0x40 MLOAD PUSH2 0xA4 SWAP2 SWAP1 PUSH2 0x3C3 JUMP JUMPDEST PUSH1 0x40 MLOAD DUP1 SWAP2 SUB SWAP1 RETURN JUMPDEST PUSH0 DUP2 CALLER PUSH1 0x40 MLOAD PUSH2 0xBC SWAP1 PUSH2 0x20A JUMP JUMPDEST PUSH2 0xC7 SWAP3 SWAP2 SWAP1 PUSH2 0x412 JUMP JUMPDEST PUSH1 0x40 MLOAD DUP1 SWAP2 SUB SWAP1 PUSH0 CREATE DUP1 ISZERO DUP1 ISZERO PUSH2 0xE0 JUMPI RETURNDATASIZE PUSH0 DUP1 RETURNDATACOPY RETURNDATASIZE PUSH0 REVERT JUMPDEST POP SWAP1 POP PUSH0 DUP2 SWAP1 DUP1 PUSH1 0x1 DUP2 SLOAD ADD DUP1 DUP3 SSTORE DUP1 SWAP2 POP POP PUSH1 0x1 SWAP1 SUB SWAP1 PUSH0 MSTORE PUSH1 0x20 PUSH0 KECCAK256 ADD PUSH0 SWAP1 SWAP2 SWAP1 SWAP2 SWAP1 SWAP2 PUSH2 0x100 EXP DUP2 SLOAD DUP2 PUSH20 0xFFFFFFFFFFFFFFFFFFFFFFFFFFFFFFFFFFFFFFFF MUL NOT AND SWAP1 DUP4 PUSH20 0xFFFFFFFFFFFFFFFFFFFFFFFFFFFFFFFFFFFFFFFF AND MUL OR SWAP1 SSTORE POP POP POP JUMP JUMPDEST PUSH0 DUP2 DUP2 SLOAD DUP2 LT PUSH2 0x154 JUMPI PUSH0 DUP1 REVERT JUMPDEST SWAP1 PUSH0 MSTORE PUSH1 0x20 PUSH0 KECCAK256 ADD PUSH0 SWAP2 POP SLOAD SWAP1 PUSH2 0x100 EXP SWAP1 DIV PUSH20 0xFFFFFFFFFFFFFFFFFFFFFFFFFFFFFFFFFFFFFFFF AND DUP2 JUMP JUMPDEST PUSH1 0x60 PUSH0 DUP1 SLOAD DUP1 PUSH1 0x20 MUL PUSH1 0x20 ADD PUSH1 0x40 MLOAD SWAP1 DUP2 ADD PUSH1 0x40 MSTORE DUP1 SWAP3 SWAP2 SWAP1 DUP2 DUP2 MSTORE PUSH1 0x20 ADD DUP3 DUP1 SLOAD DUP1 ISZERO PUSH2 0x200 JUMPI PUSH1 0x20 MUL DUP3 ADD SWAP2 SWAP1 PUSH0 MSTORE PUSH1 0x20 PUSH0 KECCAK256 SWAP1 JUMPDEST DUP2 PUSH0 SWAP1 SLOAD SWAP1 PUSH2 0x100 EXP SWAP1 DIV PUSH20 0xFFFFFFFFFFFFFFFFFFFFFFFFFFFFFFFFFFFFFFFF AND PUSH20 0xFFFFFFFFFFFFFFFFFFFFFFFFFFFFFFFFFFFFFFFF AND DUP2 MSTORE PUSH1 0x20 ADD SWAP1 PUSH1 0x1 ADD SWAP1 DUP1 DUP4 GT PUSH2 0x1B7 JUMPI JUMPDEST POP POP POP POP POP SWAP1 POP SWAP1 JUMP JUMPDEST PUSH2 0x1626 DUP1 PUSH2 0x43A DUP4 CODECOPY ADD SWAP1 JUMP JUMPDEST PUSH0 DUP1 REVERT JUMPDEST PUSH0 DUP2 SWAP1 POP SWAP2 SWAP1 POP JUMP JUMPDEST PUSH2 0x22D DUP2 PUSH2 0x21B JUMP JUMPDEST DUP2 EQ PUSH2 0x237 JUMPI PUSH0 DUP1 REVERT JUMPDEST POP JUMP JUMPDEST PUSH0 DUP2 CALLDATALOAD SWAP1 POP PUSH2 0x248 DUP2 PUSH2 0x224 JUMP JUMPDEST SWAP3 SWAP2 POP POP JUMP JUMPDEST PUSH0 PUSH1 0x20 DUP3 DUP5 SUB SLT ISZERO PUSH2 0x263 JUMPI PUSH2 0x262 PUSH2 0x217 JUMP JUMPDEST JUMPDEST PUSH0 PUSH2 0x270 DUP5 DUP3 DUP6 ADD PUSH2 0x23A JUMP JUMPDEST SWAP2 POP POP SWAP3 SWAP2 POP POP JUMP JUMPDEST PUSH0 PUSH20 0xFFFFFFFFFFFFFFFFFFFFFFFFFFFFFFFFFFFFFFFF DUP3 AND SWAP1 POP SWAP2 SWAP1 POP JUMP JUMPDEST PUSH0 DUP2 SWAP1 POP SWAP2 SWAP1 POP JUMP JUMPDEST PUSH0 PUSH2 0x2BB PUSH2 0x2B6 PUSH2 0x2B1 DUP5 PUSH2 0x279 JUMP JUMPDEST PUSH2 0x298 JUMP JUMPDEST PUSH2 0x279 JUMP JUMPDEST SWAP1 POP SWAP2 SWAP1 POP JUMP JUMPDEST PUSH0 PUSH2 0x2CC DUP3 PUSH2 0x2A1 JUMP JUMPDEST SWAP1 POP SWAP2 SWAP1 POP JUMP JUMPDEST PUSH0 PUSH2 0x2DD DUP3 PUSH2 0x2C2 JUMP JUMPDEST SWAP1 POP SWAP2 SWAP1 POP JUMP JUMPDEST PUSH2 0x2ED DUP2 PUSH2 0x2D3 JUMP JUMPDEST DUP3 MSTORE POP POP JUMP JUMPDEST PUSH0 PUSH1 0x20 DUP3 ADD SWAP1 POP PUSH2 0x306 PUSH0 DUP4 ADD DUP5 PUSH2 0x2E4 JUMP JUMPDEST SWAP3 SWAP2 POP POP JUMP JUMPDEST PUSH0 DUP2 MLOAD SWAP1 POP SWAP2 SWAP1 POP JUMP JUMPDEST PUSH0 DUP3 DUP3 MSTORE PUSH1 0x20 DUP3 ADD SWAP1 POP SWAP3 SWAP2 POP POP JUMP JUMPDEST PUSH0 DUP2 SWAP1 POP PUSH1 0x20 DUP3 ADD SWAP1 POP SWAP2 SWAP1 POP JUMP JUMPDEST PUSH2 0x33E DUP2 PUSH2 0x2D3 JUMP JUMPDEST DUP3 MSTORE POP POP JUMP JUMPDEST PUSH0 PUSH2 0x34F DUP4 DUP4 PUSH2 0x335 JUMP JUMPDEST PUSH1 0x20 DUP4 ADD SWAP1 POP SWAP3 SWAP2 POP POP JUMP JUMPDEST PUSH0 PUSH1 0x20 DUP3 ADD SWAP1 POP SWAP2 SWAP1 POP JUMP JUMPDEST PUSH0 PUSH2 0x371 DUP3 PUSH2 0x30C JUMP JUMPDEST PUSH2 0x37B DUP2 DUP6 PUSH2 0x316 JUMP JUMPDEST SWAP4 POP PUSH2 0x386 DUP4 PUSH2 0x326 JUMP JUMPDEST DUP1 PUSH0 JUMPDEST DUP4 DUP2 LT ISZERO PUSH2 0x3B6 JUMPI DUP2 MLOAD PUSH2 0x39D DUP9 DUP3 PUSH2 0x344 JUMP JUMPDEST SWAP8 POP PUSH2 0x3A8 DUP4 PUSH2 0x35B JUMP JUMPDEST SWAP3 POP POP PUSH1 0x1 DUP2 ADD SWAP1 POP PUSH2 0x389 JUMP JUMPDEST POP DUP6 SWAP4 POP POP POP POP SWAP3 SWAP2 POP POP JUMP JUMPDEST PUSH0 PUSH1 0x20 DUP3 ADD SWAP1 POP DUP2 DUP2 SUB PUSH0 DUP4 ADD MSTORE PUSH2 0x3DB DUP2 DUP5 PUSH2 0x367 JUMP JUMPDEST SWAP1 POP SWAP3 SWAP2 POP POP JUMP JUMPDEST PUSH2 0x3EC DUP2 PUSH2 0x21B JUMP JUMPDEST DUP3 MSTORE POP POP JUMP JUMPDEST PUSH0 PUSH2 0x3FC DUP3 PUSH2 0x279 JUMP JUMPDEST SWAP1 POP SWAP2 SWAP1 POP JUMP JUMPDEST PUSH2 0x40C DUP2 PUSH2 0x3F2 JUMP JUMPDEST DUP3 MSTORE POP POP JUMP JUMPDEST PUSH0 PUSH1 0x40 DUP3 ADD SWAP1 POP PUSH2 0x425 PUSH0 DUP4 ADD DUP6 PUSH2 0x3E3 JUMP JUMPDEST PUSH2 0x432 PUSH1 0x20 DUP4 ADD DUP5 PUSH2 0x403 JUMP JUMPDEST SWAP4 SWAP3 POP POP POP JUMP INVALID PUSH1 0x80 PUSH1 0x40 MSTORE CALLVALUE DUP1 ISZERO PUSH3 0x10 JUMPI PUSH0 DUP1 REVERT JUMPDEST POP PUSH1 0x40 MLOAD PUSH3 0x1626 CODESIZE SUB DUP1 PUSH3 0x1626 DUP4 CODECOPY DUP2 DUP2 ADD PUSH1 0x40 MSTORE DUP2 ADD SWAP1 PUSH3 0x36 SWAP2 SWAP1 PUSH3 0x121 JUMP JUMPDEST DUP1 PUSH0 DUP1 PUSH2 0x100 EXP DUP2 SLOAD DUP2 PUSH20 0xFFFFFFFFFFFFFFFFFFFFFFFFFFFFFFFFFFFFFFFF MUL NOT AND SWAP1 DUP4 PUSH20 0xFFFFFFFFFFFFFFFFFFFFFFFFFFFFFFFFFFFFFFFF AND MUL OR SWAP1 SSTORE POP DUP2 PUSH1 0x1 DUP2 SWAP1 SSTORE POP POP POP PUSH3 0x166 JUMP JUMPDEST PUSH0 DUP1 REVERT JUMPDEST PUSH0 DUP2 SWAP1 POP SWAP2 SWAP1 POP JUMP JUMPDEST PUSH3 0x9C DUP2 PUSH3 0x88 JUMP JUMPDEST DUP2 EQ PUSH3 0xA7 JUMPI PUSH0 DUP1 REVERT JUMPDEST POP JUMP JUMPDEST PUSH0 DUP2 MLOAD SWAP1 POP PUSH3 0xBA DUP2 PUSH3 0x91 JUMP JUMPDEST SWAP3 SWAP2 POP POP JUMP JUMPDEST PUSH0 PUSH20 0xFFFFFFFFFFFFFFFFFFFFFFFFFFFFFFFFFFFFFFFF DUP3 AND SWAP1 POP SWAP2 SWAP1 POP JUMP JUMPDEST PUSH0 PUSH3 0xEB DUP3 PUSH3 0xC0 JUMP JUMPDEST SWAP1 POP SWAP2 SWAP1 POP JUMP JUMPDEST PUSH3 0xFD DUP2 PUSH3 0xDF JUMP JUMPDEST DUP2 EQ PUSH3 0x108 JUMPI PUSH0 DUP1 REVERT JUMPDEST POP JUMP JUMPDEST PUSH0 DUP2 MLOAD SWAP1 POP PUSH3 0x11B DUP2 PUSH3 0xF2 JUMP JUMPDEST SWAP3 SWAP2 POP POP JUMP JUMPDEST PUSH0 DUP1 PUSH1 0x40 DUP4 DUP6 SUB SLT ISZERO PUSH3 0x13A JUMPI PUSH3 0x139 PUSH3 0x84 JUMP JUMPDEST JUMPDEST PUSH0 PUSH3 0x149 DUP6 DUP3 DUP7 ADD PUSH3 0xAA JUMP JUMPDEST SWAP3 POP POP PUSH1 0x20 PUSH3 0x15C DUP6 DUP3 DUP7 ADD PUSH3 0x10B JUMP JUMPDEST SWAP2 POP POP SWAP3 POP SWAP3 SWAP1 POP JUMP JUMPDEST PUSH2 0x14B2 DUP1 PUSH3 0x174 PUSH0 CODECOPY PUSH0 RETURN INVALID PUSH1 0x80 PUSH1 0x40 MSTORE PUSH1 0x4 CALLDATASIZE LT PUSH2 0x9B JUMPI PUSH0 CALLDATALOAD PUSH1 0xE0 SHR DUP1 PUSH4 0x481C6A75 GT PUSH2 0x63 JUMPI DUP1 PUSH4 0x481C6A75 EQ PUSH2 0x19B JUMPI DUP1 PUSH4 0x82FDE093 EQ PUSH2 0x1C5 JUMPI DUP1 PUSH4 0x8A9CFD55 EQ PUSH2 0x1EF JUMPI DUP1 PUSH4 0x937E09B1 EQ PUSH2 0x217 JUMPI DUP1 PUSH4 0xD7BB99BA EQ PUSH2 0x241 JUMPI DUP1 PUSH4 0xD7D1BBDB EQ PUSH2 0x24B JUMPI PUSH2 0x9B JUMP JUMPDEST DUP1 PUSH4 0x2E9D43B EQ PUSH2 0x9F JUMPI DUP1 PUSH4 0x3441006 EQ PUSH2 0xDF JUMPI DUP1 PUSH4 0x3410452A EQ PUSH2 0x107 JUMPI DUP1 PUSH4 0x34B66460 EQ PUSH2 0x131 JUMPI DUP1 PUSH4 0x4051DDAC EQ PUSH2 0x16D JUMPI JUMPDEST PUSH0 DUP1 REVERT JUMPDEST CALLVALUE DUP1 ISZERO PUSH2 0xAA JUMPI PUSH0 DUP1 REVERT JUMPDEST POP PUSH2 0xC5 PUSH1 0x4 DUP1 CALLDATASIZE SUB DUP2 ADD SWAP1 PUSH2 0xC0 SWAP2 SWAP1 PUSH2 0x990 JUMP JUMPDEST PUSH2 0x273 JUMP JUMPDEST PUSH1 0x40 MLOAD PUSH2 0xD6 SWAP6 SWAP5 SWAP4 SWAP3 SWAP2 SWAP1 PUSH2 0xAAD JUMP JUMPDEST PUSH1 0x40 MLOAD DUP1 SWAP2 SUB SWAP1 RETURN JUMPDEST CALLVALUE DUP1 ISZERO PUSH2 0xEA JUMPI PUSH0 DUP1 REVERT JUMPDEST POP PUSH2 0x105 PUSH1 0x4 DUP1 CALLDATASIZE SUB DUP2 ADD SWAP1 PUSH2 0x100 SWAP2 SWAP1 PUSH2 0x990 JUMP JUMPDEST PUSH2 0x357 JUMP JUMPDEST STOP JUMPDEST CALLVALUE DUP1 ISZERO PUSH2 0x112 JUMPI PUSH0 DUP1 REVERT JUMPDEST POP PUSH2 0x11B PUSH2 0x52A JUMP JUMPDEST PUSH1 0x40 MLOAD PUSH2 0x128 SWAP2 SWAP1 PUSH2 0xB05 JUMP JUMPDEST PUSH1 0x40 MLOAD DUP1 SWAP2 SUB SWAP1 RETURN JUMPDEST CALLVALUE DUP1 ISZERO PUSH2 0x13C JUMPI PUSH0 DUP1 REVERT JUMPDEST POP PUSH2 0x157 PUSH1 0x4 DUP1 CALLDATASIZE SUB DUP2 ADD SWAP1 PUSH2 0x152 SWAP2 SWAP1 PUSH2 0xB48 JUMP JUMPDEST PUSH2 0x533 JUMP JUMPDEST PUSH1 0x40 MLOAD PUSH2 0x164 SWAP2 SWAP1 PUSH2 0xB73 JUMP JUMPDEST PUSH1 0x40 MLOAD DUP1 SWAP2 SUB SWAP1 RETURN JUMPDEST CALLVALUE DUP1 ISZERO PUSH2 0x178 JUMPI PUSH0 DUP1 REVERT JUMPDEST POP PUSH2 0x181 PUSH2 0x550 JUMP JUMPDEST PUSH1 0x40 MLOAD PUSH2 0x192 SWAP6 SWAP5 SWAP4 SWAP3 SWAP2 SWAP1 PUSH2 0xB8C JUMP JUMPDEST PUSH1 0x40 MLOAD DUP1 SWAP2 SUB SWAP1 RETURN JUMPDEST CALLVALUE DUP1 ISZERO PUSH2 0x1A6 JUMPI PUSH0 DUP1 REVERT JUMPDEST POP PUSH2 0x1AF PUSH2 0x590 JUMP JUMPDEST PUSH1 0x40 MLOAD PUSH2 0x1BC SWAP2 SWAP1 PUSH2 0xBDD JUMP JUMPDEST PUSH1 0x40 MLOAD DUP1 SWAP2 SUB SWAP1 RETURN JUMPDEST CALLVALUE DUP1 ISZERO PUSH2 0x1D0 JUMPI PUSH0 DUP1 REVERT JUMPDEST POP PUSH2 0x1D9 PUSH2 0x5B3 JUMP JUMPDEST PUSH1 0x40 MLOAD PUSH2 0x1E6 SWAP2 SWAP1 PUSH2 0xB05 JUMP JUMPDEST PUSH1 0x40 MLOAD DUP1 SWAP2 SUB SWAP1 RETURN JUMPDEST CALLVALUE DUP1 ISZERO PUSH2 0x1FA JUMPI PUSH0 DUP1 REVERT JUMPDEST POP PUSH2 0x215 PUSH1 0x4 DUP1 CALLDATASIZE SUB DUP2 ADD SWAP1 PUSH2 0x210 SWAP2 SWAP1 PUSH2 0xD22 JUMP JUMPDEST PUSH2 0x5B9 JUMP JUMPDEST STOP JUMPDEST CALLVALUE DUP1 ISZERO PUSH2 0x222 JUMPI PUSH0 DUP1 REVERT JUMPDEST POP PUSH2 0x22B PUSH2 0x6F6 JUMP JUMPDEST PUSH1 0x40 MLOAD PUSH2 0x238 SWAP2 SWAP1 PUSH2 0xB05 JUMP JUMPDEST PUSH1 0x40 MLOAD DUP1 SWAP2 SUB SWAP1 RETURN JUMPDEST PUSH2 0x249 PUSH2 0x6FC JUMP JUMPDEST STOP JUMPDEST CALLVALUE DUP1 ISZERO PUSH2 0x256 JUMPI PUSH0 DUP1 REVERT JUMPDEST POP PUSH2 0x271 PUSH1 0x4 DUP1 CALLDATASIZE SUB DUP2 ADD SWAP1 PUSH2 0x26C SWAP2 SWAP1 PUSH2 0x990 JUMP JUMPDEST PUSH2 0x7AF JUMP JUMPDEST STOP JUMPDEST PUSH1 0x5 PUSH1 0x20 MSTORE DUP1 PUSH0 MSTORE PUSH1 0x40 PUSH0 KECCAK256 PUSH0 SWAP2 POP SWAP1 POP DUP1 PUSH0 ADD DUP1 SLOAD PUSH2 0x292 SWAP1 PUSH2 0xDBB JUMP JUMPDEST DUP1 PUSH1 0x1F ADD PUSH1 0x20 DUP1 SWAP2 DIV MUL PUSH1 0x20 ADD PUSH1 0x40 MLOAD SWAP1 DUP2 ADD PUSH1 0x40 MSTORE DUP1 SWAP3 SWAP2 SWAP1 DUP2 DUP2 MSTORE PUSH1 0x20 ADD DUP3 DUP1 SLOAD PUSH2 0x2BE SWAP1 PUSH2 0xDBB JUMP JUMPDEST DUP1 ISZERO PUSH2 0x309 JUMPI DUP1 PUSH1 0x1F LT PUSH2 0x2E0 JUMPI PUSH2 0x100 DUP1 DUP4 SLOAD DIV MUL DUP4 MSTORE SWAP2 PUSH1 0x20 ADD SWAP2 PUSH2 0x309 JUMP JUMPDEST DUP3 ADD SWAP2 SWAP1 PUSH0 MSTORE PUSH1 0x20 PUSH0 KECCAK256 SWAP1 JUMPDEST DUP2 SLOAD DUP2 MSTORE SWAP1 PUSH1 0x1 ADD SWAP1 PUSH1 0x20 ADD DUP1 DUP4 GT PUSH2 0x2EC JUMPI DUP3 SWAP1 SUB PUSH1 0x1F AND DUP3 ADD SWAP2 JUMPDEST POP POP POP POP POP SWAP1 DUP1 PUSH1 0x1 ADD SLOAD SWAP1 DUP1 PUSH1 0x2 ADD PUSH0 SWAP1 SLOAD SWAP1 PUSH2 0x100 EXP SWAP1 DIV PUSH20 0xFFFFFFFFFFFFFFFFFFFFFFFFFFFFFFFFFFFFFFFF AND SWAP1 DUP1 PUSH1 0x2 ADD PUSH1 0x14 SWAP1 SLOAD SWAP1 PUSH2 0x100 EXP SWAP1 DIV PUSH1 0xFF AND SWAP1 DUP1 PUSH1 0x3 ADD SLOAD SWAP1 POP DUP6 JUMP JUMPDEST PUSH0 DUP1 SLOAD SWAP1 PUSH2 0x100 EXP SWAP1 DIV PUSH20 0xFFFFFFFFFFFFFFFFFFFFFFFFFFFFFFFFFFFFFFFF AND PUSH20 0xFFFFFFFFFFFFFFFFFFFFFFFFFFFFFFFFFFFFFFFF AND CALLER PUSH20 0xFFFFFFFFFFFFFFFFFFFFFFFFFFFFFFFFFFFFFFFF AND EQ PUSH2 0x3E4 JUMPI PUSH1 0x40 MLOAD PUSH32 0x8C379A000000000000000000000000000000000000000000000000000000000 DUP2 MSTORE PUSH1 0x4 ADD PUSH2 0x3DB SWAP1 PUSH2 0xE5B JUMP JUMPDEST PUSH1 0x40 MLOAD DUP1 SWAP2 SUB SWAP1 REVERT JUMPDEST PUSH0 PUSH1 0x5 PUSH0 DUP4 DUP2 MSTORE PUSH1 0x20 ADD SWAP1 DUP2 MSTORE PUSH1 0x20 ADD PUSH0 KECCAK256 SWAP1 POP PUSH1 0x2 PUSH1 0x3 SLOAD PUSH2 0x407 SWAP2 SWAP1 PUSH2 0xED3 JUMP JUMPDEST DUP2 PUSH1 0x3 ADD SLOAD GT PUSH2 0x44C JUMPI PUSH1 0x40 MLOAD PUSH32 0x8C379A000000000000000000000000000000000000000000000000000000000 DUP2 MSTORE PUSH1 0x4 ADD PUSH2 0x443 SWAP1 PUSH2 0xF73 JUMP JUMPDEST PUSH1 0x40 MLOAD DUP1 SWAP2 SUB SWAP1 REVERT JUMPDEST DUP1 PUSH1 0x2 ADD PUSH1 0x14 SWAP1 SLOAD SWAP1 PUSH2 0x100 EXP SWAP1 DIV PUSH1 0xFF AND ISZERO PUSH2 0x49E JUMPI PUSH1 0x40 MLOAD PUSH32 0x8C379A000000000000000000000000000000000000000000000000000000000 DUP2 MSTORE PUSH1 0x4 ADD PUSH2 0x495 SWAP1 PUSH2 0x1001 JUMP JUMPDEST PUSH1 0x40 MLOAD DUP1 SWAP2 SUB SWAP1 REVERT JUMPDEST DUP1 PUSH1 0x2 ADD PUSH0 SWAP1 SLOAD SWAP1 PUSH2 0x100 EXP SWAP1 DIV PUSH20 0xFFFFFFFFFFFFFFFFFFFFFFFFFFFFFFFFFFFFFFFF AND PUSH20 0xFFFFFFFFFFFFFFFFFFFFFFFFFFFFFFFFFFFFFFFF AND PUSH2 0x8FC DUP3 PUSH1 0x1 ADD SLOAD SWAP1 DUP2 ISZERO MUL SWAP1 PUSH1 0x40 MLOAD PUSH0 PUSH1 0x40 MLOAD DUP1 DUP4 SUB DUP2 DUP6 DUP9 DUP9 CALL SWAP4 POP POP POP POP ISZERO DUP1 ISZERO PUSH2 0x508 JUMPI RETURNDATASIZE PUSH0 DUP1 RETURNDATACOPY RETURNDATASIZE PUSH0 REVERT JUMPDEST POP PUSH1 0x1 DUP2 PUSH1 0x2 ADD PUSH1 0x14 PUSH2 0x100 EXP DUP2 SLOAD DUP2 PUSH1 0xFF MUL NOT AND SWAP1 DUP4 ISZERO ISZERO MUL OR SWAP1 SSTORE POP POP POP JUMP JUMPDEST PUSH0 PUSH1 0x4 SLOAD SWAP1 POP SWAP1 JUMP JUMPDEST PUSH1 0x2 PUSH1 0x20 MSTORE DUP1 PUSH0 MSTORE PUSH1 0x40 PUSH0 KECCAK256 PUSH0 SWAP2 POP SLOAD SWAP1 PUSH2 0x100 EXP SWAP1 DIV PUSH1 0xFF AND DUP2 JUMP JUMPDEST PUSH0 DUP1 PUSH0 DUP1 PUSH0 PUSH1 0x1 SLOAD SELFBALANCE PUSH1 0x4 SLOAD PUSH1 0x3 SLOAD PUSH0 DUP1 SLOAD SWAP1 PUSH2 0x100 EXP SWAP1 DIV PUSH20 0xFFFFFFFFFFFFFFFFFFFFFFFFFFFFFFFFFFFFFFFF AND SWAP5 POP SWAP5 POP SWAP5 POP SWAP5 POP SWAP5 POP SWAP1 SWAP2 SWAP3 SWAP4 SWAP5 JUMP JUMPDEST PUSH0 DUP1 SLOAD SWAP1 PUSH2 0x100 EXP SWAP1 DIV PUSH20 0xFFFFFFFFFFFFFFFFFFFFFFFFFFFFFFFFFFFFFFFF AND DUP2 JUMP JUMPDEST PUSH1 0x3 SLOAD DUP2 JUMP JUMPDEST PUSH0 DUP1 SLOAD SWAP1 PUSH2 0x100 EXP SWAP1 DIV PUSH20 0xFFFFFFFFFFFFFFFFFFFFFFFFFFFFFFFFFFFFFFFF AND PUSH20 0xFFFFFFFFFFFFFFFFFFFFFFFFFFFFFFFFFFFFFFFF AND CALLER PUSH20 0xFFFFFFFFFFFFFFFFFFFFFFFFFFFFFFFFFFFFFFFF AND EQ PUSH2 0x646 JUMPI PUSH1 0x40 MLOAD PUSH32 0x8C379A000000000000000000000000000000000000000000000000000000000 DUP2 MSTORE PUSH1 0x4 ADD PUSH2 0x63D SWAP1 PUSH2 0xE5B JUMP JUMPDEST PUSH1 0x40 MLOAD DUP1 SWAP2 SUB SWAP1 REVERT JUMPDEST PUSH0 PUSH1 0x5 PUSH0 PUSH1 0x4 PUSH0 DUP2 SLOAD DUP1 SWAP3 SWAP2 SWAP1 PUSH2 0x65C SWAP1 PUSH2 0x101F JUMP JUMPDEST SWAP2 SWAP1 POP SSTORE DUP2 MSTORE PUSH1 0x20 ADD SWAP1 DUP2 MSTORE PUSH1 0x20 ADD PUSH0 KECCAK256 SWAP1 POP DUP4 DUP2 PUSH0 ADD SWAP1 DUP2 PUSH2 0x67F SWAP2 SWAP1 PUSH2 0x1203 JUMP JUMPDEST POP DUP3 DUP2 PUSH1 0x1 ADD DUP2 SWAP1 SSTORE POP DUP2 DUP2 PUSH1 0x2 ADD PUSH0 PUSH2 0x100 EXP DUP2 SLOAD DUP2 PUSH20 0xFFFFFFFFFFFFFFFFFFFFFFFFFFFFFFFFFFFFFFFF MUL NOT AND SWAP1 DUP4 PUSH20 0xFFFFFFFFFFFFFFFFFFFFFFFFFFFFFFFFFFFFFFFF AND MUL OR SWAP1 SSTORE POP PUSH0 DUP2 PUSH1 0x2 ADD PUSH1 0x14 PUSH2 0x100 EXP DUP2 SLOAD DUP2 PUSH1 0xFF MUL NOT AND SWAP1 DUP4 ISZERO ISZERO MUL OR SWAP1 SSTORE POP PUSH0 DUP2 PUSH1 0x3 ADD DUP2 SWAP1 SSTORE POP POP POP POP POP JUMP JUMPDEST PUSH1 0x1 SLOAD DUP2 JUMP JUMPDEST PUSH1 0x1 SLOAD CALLVALUE LT ISZERO PUSH2 0x741 JUMPI PUSH1 0x40 MLOAD PUSH32 0x8C379A000000000000000000000000000000000000000000000000000000000 DUP2 MSTORE PUSH1 0x4 ADD PUSH2 0x738 SWAP1 PUSH2 0x1342 JUMP JUMPDEST PUSH1 0x40 MLOAD DUP1 SWAP2 SUB SWAP1 REVERT JUMPDEST PUSH1 0x1 PUSH1 0x2 PUSH0 CALLER PUSH20 0xFFFFFFFFFFFFFFFFFFFFFFFFFFFFFFFFFFFFFFFF AND PUSH20 0xFFFFFFFFFFFFFFFFFFFFFFFFFFFFFFFFFFFFFFFF AND DUP2 MSTORE PUSH1 0x20 ADD SWAP1 DUP2 MSTORE PUSH1 0x20 ADD PUSH0 KECCAK256 PUSH0 PUSH2 0x100 EXP DUP2 SLOAD DUP2 PUSH1 0xFF MUL NOT AND SWAP1 DUP4 ISZERO ISZERO MUL OR SWAP1 SSTORE POP PUSH1 0x3 PUSH0 DUP2 SLOAD DUP1 SWAP3 SWAP2 SWAP1 PUSH2 0x7A8 SWAP1 PUSH2 0x101F JUMP JUMPDEST SWAP2 SWAP1 POP SSTORE POP JUMP JUMPDEST PUSH0 PUSH1 0x5 PUSH0 DUP4 DUP2 MSTORE PUSH1 0x20 ADD SWAP1 DUP2 MSTORE PUSH1 0x20 ADD PUSH0 KECCAK256 SWAP1 POP PUSH1 0x2 PUSH0 CALLER PUSH20 0xFFFFFFFFFFFFFFFFFFFFFFFFFFFFFFFFFFFFFFFF AND PUSH20 0xFFFFFFFFFFFFFFFFFFFFFFFFFFFFFFFFFFFFFFFF AND DUP2 MSTORE PUSH1 0x20 ADD SWAP1 DUP2 MSTORE PUSH1 0x20 ADD PUSH0 KECCAK256 PUSH0 SWAP1 SLOAD SWAP1 PUSH2 0x100 EXP SWAP1 DIV PUSH1 0xFF AND PUSH2 0x84C JUMPI PUSH1 0x40 MLOAD PUSH32 0x8C379A000000000000000000000000000000000000000000000000000000000 DUP2 MSTORE PUSH1 0x4 ADD PUSH2 0x843 SWAP1 PUSH2 0x13D0 JUMP JUMPDEST PUSH1 0x40 MLOAD DUP1 SWAP2 SUB SWAP1 REVERT JUMPDEST DUP1 PUSH1 0x4 ADD PUSH0 CALLER PUSH20 0xFFFFFFFFFFFFFFFFFFFFFFFFFFFFFFFFFFFFFFFF AND PUSH20 0xFFFFFFFFFFFFFFFFFFFFFFFFFFFFFFFFFFFFFFFF AND DUP2 MSTORE PUSH1 0x20 ADD SWAP1 DUP2 MSTORE PUSH1 0x20 ADD PUSH0 KECCAK256 PUSH0 SWAP1 SLOAD SWAP1 PUSH2 0x100 EXP SWAP1 DIV PUSH1 0xFF AND ISZERO PUSH2 0x8D8 JUMPI PUSH1 0x40 MLOAD PUSH32 0x8C379A000000000000000000000000000000000000000000000000000000000 DUP2 MSTORE PUSH1 0x4 ADD PUSH2 0x8CF SWAP1 PUSH2 0x145E JUMP JUMPDEST PUSH1 0x40 MLOAD DUP1 SWAP2 SUB SWAP1 REVERT JUMPDEST PUSH1 0x1 DUP2 PUSH1 0x4 ADD PUSH0 CALLER PUSH20 0xFFFFFFFFFFFFFFFFFFFFFFFFFFFFFFFFFFFFFFFF AND PUSH20 0xFFFFFFFFFFFFFFFFFFFFFFFFFFFFFFFFFFFFFFFF AND DUP2 MSTORE PUSH1 0x20 ADD SWAP1 DUP2 MSTORE PUSH1 0x20 ADD PUSH0 KECCAK256 PUSH0 PUSH2 0x100 EXP DUP2 SLOAD DUP2 PUSH1 0xFF MUL NOT AND SWAP1 DUP4 ISZERO ISZERO MUL OR SWAP1 SSTORE POP DUP1 PUSH1 0x3 ADD PUSH0 DUP2 SLOAD DUP1 SWAP3 SWAP2 SWAP1 PUSH2 0x943 SWAP1 PUSH2 0x101F JUMP JUMPDEST SWAP2 SWAP1 POP SSTORE POP POP POP JUMP JUMPDEST PUSH0 PUSH1 0x40 MLOAD SWAP1 POP SWAP1 JUMP JUMPDEST PUSH0 DUP1 REVERT JUMPDEST PUSH0 DUP1 REVERT JUMPDEST PUSH0 DUP2 SWAP1 POP SWAP2 SWAP1 POP JUMP JUMPDEST PUSH2 0x96F DUP2 PUSH2 0x95D JUMP JUMPDEST DUP2 EQ PUSH2 0x979 JUMPI PUSH0 DUP1 REVERT JUMPDEST POP JUMP JUMPDEST PUSH0 DUP2 CALLDATALOAD SWAP1 POP PUSH2 0x98A DUP2 PUSH2 0x966 JUMP JUMPDEST SWAP3 SWAP2 POP POP JUMP JUMPDEST PUSH0 PUSH1 0x20 DUP3 DUP5 SUB SLT ISZERO PUSH2 0x9A5 JUMPI PUSH2 0x9A4 PUSH2 0x955 JUMP JUMPDEST JUMPDEST PUSH0 PUSH2 0x9B2 DUP5 DUP3 DUP6 ADD PUSH2 0x97C JUMP JUMPDEST SWAP2 POP POP SWAP3 SWAP2 POP POP JUMP JUMPDEST PUSH0 DUP2 MLOAD SWAP1 POP SWAP2 SWAP1 POP JUMP JUMPDEST PUSH0 DUP3 DUP3 MSTORE PUSH1 0x20 DUP3 ADD SWAP1 POP SWAP3 SWAP2 POP POP JUMP JUMPDEST PUSH0 JUMPDEST DUP4 DUP2 LT ISZERO PUSH2 0x9F2 JUMPI DUP1 DUP3 ADD MLOAD DUP2 DUP5 ADD MSTORE PUSH1 0x20 DUP2 ADD SWAP1 POP PUSH2 0x9D7 JUMP JUMPDEST PUSH0 DUP5 DUP5 ADD MSTORE POP POP POP POP JUMP JUMPDEST PUSH0 PUSH1 0x1F NOT PUSH1 0x1F DUP4 ADD AND SWAP1 POP SWAP2 SWAP1 POP JUMP JUMPDEST PUSH0 PUSH2 0xA17 DUP3 PUSH2 0x9BB JUMP JUMPDEST PUSH2 0xA21 DUP2 DUP6 PUSH2 0x9C5 JUMP JUMPDEST SWAP4 POP PUSH2 0xA31 DUP2 DUP6 PUSH1 0x20 DUP7 ADD PUSH2 0x9D5 JUMP JUMPDEST PUSH2 0xA3A DUP2 PUSH2 0x9FD JUMP JUMPDEST DUP5 ADD SWAP2 POP POP SWAP3 SWAP2 POP POP JUMP JUMPDEST PUSH2 0xA4E DUP2 PUSH2 0x95D JUMP JUMPDEST DUP3 MSTORE POP POP JUMP JUMPDEST PUSH0 PUSH20 0xFFFFFFFFFFFFFFFFFFFFFFFFFFFFFFFFFFFFFFFF DUP3 AND SWAP1 POP SWAP2 SWAP1 POP JUMP JUMPDEST PUSH0 PUSH2 0xA7D DUP3 PUSH2 0xA54 JUMP JUMPDEST SWAP1 POP SWAP2 SWAP1 POP JUMP JUMPDEST PUSH2 0xA8D DUP2 PUSH2 0xA73 JUMP JUMPDEST DUP3 MSTORE POP POP JUMP JUMPDEST PUSH0 DUP2 ISZERO ISZERO SWAP1 POP SWAP2 SWAP1 POP JUMP JUMPDEST PUSH2 0xAA7 DUP2 PUSH2 0xA93 JUMP JUMPDEST DUP3 MSTORE POP POP JUMP JUMPDEST PUSH0 PUSH1 0xA0 DUP3 ADD SWAP1 POP DUP2 DUP2 SUB PUSH0 DUP4 ADD MSTORE PUSH2 0xAC5 DUP2 DUP9 PUSH2 0xA0D JUMP JUMPDEST SWAP1 POP PUSH2 0xAD4 PUSH1 0x20 DUP4 ADD DUP8 PUSH2 0xA45 JUMP JUMPDEST PUSH2 0xAE1 PUSH1 0x40 DUP4 ADD DUP7 PUSH2 0xA84 JUMP JUMPDEST PUSH2 0xAEE PUSH1 0x60 DUP4 ADD DUP6 PUSH2 0xA9E JUMP JUMPDEST PUSH2 0xAFB PUSH1 0x80 DUP4 ADD DUP5 PUSH2 0xA45 JUMP JUMPDEST SWAP7 SWAP6 POP POP POP POP POP POP JUMP JUMPDEST PUSH0 PUSH1 0x20 DUP3 ADD SWAP1 POP PUSH2 0xB18 PUSH0 DUP4 ADD DUP5 PUSH2 0xA45 JUMP JUMPDEST SWAP3 SWAP2 POP POP JUMP JUMPDEST PUSH2 0xB27 DUP2 PUSH2 0xA73 JUMP JUMPDEST DUP2 EQ PUSH2 0xB31 JUMPI PUSH0 DUP1 REVERT JUMPDEST POP JUMP JUMPDEST PUSH0 DUP2 CALLDATALOAD SWAP1 POP PUSH2 0xB42 DUP2 PUSH2 0xB1E JUMP JUMPDEST SWAP3 SWAP2 POP POP JUMP JUMPDEST PUSH0 PUSH1 0x20 DUP3 DUP5 SUB SLT ISZERO PUSH2 0xB5D JUMPI PUSH2 0xB5C PUSH2 0x955 JUMP JUMPDEST JUMPDEST PUSH0 PUSH2 0xB6A DUP5 DUP3 DUP6 ADD PUSH2 0xB34 JUMP JUMPDEST SWAP2 POP POP SWAP3 SWAP2 POP POP JUMP JUMPDEST PUSH0 PUSH1 0x20 DUP3 ADD SWAP1 POP PUSH2 0xB86 PUSH0 DUP4 ADD DUP5 PUSH2 0xA9E JUMP JUMPDEST SWAP3 SWAP2 POP POP JUMP JUMPDEST PUSH0 PUSH1 0xA0 DUP3 ADD SWAP1 POP PUSH2 0xB9F PUSH0 DUP4 ADD DUP9 PUSH2 0xA45 JUMP JUMPDEST PUSH2 0xBAC PUSH1 0x20 DUP4 ADD DUP8 PUSH2 0xA45 JUMP JUMPDEST PUSH2 0xBB9 PUSH1 0x40 DUP4 ADD DUP7 PUSH2 0xA45 JUMP JUMPDEST PUSH2 0xBC6 PUSH1 0x60 DUP4 ADD DUP6 PUSH2 0xA45 JUMP JUMPDEST PUSH2 0xBD3 PUSH1 0x80 DUP4 ADD DUP5 PUSH2 0xA84 JUMP JUMPDEST SWAP7 SWAP6 POP POP POP POP POP POP JUMP JUMPDEST PUSH0 PUSH1 0x20 DUP3 ADD SWAP1 POP PUSH2 0xBF0 PUSH0 DUP4 ADD DUP5 PUSH2 0xA84 JUMP JUMPDEST SWAP3 SWAP2 POP POP JUMP JUMPDEST PUSH0 DUP1 REVERT JUMPDEST PUSH0 DUP1 REVERT JUMPDEST PUSH32 0x4E487B7100000000000000000000000000000000000000000000000000000000 PUSH0 MSTORE PUSH1 0x41 PUSH1 0x4 MSTORE PUSH1 0x24 PUSH0 REVERT JUMPDEST PUSH2 0xC34 DUP3 PUSH2 0x9FD JUMP JUMPDEST DUP2 ADD DUP2 DUP2 LT PUSH8 0xFFFFFFFFFFFFFFFF DUP3 GT OR ISZERO PUSH2 0xC53 JUMPI PUSH2 0xC52 PUSH2 0xBFE JUMP JUMPDEST JUMPDEST DUP1 PUSH1 0x40 MSTORE POP POP POP JUMP JUMPDEST PUSH0 PUSH2 0xC65 PUSH2 0x94C JUMP JUMPDEST SWAP1 POP PUSH2 0xC71 DUP3 DUP3 PUSH2 0xC2B JUMP JUMPDEST SWAP2 SWAP1 POP JUMP JUMPDEST PUSH0 PUSH8 0xFFFFFFFFFFFFFFFF DUP3 GT ISZERO PUSH2 0xC90 JUMPI PUSH2 0xC8F PUSH2 0xBFE JUMP JUMPDEST JUMPDEST PUSH2 0xC99 DUP3 PUSH2 0x9FD JUMP JUMPDEST SWAP1 POP PUSH1 0x20 DUP2 ADD SWAP1 POP SWAP2 SWAP1 POP JUMP JUMPDEST DUP3 DUP2 DUP4 CALLDATACOPY PUSH0 DUP4 DUP4 ADD MSTORE POP POP POP JUMP JUMPDEST PUSH0 PUSH2 0xCC6 PUSH2 0xCC1 DUP5 PUSH2 0xC76 JUMP JUMPDEST PUSH2 0xC5C JUMP JUMPDEST SWAP1 POP DUP3 DUP2 MSTORE PUSH1 0x20 DUP2 ADD DUP5 DUP5 DUP5 ADD GT ISZERO PUSH2 0xCE2 JUMPI PUSH2 0xCE1 PUSH2 0xBFA JUMP JUMPDEST JUMPDEST PUSH2 0xCED DUP5 DUP3 DUP6 PUSH2 0xCA6 JUMP JUMPDEST POP SWAP4 SWAP3 POP POP POP JUMP JUMPDEST PUSH0 DUP3 PUSH1 0x1F DUP4 ADD SLT PUSH2 0xD09 JUMPI PUSH2 0xD08 PUSH2 0xBF6 JUMP JUMPDEST JUMPDEST DUP2 CALLDATALOAD PUSH2 0xD19 DUP5 DUP3 PUSH1 0x20 DUP7 ADD PUSH2 0xCB4 JUMP JUMPDEST SWAP2 POP POP SWAP3 SWAP2 POP POP JUMP JUMPDEST PUSH0 DUP1 PUSH0 PUSH1 0x60 DUP5 DUP7 SUB SLT ISZERO PUSH2 0xD39 JUMPI PUSH2 0xD38 PUSH2 0x955 JUMP JUMPDEST JUMPDEST PUSH0 DUP5 ADD CALLDATALOAD PUSH8 0xFFFFFFFFFFFFFFFF DUP2 GT ISZERO PUSH2 0xD56 JUMPI PUSH2 0xD55 PUSH2 0x959 JUMP JUMPDEST JUMPDEST PUSH2 0xD62 DUP7 DUP3 DUP8 ADD PUSH2 0xCF5 JUMP JUMPDEST SWAP4 POP POP PUSH1 0x20 PUSH2 0xD73 DUP7 DUP3 DUP8 ADD PUSH2 0x97C JUMP JUMPDEST SWAP3 POP POP PUSH1 0x40 PUSH2 0xD84 DUP7 DUP3 DUP8 ADD PUSH2 0xB34 JUMP JUMPDEST SWAP2 POP POP SWAP3 POP SWAP3 POP SWAP3 JUMP JUMPDEST PUSH32 0x4E487B7100000000000000000000000000000000000000000000000000000000 PUSH0 MSTORE PUSH1 0x22 PUSH1 0x4 MSTORE PUSH1 0x24 PUSH0 REVERT JUMPDEST PUSH0 PUSH1 0x2 DUP3 DIV SWAP1 POP PUSH1 0x1 DUP3 AND DUP1 PUSH2 0xDD2 JUMPI PUSH1 0x7F DUP3 AND SWAP2 POP JUMPDEST PUSH1 0x20 DUP3 LT DUP2 SUB PUSH2 0xDE5 JUMPI PUSH2 0xDE4 PUSH2 0xD8E JUMP JUMPDEST JUMPDEST POP SWAP2 SWAP1 POP JUMP JUMPDEST PUSH32 0x4F6E6C79207468652063616D706169676E206D616E616765722063616E206361 PUSH0 DUP3 ADD MSTORE PUSH32 0x6C6C20746869732066756E6374696F6E2E000000000000000000000000000000 PUSH1 0x20 DUP3 ADD MSTORE POP JUMP JUMPDEST PUSH0 PUSH2 0xE45 PUSH1 0x31 DUP4 PUSH2 0x9C5 JUMP JUMPDEST SWAP2 POP PUSH2 0xE50 DUP3 PUSH2 0xDEB JUMP JUMPDEST PUSH1 0x40 DUP3 ADD SWAP1 POP SWAP2 SWAP1 POP JUMP JUMPDEST PUSH0 PUSH1 0x20 DUP3 ADD SWAP1 POP DUP2 DUP2 SUB PUSH0 DUP4 ADD MSTORE PUSH2 0xE72 DUP2 PUSH2 0xE39 JUMP JUMPDEST SWAP1 POP SWAP2 SWAP1 POP JUMP JUMPDEST PUSH32 0x4E487B7100000000000000000000000000000000000000000000000000000000 PUSH0 MSTORE PUSH1 0x12 PUSH1 0x4 MSTORE PUSH1 0x24 PUSH0 REVERT JUMPDEST PUSH32 0x4E487B7100000000000000000000000000000000000000000000000000000000 PUSH0 MSTORE PUSH1 0x11 PUSH1 0x4 MSTORE PUSH1 0x24 PUSH0 REVERT JUMPDEST PUSH0 PUSH2 0xEDD DUP3 PUSH2 0x95D JUMP JUMPDEST SWAP2 POP PUSH2 0xEE8 DUP4 PUSH2 0x95D JUMP JUMPDEST SWAP3 POP DUP3 PUSH2 0xEF8 JUMPI PUSH2 0xEF7 PUSH2 0xE79 JUMP JUMPDEST JUMPDEST DUP3 DUP3 DIV SWAP1 POP SWAP3 SWAP2 POP POP JUMP JUMPDEST PUSH32 0x546869732072657175657374206E65656473206D6F726520617070726F76616C PUSH0 DUP3 ADD MSTORE PUSH32 0x73206265666F72652069742063616E2062652066696E616C697A656400000000 PUSH1 0x20 DUP3 ADD MSTORE POP JUMP JUMPDEST PUSH0 PUSH2 0xF5D PUSH1 0x3C DUP4 PUSH2 0x9C5 JUMP JUMPDEST SWAP2 POP PUSH2 0xF68 DUP3 PUSH2 0xF03 JUMP JUMPDEST PUSH1 0x40 DUP3 ADD SWAP1 POP SWAP2 SWAP1 POP JUMP JUMPDEST PUSH0 PUSH1 0x20 DUP3 ADD SWAP1 POP DUP2 DUP2 SUB PUSH0 DUP4 ADD MSTORE PUSH2 0xF8A DUP2 PUSH2 0xF51 JUMP JUMPDEST SWAP1 POP SWAP2 SWAP1 POP JUMP JUMPDEST PUSH32 0x5468697320726571756573742068617320616C7265616479206265656E206669 PUSH0 DUP3 ADD MSTORE PUSH32 0x6E616C697A656400000000000000000000000000000000000000000000000000 PUSH1 0x20 DUP3 ADD MSTORE POP JUMP JUMPDEST PUSH0 PUSH2 0xFEB PUSH1 0x27 DUP4 PUSH2 0x9C5 JUMP JUMPDEST SWAP2 POP PUSH2 0xFF6 DUP3 PUSH2 0xF91 JUMP JUMPDEST PUSH1 0x40 DUP3 ADD SWAP1 POP SWAP2 SWAP1 POP JUMP JUMPDEST PUSH0 PUSH1 0x20 DUP3 ADD SWAP1 POP DUP2 DUP2 SUB PUSH0 DUP4 ADD MSTORE PUSH2 0x1018 DUP2 PUSH2 0xFDF JUMP JUMPDEST SWAP1 POP SWAP2 SWAP1 POP JUMP JUMPDEST PUSH0 PUSH2 0x1029 DUP3 PUSH2 0x95D JUMP JUMPDEST SWAP2 POP PUSH32 0xFFFFFFFFFFFFFFFFFFFFFFFFFFFFFFFFFFFFFFFFFFFFFFFFFFFFFFFFFFFFFFFF DUP3 SUB PUSH2 0x105B JUMPI PUSH2 0x105A PUSH2 0xEA6 JUMP JUMPDEST JUMPDEST PUSH1 0x1 DUP3 ADD SWAP1 POP SWAP2 SWAP1 POP JUMP JUMPDEST PUSH0 DUP2 SWAP1 POP DUP2 PUSH0 MSTORE PUSH1 0x20 PUSH0 KECCAK256 SWAP1 POP SWAP2 SWAP1 POP JUMP JUMPDEST PUSH0 PUSH1 0x20 PUSH1 0x1F DUP4 ADD DIV SWAP1 POP SWAP2 SWAP1 POP JUMP JUMPDEST PUSH0 DUP3 DUP3 SHL SWAP1 POP SWAP3 SWAP2 POP POP JUMP JUMPDEST PUSH0 PUSH1 0x8 DUP4 MUL PUSH2 0x10C2 PUSH32 0xFFFFFFFFFFFFFFFFFFFFFFFFFFFFFFFFFFFFFFFFFFFFFFFFFFFFFFFFFFFFFFFF DUP3 PUSH2 0x1087 JUMP JUMPDEST PUSH2 0x10CC DUP7 DUP4 PUSH2 0x1087 JUMP JUMPDEST SWAP6 POP DUP1 NOT DUP5 AND SWAP4 POP DUP1 DUP7 AND DUP5 OR SWAP3 POP POP POP SWAP4 SWAP3 POP POP POP JUMP JUMPDEST PUSH0 DUP2 SWAP1 POP SWAP2 SWAP1 POP JUMP JUMPDEST PUSH0 PUSH2 0x1107 PUSH2 0x1102 PUSH2 0x10FD DUP5 PUSH2 0x95D JUMP JUMPDEST PUSH2 0x10E4 JUMP JUMPDEST PUSH2 0x95D JUMP JUMPDEST SWAP1 POP SWAP2 SWAP1 POP JUMP JUMPDEST PUSH0 DUP2 SWAP1 POP SWAP2 SWAP1 POP JUMP JUMPDEST PUSH2 0x1120 DUP4 PUSH2 0x10ED JUMP JUMPDEST PUSH2 0x1134 PUSH2 0x112C DUP3 PUSH2 0x110E JUMP JUMPDEST DUP5 DUP5 SLOAD PUSH2 0x1093 JUMP JUMPDEST DUP3 SSTORE POP POP POP POP JUMP JUMPDEST PUSH0 SWAP1 JUMP JUMPDEST PUSH2 0x1148 PUSH2 0x113C JUMP JUMPDEST PUSH2 0x1153 DUP2 DUP5 DUP5 PUSH2 0x1117 JUMP JUMPDEST POP POP POP JUMP JUMPDEST JUMPDEST DUP2 DUP2 LT ISZERO PUSH2 0x1176 JUMPI PUSH2 0x116B PUSH0 DUP3 PUSH2 0x1140 JUMP JUMPDEST PUSH1 0x1 DUP2 ADD SWAP1 POP PUSH2 0x1159 JUMP JUMPDEST POP POP JUMP JUMPDEST PUSH1 0x1F DUP3 GT ISZERO PUSH2 0x11BB JUMPI PUSH2 0x118C DUP2 PUSH2 0x1066 JUMP JUMPDEST PUSH2 0x1195 DUP5 PUSH2 0x1078 JUMP JUMPDEST DUP2 ADD PUSH1 0x20 DUP6 LT ISZERO PUSH2 0x11A4 JUMPI DUP2 SWAP1 POP JUMPDEST PUSH2 0x11B8 PUSH2 0x11B0 DUP6 PUSH2 0x1078 JUMP JUMPDEST DUP4 ADD DUP3 PUSH2 0x1158 JUMP JUMPDEST POP POP JUMPDEST POP POP POP JUMP JUMPDEST PUSH0 DUP3 DUP3 SHR SWAP1 POP SWAP3 SWAP2 POP POP JUMP JUMPDEST PUSH0 PUSH2 0x11DB PUSH0 NOT DUP5 PUSH1 0x8 MUL PUSH2 0x11C0 JUMP JUMPDEST NOT DUP1 DUP4 AND SWAP2 POP POP SWAP3 SWAP2 POP POP JUMP JUMPDEST PUSH0 PUSH2 0x11F3 DUP4 DUP4 PUSH2 0x11CC JUMP JUMPDEST SWAP2 POP DUP3 PUSH1 0x2 MUL DUP3 OR SWAP1 POP SWAP3 SWAP2 POP POP JUMP JUMPDEST PUSH2 0x120C DUP3 PUSH2 0x9BB JUMP JUMPDEST PUSH8 0xFFFFFFFFFFFFFFFF DUP2 GT ISZERO PUSH2 0x1225 JUMPI PUSH2 0x1224 PUSH2 0xBFE JUMP JUMPDEST JUMPDEST PUSH2 0x122F DUP3 SLOAD PUSH2 0xDBB JUMP JUMPDEST PUSH2 0x123A DUP3 DUP3 DUP6 PUSH2 0x117A JUMP JUMPDEST PUSH0 PUSH1 0x20 SWAP1 POP PUSH1 0x1F DUP4 GT PUSH1 0x1 DUP2 EQ PUSH2 0x126B JUMPI PUSH0 DUP5 ISZERO PUSH2 0x1259 JUMPI DUP3 DUP8 ADD MLOAD SWAP1 POP JUMPDEST PUSH2 0x1263 DUP6 DUP3 PUSH2 0x11E8 JUMP JUMPDEST DUP7 SSTORE POP PUSH2 0x12CA JUMP JUMPDEST PUSH1 0x1F NOT DUP5 AND PUSH2 0x1279 DUP7 PUSH2 0x1066 JUMP JUMPDEST PUSH0 JUMPDEST DUP3 DUP2 LT ISZERO PUSH2 0x12A0 JUMPI DUP5 DUP10 ADD MLOAD DUP3 SSTORE PUSH1 0x1 DUP3 ADD SWAP2 POP PUSH1 0x20 DUP6 ADD SWAP5 POP PUSH1 0x20 DUP2 ADD SWAP1 POP PUSH2 0x127B JUMP JUMPDEST DUP7 DUP4 LT ISZERO PUSH2 0x12BD JUMPI DUP5 DUP10 ADD MLOAD PUSH2 0x12B9 PUSH1 0x1F DUP10 AND DUP3 PUSH2 0x11CC JUMP JUMPDEST DUP4 SSTORE POP JUMPDEST PUSH1 0x1 PUSH1 0x2 DUP9 MUL ADD DUP9 SSTORE POP POP POP JUMPDEST POP POP POP POP POP POP JUMP JUMPDEST PUSH32 0x41206D696E696D756D20636F6E747269627574696F6E20697320726571756972 PUSH0 DUP3 ADD MSTORE PUSH32 0x6564000000000000000000000000000000000000000000000000000000000000 PUSH1 0x20 DUP3 ADD MSTORE POP JUMP JUMPDEST PUSH0 PUSH2 0x132C PUSH1 0x22 DUP4 PUSH2 0x9C5 JUMP JUMPDEST SWAP2 POP PUSH2 0x1337 DUP3 PUSH2 0x12D2 JUMP JUMPDEST PUSH1 0x40 DUP3 ADD SWAP1 POP SWAP2 SWAP1 POP JUMP JUMPDEST PUSH0 PUSH1 0x20 DUP3 ADD SWAP1 POP DUP2 DUP2 SUB PUSH0 DUP4 ADD MSTORE PUSH2 0x1359 DUP2 PUSH2 0x1320 JUMP JUMPDEST SWAP1 POP SWAP2 SWAP1 POP JUMP JUMPDEST PUSH32 0x4F6E6C7920636F6E7472696275746F72732063616E20617070726F7665206120 PUSH0 DUP3 ADD MSTORE PUSH32 0x7370656369666963207061796D656E7420726571756573740000000000000000 PUSH1 0x20 DUP3 ADD MSTORE POP JUMP JUMPDEST PUSH0 PUSH2 0x13BA PUSH1 0x38 DUP4 PUSH2 0x9C5 JUMP JUMPDEST SWAP2 POP PUSH2 0x13C5 DUP3 PUSH2 0x1360 JUMP JUMPDEST PUSH1 0x40 DUP3 ADD SWAP1 POP SWAP2 SWAP1 POP JUMP JUMPDEST PUSH0 PUSH1 0x20 DUP3 ADD SWAP1 POP DUP2 DUP2 SUB PUSH0 DUP4 ADD MSTORE PUSH2 0x13E7 DUP2 PUSH2 0x13AE JUMP JUMPDEST SWAP1 POP SWAP2 SWAP1 POP JUMP JUMPDEST PUSH32 0x596F75206861766520616C726561647920766F74656420746F20617070726F76 PUSH0 DUP3 ADD MSTORE PUSH32 0x6520746869732072657175657374000000000000000000000000000000000000 PUSH1 0x20 DUP3 ADD MSTORE POP JUMP JUMPDEST PUSH0 PUSH2 0x1448 PUSH1 0x2E DUP4 PUSH2 0x9C5 JUMP JUMPDEST SWAP2 POP PUSH2 0x1453 DUP3 PUSH2 0x13EE JUMP JUMPDEST PUSH1 0x40 DUP3 ADD SWAP1 POP SWAP2 SWAP1 POP JUMP JUMPDEST PUSH0 PUSH1 0x20 DUP3 ADD SWAP1 POP DUP2 DUP2 SUB PUSH0 DUP4 ADD MSTORE PUSH2 0x1475 DUP2 PUSH2 0x143C JUMP JUMPDEST SWAP1 POP SWAP2 SWAP1 POP JUMP INVALID LOG2 PUSH5 0x6970667358 0x22 SLT KECCAK256 DUP15 PUSH24 0x522E5BB4F725D0DF5CBCC9804F5BBC897A2950B6BC66FD96 0xEB 0x29 0xF6 PUSH29 0xB33564736F6C63430008170033A26469706673582212204CBD195448A8 SWAP2 KECCAK256 SWAP7 0xCE SELFBALANCE 0xFC 0xCE 0xB6 EXTCODECOPY BLOCKHASH ADDRESS DIV INVALID 0xBC 0xE DUP12 PUSH29 0x2858D7976FA6F43B7364736F6C63430008170033000000000000000000 "
    },
    "gasEstimates": {
      "creation": {
        "codeDepositCost": "1361000",
        "executionCost": "1415",
        "totalCost": "1362415"
      },
      "external": {
        "createCampanha(uint256)": "infinite",
        "deployedCampaigns(uint256)": "infinite",
        "getDeployedCampaigns()": "infinite"
      }
    },
    "methodIdentifiers": {
      "createCampanha(uint256)": "216402ab",
      "deployedCampaigns(uint256)": "339d50a5",
      "getDeployedCampaigns()": "4acb9d4f"
    }
  },
  "storageLayout": {
    "storage": [
      {
        "astId": 5,
        "contract": "Campanha.sol:CampanhaFactory",
        "label": "deployedCampaigns",
        "offset": 0,
        "slot": "0",
        "type": "t_array(t_contract(Campanha)299)dyn_storage"
      }
    ],
    "types": {
      "t_array(t_contract(Campanha)299)dyn_storage": {
        "base": "t_contract(Campanha)299",
        "encoding": "dynamic_array",
        "label": "contract Campanha[]",
        "numberOfBytes": "32"
      },
      "t_contract(Campanha)299": {
        "encoding": "inplace",
        "label": "contract Campanha",
        "numberOfBytes": "20"
      }
    }
  },
  "userdoc": {
    "kind": "user",
    "methods": {},
    "version": 1
  }
}